:020000040800F2
:1000000000000220851A0008D50C0008D70C000853
:10001000D90C0008DB0C0008DD0C00080000000013
:10002000000000000000000000000000DF0C0008DD
:10003000E10C000800000000E30C0008E50C0008DB
:10004000D51A0008D51A0008D51A0008D51A0008D4
:10005000D51A0008D51A0008D51A0008D51A0008C4
:10006000D51A0008D51A0008D51A0008D51A0008B4
:10007000D51A0008D51A0008D51A0008D51A0008A4
:10008000D51A0008D51A0008D51A0008D51A000894
:10009000D51A0008D51A0008D51A0008D51A000884
:1000A000D51A0008D51A0008D51A0008D51A000874
:1000B000D51A0008D51A0008D51A0008D51A000864
:1000C000D51A0008D51A0008D51A0008D51A000854
:1000D000D51A0008D51A0008D51A0008D51A000844
:1000E000D51A0008D51A0008D51A0008D51A000834
:1000F000D51A0008D51A0008D51A0008D51A000824
:10010000D51A0008D51A0008353D0008D51A000890
:10011000D51A0008D51A0008D51A0008D51A000803
:10012000D51A0008D51A0008D51A0008D51A0008F3
:10013000D51A00080000000000000000D51A0008D1
:10014000D51A0008D51A0008D51A0008D51A0008D3
:10015000D51A0008D51A0008D51A0008D51A0008C3
:10016000D51A0008D51A0008D51A0008D51A0008B3
:10017000D51A0008D51A0008D51A0008000000009A
:1001800000000000D51A0008000000000000000078
:10019000D51A00080000000000000000D51A000871
:1001A000000000000000000000000000D51A000858
:1001B000D51A0008D51A0008D51A0008D51A000863
:0401C000D51A000844
:1001D0007BB972B90029BEBF00204FF0004106E094
:1001E00008BF00281CBF6FF000414FF0FF3000F047
:1001F00057B8ADF1080C6DE904CE002909DB002BDE
:100200001ADB03F035FEDDF804E0DDE9022304B07B
:100210007047404261EB4101002B1BDB03F028FEDD
:10022000DDF804E0DDE9022304B0404261EB410166
:10023000524263EB43037047524263EB430303F0C4
:1002400017FEDDF804E0DDE9022304B0404261EB73
:1002500041017047524263EB430303F009FEDDF8AE
:1002600004E0DDE9022304B0524263EB430370472C
:1002700053B94AB9002908BF00281CBF4FF0FF310D
:100280004FF0FF3000F00CB8ADF1080C6DE904CE72
:1002900003F0EEFDDDF804E0DDE9022304B0704771
:1002A000704700BF000000000000000000000000D8
:1002B00001F0FF01102A2BDB10F0070F08D010F817
:1002C000013B013A8B422DD010F0070F42B3F6D11B
:1002D000F0B441EA012141EA014122F007047FF034
:1002E00000070023F0E80256083C85EA010586EA8B
:1002F000010685FA47F5A3FA87F586FA47F6A5FAC7
:1003000087F68EB9EED1F0BC01F0FF0102F00702D2
:1003100032B110F8013B013A83EA010313B1F8D17D
:100320000020704701387047002D06BF354603385E
:10033000073815F0010F07D1013015F4807F02BF97
:10034000013015F4C03F0130F0BC0138704700BFE8
:10035000034613F8012B002AFBD1181A0138704705
:1003600010F8012B11F8013B012A28BF9A42F7D05F
:10037000D01A70470348044B834202D0034B03B1A9
:10038000184770478C0000208C00002000000000FF
:100390000548064B1B1AD90F01EBA301491002D0E7
:1003A000034B03B1184770478C0000208C000020DD
:1003B0000000000010B5064C237843B9FFF7DAFFC0
:1003C000044B13B10448AFF300800123237010BD28
:1003D0009000002000000000E053000808B5054B25
:1003E0001BB105490548AFF30080BDE80840FFF7A1
:1003F000CFBF00BF0000000094000020E0530008C1
:1004000008B5064B044613B1002104F0F5FC044B7B
:100410001B6803B19847204604F0E0FFF94D00083F
:10042000E4010020002310B50446C0E90033C0E910
:100430000433836081814366C28183611946082247
:100440005C3000F0B1F80D4B63620D4BA3620D4BB5
:10045000E3620D4B23630D4B24629C4206D003F1F3
:100460006802944202D0D0339C4205D104F1580076
:10047000BDE8104000F0C4B810BD00BFBD080008C2
:10048000DF080008170900083B090008AC0000203D
:10049000024A0349034800F069B800BF0000002089
:1004A000550800081000002041680C4B994210B517
:1004B000044601D000F0CEF9A168094B994202D060
:1004C000204600F0C7F9E168064B994204D0204667
:1004D000BDE8104000F0BEB910BD00BFAC00002068
:1004E000140100207C01002010B50B4B0B4C0C4A72
:1004F0001A60204600220421FFF794FF04F16800EF
:1005000001220921FFF78EFF04F1D0000222BDE88D
:1005100010401221FFF786BFE4010020AC0000204C
:1005200091040008014800F06CB800BFEA01002007
:10053000014800F067B800BFEA01002010B504468A
:10054000FFF7F0FF236A1BB1BDE81040FFF7F0BFD3
:10055000044B2362044B1B68002BF5D1FFF7C4FF4B
:10056000F2E700BFA9040008E40100202DE9F843E8
:100570000746884614460026D4E90195B9F10109D9
:1005800005D52468002CF7D13046BDE8F883AB8947
:10059000012B07D9B5F90E30013303D0294638466F
:1005A000C04706436835E9E702440346934200D159
:1005B000704703F8011BF9E770B50D4D0D4C641B36
:1005C000A4100026A64209D10B4D0C4C04F008FFE4
:1005D000641BA4100026A64205D170BD55F8043B4B
:1005E00098470136EEE755F8043B98470136F2E7A5
:1005F0002866000828660008286600082C6600089F
:10060000704770477047000070B50F4E0C46316858
:10061000054611B900F0CAF930602146284600F0BD
:10062000C5F9431C03D14FF0FF34204670BDC41CF4
:1006300024F00304A042F8D0211A284600F0B6F9AD
:100640000130F2D1EFE700BFEC0100202DE9F843C3
:10065000CD1C25F0030508350C2D38BF0C25002DC9
:10066000064601DBA94204D90C2333600020BDE813
:10067000F883DFF8D48000F015F9D8F800301C4674
:1006800044BB29463046FFF7BFFF431C044658D100
:10069000D8F800402746002F43D1002C4BD02368C8
:1006A0003946304604EB030900F080F9814542D118
:1006B00021686D1A29463046FFF7A6FF01303AD06F
:1006C00023682B442360D8F800305A6862BBC8F80E
:1006D00000700FE02268521B20D40B2A17D9611931
:1006E000A342256018BF5960636808BFC8F80010AE
:1006F00062514B60304600F0DBF804F10B00231D23
:1007000020F00700C21A1CBF1B1AA350AFE7626893
:10071000A3420CBFC8F800205A60EBE72346646888
:10072000AEE73C467F68B6E71A465B68A342FBD15A
:1007300000235360DEE70C233360304600F0B8F846
:1007400094E70560D6E700BFF0010020B1F90C2066
:100750002DE9F041170705460C4656D44B68002B8F
:1007600002DC0B6C002B3DDDE66A002E3AD0002344
:1007700012F480522F68216A2B6025D0626DA38904
:10078000580705D56368D21A636B0BB1236CD21A74
:10079000216AE66A00232846B047411C24D0002382
:1007A000636023692360A389DA0400D56065616B07
:1007B0002F60B9B104F14403994202D0284600F0F9
:1007C00017F9002363630DE001232846B047461C58
:1007D0000246D4D12B68002BD1D01D2B01D0162B73
:1007E0002BD12F6000202FE02A68B4F90C3042B1E1
:1007F0001D2A01D0162A22D10023636023692360B9
:10080000D5E7626022692260CEE70F69002FE9D048
:1008100093070E6808BF4B690F6018BF0023A6EB53
:1008200007088B60B8F1000FDCDD216AA66A434639
:100830003A462846B047002808DCB4F90C3043F0AB
:100840004003A3814FF0FF30BDE8F0810744A8EBDF
:100850000008E7E738B50B6905460C4613B90025D3
:10086000284638BD18B1036A0BB9FFF767FEB4F923
:100870000C30002BF3D0626ED00704D4990502D45B
:10088000A06DFFF7BEFE28462146FFF75FFF636EAF
:10089000DA070546E4D4A3899B05E1D4A06DFFF7F0
:1008A000B1FEDDE70148FFF7ACBE00BFE801002064
:1008B0000148FFF7A7BE00BFE801002010B50C46B5
:1008C000B1F90E1000F060F80028ABBF636DA3898A
:1008D0001B1823F48053ACBF6365A38110BD2DE9C1
:1008E000F0411F468B89DB0505460C46164605D5AB
:1008F000B1F90E100223002200F034F8A389B4F9F4
:100900000E1023F48053A38132463B462846BDE8AF
:10091000F04100F05BB810B50C46B1F90E1000F0D4
:1009200021F8431CA38915BF606523F4805343F469
:100930008053A38118BFA38110BDB1F90E1000F040
:1009400001B8000038B5064D0023044608462B6068
:1009500004F0FEFC431C02D12B6803B1236038BDB8
:10096000F401002038B5074D044608461146002220
:100970002A601A4604F014FD431C02D12B6803B10F
:10098000236038BDF401002038B5074D0446084601
:10099000114600222A601A4604F00AFD431C02D1C7
:1009A0002B6803B1236038BDF401002038B5064D33
:1009B0000023044608462B6004F002FD431C02D1CC
:1009C0002B6803B1236038BDF401002038B5074D12
:1009D00004460846114600222A601A4600F07CF8B8
:1009E000431C02D12B6803B1236038BDF401002001
:1009F00038B50546002941D051F8043C0C1F002BA6
:100A0000B8BFE418FFF74EFF1D4A136833B963609F
:100A100014602846BDE83840FFF74ABFA34208D912
:100A2000206821188B4201BF19685B680918216092
:100A3000EDE71A465B680BB1A342FAD9116850186A
:100A4000A0420BD120680144501883421160E0D1CC
:100A500018685B68536008441060DAE702D90C2319
:100A60002B60D6E7206821188B4204BF19685B68A9
:100A7000636004BF091821605460CAE738BD00BF35
:100A8000F001002030B587B0002401940294039453
:100A90000494059400940E4B1A6B42F001021A6301
:100AA0001B6B03F001030093009B0A4D224620219B
:100AB000284600F0E5FA20230193012302930394D2
:100AC000049401A9284600F0EBF907B030BD00BF3F
:100AD000003802400000024010B514464FF0FF33CA
:100AE00092B2024800F061FF204610BDF8010020DC
:100AF00072B6FEE708B50A480A4B03604FF4E133CB
:100B0000436000238360C36003610C224261836100
:100B1000C36100F01BFF00B908BDFFF7E9FF00BF8C
:100B2000F80100200044004000B595B034220021B7
:100B300007A8FFF739FD002302930393049305935D
:100B400006930093194A116C41F080511164126CA4
:100B500002F080520092009A019315490A6822F42B
:100B6000404242F480420A600A6802F44042019224
:100B7000019A0222079201220A9210220B920D93EF
:100B800007A800F0F7FB68B90F2302930021039137
:100B900004910591069102A800F082FA20B915B0DF
:100BA0005DF804FBFFF7A4FFFFF7A2FF0038024047
:100BB0000070004010B500F0C9F8FFF7B5FFFFF76F
:100BC00061FFFFF797FF154804F04CF800240BE095
:100BD0002021134800F05AFA124804F043F84FF469
:100BE000FA7000F0DFF80134032CF1DD00F0C4FFEF
:100BF00040F6B83000F0D6F800240BE02021084879
:100C000000F044FA084804F02DF84FF4FA7000F0B0
:100C1000C9F80134032CF1DDFEE700BF18540008C9
:100C200000000240385400084C54000882B00021F3
:100C300000910B4B5A6C42F480425A645A6C02F495
:100C400080420092009A01911A6C42F080521A641C
:100C50001B6C03F080530193019B02B0704700BFEF
:100C60000038024000B589B0002303930493059334
:100C7000069307930268154B9A4202D009B05DF8BB
:100C800004FB0021019103F5FA331A6C42F400329F
:100C90001A641A6C02F400320192019A02911A6BE2
:100CA00042F001021A631B6B03F001030293029BE3
:100CB0000C23039302230493032306930723079330
:100CC00003A9034800F0ECF8D8E700BF0044004057
:100CD00000000240FEE7FEE7FEE7FEE7FEE77047A2
:100CE0007047704708B500F04BF808BD034AD2F8CA
:100CF000883043F47003C2F88830704700ED00E09C
:100D000010B504460E4B1A784FF47A73B3FBF2F326
:100D10000C4A1068B0FBF3F000F0AEF868B90F2C85
:100D200001D901200AE0002221464FF0FF3000F0F7
:100D300093F8054B1C60002000E0012010BD00BFAF
:100D4000600000205C0000206400002008B50B4B10
:100D50001A6842F400721A601A6842F480621A60DB
:100D60001A6842F480721A60032000F063F80F20C2
:100D7000FFF7C6FFFFF75AFF002008BD003C024006
:100D8000034A1168034B1B780B441360704700BF84
:100D90003C02002060000020014B1868704700BF33
:100DA0003C02002038B50446FFF7F6FF0546B4F1D3
:100DB000FF3F02D0044B1B781C44FFF7EDFF401BA4
:100DC000A042FAD338BD00BF60000020002808DB35
:100DD0000901C9B200F1604000F5614080F80013DC
:100DE000704700F00F000901C9B2014B1954704758
:100DF00014ED00E000B500F00700C0F1070CBCF1F5
:100E0000040F28BF4FF0040C031D062B0FD9C31E7F
:100E10004FF0FF3E0EFA0CF021EA000199400EFA65
:100E200003FE22EA0E0241EA02005DF804FB002301
:100E3000EEE70000074AD36823F4E0631B041B0CB1
:100E4000000200F4E060034343F0BF6343F4003367
:100E5000D360704700ED00E010B50446054BD8683C
:100E6000C0F30220FFF7C6FF01462046FFF7AEFFA2
:100E700010BD00BF00ED00E00138B0F1807F0BD263
:100E80004FF0E0235861054AF02182F8231000203A
:100E9000986107221A6170470120704700ED00E059
:100EA00000230F2B00F2E38070B582B065E0856807
:100EB0004FEA430E032404FA0EF425EA0405CC6835
:100EC00004FA0EF42C438460446824EA02044A685D
:100ED000C2F300129A40224342605CE0DC0808340E
:100EE00050F8242003F00705AD004FF00F0E0EFA66
:100EF00005FE22EA0E0E0A69AA4042EA0E0240F8F6
:100F000024205CE0062200E0002202FA0EF22A43CE
:100F10000234574D45F82420564A14686FEA0C02F3
:100F200024EA0C054E6816F4803F01D04CEA040513
:100F3000504C2560646802EA04054E6816F4003FD0
:100F400001D04CEA04054B4C6560A46802EA040534
:100F50004E6816F4801F01D04CEA0405454CA5608C
:100F6000E46822404D6815F4001F01D04CEA0402E9
:100F7000404CE26001330F2B77D801229A400C6875
:100F800004EA020C32EA0404F4D14C6804F00304CD
:100F9000013C012C8BD94A6802F00302032A09D0D4
:100FA000C4685D000322AA4024EA02048A68AA40B9
:100FB0002243C2604A6802F00302022A8ED004680B
:100FC0004FEA430E032202FA0EF224EA02044A68B0
:100FD00002F0030202FA0EF2224302604A6812F49F
:100FE000403FC7D000220192234A546C44F480440D
:100FF0005464526C02F480420192019A9C08A51C30
:101000001B4A52F8255003F0030E4FEA8E0E0F22B2
:1010100002FA0EF225EA0205184A90423FF474AF34
:1010200002F58062904216D002F58062904214D0A0
:1010300002F58062904212D002F58062904210D098
:1010400002F5806290420ED002F5806290423FF439
:1010500059AF072259E7012257E7022255E7032239
:1010600053E7042251E705224FE702B070BD7047F5
:1010700000380140003C01400038024000000240BE
:101080000AB181617047090481617047436901EACF
:10109000030221EA030141EA024181617047000035
:1010A000002800F09B8070B50D4604464F4B1B682E
:1010B00003F00F038B4208D2CBB24C4A1370136873
:1010C00003F00F038B4240F08B80236813F0020F74
:1010D00017D013F0040F04D0454A936843F4E0534B
:1010E0009360236813F0080F04D0414A936843F4D7
:1010F000604393603E4A936823F0F003A1680B437A
:101100009360236813F0010F32D06368012B21D064
:101110009A1E012A25D9364A126812F0020F61D0B0
:1011200033498A6822F0030213438B60FFF734FED1
:1011300006462F4B9B6803F00C036268B3EB820FEB
:1011400016D0FFF729FE801B41F288339842F0D970
:10115000032042E0264A126812F4003FE0D1012049
:101160003BE0234A126812F0007FD9D1012034E01D
:101170001E4B1B6803F00F03AB4207D9EAB21B4BAF
:101180001A701B6803F00F03AB422DD1236813F0D4
:10119000040F06D0164A936823F4E053E1680B432A
:1011A0009360236813F0080F07D0114A936823F463
:1011B0006043216943EAC103936000F047F80C4B98
:1011C0009B68C3F303130B4AD35CD8400A4B1860E7
:1011D0000A4B1868FFF794FD002070BD012070478E
:1011E0000120FAE70120F8E70120F6E7003C024081
:1011F000003802406C5400085C00002064000020AD
:10120000014B1868704700BF5C00002008B5FFF76D
:10121000F7FF044B9B68C3F38223034AD35CD84097
:1012200008BD00BF003802406454000808B5FFF74D
:10123000E7FF044B9B68C3F34233034AD35CD840B7
:1012400008BD00BF003802406454000808B5464B92
:101250009B6803F00C03082B07D00C2B45D0042B04
:1012600001D0424808BD4248FCE73F4B5A6802F0B3
:101270003F025B6813F4800F12D03B4B5968C1F3F7
:1012800088113B480023A1FB0001FEF7F1FF364B1C
:101290005B68C3F3014301335B00B0FBF3F0E1E7AC
:1012A000314B5868C0F388104FEA401CBCEB000C6F
:1012B0006EEB0E0E4FEA8E1343EA9C634FEA8C11DD
:1012C000B1EB0C0163EB0E03DB0043EA5173C90081
:1012D00011EB000C43F10003990200234FEA8C202C
:1012E00041EA9C51FEF7C4FFD1E71F4B5A6802F058
:1012F0003F025B6813F4800F10D01B4B5968C1F399
:1013000088111B480023A1FB0001FEF7B1FF164B1B
:101310005B68C3F30273B0FBF3F0A3E7124B5868AA
:10132000C0F388104FEA401CBCEB000C6EEB0E0EB5
:101330004FEA8E1343EA9C634FEA8C11B1EB0C0128
:1013400063EB0E03DB0043EA5173C90011EB000CA1
:1013500043F10003990200234FEA8C2041EA9C519B
:10136000FEF786FFD3E700BF003802400024F400F8
:1013700040787D01002800F0018270B582B00446FB
:10138000036813F0010F41D0994B9B6803F00C03E5
:10139000042B32D0964B9B6803F00C03082B27D00C
:1013A000934B9B6803F00C030C2B59D06368B3F587
:1013B000803F5BD0B3F5A02F5ED08D4B1A6822F42E
:1013C00080321A601A6822F480221A606368002B47
:1013D0005CD0FFF7E1FC0546854B1B6813F4003F2A
:1013E00014D1FFF7D9FC401B6428F5D90320CCE1C8
:1013F0007F4B5B6813F4800FD2D07D4B1B6813F4D6
:10140000003F03D06368002B00F0BA81236813F01B
:10141000020F60D0764B9B6813F00C0F4AD0744BD0
:101420009B6803F00C03082B3FD0714B9B6803F0C3
:101430000C030C2B69D0E368002B75D06D4B012297
:101440001A60FFF7A9FC0546694B1B6813F0020FF1
:1014500061D1FFF7A1FC401B0228F5D9032094E1DC
:10146000634B5B6813F4800FA0D0C6E7604A136833
:1014700043F480331360A9E75D4B1A6842F480227D
:101480001A601A6842F480321A609FE7FFF784FC02
:101490000546574B1B6813F4003FB7D0FFF77CFCA1
:1014A000401B6428F5D903206FE1514B5B6813F4AE
:1014B000800FBAD14E4B1B6813F0020F03D0E368C4
:1014C000012B40F05F814A4A136823F0F803216939
:1014D00043EAC1031360236813F0080F49D063691E
:1014E000002B33D0434B0122C3F8802EFFF754FC6E
:1014F00005463F4B5B6F13F0020F3AD1FFF74CFCF0
:10150000401B0228F5D903203FE1394B5B6813F4F7
:10151000800F90D1CEE7364A136823F0F803216993
:1015200043EAC1031360D6E7324B00221A60FFF78B
:1015300033FC05462E4B1B6813F0020FCBD0FFF790
:101540002BFC401B0228F5D903201EE1294B002269
:10155000C3F8802EFFF720FC0546254B5B6F13F088
:10156000020F06D0FFF718FC401B0228F5D9032014
:101570000BE1236813F0040F76D01D4B1B6C13F0A6
:10158000805F33D100230193194B1A6C42F08052D3
:101590001A641B6C03F080530193019B0125164BC9
:1015A0001B6813F4807F29D0A368012B3AD0052B48
:1015B0003ED00F4B1A6F22F001021A671A6F22F009
:1015C00004021A67A368002B3CD0FFF7E5FB064630
:1015D000074B1B6F13F0020F45D1FFF7DDFB801B9C
:1015E00041F288339842F3D90320CEE00025D6E7B4
:1015F0000038024000004742007000406B4A136808
:1016000043F480731360FFF7C7FB0646674B1B6804
:1016100013F4807FC8D1FFF7BFFB801B0228F5D9E8
:101620000320B2E0624A136F43F001031367C9E776
:101630005F4B1A6F42F004021A671A6F42F0010200
:101640001A67BFE7FFF7A8FB0646594B1B6F13F05D
:10165000020F08D0FFF7A0FB801B41F288339842AD
:10166000F3D9032091E0EDB9A369002B00F08C8041
:101670004F4A926802F00C02082A54D0022B17D06D
:101680004C4B00221A66FFF787FB0446484B1B6849
:1016900013F0007F45D0FFF77FFB001B0228F5D930
:1016A000032072E0424A136C23F080531364DBE79B
:1016B000404B00221A66FFF76FFB05463C4B1B6848
:1016C00013F0007F06D0FFF767FB401B0228F5D917
:1016D00003205AE0E369226A1343626A43EA8213F1
:1016E000A26A5208013A43EA0243E26A43EA026309
:1016F000226B43EA02732E4A53602E4B01221A6674
:10170000FFF74AFB04462A4B1B6813F0007F06D103
:10171000FFF742FB001B0228F5D9032035E000202B
:1017200033E0002031E0012B31D0214B5B6803F422
:101730008001E26991422CD103F03F02216A8A4282
:1017400029D1616A47F6C0721A40B2EB811F24D1D9
:1017500003F44031A26A5208013AB1EB024F1ED1A4
:1017600003F07062E16AB2EB016F1AD103F0E0435B
:10177000226BB3EB027F16D1002006E001207047F8
:10178000012002E0012000E0002002B070BD012035
:10179000FBE70120F9E70120F7E70120F5E7012049
:1017A000F3E70120F1E70120EFE700BF0070004000
:1017B000003802400000474210B504460268136931
:1017C00023F44053C1680B431361836802691A43D1
:1017D00043691A43C3691A430168CB6823F416436B
:1017E00023F00C031343CB600268536923F4407366
:1017F00081690B4353610368314A934206D002F575
:101800008062934202D0FFF701FD01E0FFF70EFD79
:10181000E369B3F5004F29D00021031849411B1893
:1018200041F10001C90041EA5371DB0018186368F7
:101830004FEA83024FEA937341F10001FEF718FD6E
:10184000204AA2FB00314909642303FB11031B0159
:101850003233A2FB03235B0903F0F00202EB011217
:1018600003F00F03216813448B6010BD002302189E
:1018700043EB0301121841F10001C90041EA527122
:10188000D200101841F10001626892185B41FEF726
:10189000EFFC0C4AA2FB00314909642303FB11034E
:1018A000DB003233A2FB03235B095A0002F4F87217
:1018B00002EB011203F00703216813448B60D4E7A5
:1018C000001001401F85EB512DE9F84305460F46F6
:1018D00016469946DDF820802B681C6837EA040418
:1018E0000CBF01240024B4422DD1B8F1FF3FF3D046
:1018F000B8F1000F05D0FFF74FFAA0EB0900404503
:10190000EAD92A6802F10C0353E8003F23F4D073AC
:101910000C3242E800310029F3D12A6802F11403A5
:1019200053E8003F23F00103143242E8003100295C
:10193000F3D1202385F83D3085F83E30002385F82B
:101940003C30032000E00020BDE8F88358B310B518
:10195000044690F83D300BB3242384F83D302268D0
:10196000D36823F40053D3602046FFF725FF226895
:10197000136923F4904313612268536923F02A0307
:1019800053612268D36843F40053D360002020647D
:10199000202384F83D3084F83E3010BD80F83C3080
:1019A000FFF760F9D8E7012070472DE9F04182B0D8
:1019B0001E4690F83D30DBB2202B54D104460D4634
:1019C0009046002953D0002A53D090F83C30012B88
:1019D00051D0012380F83C3000230364212380F898
:1019E0003D30FFF7D9F90746A4F82480A4F82680F3
:1019F000A368B3F5805F05D04FF00008002384F89A
:101A00003C3012E0236913B14FF00008F6E7A84616
:101A10000025F3E738F8023B2268C3F3080353605C
:101A2000E28C92B2013A92B2E284E38C9BB273B13F
:101A300000963B46002280212046FFF745FFE0B993
:101A4000002DE7D015F8012B23685A60E8E70096CF
:101A50003B46002240212046FFF736FF78B920237D
:101A600084F83D3000E0022002B0BDE8F0810120A2
:101A7000FAE70120F8E70220F6E70320F4E7032065
:101A8000F2E70000DFF834D00D480E490E4A00237B
:101A900002E0D458C4500433C4188C42F9D30B4A22
:101AA0000B4C002301E013600432A242FBD3FFF78A
:101AB0001DF9FEF781FDFFF77DF870470000022059
:101AC000000000208C0000203066000890000020FC
:101AD000B0030020FEE7000008B5024803F0C2F89A
:101AE00008BD00BF7C54000808B5024803F0BAF8EE
:101AF00008BD00BF8C54000838B54FF4B87000F032
:101B000003FA00228261194901614061C2650266DF
:101B1000174CC46602670121C0F88010154D856717
:101B2000C067C0F8C420C0F8C820C0F8D440C0F8CE
:101B3000D820C0F8142100F17804C0F8204100F545
:101B40009074C0F8F440C0F8F81080F8FC1000F170
:101B50001004C0F86841C0F85C2100F5B474C0F806
:101B60003C41C0F8401180F8442138BDD91A000822
:101B70009C540008E91A000810B500240BE009483D
:101B800003F070F820210848FFF780FA4FF4FA704C
:101B9000FFF708F90134012CF1DD0021084601F0BE
:101BA0007FFC10BDA05400080000024070470000F8
:101BB00000B589B00021069105910491039102912D
:101BC000019101230093044A1268044801F08CFA41
:101BD00009B05DF804FB00BFF002002040020020C5
:101BE000014B03600120704740020020000000000C
:101BF00008B5FFF781FF204B83605A6E00F110019A
:101C000011609FED157B80ED407B9FED157B80ED96
:101C1000427BDB6D00F1E0021A600023C0F81C314A
:101C20009FED117B80ED147B80ED2E7B8363C0F8EC
:101C3000A03001220023C0E90A239FED0D7B80ED37
:101C4000087BC0E924230D4A4FF0FF33C0E922236B
:101C500008BD00BFAFF300800000000000000000DE
:101C600080B2E60E000000000000000000000080CE
:101C70000000FFFFFFFFFFFF400200200100FFFF09
:101C80007047000008B5124802F068F8D8B9104A49
:101C9000136852680F48016840685B1842EB000205
:101CA0000D48016840685B1842EB00020B49086868
:101CB00049689842914102DA08490B604A60074B33
:101CC000D3E9000108BD064801F0B8FEDFE700BF18
:101CD00068000020D8020020D0020020C8020020A6
:101CE000B454000884B00DF1100C0CE90F0001464B
:101CF000019A0498059B814272EB030C09DB884230
:101D000093410ADB029A069B9A4208D30AD9012022
:101D100001E04FF0FF3004B070470120FBE74FF0C7
:101D2000FF30F8E70020F6E708B510B1D0E902016E
:101D300008BD034B034AA621034802F0F7F900BF90
:101D4000D85400086C550008F454000808B5FFF793
:101D5000EBFF034A13685268C01A61EB020108BD29
:101D60007000002008B5FFF78DFF08BD08B5FFF72C
:101D700089FF034A13685268C01A61EB020108BD6B
:101D8000700000202DE9F04190B00546194652EA56
:101D9000010305D01046002907DB0026002418E0C7
:101DA0002F4B1B880380012655E02E4B1B8825F8FE
:101DB000013B0126F2E7671C10AB03EBC40444F8B7
:101DC000380C44F8341C4FF47A720023FEF700FA02
:101DD0003C46012871F10003EDDA013C10AB03EB46
:101DE000C4014FF47A72002351E90E01FEF7F0F9B5
:101DF00090461F46009201931B4A0521284602F097
:101E0000CFFCB8F1640F77F1000302DB0335033632
:101E10001EE0B8F10A0F77F1000702DB0235023647
:101E200016E00135013613E010AB03EBC7014FF4A8
:101E30007A72002351E90E01FEF7CAF9CDE90023B9
:101E40000A4A0821284602F0ABFC043504363C4619
:101E5000671E002CE8DC304610B0BDE8F08100BF02
:101E600054550008585500085C5500086455000892
:101E700010B530B1C06A01F012FD044640B12046F1
:101E800010BD094B094A40F2C511094802F04EF94C
:101E90002021012002F072F904460028EFD1054804
:101EA00001F006FEEBE700BFD8540008405E0008D2
:101EB0007C550008E455000838B504460D46006915
:101EC000884201D001F00CF8256138BD70B5144688
:101ED00002F054F9054660B14CB10821012002F02E
:101EE0004DF9064648B13560236826607360284680
:101EF00070BD044801F0DCFDEEE7024801F0D8FDBA
:101F0000F1E700BFE455000808B50146024A012088
:101F1000FFF7DCFF08BD00BFE802002080B170B50C
:101F20000646046807E0206802F098FA65682046D3
:101F300002F094FA2C46002CF5D10023336070BDDA
:101F4000704710B50446FFF7E9FF204602F086FA15
:101F500010BD000038B5084B1C6807E02068FFF78B
:101F6000F0FF6568204602F079FA2C46002CF5D186
:101F7000014B00221A6038BDE802002082B010B583
:101F800084B006A981E80C0080B1044600F1180372
:101F90000FCB8DE80F0006AB0FCBFFF7A3FE002899
:101FA0000ADB04B0BDE8104002B07047054B064A9A
:101FB000DA21064802F0BAF8183406AB0FCB84E8F1
:101FC0000F00EEE7D8540008AC5E00087C5500080E
:101FD00070B558B1064601F007F8F46B306CB36B7E
:101FE000834201DA746B184600230BE0144B154A48
:101FF0004FF48671144802F099F854F82320002118
:10200000117001339842F8DC736CABB1002400E02E
:10201000013406F14405284601F003FB84420BD24B
:102020002146284601F0DEFA0028F1D00368002B93
:10203000EED000221A60EBE70023336470BD00BFCE
:10204000D8540008985E00087C55000882B000B59E
:1020500085B006A981E80C0088B1034618330FCB80
:102060008DE80F0006AB0FCBFFF73CFE0028D4BF76
:102070000020012005B05DF804EB02B07047034B6F
:10208000034A40F23F11034802F050F8D8540008C8
:102090007C5E00087C5500082DE9F04148B10D46F2
:1020A0000646D1F820804C6A58EA04031AD100246D
:1020B0000FE0164B164A40F2DB11164802F036F8D4
:1020C0006B694FF0FF3253F82410304601F0C6F828
:1020D0000134AB69A342F3DCD5F82880EC6A58EAF6
:1020E000040311D03046FFF7C3FE07468560304633
:1020F000FFF71AFE10EB080044EB010438607C6027
:102100003946B06A01F0ABFBBDE8F081D854000855
:10211000545E00087C55000838B510B1054600240F
:1021200007E00A4B0A4A40F20A210A4801F0FEFF82
:1021300001342B6EA34208DDEB6D53F82410002907
:10214000F6D02846FFF7A8FFF2E738BDD8540008BC
:10215000285E00087C55000838B510B105460024FB
:1021600007E00D4B0D4A40F217210D4801F0DEFF4C
:102170000134AB6EA3420DDD6B6E53F824100029C1
:10218000F6D00B6E002BF3D14FF0FF32284601F052
:1021900065F8EDE738BD00BFD8540008085E0008B8
:1021A0007C55000838B510B10546002407E00D4BFA
:1021B0000D4A40F232210D4801F0B8FF01342B6F77
:1021C000A3420DDDEB6E53F824100029F6D00B6E00
:1021D000002BF3D14FF0FF32284601F03FF8EDE736
:1021E00038BD00BFD8540008E85D00087C550008E1
:1021F00008B568B19FED0A7B81ED007B00238B6001
:10220000CB600B610B758B61C06A01F028FB08BDC8
:10221000054B064A40F24A21054801F087FF00BFFE
:102220000000000000000000D8540008D45D000841
:102230007C5500082DE9F04F8FB0DDF860B0002824
:1022400000F092800D4690469A46044600F1100335
:1022500093E803008DE8030004F108030CCB20464B
:10226000FFF7F4FE002840F08680BAF1000FC0F2BC
:102270008A80BBF1000F04D0DBF80C300133CBF8BF
:102280000C30002D00F088802B7F33B92B6A6A6AEE
:1022900013EB0803984642EB0A0AA668E36816EBBC
:1022A000080643EB0A09AB6A0393EB6A04932046E2
:1022B000FFF7DEFD074600238361C0F810B085609C
:1022C00095F83030002B6CD1A168E3688E4279EB31
:1022D00003026DDBD5F83480EB6A002B74DB2B7FB7
:1022E0001BBBB8F1000F20D0D8F80030D8F804207C
:1022F000039913EB010A049942EB01010591B245E0
:1023000071EB090111DB95F83810012900F08A8082
:10231000022900F0A080A068E1688A4208BF8342D9
:1023200000F0BA805646DDF81490A168E3688E424A
:1023300079EB0302C0F2D9803E60C7F80490A2692D
:10234000E369B24273EB0903C0F2DB806F63394685
:10235000A06A01F084FAA06D431CA365002BC0F2B3
:10236000D9800FB0BDE8F08F6C4B6D4A40F26E31F2
:102370006C4801F0DBFE584600F0B2FD6A4801F0FF
:1023800079FB0020EDE742465346684801F072FBB6
:102390004FF00008C2466CE7584600F0A1FD00204F
:1023A000DFE7FFF7DFFC10EB08064AEB010991E7D6
:1023B0008A1B0091019363EB09035D4801F05AFB0E
:1023C000A668D4F80C9085E70696CDF81C900023FB
:1023D00008933E60C7F804903946A06A01F03AFAC3
:1023E00080460028A1D00123089303E0089B013315
:1023F00008939046D8F81820002AF7D108AB93E844
:1024000003008DE8030006AB0CCB2046FFF71EFE51
:1024100018B9C8F818700020A3E739462046FFF71E
:10242000E7FEF8E7039B012B049B73F100030CDB31
:10243000D8F810305B4502D0584600F051FD3946BF
:102440002046FFF7D5FE00208BE74146A06A01F049
:1024500001FA0028ECD1D8F80000D8F80420A168CF
:10246000E368814273EB02060CDB9A4208BF8842A4
:1024700003D05646DDF8149057E74146A06A01F0B4
:10248000E9F950B359464046FFF716FD3946204654
:10249000FFF7AEFE002064E74146A06A01F0DAF9DA
:1024A000F8B1D8E90023CDE90A23236901330C935D
:1024B0000EAB13E903008DE803000AAB0CCB2046FA
:1024C000FFF7C4FD18B9C8F81870002049E739466D
:1024D0002046FFF78DFE002043E75646DDF81490B6
:1024E00023E75646DDF814901FE78A1B00910193FD
:1024F00063EB09030E4801F0A1FAA668D4F80C902A
:102500001AE7584600F0ECFC39462046FFF770FE0B
:10251000002026E70123A36523E700BFD854000865
:10252000C45D00087C550008F45500081C560008DE
:1025300064560008F0B583B020B10646806A01F009
:10254000C3F90DE0394B3A4A4FF4A571394801F00F
:10255000EDFD29463046FFF74BFEB06A01F0B4F9B5
:1025600000285BD004684268B168F3689A4208BFEB
:102570008C4253D1B06A01F092F90546037D33B124
:1025800081690029E5D0306B01F069F9E1E707695D
:10259000002400E00134AB689A69A2420CDD5B695B
:1025A00053F8241091F83830002BF3D14FF0FF325C
:1025B000304600F053FEEDE7012283F83920A96888
:1025C0000B7F2BB18A6ACB6A012A73F1000017DAFC
:1025D0003946A86800F0EAFC384600F081FCAB6898
:1025E000012283F83920A96911B1306B01F037F964
:1025F00029463046FFF7FCFDB06A01F065F9AFE708
:10260000002000903046FFF715FEE1E7B46A306B1A
:1026100001F045F90146204601F021F9306B01F047
:1026200053F90028F2D103B0F0BD00BFD854000820
:102630006C5E00087C550008F0B583B0C0B114464C
:102640001E460546806A01F03FF928B101684068DE
:10265000A14270EB060312DBAA68EB68A24273EB9F
:1026600006011CDAAC60EE6000232B6103B0F0BD04
:10267000114B124A40F2FF41114801F057FD114B36
:102680001F68D3F804C0E21B66EB0C03C91B60EBA8
:102690000C00009101900C4801F00AFADCE7B3420B
:1026A00008BFA24203D12B6901332B61DEE7074843
:1026B00001F0FEF9DAE700BFD8540008A85D000871
:1026C0007C55000870000020D056000840570008D4
:1026D00010B548B10C464B6859600B68486898477C
:1026E000636800225A6010BD034B044A40F23C511B
:1026F000034801F01BFD00BFD8540008945D00089A
:102700007C5500082DE9F04F87B0059238B183461B
:102710000025A8462F460A46DDF8149041E0424BBA
:10272000424A40F25C51424801F000FD6B6A534559
:1027300016D12F4604E04A462946584600F08EFD41
:102740000134B369A34214DD736953F82450002D9A
:10275000F6D0AF42F4D008F10108B8F1010FE5D08E
:10276000002FE8D04A463946584600F077FD00274A
:10277000E1E7019903985246DDF808A00AF1010A41
:10278000136B5B5853450ADD50F82A60002EF5D0D4
:1027900000240191CDF808A003909246D1E7049D52
:1027A0000135936AAB420ED9D36AA90053F825309C
:1027B000002BF5D01B78002BF2D0536B58584FF0FC
:1027C000000A0495DCE75FB37B6C002B1ADBFFF794
:1027D000C9FA3B6C7A6C53EA020409D0DBF8085062
:1027E000DBF80C405B1942EB040283428A4109DAB0
:1027F000FB6C93B178689847059A39465846FFF7BD
:1028000081FF0AE0059C224639465846FFF760FFE3
:10281000224639465846FFF775FF002387F84830AF
:1028200007B0BDE8F08F00BFD8540008785D0008FD
:102830007C55000870B505460E461A4802F012FA9B
:10284000194802F00FFA194802F00CFA184802F081
:1028500009FA184802F006FA174802F003FA174876
:1028600002F000FA164802F0FDF9164802F0FAF9F3
:10287000154802F0F7F9154802F0F4F9144802F08F
:10288000F1F9144802F0EEF9002405E056F824109E
:10289000114802F07FF90134AC42F7DB0F4802F037
:1028A000E1F970BD805700089C570008B857000830
:1028B000F85700081C58000868580008B858000865
:1028C000CC580008185900082C590008685900080D
:1028D00078590008B4590008C4590008B0590008D4
:1028E0002DE9F04780460F4601240DE0B04554DD48
:1028F000023457F82650B0492846FDF731FD00282C
:1029000054D1AE4B01221A70444580F2BD81661C41
:1029100057F82450AA492846FDF722FD0028E5D0A3
:10292000A8492846FDF71CFD0028DFD0A649284607
:10293000FDF716FD58B1A5492846FDF711FD30B148
:10294000A3492846FDF70CFD002840F0EE80A31CAB
:10295000434539DA57F82690033457F823A0484600
:1029600002F0EAF905460E469A4B1860596050EAA3
:10297000010303D199F80030302B2ED10322964960
:10298000504602F077F990BB944AA5FB025302FB34
:102990000633904A15605360B6E7914801F04EF84F
:1029A00039464046FFF746FF00206EE18D49284634
:1029B000FDF7D6FC18B9814B00221A70A4E729460E
:1029C000894801F03BF89FE7884801F037F839461D
:1029D0004046FFF72FFF002057E14946844801F0A9
:1029E0002DF839464046FFF725FF00204DE104222F
:1029F0008049504602F03EF9D8B9720142EAD562E8
:102A00006B015B1B62EB0602520242EAD3525B028D
:102A10005B1946EB0202900140EA93609901CB1AE0
:102A200060EB02005B1946EB00006A4A13605060DD
:102A30006AE704227049504602F01CF9A8B97301F4
:102A400043EAD5636A01521B63EB06039B0043EA2A
:102A500092739200521946EB0303DB0043EA527370
:102A6000D2005C490A604B604EE70422634950463D
:102A700002F000F900283FF447AF032260495046B6
:102A800002F0F8F860B95F4A0D2305FB03F302FB7F
:102A90000633A5FB02252B444E490A604B6033E701
:102AA00004225949504602F0E5F868B9574A40F205
:102AB000463305FB03F302FB0633A5FB02252B443B
:102AC00044490A604B601FE703225149504602F017
:102AD000D1F868B94F4A44F6946305FB03F302FB4F
:102AE0000633A5FB02252B443A490A604B600BE7ED
:102AF00004224949504602F0BDF860B9474A484BA4
:102B000005FB03F302FB0633A5FB02521344314AD3
:102B100015605360F8E65146424800F08FFF394691
:102B20004046FFF787FE0020AFE03F492846FDF70B
:102B300017FC20B13D492846FDF712FC20BBB045EB
:102B40000BDD023457F826501B492846FDF708FCD8
:102B500060B9374B01221A70D6E6364800F06EFF96
:102B600039464046FFF766FE00208EE01D492846A4
:102B7000FDF7F6FB18B92E4B00221A70C4E6294661
:102B80002D4800F05BFFBFE62C492846FDF7E8FB27
:102B900028B12B492846FDF7E3FB002863D1B04557
:102BA00052DD023457F82650284601F0E3FA002897
:102BB00053DD244B1860A7E6EC590008F40200200E
:102BC000C8590008CC5900081C5A0008205A0008AF
:102BD0002C5A000878000020705A000800CA9A3B5E
:102BE000D4590008F4590008FC590008385A000864
:102BF000585A0008745A00087C5A0008845A000881
:102C00008C5A0008005847F8905A000800A0B830C5
:102C1000985A000800004F919C5A0008000029F9BA
:102C20000F260200A45A0008BC5A0008C05A000827
:102C3000EC020020CC5A0008EC5A0008105B000897
:102C4000145B0008F0020020114800F0F7FE39463E
:102C50004046FFF7EFFD002017E029460D4800F041
:102C6000EDFE0120A5E70C492846FDF779FB08B9E0
:102C7000344649E62946094800F0E0FE3946404618
:102C8000FFF7D8FD002000E00120BDE8F08700BF7D
:102C9000205B0008485B0008745B0008805B00084C
:102CA00010B582B00024084B1C60084B1C6001A8C2
:102CB000FEF796FF234600E001338342FCDBFEF77C
:102CC00097FF02B010BD00BF0803002004030020DE
:102CD00070B58AB009A8FEF783FF05460998FEF78C
:102CE000CFFF002410E041683B4800F0C3FE0AE03B
:102CF0000998FFF72BF80B1E33DA099800F0D2F988
:102D0000099B883309930134AC4245DA099B596821
:102D1000324800F075FE09980378002BE3D0FFF7E6
:102D200057F9099B986A0028E2D000F08DFD002831
:102D3000DED0099B986A00F087FD0146284800F024
:102D400099FE099B986A00F0BFFD02684668254815
:102D500001684368521A66EB0303234800F08AFEB9
:102D6000C6E7024601A8FFF70DF801A91F4801F0C8
:102D700011FF1C4B1A685B68012A73F10003BCDB6E
:102D8000FEF7F4FF02460B4601A8FEF7FBFF01A980
:102D9000174801F0FFFEB0E700F0B6F8154B1B68CE
:102DA000002B07DC144B1B68002B0CDCFFF7D2F860
:102DB0000AB070BD114800F05DFE0E4B1968104856
:102DC00000F058FEEEE70F4800F054FE0A4B196879
:102DD0000D4800F04FFEE9E7C85B0008A85B00085B
:102DE000F45B000870000020385C00087C5C000880
:102DF000A85C00080803002004030020D45C00083D
:102E0000085D0008285D0008585D000803688BB164
:102E100010B50446084A1368013B136083685B6879
:102E200023B1006898470023236010BD006801F0BB
:102E300015FBF8E7704700BF08030020002841D0C9
:102E400010B50446C3680BB1002010BDFFF7DEFFCC
:102E5000002000F07DFAA0B91B4B1B68ABB11A4BE8
:102E6000186800F0B9FEB0F5007F1BD22146164B62
:102E7000186800F0DDFEC0B92146144800F0FAFDE4
:102E800013E0134800F014FEE6E7042000F0B1FE62
:102E90000D4B18600028E2D100F05EFA0D4800F0FA
:102EA00007FEDCE7204601F0D9FA002000F054FAD2
:102EB00020B9094A1368013B1360C5E7074800F0D1
:102EC000F7FDF6E700207047FC0200201C5F0008B9
:102ED000C05E0008E45E0008040300205C5F000898
:102EE00068B108B50146C36823B1013BC360FFF771
:102EF000A5FF08BD034800F0BDFD0020F9E7002054
:102F0000704700BF5C60000838B5002000F020FA70
:102F100030B9224B1868F0B100F094FE05460CE081
:102F20001F4800F0C5FDF4E7284600F0C5FE044642
:102F3000C068FFF7D5FF0023E360284600F090FE4D
:102F40000028F1DA284601F089FA144C206800F0D4
:102F500045FE00232360134B1868B0B100F072FEE9
:102F6000044604E0204600F0A7FE01F077FA204670
:102F700000F076FE0028F5DA204601F06FFA094CE1
:102F8000206800F02BFE00232360002000F0E4F90D
:102F900000B938BD044800F08BFDFAE7F8020020C4
:102FA000C05E0008FC0200205C5F000838B568B114
:102FB0000C460546C068884207D008B1FFF790FF6D
:102FC00014B1E3680133E360EC6038BD034B044A9D
:102FD0004FF4A471034801F0A9F800BF9060000805
:102FE000A0600008905F0008074B186850B110B54A
:102FF0000469FFF775FF044B1C60034B1868002839
:10300000F6D110BD704700BF0003002008B5D0F80E
:10301000840000F010FC08BD10B584B00446084BD5
:103020000293084B0193084B0093084B084A094947
:103030000A2000F0D7FBC4F8840004B010BD00BF24
:1030400021390008FB3800081D390008153900082F
:103050000B390008DD380008F0B585B08446144609
:103060001D460A9F0B9E8260C360002303610C4BC8
:103070000FCB0DF1100E0EE90F00002E06DBE41948
:1030800045EB060500940195002302930CF1180C02
:1030900004AB13E90F008CE80F0005B0F0BD00BFD2
:1030A000F853000810B50446C06D01F0D7F9606E02
:1030B00001F0D4F9E06E01F0D1F9606F01F0CEF9C2
:1030C000606B01F0CBF9E06B01F0C8F9A06A00F089
:1030D000B2FBE06A00F0AFFB206B00F0ACFB2046D7
:1030E000FFF794FF10BD00002DE9F04F85B00446B6
:1030F0001E46DDF83890DDF83C80109D119F416040
:10310000474B00F1180C0FCB8CE80F0026664021CE
:10311000304601F033F8E065424E3146003818BFC2
:10312000012000F0D1FCC4F868906821484601F005
:1031300025F860663146003818BF012000F0C4FC55
:10314000C4F870806821404601F018F8E066314606
:10315000003818BF012000F0B7FCA5676821284699
:1031600001F00CF860673146003818BF012000F00C
:10317000ABFCA763002525640421384600F0FEFF60
:1031800060633146401B18BF012000F09DFC042104
:10319000384600F0F3FFE0633146401B18BF0120C2
:1031A00000F092FC4FF0010BC4F858B01E4F1F4EB8
:1031B000DFF884A0CDF808A0DFF88090CDF8049067
:1031C000DFF87C80CDF800803B46324618490A2063
:1031D00000F008FBA062CDF808A0CDF80490CDF86F
:1031E00000803B46324613490A2000F0FBFAE062B9
:1031F000CDF808A0CDF80490CDF800803B463246CB
:103200000C490A2000F0EEFA2063C4F880502046F2
:10321000FFF702FF84F800B0284605B0BDE8F08F44
:10322000F8530008BC60000811390008053900088F
:10323000DD380008E938000823390008ED380008B7
:10324000193900080449097809B10020704708B508
:1032500000F0D4FD08BD00BFF402002008B518B18D
:1032600091F8383033B108BD094B0A4A79210A4830
:1032700000F05CFF012381F83830D0F8840000F0C2
:10328000EEFA0028EFD0054800F012FCEBE700BF93
:10329000D8540008E4610008CC60000830610008E0
:1032A00070B584B0054690B9264B274A952127482A
:1032B00000F03CFF002221462846FFF709FA0022D1
:1032C00021462846FFF71EFA002384F83830D5F847
:1032D000840000F0B9FA20B3D5F8840000F0DFFADA
:1032E0000446022380F83830436C002BE2DBFEF703
:1032F00039FD236C626C53EA020C07D0AE689B194F
:10330000EE6842EB060283428A41D3DAE36C002B7B
:10331000DAD060689847002221462846FFF7F2F984
:10332000D2E705F118030FCB8DE80F00083595E8BB
:103330000F00FEF7D7FC002802DA012004B070BDB0
:103340000020FBE7D8540008D8610008CC600008D2
:1033500008B500F037FD08BD08B500F03FFD08BD19
:10336000F0B58DB0002857D00446FFF7F1FF0028D4
:1033700058D1A06A00F0A8FA0546424B0DF1100C96
:103380000FCB8CE80F00002D50D02A686B68049298
:103390000593A068E1688B4208BF82425CD000239D
:1033A000069306AB93E803008DE8030004AB0CCB57
:1033B0002046FEF74BFE28B104AD04F118030FCBF5
:1033C00085E80F00DDE9046732463B462046FFF7FB
:1033D00039FF002844D132463B462046FFF72CF9FE
:1033E00004F118030FCB8DE80F0004F108030FCB95
:1033F000FEF778FC00283DDA2046FEF7E9FD20467E
:10340000FFF798F82046FFF7A7FF002836D120469F
:10341000FFF746FF0DB0F0BD1B4B1C4AED211C48C9
:1034200000F084FE1B4800F043FBA2E71A4B1B7818
:10343000002BB6D1D4E90223CDE908232369013357
:103440000A930CAB13E903008DE8030008AB0CCB27
:103450002046FEF793FDA4E7236901330693A0E716
:103460002046FFF779FF08B90120D3E70B4800F0A9
:103470001FFBF9E72046FEF795FEBDE7074800F081
:1034800017FBC4E708540008D8540008D0610008AE
:10349000CC600008C05E0008EC0200205C5F000801
:1034A00030B587B004460D46FEF780FB00F01CFCEB
:1034B0002E4B19682E4B1868FFF712FA002852D0CD
:1034C00029462046FFF70CFA00284CD0294800F086
:1034D0004BFE00283FD1FEF76BFB05A8FEF780FBF3
:1034E00002462549012814BF0020012000F0ECFA13
:1034F000FFF7D6FBFEF736FC02460B461F490A6073
:103500004B601F49D1E90001CDE900010598FFF7A3
:10351000A3FD1C4B01221A700598FEF71DFE0598AD
:10352000FEF7FAFD059C04F118030FCB8DE80F00A0
:1035300004F108030FCBFEF7D5FB00280FDA05983E
:10354000FFF7AEFE20B10598FFF70AFF0028FAD179
:10355000002007B030BD0C4800F08CFABBE705989E
:10356000FEF720FEEBE74FF0FF30F2E7E00200202D
:10357000E4020020D12C00088861000870000020BF
:1035800078000020ED0200205C61000809B370B5EE
:103590000446456800682D1AB1EBA50F0DD38E00C7
:1035A000314601F031F9034668B100222261206002
:1035B000054465603344A36070BD064B064A9F21F5
:1035C000064800F0B3FD064B034AA121034800F072
:1035D000ADFD7047FC6100088462000814620008B9
:1035E0007C62000838B504460A460168950001EB84
:1035F000820304334068834200D963606068A36833
:1036000098420BD3E0680130E0605B1A591000E08B
:1036100049009142FCD92046FFF7B8FF20682844B2
:1036200038BD43680068181A801070472DE9F843C8
:103630000368B3EB410F1AD904464D006E1CB34228
:1036400016D9D0F80C900369426A52F825009847C1
:1036500080460F462369626A52F826009847024660
:103660000B4640463946C84710B1354600E00025B4
:103670002846BDE8F8832DE9F04704460D46436A25
:1036800053F8219003694846984780460F466E08D4
:103690000CE0636A53F8262043F82520A369626A88
:1036A000294652F82500984735467608012D0BD952
:1036B000D4F80CA02369626A52F826009847424663
:1036C0003B46D0470028E4D1636A43F82590A369BC
:1036D0002946484698472846BDE8F0872DE9F04737
:1036E00004460D46436A53F82190036948469847BB
:1036F00080460F460BE0636A53F8262043F82520E6
:10370000A369626A294652F825009847354629463A
:103710002046FFF78BFF064668B1D4F80CA023695A
:10372000626A52F82000984702460B4640463946E6
:10373000D0470028DFD1636A43F82590A369294662
:1037400048469847BDE8F0872DE9F04704460F4604
:10375000151E34DB002C3FD02368AB423ED9636A90
:1037600053F825607EB3D4F80CA0236930469847FF
:103770008146884623693846984702460B464846A4
:103780004146D047F8B92369304698478146884674
:10379000236938469847884508BF814504D1E369C5
:1037A00039463046984738B96D002A463946204692
:1037B000FFF7CAFF064640B13046BDE8F08708482B
:1037C00000F076F9C6E70026F6E76A1C394620467F
:1037D000FFF7BAFF0646EFE72646EDE70026EBE7E0
:1037E000946200082DE9F8430546894690461F4635
:1037F000282000F02BFE0446A8B10135A80000F0F7
:1038000025FE0646606288B101232360A5606560DD
:10381000C4F80C90C4F810806761089BA361099BF1
:10382000E3610A9B23622046BDE8F883204600F04E
:1038300015FE3446F7E710B50446406A00F00EFE68
:10384000204600F00BFE10BD10B100680138704733
:103850000020704708B50122FFF776FF08BDD0B100
:1038600070B50E46044605684268954208D38268E2
:103870001544A900406A00F0C7FF70B1606265603E
:1038800021684B1C2360636A43F821602046FFF7E0
:10389000F2FE002070BD012070470120FAE710B54C
:1038A00070B10368012B0DD0416A4C68013B036085
:1038B00051F823304B600121FFF710FF204610BD67
:1038C0000446FBE70024F9E728B10268012A03D087
:1038D000436A5868704770470020704782428B41A6
:1038E00034BF0120002070470020704780688B683B
:1038F000984214BF002001207047814214BF00206D
:1039000001207047D0E900017047D0E904017047F9
:10391000C0687047006A7047C160704701627047B5
:10392000704770472DE9F04383B080460D46164638
:103930001F46254B1C68022C03DD002C02DA0224F2
:1039400000E002240A9B9C4202DA03B0BDE8F08347
:103950002846FCF7FDFC04463046FCF7F9FC204401
:1039600000F12009213000F071FD0446174B1B685F
:10397000002B0FDB01960095154A494600F010FF19
:10398000144B1B686BB1394620469847204600F01F
:1039900065FDDAE700962B460F4A494600F000FF26
:1039A000EEE7B8F1000F07D00C4B1B683A462146F2
:1039B000D86800F041FDE9E7084B1B683A4621460C
:1039C000986800F039FDE1E78000002084000020C5
:1039D000DC6200080C030020D46200080C00002008
:1039E00000B583B002460B46022100910349002036
:1039F000FFF798FF03B05DF804FB00BFF457000821
:103A00000FB400B583B004A951F8040B0191FFF77E
:103A1000E7FF03B05DF804EB04B0704700B583B076
:103A200002460B460021009103490120FFF77AFF6F
:103A300003B05DF804FB00BFF06200080FB400B5EE
:103A400083B004A951F8040B0191FFF7E7FF03B01D
:103A50005DF804EB04B0704700B583B002460B4636
:103A6000012000900249FFF75DFF03B05DF804FB01
:103A7000F86200080FB400B583B004A951F8040B34
:103A80000191FFF7E9FF03B05DF804EB04B0704764
:103A900000B583B002460B46002100910349012086
:103AA000FFF740FF03B05DF804FB00BF04630008AC
:103AB0000FB400B583B004A951F8040B0191FFF7CE
:103AC000E7FF0120FCF79CFC00B170470EB400B585
:103AD00082B004A901910398FFF7DAFF0120FCF7F7
:103AE0008FFC01292DD930B5456801EBC10301EBED
:103AF000C3032B404FF0FF3E03E003F59C5311330B
:103B00002B40C4684FEA830C54F8232042B18A4208
:103B10001AD0012AF1D1BEF1000FEEDA9E46ECE791
:103B2000036901330361BEF1000F06DB4369013B0A
:103B3000436144F82E10012007E044F80C100120E6
:103B400003E04FF0FF307047002030BDF8B5036947
:103B50004269134407EE903AF8EE677A866807EEFA
:103B6000106AB8EE477ADFED186A27EE267AF4EE8F
:103B7000C77AF1EE10FA00DAF8BD0546C7680368A7
:103B80000133036001209840A860431E6B6004214C
:103B900000F0F4FAE86000232B616B6108B10024A7
:103BA0000BE00A4B0A4A6F210A4800F0BFFA57F8A7
:103BB00024102846FFF795FF0134A642F7D838466F
:103BC00000F04CFCD8E700BF9A99593F14630008F5
:103BD00090630008206300080069704710B5044630
:103BE00018B1C06808B100F039FC204600F036FC7E
:103BF00010BD38B505461821012000F0BFFA044673
:103C000078B10560012303FA05F0A060431E6360EC
:103C1000042100F0B3FA0546E06020B100232361DF
:103C20006361204638BD2046FFF7D8FF2C46F8E7F1
:103C300038B50546FFF755FF04462846FFF786FFCF
:103C4000204638BD10B504460821012000F096FA40
:103C5000034618B104604FF0FF324260184610BDB1
:103C600008B558B184464368013301680A69D2B186
:103C70008868984209D14FF0FF3013E00B4B0C4A93
:103C800039210C4800F052FA0133984208D9CA6829
:103C900052F82320012AF7D91846CCF8043001E065
:103CA0004FF0FF3008BD4FF0FF30FBE7A063000886
:103CB00098640008AC63000808B54368002B07DB74
:103CC0000268D26852F8230010B1012800D008BD64
:103CD000024B034A5121034800F028FA20640008EF
:103CE00080640008AC63000882B0002301930E4B8F
:103CF0001A6C42F008021A641B6C03F0080301936B
:103D0000019B0A4B01221A600F229A62DA6842F084
:103D10000202DA60064A4FF4802151606FF001021E
:103D20005A6202B0704700BF00380240000C0040E9
:103D300000E100E0074B1B6913F0020F08D0054AB1
:103D4000136923F002031361034A136801331360FC
:103D5000704700BF000C0040100300208446E0B113
:103D60000F4B586A0F4B1A68013A510141EAD06172
:103D700043011B1A61EB0201890041EA93719B0028
:103D80001B1842EB0102D20042EA5372DB00CCF86E
:103D90000030CCF80420002070474FF0FF3070470F
:103DA000000C00401003002030B583B005460C46DF
:103DB0006846FFF7D3FF009BAB42019BA341F7DBB3
:103DC00003B030BD044B1B6803B972B6024A1368D6
:103DD000013313600020704714030020064B1B685A
:103DE00033B1013B044A136023B962B60020704727
:103DF00001207047002070471403002030B585B0C3
:103E000014461D4602A8FFF7A9FF029BE31A039A76
:103E100065EB0202012B72F1000122DB0A2B72F129
:103E2000000218DB114B00221A70FFF7D7FF68461B
:103E3000FFF794FF0D4A12782AB9029AA242039B17
:103E400073EB050CF3DBFFF7BDFF084B1B7853B991
:103E5000002005B030BD20462946FFF7A5FF002011
:103E6000F7E70020F5E74FF0FF30F2E718030020F6
:103E70002DE9F047089D0C46002B4ED194468C4509
:103E80008646B2FA82F262D94AB1C2F12003914069
:103E900020FA03F30CFA02FC194300FA02FE4FEA7F
:103EA0001C471FFA8CF6B1FBF7F44FEA1E4307FBE1
:103EB000141143EA014304FB06F199420AD91CEBB1
:103EC000030304F1FF3080F01281994240F20F8128
:103ED000023C6344591A1FFA8EF3B1FBF7F007FB5B
:103EE000101143EA014300FB06F69E420AD91CEB7F
:103EF000030300F1FF3180F0FC809E4240F2F98024
:103F0000634402389B1B40EA044000211DB1D340AA
:103F10000022C5E90032BDE8F0878B4205D90DB11A
:103F2000C5E9000100210846F5E7B3FA83F100294D
:103F300046D1A34202D39042C0F0F080861A64EBCF
:103F400003030120002DE6D0C5E90063E3E7002A62
:103F500040F09080A1EB0C044FEA1C481FFA8CF74C
:103F60000121B4FBF8F64FEA1E4308FB164443EA6E
:103F7000044307FB06F0984208D91CEB030306F143
:103F8000FF3402D2984200F2CD8026461C1A1FFA56
:103F90008EF3B4FBF8F008FB104443EA044300FB43
:103FA00007F79F4208D91CEB030300F1FF3402D24C
:103FB0009F4200F2B0802046DB1B40EA0640A5E7A6
:103FC000C1F120068B4022FA06F71F4320FA06FCB7
:103FD00004FA01F343EA0C03F44000FA01F8380C48
:103FE0004FEA1349B4FBF0FE1FFA87FC00FB1E44A6
:103FF00049EA04440EFB0CF9A14502FA01F20AD980
:104000003C190EF1FF3A80F08480A14540F2818096
:10401000AEF1020E3C44A4EB09041FFA83F9B4FB91
:10402000F0F300FB134449EA044403FB0CFCA445F1
:1040300007D93C1903F1FF3067D2A44565D9023B8B
:104040003C4443EA0E40A0FB0293A4EB0C049C42C8
:10405000CE469C4651D34ED055B1B8EB0E0364EB1F
:104060000C0404FA06F6CB401E43CC40C5E90064BC
:10407000002150E7C2F1200320FA03F10CFA02FC00
:1040800024FA03F394400C434FEA1C4800FA02FE62
:104090001FFA8CF7B3FBF8F008FB1031230C43EA4E
:1040A000014300FB07F1994208D91CEB030300F11F
:1040B000FF362CD299422AD9023863445B1AA4B243
:1040C000B3FBF8F108FB113344EA034401FB07F3A7
:1040D000A34208D91CEB040401F1FF3613D2A3421A
:1040E00011D902396444E41A41EA004139E704462F
:1040F000F0E6084606E7C845AED2B9EB020E63EB20
:10410000070C0138A8E73146EDE7034699E730464A
:10411000D4E7D6467FE7634402384DE70646234698
:1041200008460FE7023E634430E700BF1FB5144660
:104130001A46094B1B680546D86854B9074B1C46FC
:10414000CDE9013400912B46054900F065FB00F0F4
:10415000B7FE044BF4E700BF0C000020E964000840
:10416000BB640008AE640008002301461A461846E6
:1041700000F0E6BD0A22002100F00CBC024B0A460A
:104180000146186800F002B80C00002070B5A1FBD1
:1041900002543CB92946FCF759FA064628B90026CC
:1041A000304670BD0C220260F9E72A462146FCF732
:1041B000FBF9F5E79368013B002B10B4936008DA34
:1041C0009469A34201DB0A2903D15DF8044B00F096
:1041D000EBBB1368581C1060197008465DF8044B5F
:1041E0007047F8B506460F461446D518AC4201D1C3
:1041F000002007E014F8011B3A463046FFF7DAFFCB
:10420000431CF3D1F8BD00002DE9F04F0D469DB0E1
:1042100014469846064618B1036A0BB9FCF78EF9A6
:104220006B6ED90705D4AB899A0502D4A86DFCF74B
:10423000E8F9AB891B0701D52B699BB929463046A4
:1042400000F0F0FB70B16B6EDC0704D54FF0FF306F
:104250001DB0BDE8F08FAB899805F7D4A86DFCF7C9
:10426000D1F9F3E70023099320238DF82930CDF805
:104270000C803023DFF8AC818DF82A304FF0010933
:1042800023469A4613F8012B0AB1252AF9D1BAEB35
:10429000040B0BD05B46224629463046FFF7A1FFB0
:1042A000013000F0A780099A5A4409929AF8003028
:1042B000002B00F09F8000234FF0FF32CDE9052353
:1042C0000AF1010A049307938DF853301A93544668
:1042D000052214F8011B5348FBF7EAFF049AD8B9EA
:1042E000D10644BF20238DF85330130744BF2B233E
:1042F0008DF853309AF800302A2B15D0079A54467F
:1043000000204FF00A0C214611F8013B303B092BED
:104310004BD9B0B1079214E0A0EB080309FA03F3FC
:1043200013430493A246D2E7039B191D1B68039114
:10433000002BBBBF5B4242F0020207930793B8BF5A
:10434000049223782E2B0AD163782A2B32D1039B37
:104350001A1D1B68039243EAE37302340593DFF8E6
:10436000D4A0217803225046FBF7A2FF38B1049B6A
:10437000A0EB0A004022824013430134049314F856
:10438000011B29488DF828100622FBF791FF002811
:104390003FD0264B1BBB039B073323F00703083397
:1043A0000393099B3B4409936AE70CFB02320C46DA
:1043B0000120A8E700230134059319464FF00A0CA9
:1043C000204610F8012B303A092A03D9002BC6D019
:1043D0000591C4E70CFB012104460123F0E703AB80
:1043E00000932A46124B04A93046AFF300800746DB
:1043F000781CD6D16B6ED90705D4AB899A0502D447
:10440000A86DFCF7FFF8AB895B063FF51FAF099875
:104410001EE703AB00932A46054B04A9304600F083
:1044200093F8E4E7EA640008F46400080000000080
:10443000E3410008F064000813460A4601460248BA
:104440000068FFF7E1BE00BF0C000020024B0146F0
:104450001868FCF7FBB800BF0C000020024B0146B7
:104460001868FCF7C5BA00BF0C0000202DE9F04722
:10447000164698468A680B69DDF820909342B8BFCB
:104480001346336091F8432007460C460AB10133C6
:1044900033602368990642BF33680233336025686E
:1044A00015F0060506D104F1190AE36832689B1A73
:1044B000AB4226DC94F843302268003B18BF01234E
:1044C00092062BD404F1430241463846C8470130D6
:1044D0001ED02368226903F00603042B02BFE5689F
:1044E0003368ED1AA3680CBF25EAE57500259342F1
:1044F000C4BF9B1AED1800261A34B5421AD1002009
:1045000008E00123524641463846C847013003D1EE
:104510004FF0FF30BDE8F0870135C6E7E1185A1CBF
:10452000302081F84300224494F8451082F843106B
:104530000233C7E70123224641463846C8470130C7
:10454000E6D00136D9E700002DE9FF470F7E0C9E2B
:10455000782F914680460C469A4601F1430207D8CF
:10456000622F0AD8002F00F0DD80582F00F0C380A2
:1045700004F1420684F842703AE0A7F16303152B78
:10458000F6D801A151F823F0E1450008F5450008EF
:104590007145000871450008714500087145000823
:1045A000F54500087145000871450008714500088F
:1045B000714500080B47000883460008C346000801
:1045C00071450008714500082D4700087145000835
:1045D000834600087145000871450008CB46000875
:1045E00033681A1D1B68326004F1420684F84230B9
:1045F0000123A8E031682368081D30601E0601D53C
:104600000D6803E05D06FBD5B1F900506168002D2F
:1046100078DA2D20002984F84300A1602DDA5E4865
:104620006D420A231646B5FBF3F103FB1157C75D34
:1046300006F8017D2F46BB420D46F4D9082B0BD15D
:104640002368DF0708D5236961689942DEBF3023FC
:1046500006F8013C06F1FF36921B2261CDF800A05E
:104660004B4603AA21464046FFF700FF01306FD1B9
:104670004FF0FF3004B0BDE8F08723F0040323605F
:10468000CDE721683368080653F8045B02D4490675
:1046900048BFADB26F2F4048336014BF0A230823D0
:1046A000002184F843106668A660002EBADB2168FA
:1046B00021F004012160002DB4D1002EB2D11646A4
:1046C000BCE7236843F0200323603448782784F84C
:1046D0004570236831681F0651F8045B02D45F06F9
:1046E00048BFADB23160D90744BF43F02003236017
:1046F0001DB11023D4E72848E9E7236823F02003FD
:104700002360F6E724480A23CDE73368256861690A
:10471000181D30602E061B6801D5196002E068067E
:10472000FBD5198000232361164697E733681A1DCD
:1047300032601E68626800213046FBF7B9FD08B19F
:10474000801B606063682361002384F8433085E741
:104750002369324649464046D047013088D0236815
:104760009B0714D4E068039B9842B8BF184681E7C2
:104770000123324649464046D04701303FF478AFE6
:104780000135E36803995B1AAB42F1DCEAE70025E7
:1047900004F11906F5E700BFFB6400080C6500088A
:1047A0000CB430B5174B0C1E1D689DB008DA8B2376
:1047B0002B604FF0FF301DB0BDE8304002B07047B5
:1047C0004FF40273ADF8143014BF04F1FF332346E5
:1047D000049307934FF6FF7302900690ADF81630DE
:1047E000209A21AB02A92846019300F0CBFB431C81
:1047F000BCBF8B232B60002CDDD0029B00221A70E3
:10480000D9E700BF0C000020024B0A460146186899
:1048100000F014B80C0000200EB403B5014603AB41
:10482000054853F8042B00680193FFF7EDFC02B034
:104830005DF804EB03B070470C0000202DE9F04157
:10484000804615460C4621B9BDE8F0411146FBF7FC
:10485000FDBE2AB9FCF7CCF800242046BDE8F08163
:1048600000F08CFC8542064602D8B5EB500FF4D818
:1048700029464046FBF7EAFE07460028ECD0B54241
:104880002A46214628BF324600F048FA21464046D3
:10489000FCF7AEF83C46E0E7242B2DE9F0478646CE
:1048A000904601D8012B06D100F032FA162303609E
:1048B0000020BDE8F08736480D462A4615F8014B22
:1048C000065D16F00806F8D12D2C24D12C7801268F
:1048D000951C2BBB302C30D00A2306F1004C0CF178
:1048E000FF3C0022BCFBF3F9104603FB19CAA4F1FC
:1048F0003007092F28D83C46A34234DD571C07D087
:1049000081452DD301D1A2452ADB00FB03400122C2
:1049100015F8014BEBE72B2C04BF2C78951CD8E73E
:10492000102BDAD1302CD8D12A7802F0DF02582AA5
:10493000D3D16C7810230235CFE72B7803F0DF0357
:10494000582BF6D00823C8E7A4F14107192F01D846
:10495000373CD1E7A4F16107192F04D8573CCBE7C6
:104960004FF0FF32D4E7531C08D12223CEF8003099
:104970006046B8F1000F9CD0691E06E006B14042C7
:10498000B8F1000F95D0002AF6D1C8F8001090E7D2
:104990001E65000813460A46014602480068FFF7F4
:1049A0007BBF00BF0C000020F8B50E46144605463C
:1049B00018B1036A0BB9FBF7C1FDA369A360A38912
:1049C0001A0701D5236943B92146284600F02AF881
:1049D00018B14FF0FF373846F8BD23682269981A9E
:1049E0006369F6B28342374605DC21462846FBF769
:1049F00031FF0028EDD1A368013BA36023685A1C56
:104A000022601E706269431C9A4204D0A389DB07AE
:104A1000E1D50A2EDFD121462846FBF71BFF0028EF
:104A2000D9D0D6E738B5294B054618680C4618B1D9
:104A3000036A0BB9FBF782FDB4F90C30190722D4D5
:104A4000DA0607D409222A6043F04003A3814FF01D
:104A5000FF3033E0580712D5616B41B104F14403D4
:104A6000994202D02846FBF7C3FF00236363A38962
:104A700023F02403A3810023636023692360A389B7
:104A800043F00803A38123694BB9A38903F420737E
:104A9000B3F5007F03D02146284600F03FF8B4F973
:104AA0000C3013F001020AD00022A2606269524267
:104AB000A261226942B913F08000C5D138BD9907BF
:104AC00058BF6269A260F4E70020F7E70C000020FD
:104AD00070B50C46B1F90E10002996B015461E4669
:104AE0000DDAA38913F0800F4FF0000114BF4023AB
:104AF0004FF48063002031602B6016B070BD6A46B1
:104B000000F0E4F80028ECDB019901F47041A1F514
:104B10000053594259414FF48063EBE78B89F7B555
:104B20009D0706460C4607D504F147032360236121
:104B30000123636103B0F0BD01AB6A46FFF7C8FF14
:104B4000009F054639463046FBF780FD48B9B4F969
:104B50000C309A05EED423F0030343F00203A38143
:104B6000E2E7A389206043F08003A381019BC4E9AD
:104B700004075BB1B4F90E10304600F0B9F828B163
:104B8000A38923F0030343F00103A381A3891D43F9
:104B9000A581CFE70FB407B5064904AB086853F801
:104BA000042B81680193FFF72FFB03B05DF804EB42
:104BB00004B070470C000020036A70B58468054695
:104BC0000E460BB9FBF7BAFC636EDB0705D4A3896D
:104BD000980502D4A06DFBF714FDA389190702D52F
:104BE0002369002B35D121462846FFF71BFF80B3F0
:104BF0004FF0FF35636EDA0705D4A3899B0502D415
:104C0000A06DFBF7FFFC284670BD002B15DB236869
:104C10005A1C22601970A36816F8011F013BA3609B
:104C20000029F2D1002B16DA22460A212846FFF786
:104C3000BBFE0130DCD00A25DCE7A2699A4201DC28
:104C40000A29E4D122462846FFF7AEFE0130E2D120
:104C5000CEE7013EDFE723685A1C22600A221A7061
:104C6000E9E70000024B01461868FFF7A5BF00BF47
:104C70000C00002010B56AB10139841810F8012B1E
:104C800011F8013F9A4203D1A04201D0002AF5D188
:104C9000D01A10BD1046FCE7884210B501EB0204A3
:104CA00002D98442234607D8431EA14208D011F8F6
:104CB000012B03F8012FF8E7024401468A4200D194
:104CC00010BD13F8014D02F8014DF7E738B5074D57
:104CD00000230446084611462B6000F041FB431CAC
:104CE00002D12B6803B1236038BD00BFF40100205E
:104CF00038B5064D0023044608462B6000F040FB03
:104D0000431C02D12B6803B1236038BDF40100209D
:104D1000014B1868704700BF0C0000200A44914204
:104D200000F1FF3300D1704710B511F8014B03F8C3
:104D3000014F9142F9D110BD0A22002100F0FEBAC4
:104D40002DE9F843274D0746286891460E469846B8
:104D5000FBF757FC244A14683CB9244B1360244ADF
:104D600012B11268C3F88820204C63681F2B06DD3F
:104D70002868FBF747FC4FF0FF30BDE8F8832FB3FE
:104D8000D4F8880068B91B4B002BF1D04FF4847025
:104D9000FFF75CFB0028EBD00023C0E94033C4F8E8
:104DA0008800636840F8239001229A4000EB830159
:104DB000D0F800311343C0F80031022FC1F88080D1
:104DC00002BFD0F804311343C0F804316368286887
:104DD0005A1C0233626044F82360FBF713FC002086
:104DE000CBE700BF88000020A80300201C030020A0
:104DF000000000004D4400082DE9F74FDFF8B880AF
:104E00000190D8F80000DFF8B4900F46FBF7F9FBEB
:104E1000D9F8006036B9D8F8000003B0BDE8F04F0B
:104E2000FBF7F0BB7568D6F888B06C1E013506EB51
:104E300085050BF1800A002CEDDB7FB1BBF1000F83
:104E400002D1013C043DF6E75AF82420BA4205D0CD
:104E5000013C631CA5F10405F0D1DCE771682A6808
:104E60000139A14216BF002174602960002AE8D0F0
:104E700073680093BBF1000F07D0DBF8001101232A
:104E800003FA04FC1CEA010F09D190477168009BEA
:104E9000D9F800209942BBD19642D2D0B8E7DBF8CE
:104EA00004015BF824101CEA000F02D1019890471E
:104EB000ECE708469047E9E788000020A8030020B7
:104EC00008B5062000F08AF9012000F087FA2DE9E4
:104ED000F0478E681F46BE420B6882460C469046DD
:104EE0002DD8B1F90C2012F4906F26D065690969AC
:104EF00005EB4505A3EB010905EBD5757B1C4B4480
:104F00006D109D4238BF1D46530527D52946FBF736
:104F10009DFB064660B321694A46FFF7FFFEA38961
:104F200023F4906343F08003A381266165614E44BE
:104F3000A5EB09052660A5603E46BE4200D93E4667
:104F4000206832464146FFF7A7FEA3689B1BA3607B
:104F50002368334423600020BDE8F0872A46FFF72A
:104F60006DFC06460028E0D121695046FBF740FD64
:104F70000C23CAF80030A38943F04003A3814FF00B
:104F8000FF30E9E72DE9F04F98468B891B069DB06D
:104F900007460D46144610D50B6973B94021FBF73F
:104FA00055FB2860286130B90C233B604FF0FF307F
:104FB0001DB0BDE8F08F40236B61002309932023CF
:104FC0008DF82930CDF80C803023DFF89C818DF8E6
:104FD0002A304FF0010923469A4613F8012B0AB1F3
:104FE000252AF9D1BAEB040B0BD05B4622462946A1
:104FF0003846FFF76CFF013000F0A780099A5A4449
:1050000009929AF80030002B00F09F8000234FF0A7
:10501000FF32CDE905230AF1010A049307938DF8C5
:1050200053301A935446052214F8011B4E48FBF7DF
:105030003FF9049AD8B9D00644BF20238DF85330E5
:10504000110744BF2B238DF853309AF800302A2BD8
:1050500015D0079A544600204FF00A0C214611F84B
:10506000013B303B092B4BD9B0B1079214E0A0EBC8
:10507000080309FA03F313430493A246D2E7039B00
:10508000191D1B680391002BBBBF5B4242F002025B
:1050900007930793B8BF049223782E2B0AD1637825
:1050A0002A2B32D1039B1A1D1B68039243EAE37338
:1050B00002340593DFF8C0A0217803225046FBF7A5
:1050C000F7F838B1049BA0EB0A004022824013435A
:1050D0000134049314F8011B24488DF8281006228B
:1050E000FBF7E6F8002836D0214B1BBB039B0733A8
:1050F00023F0070308330393099B334409936AE7BA
:105100000CFB02320C460120A8E700230134059372
:1051100019464FF00A0C204610F8012B303A092AA4
:1051200003D9002BC6D00591C4E70CFB012104462E
:105130000123F0E703AB00932A460E4B04A938463F
:10514000AFF30080421C0646D6D1AB895B063FF523
:105150002DAF09982CE703AB00932A46054B04A911
:105160003846FFF7F1F9EDE7EA640008F464000857
:1051700000000000CF4E0008F064000851F8043C25
:10518000181F002BBCBF0B58C01870471F2938B51B
:1051900005460C4604D9162303604FF0FF3038BD96
:1051A000C26B12B152F821304BB9284600F030F8EA
:1051B000224601462846BDE8384000F017B8012BCA
:1051C0000AD0591C03D1162303600120E7E7002110
:1051D00042F82410204698470020E0E7024B0146A1
:1051E0001868FFF7D3BF00BF0C00002038B5074D8B
:1051F00000230446084611462B6000F0C9F8431C02
:1052000002D12B6803B1236038BD00BFF401002038
:1052100000F0AEB82DE9F04F85B09046464A0290B6
:1052200089461E460D462B4615F8014B175D17F0B3
:105230000807F8D12D2C41D12C7801279D1C002E78
:1052400041D1302C4CD00A2607F1004A07F1FF3B30
:105250000AF1FF3AF3173246584651460393FBF7DB
:1052600007F8019200228E46844611461046A4F1AA
:105270003003092B05D9A4F14103192B37D8A4F128
:1052800037039E423DDD541C15D084457EEB010260
:1052900034D38E4508BF844502D1019A9A422DDB52
:1052A000039A714300FB0211A6FB00020A4418187E
:1052B00042EBE371012215F8014BD8E72B2C04BF18
:1052C0002C789D1CBBE7102EBED1302CBCD12B7886
:1052D00003F0DF03582BB7D16C7810260235B3E703
:1052E0002B7803F0DF03582BF6D00826ACE7A4F1A7
:1052F0006103192B05D8A4F15703C2E74FF0FF3221
:10530000D9E7531C0AD1029A22231360584651460A
:10531000B8F1000F0AD105B0BDE8F08F17B14042D7
:1053200061EB4101B8F1000FF5D00AB105F1FF3989
:10533000C8F80090EFE700BF1E65000813460A4654
:10534000014602480068FFF765BF00BF0C0000205F
:10535000024B58221A604FF0FF307047F4010020D2
:10536000024B58221A604FF0FF307047F4010020C2
:10537000024B58221A604FF0FF307047F4010020B2
:10538000024B58221A600020704700BFF401002031
:10539000024B58221A604FF0FF307047F401002092
:1053A000024B58221A604FF0FF307047F401002082
:1053B000024B58221A604FF0FF307047F401002072
:1053C000044A05491368002B08BF0B4618441060B7
:1053D00018467047AC030020B0030020FEE700BF72
:1053E000F8B500BFF8BC08BC9E467047F8B500BFD2
:0853F000F8BC08BC9E467047A2
:1053F800FFFFFFFFFFFFFF7FFFFFFFFF0000000031
:10540800FFFFFFFFFFFFFF7FFFFFFFFF0000000020
:105418002D2D2D2D2D2D2D2D2D2053544152542D14
:105428002D2D2D2D2D2D2D2D2D2D2D200D00000058
:105438004D4553534147452053544D5F6D61696E47
:105448000D0000004D4553534147452053544D5FCF
:105458006D61696E5F656E640D00000000000000FC
:105468000102030400000000000000000102030420
:105478000607080968656C6C6F20776F726C640D9D
:105488000000000054696D6572207072696E740DB9
:10549800000000003F0000004D45535341474520A0
:1054A8004C465F6D61696E0D000000004661696CD5
:1054B800656420746F20726561642074686520706B
:1054C8006879736963616C20636C6F636B2E00008D
:1054D800656E7620213D20474C4F42414C5F454E3A
:1054E8005649524F4E4D454E540000002F55736596
:1054F80072732F6E61696368656E7A68616F2F4495
:1055080065736B746F702F454543533134392D5093
:10551800726F6A6563742F4C46435F506F7274698B
:105528006E672F6C66635F7465737462656E63681B
:105538002F7372632D67656E2F4D61696E2F636FD0
:1055480072652F7461672E63000000003000000050
:105558002D000000256C6C64000000002C25303301
:105568006C6C64006C665F74696D655F6C6F67690D
:1055780063616C002F55736572732F6E6169636880
:10558800656E7A68616F2F4465736B746F702F4511
:105598004543533134392D50726F6A6563742F4C0B
:1055A80046435F506F7274696E672F6C66635F74F1
:1055B80065737462656E63682F7372632D67656EB9
:1055C8002F4D61696E2F636F72652F726561637409
:1055D8006F725F636F6D6D6F6E2E63004F75742011
:1055E8006F66206D656D6F72792100006C665F7360
:1055F80063686564756C6528292063616C6C6564F3
:105608002061667465722073746F70207461672EF0
:10561800000000007363686564756C652063616CE5
:105628006C656420776974682061206E65676174B1
:105638006976652065787472615F64656C6179204C
:10564800256C6C642E205265706C6163696E6720EE
:1056580077697468207A65726F2E000041747465EA
:105668006D7074696E6720746F2073636865647504
:105678006C6520616E206576656E74206561726C5C
:10568800696572207468616E2063757272656E74E4
:105698002074696D6520627920256C6C64206E73B6
:1056A800656321205265766973696E6720746F207F
:1056B8007468652063757272656E742074696D65AF
:1056C80020256C6C642E00005F6C665F61647661F7
:1056D8006E63655F6C6F676963616C5F74696D6544
:1056E80028293A20417474656D7074656420746F5C
:1056F800206D6F76652074696D6520746F20256C48
:105708006C642C2077686963682069732070617302
:1057180074207468652068656164206F6620746809
:1057280065206576656E742071756575652C202514
:105738006C6C642E000000005F6C665F61647661CB
:105748006E63655F6C6F676963616C5F74696D65D3
:1057580028293A20417474656D7074656420746FEB
:10576800206D6F766520746167206261636B2069C4
:105778006E2074696D652E000A436F6D6D616E64ED
:105788002D6C696E6520617267756D656E74733A0C
:10579800200A000020202D662C202D2D66617374B0
:1057A800205B74727565207C2066616C73655D0092
:1057B8002020205768657468657220746F207761AF
:1057C800697420666F7220706879736963616C20F0
:1057D80074696D6520746F206D61746368206C6FE7
:1057E800676963616C2074696D652E0A00000000AA
:1057F80020202D6F2C202D2D74696D656F757420F8
:105808003C6475726174696F6E3E203C756E697494
:10581800733E000020202053746F70206166746509
:1058280072207468652073706563696669656420B1
:10583800616D6F756E74206F66206C6F6769636148
:105848006C2074696D652C20776865726520756EAB
:1058580069747320617265206F6E65206F66000041
:105868002020206E7365632C20757365632C206D72
:105878007365632C207365632C206D696E75746580
:105888002C20686F75722C206461792C20776565EF
:105898006B2C206F722074686520706C7572616C57
:1058A80073206F662074686F73652E0A000000000D
:1058B80020202D6B2C202D2D6B656570616C697611
:1058C80065000000202020576865746865722063B1
:1058D8006F6E74696E756520657865637574696F38
:1058E8006E206576656E207768656E2074686572CF
:1058F8006520617265206E6F206576656E74732011
:10590800746F2070726F636573732E0A0000000055
:1059180020202D772C202D2D776F726B65727320C8
:105928003C6E3E00202020457865637574656420D0
:10593800696E203C6E3E20746872656164732069EC
:105948006620706F737369626C6520286F70746964
:105958006F6E616C2066656174757265292E0A0028
:1059680020202D692C202D2D6964203C6E3E0000DE
:10597800202020546865204944206F66207468659B
:105988002066656465726174696F6E2074686174FD
:1059980020746869732072656163746F7220776917
:1059A8006C6C206A6F696E2E0A000000436F6D6D83
:1059B800616E6420676976656E3A00002573200081
:1059C8002D6600002D2D6661737400002D2D666113
:1059D8007374206E65656473206120626F6F6C65F7
:1059E800616E2E00747275650000000066616C734C
:1059F80065000000496E76616C69642076616C759B
:105A08006520666F72202D2D666173743A202573A8
:105A1800000000002D6F00002D2D74696D656F75F5
:105A2800740000002D74696D656F757400000000C6
:105A38002D2D74696D656F7574206E6565647320AE
:105A480074696D6520616E6420756E6974732E00CB
:105A5800496E76616C69642074696D652076616C45
:105A680075653A2025730000736563006D7365637F
:105A78000000000075736563000000006E736563C5
:105A8800000000006D696E00686F7572000000000C
:105A9800646179007765656B00000000496E766186
:105AA8006C69642074696D6520756E6974733A2039
:105AB800257300002D6B00002D2D6B656570616CE2
:105AC800697665002D2D6B656570616C697665205A
:105AD8006E65656473206120626F6F6C65616E2E00
