:020000040800F2
:1000000000000220912500087D0E00087F0E0008E8
:10001000810E0008830E0008850E00080000000015
:10002000000000000000000000000000870E000833
:10003000890E0008000000008B0E00088D0E0008DD
:10004000E1250008E1250008E1250008E125000878
:10005000E1250008E1250008E1250008E125000868
:10006000E1250008E1250008E1250008E125000858
:10007000E1250008E1250008E1250008E125000848
:10008000E1250008E1250008E1250008E125000838
:10009000E1250008E1250008E1250008E125000828
:1000A000E1250008E1250008E1250008E125000818
:1000B000E1250008E1250008E1250008E125000808
:1000C000E1250008E1250008E1250008E1250008F8
:1000D000E1250008E1250008950E0008E12500084B
:1000E000E1250008E1250008E1250008E1250008D8
:1000F000E1250008E1250008E1250008E1250008C8
:10010000E1250008E125000815510008E125000857
:10011000E1250008E1250008E1250008E1250008A7
:10012000E1250008E1250008E1250008E125000897
:10013000E12500080000000000000000E1250008A3
:10014000E1250008E1250008E1250008E125000877
:10015000E1250008E1250008E1250008E125000867
:10016000E1250008E1250008E1250008E125000857
:10017000E1250008E1250008E12500080000000055
:1001800000000000E1250008000000000000000061
:10019000E12500080000000000000000E125000843
:1001A000000000000000000000000000E125000841
:1001B000E1250008E1250008E1250008E125000807
:0401C000E12500082D
:1001D00080F0004002E000BF81F0004142001FBFFC
:1001E0005FEA410392EA030F7FEA226C7FEA236C05
:1001F0006AD04FEA1262D2EB1363C1BFD2184140FA
:1002000048404140B8BF5B42192B88BF704710F08F
:10021000004F40F4000020F07F4018BF404211F032
:10022000004F41F4000121F07F4118BF494292EA9A
:10023000030F3FD0A2F1010241FA03FC10EB0C00C6
:10024000C3F1200301FA03F100F0004302D5494253
:1002500060EB4000B0F5000F13D3B0F1807F06D300
:1002600040084FEA310102F10102FE2A51D2B1F1F8
:10027000004F40EBC25008BF20F0010040EA0300ED
:100280007047490040EB0000013A28BFB0F5000F6D
:10029000EDD2B0FA80FCACF1080CB2EB0C0200FA23
:1002A0000CF0AABF00EBC25052421843BCBFD04072
:1002B0001843704792F0000F81F4000106BF80F4EC
:1002C00000000132013BB5E74FEA41037FEA226CAF
:1002D00018BF7FEA236C21D092EA030F04D092F07A
:1002E000000F08BF0846704790EA010F1CBF0020AE
:1002F000704712F07F4F04D1400028BF40F000400B
:10030000704712F100723CBF00F50000704700F02A
:10031000004343F0FE4040F4000070477FEA226251
:1003200016BF08467FEA23630146420206BF5FEA22
:10033000412390EA010F40F4800070474FF0000322
:1003400004E000BF10F0004348BF40425FEA000CE9
:1003500008BF704743F0964301464FF000001CE091
:1003600050EA010208BF70474FF000030AE000BFE7
:1003700050EA010208BF704711F0004302D5404225
:1003800061EB41015FEA010C02BF84460146002097
:1003900043F0B64308BFA3F18053A3F50003BCFAB2
:1003A0008CF2083AA3EBC25310DB01FA02FC63445F
:1003B00000FA02FCC2F12002BCF1004F20FA02F266
:1003C00043EB020008BF20F00100704702F1200259
:1003D00001FA02FCC2F1200250EA4C0021FA02F2BA
:1003E00043EB020008BF20EADC7070477BB972B9AA
:1003F0000029BEBF00204FF0004106E008BF0028E2
:100400001CBF6FF000414FF0FF3000F057B8ADF166
:10041000080C6DE904CE002909DB002B1ADB04F07F
:100420008BFFDDF804E0DDE9022304B070474042B1
:1004300061EB4101002B1BDB04F07EFFDDF804E0E3
:10044000DDE9022304B0404261EB4101524263EB1B
:1004500043037047524263EB430304F06DFFDDF842
:1004600004E0DDE9022304B0404261EB4101704742
:10047000524263EB430304F05FFFDDF804E0DDE983
:10048000022304B0524263EB4303704753B94AB9A5
:10049000002908BF00281CBF4FF0FF314FF0FF308C
:1004A00000F00CB8ADF1080C6DE904CE04F044FF87
:1004B000DDF804E0DDE9022304B07047704700BFB7
:1004C00001F0FF01102A2BDB10F0070F08D010F805
:1004D000013B013A8B422DD010F0070F42B3F6D109
:1004E000F0B441EA012141EA014122F007047FF022
:1004F00000070023F0E80256083C85EA010586EA79
:10050000010685FA47F5A3FA87F586FA47F6A5FAB4
:1005100087F68EB9EED1F0BC01F0FF0102F00702C0
:1005200032B110F8013B013A83EA010313B1F8D16B
:100530000020704701387047002D06BF354603384C
:10054000073815F0010F07D1013015F4807F02BF85
:10055000013015F4C03F0130F0BC0138704700BFD6
:10056000034613F8012B002AFBD1181A01387047F3
:1005700010F8012B11F8013B012A28BF9A42F7D04D
:10058000D01A70470348044B834202D0034B03B197
:10059000184770478C0000208C00002000000000ED
:1005A0000548064B1B1AD90F01EBA301491002D0D5
:1005B000034B03B1184770478C0000208C000020CB
:1005C0000000000010B5064C237843B9FFF7DAFFAE
:1005D000044B13B10448AFF300800123237010BD16
:1005E00090000020000000009467000808B5054B4B
:1005F0001BB105490548AFF30080BDE80840FFF78F
:10060000CFBF00BF000000009400002094670008E6
:1006100008B5064B044613B1002105F021FE044B3A
:100620001B6803B19847204606F0B2F861620008E3
:10063000E4010020002310B50446C0E90033C0E9FE
:100640000433836081814366C28183611946082235
:100650005C3000F0B1F80D4B63620D4BA3620D4BA3
:10066000E3620D4B23630D4B24629C4206D003F1E1
:100670006802944202D0D0339C4205D104F1580064
:10068000BDE8104000F0C4B810BD00BFCD0A00089E
:10069000EF0A0008270B00084B0B0008AC000020F5
:1006A000024A0349034800F069B800BF0000002077
:1006B000650A00081000002041680C4B994210B5F3
:1006C000044601D000F0CEF9A168094B994202D04E
:1006D000204600F0C7F9E168064B994204D0204655
:1006E000BDE8104000F0BEB910BD00BFAC00002056
:1006F000140100207C01002010B50B4B0B4C0C4A60
:100700001A60204600220421FFF794FF04F16800DC
:1007100001220921FFF78EFF04F1D0000222BDE87B
:1007200010401221FFF786BFE4010020AC0000203A
:10073000A1060008014800F06CB800BFEA010020E3
:10074000014800F067B800BFEA01002010B5044678
:10075000FFF7F0FF236A1BB1BDE81040FFF7F0BFC1
:10076000044B2362044B1B68002BF5D1FFF7C4FF39
:10077000F2E700BFB9060008E40100202DE9F843C4
:100780000746884614460026D4E90195B9F10109C7
:1007900005D52468002CF7D13046BDE8F883AB8935
:1007A000012B07D9B5F90E30013303D0294638465D
:1007B000C04706436835E9E702440346934200D147
:1007C000704703F8011BF9E770B50D4D0D4C641B24
:1007D000A4100026A64209D10B4D0C4C05F0DAFFFF
:1007E000641BA4100026A64205D170BD55F8043B39
:1007F00098470136EEE755F8043B98470136F2E793
:10080000A8720008A8720008A8720008AC7200085C
:10081000704770477047000070B50F4E0C46316846
:10082000054611B900F0CAF930602146284600F0AB
:10083000C5F9431C03D14FF0FF34204670BDC41CE2
:1008400024F00304A042F8D0211A284600F0B6F99B
:100850000130F2D1EFE700BFEC0100202DE9F843B1
:10086000CD1C25F0030508350C2D38BF0C25002DB7
:10087000064601DBA94204D90C2333600020BDE801
:10088000F883DFF8D48000F015F9D8F800301C4662
:1008900044BB29463046FFF7BFFF431C044658D1EE
:1008A000D8F800402746002F43D1002C4BD02368B6
:1008B0003946304604EB030900F080F9814542D106
:1008C00021686D1A29463046FFF7A6FF01303AD05D
:1008D00023682B442360D8F800305A6862BBC8F8FC
:1008E00000700FE02268521B20D40B2A17D961191F
:1008F000A342256018BF5960636808BFC8F800109C
:1009000062514B60304600F0DBF804F10B00231D10
:1009100020F00700C21A1CBF1B1AA350AFE7626881
:10092000A3420CBFC8F800205A60EBE72346646876
:10093000AEE73C467F68B6E71A465B68A342FBD148
:1009400000235360DEE70C233360304600F0B8F834
:1009500094E70560D6E700BFF0010020B1F90C2054
:100960002DE9F041170705460C4656D44B68002B7D
:1009700002DC0B6C002B3DDDE66A002E3AD0002332
:1009800012F480522F68216A2B6025D0626DA389F2
:10099000580705D56368D21A636B0BB1236CD21A62
:1009A000216AE66A00232846B047411C24D0002370
:1009B000636023692360A389DA0400D56065616BF5
:1009C0002F60B9B104F14403994202D0284600F0E7
:1009D00017F9002363630DE001232846B047461C46
:1009E0000246D4D12B68002BD1D01D2B01D0162B61
:1009F0002BD12F6000202FE02A68B4F90C3042B1CF
:100A00001D2A01D0162A22D10023636023692360A6
:100A1000D5E7626022692260CEE70F69002FE9D036
:100A200093070E6808BF4B690F6018BF0023A6EB41
:100A300007088B60B8F1000FDCDD216AA66A434627
:100A40003A462846B047002808DCB4F90C3043F099
:100A50004003A3814FF0FF30BDE8F0810744A8EBCD
:100A60000008E7E738B50B6905460C4613B90025C1
:100A7000284638BD18B1036A0BB9FFF767FEB4F911
:100A80000C30002BF3D0626ED00704D4990502D449
:100A9000A06DFFF7BEFE28462146FFF75FFF636E9D
:100AA000DA070546E4D4A3899B05E1D4A06DFFF7DE
:100AB000B1FEDDE70148FFF7ACBE00BFE801002052
:100AC0000148FFF7A7BE00BFE801002010B50C46A3
:100AD000B1F90E1000F060F80028ABBF636DA38978
:100AE0001B1823F48053ACBF6365A38110BD2DE9AF
:100AF000F0411F468B89DB0505460C46164605D599
:100B0000B1F90E100223002200F034F8A389B4F9E1
:100B10000E1023F48053A38132463B462846BDE89D
:100B2000F04100F05BB810B50C46B1F90E1000F0C2
:100B300021F8431CA38915BF606523F4805343F457
:100B40008053A38118BFA38110BDB1F90E1000F02E
:100B500001B8000038B5064D0023044608462B6056
:100B600005F0E0FD431C02D12B6803B1236038BDC2
:100B7000F401002038B5074D04460846114600220E
:100B80002A601A4605F0E6FD431C02D12B6803B12A
:100B9000236038BDF401002038B5074D04460846EF
:100BA000114600222A601A4605F0DCFD431C02D1E2
:100BB0002B6803B1236038BDF401002038B5064D21
:100BC0000023044608462B6005F0D4FD431C02D1E7
:100BD0002B6803B1236038BDF401002038B5074D00
:100BE00004460846114600222A601A4600F06CF8B6
:100BF000431C02D12B6803B1236038BDF4010020EF
:100C000038B50546002941D051F8043C0C1F002B93
:100C1000B8BFE418FFF74EFF1D4A136833B963608D
:100C200014602846BDE83840FFF74ABFA34208D900
:100C3000206821188B4201BF19685B680918216080
:100C4000EDE71A465B680BB1A342FAD91168501858
:100C5000A0420BD120680144501883421160E0D1BA
:100C600018685B68536008441060DAE702D90C2307
:100C70002B60D6E7206821188B4204BF19685B6897
:100C8000636004BF091821605460CAE738BD00BF23
:100C9000F001002008B50A480A4B03604FF4E13325
:100CA000436000238360C36003610C22426183615F
:100CB000C36101F0D3F908B172B6FEE708BD00BF09
:100CC000F80100200044004010B514464FF0FF33F7
:100CD00092B2024801F0F1F9204610BDF80100205F
:100CE00008B5FFF7D7FF034805F0F0F901F0F2FF70
:100CF00008BD00BFD067000882B0002100910B4BF7
:100D00005A6C42F480425A645A6C02F48042009257
:100D1000009A01911A6C42F080521A641B6C03F025
:100D200080530193019B02B0704700BF003802401E
:100D300000B589B0002303930493059306930793AA
:100D40000268134B9A4202D009B05DF804FB0021FF
:100D5000019103F5E2331A6C42F000521A641A6CE6
:100D600002F000520192019A02911A6B42F00102C4
:100D70001A631B6B03F001030293029B202303936E
:100D80000323049303A9034800F046FADCE700BFFD
:100D9000007400400000024010B588B000230393A7
:100DA00004930593069307930268184B9A4201D067
:100DB00008B010BD0024019403F5FA331A6C42F414
:100DC00000321A641A6C02F400320192019A029401
:100DD0001A6B42F001021A631B6B03F001030293CA
:100DE000029B0C23039302230493032306930723FC
:100DF000079303A9064800F00FFA22462146262051
:100E000000F0F2F8262000F0FFF8D1E7004400409F
:100E10000000024000B589B00023039304930593BA
:100E2000069307930368B3F1804F02D009B05DF8D1
:100E300004FB0021019103F50E331A6C42F001020C
:100E40001A641A6C02F001020192019A02911A6B63
:100E500042F001021A631B6B03F001030293029B31
:100E600003230393022304930123079303A9024856
:100E700000F0D2F9DAE700BF00000240FEE7FEE72B
:100E8000FEE7FEE7FEE770477047704708B500F0E1
:100E900053F808BD08B5024801F004FA08BD00BFC8
:100EA000F8010020034AD2F8883043F47003C2F8F6
:100EB0008830704700ED00E010B504460E4B1A78FC
:100EC0004FF47A73B3FBF2F30C4A1068B0FBF3F003
:100ED00000F0A8F868B90F2C01D901200AE000221F
:100EE00021464FF0FF3000F07FF8054B1C600020DA
:100EF00000E0012010BD00BF600000205C00002069
:100F00006400002008B50B4B1A6842F400721A60A6
:100F10001A6842F480621A601A6842F480721A6099
:100F2000032000F04FF80F20FFF7C6FFFFF7E4FEA5
:100F3000002008BD003C0240034A1168034B1B78A7
:100F40000B441360704700BF3C020020600000208B
:100F5000014B1868704700BF3C020020002808DBE6
:100F60000901C9B200F1604000F5614080F800134A
:100F7000704700F00F000901C9B2014B19547047C6
:100F800014ED00E000B500F00700C0F1070CBCF163
:100F9000040F28BF4FF0040C031D062B0FD9C31EEE
:100FA0004FF0FF3E0EFA0CF021EA000199400EFAD4
:100FB00003FE22EA0E0241EA02005DF804FB002370
:100FC000EEE70000074AD36823F4E0631B041B0C20
:100FD000000200F4E060034343F0BF6343F40033D6
:100FE000D360704700ED00E010B50446054BD868AB
:100FF000C0F30220FFF7C6FF01462046FFF7AEFF11
:1010000010BD00BF00ED00E0002807DB00F01F026C
:10101000400901239340024A42F82030704700BF44
:1010200000E100E00138B0F1807F0BD24FF0E02307
:101030005861054AF02182F82310002098610722A8
:101040001A6170470120704700ED00E070B110B5E3
:101050000446037933B10223237100202061012368
:10106000237110BD4371FFF763FEF4E70120704761
:101070004279012A2ED010B4034601224271022087
:1010800018711C68206801F0100C02FA0CF202437F
:10109000226089B919680A6802F03C023C2A06D02D
:1010A00001221A71002058715DF8044B70474A689C
:1010B00042F001024A60F3E71868016801F4701118
:1010C0003C2202FA0CF29142EAD1426842F002025A
:1010D0004260E5E70220704710B483B00024019419
:1010E0000068019051B901990A4408320192019AAD
:1010F0001360002003B05DF8044B704701990A4467
:1011000014320192F3E7034608465979012924D0A5
:1011100010B54FF0010E83F805E0022119711C682B
:10112000216802F0100240F6FE7C0CFA02FC21EA73
:101130000C0C016840680143914041EA0C012160B8
:101140001C682168C02000FA02F221EA0202226033
:1011500083F804E00020587110BD0220704770B57C
:101160000446866DFFF7F4FE94F83530DBB2022BAF
:1011700006D080236365002384F83430012070BDDD
:1011800005462268136823F016031360226853692A
:1011900023F080035361236CE3B12268136823F0CA
:1011A000080313602268136823F0010313602368A7
:1011B0001B6813F0010F11D0FFF7CAFE431B052B6C
:1011C000F5D920236365032084F83500002384F8D3
:1011D0003430D4E7A36C002BDFD1E3E7E26D3F238B
:1011E0009340B360012384F83530002084F8340044
:1011F000C5E790F83530DBB2022B03D0802343657E
:1012000001207047052380F835300268136823F009
:10121000010313600020704700230F2B00F2E380CE
:1012200070B582B065E085684FEA430E032404FA86
:101230000EF425EA0405CC6804FA0EF42C4384600D
:10124000446824EA02044A68C2F300129A40224326
:1012500042605CE0DC08083450F8242003F0070505
:10126000AD004FF00F0E0EFA05FE22EA0E0E0A69CF
:10127000AA4042EA0E0240F824205CE0062200E088
:10128000002202FA0EF22A430234574D45F8242078
:10129000564A14686FEA0C0224EA0C054E6816F4EC
:1012A000803F01D04CEA0405504C2560646802EA96
:1012B00004054E6816F4003F01D04CEA04054B4C7F
:1012C0006560A46802EA04054E6816F4801F01D028
:1012D0004CEA0405454CA560E46822404D6815F4CD
:1012E000001F01D04CEA0402404CE26001330F2B96
:1012F00077D801229A400C6804EA020C32EA04040E
:10130000F4D14C6804F00304013C012C8BD94A68E9
:1013100002F00302032A09D0C4685D000322AA4038
:1013200024EA02048A68AA402243C2604A6802F0A2
:101330000302022A8ED004684FEA430E032202FA07
:101340000EF224EA02044A6802F0030202FA0EF2E4
:10135000224302604A6812F4403FC7D00022019243
:10136000234A546C44F480445464526C02F4804226
:101370000192019A9C08A51C1B4A52F8255003F0C3
:10138000030E4FEA8E0E0F2202FA0EF225EA020534
:10139000184A90423FF474AF02F58062904216D032
:1013A00002F58062904214D002F58062904212D021
:1013B00002F58062904210D002F5806290420ED019
:1013C00002F5806290423FF459AF072259E70122AB
:1013D00057E7022255E7032253E7042251E705228B
:1013E0004FE702B070BD704700380140003C01403B
:1013F00000380240000002400AB1816170470904D0
:1014000081617047002800F09B8070B50D4604464E
:101410004F4B1B6803F00F038B4208D2CBB24C4AF0
:101420001370136803F00F038B4240F08B80236826
:1014300013F0020F17D013F0040F04D0454A93683D
:1014400043F4E0539360236813F0080F04D0414A3B
:10145000936843F4604393603E4A936823F0F0033B
:10146000A1680B439360236813F0010F32D06368C7
:10147000012B21D09A1E012A25D9364A126812F072
:10148000020F61D033498A6822F0030213438B6054
:10149000FFF75EFD06462F4B9B6803F00C03626866
:1014A000B3EB820F16D0FFF753FD801B41F2883358
:1014B0009842F0D9032042E0264A126812F4003F15
:1014C000E0D101203BE0234A126812F0007FD9D11D
:1014D000012034E01E4B1B6803F00F03AB4207D919
:1014E000EAB21B4B1A701B6803F00F03AB422DD1FD
:1014F000236813F0040F06D0164A936823F4E053D0
:10150000E1680B439360236813F0080F07D0114A7A
:10151000936823F46043216943EAC103936000F0B8
:1015200047F80C4B9B68C3F303130B4AD35CD840BA
:101530000A4B18600A4B1868FFF7BEFC002070BD0C
:10154000012070470120FAE70120F8E70120F6E7C3
:10155000003C024000380240FC6700085C000020AC
:1015600064000020014B1868704700BF5C00002039
:1015700008B5FFF7F7FF044B9B68C3F38223034AC8
:10158000D35CD84008BD00BF00380240F4670008B3
:1015900008B5FFF7E7FF044B9B68C3F34233034AE8
:1015A000D35CD84008BD00BF00380240F467000893
:1015B00008B5464B9B6803F00C03082B07D00C2B97
:1015C00045D0042B01D0424808BD4248FCE73F4BC0
:1015D0005A6802F03F025B6813F4800F12D03B4B55
:1015E0005968C1F388113B480023A1FB0001FEF7B5
:1015F0004DFF364B5B68C3F3014301335B00B0FB27
:10160000F3F0E1E7314B5868C0F388104FEA401C13
:10161000BCEB000C6EEB0E0E4FEA8E1343EA9C639C
:101620004FEA8C11B1EB0C0163EB0E03DB0043EAD4
:101630005173C90011EB000C43F100039902002320
:101640004FEA8C2041EA9C51FEF720FFD1E71F4B67
:101650005A6802F03F025B6813F4800F10D01B4BF6
:101660005968C1F388111B480023A1FB0001FEF754
:101670000DFF164B5B68C3F30273B0FBF3F0A3E7F7
:10168000124B5868C0F388104FEA401CBCEB000CAA
:101690006EEB0E0E4FEA8E1343EA9C634FEA8C11F9
:1016A000B1EB0C0163EB0E03DB0043EA5173C9009D
:1016B00011EB000C43F10003990200234FEA8C2048
:1016C00041EA9C51FEF7E2FED3E700BF003802403A
:1016D0000024F40040787D01002800F0018270B5FC
:1016E00082B00446036813F0010F41D0994B9B6808
:1016F00003F00C03042B32D0964B9B6803F00C03D1
:10170000082B27D0934B9B6803F00C030C2B59D06C
:101710006368B3F5803F5BD0B3F5A02F5ED08D4BEF
:101720001A6822F480321A601A6822F480221A6041
:101730006368002B5CD0FFF70BFC0546854B1B68EC
:1017400013F4003F14D1FFF703FC401B6428F5D9C4
:101750000320CCE17F4B5B6813F4800FD2D07D4B2C
:101760001B6813F4003F03D06368002B00F0BA81BC
:10177000236813F0020F60D0764B9B6813F00C0FB8
:101780004AD0744B9B6803F00C03082B3FD0714B7D
:101790009B6803F00C030C2B69D0E368002B75D019
:1017A0006D4B01221A60FFF7D3FB0546694B1B689E
:1017B00013F0020F61D1FFF7CBFB401B0228F5D9D4
:1017C000032094E1634B5B6813F4800FA0D0C6E75D
:1017D000604A136843F480331360A9E75D4B1A68CD
:1017E00042F480221A601A6842F480321A609FE73D
:1017F000FFF7AEFB0546574B1B6813F4003FB7D00D
:10180000FFF7A6FB401B6428F5D903206FE1514B7D
:101810005B6813F4800FBAD14E4B1B6813F0020FB4
:1018200003D0E368012B40F05F814A4A136823F03C
:10183000F803216943EAC1031360236813F0080F1A
:1018400049D06369002B33D0434B0122C3F8802E6B
:10185000FFF77EFB05463F4B5B6F13F0020F3AD15B
:10186000FFF776FB401B0228F5D903203FE1394BF7
:101870005B6813F4800F90D1CEE7364A136823F0EB
:10188000F803216943EAC1031360D6E7324B002213
:101890001A60FFF75DFB05462E4B1B6813F0020F25
:1018A000CBD0FFF755FB401B0228F5D903201EE1E2
:1018B000294B0022C3F8802EFFF74AFB0546254B33
:1018C0005B6F13F0020F06D0FFF742FB401B0228AC
:1018D000F5D903200BE1236813F0040F76D01D4BDC
:1018E0001B6C13F0805F33D100230193194B1A6CEA
:1018F00042F080521A641B6C03F080530193019BE9
:101900000125164B1B6813F4807F29D0A368012B97
:101910003AD0052B3ED00F4B1A6F22F001021A6706
:101920001A6F22F004021A67A368002B3CD0FFF75D
:101930000FFB0646074B1B6F13F0020F45D1FFF755
:1019400007FB801B41F288339842F3D90320CEE095
:101950000025D6E7003802400000474200700040F2
:101960006B4A136843F480731360FFF7F1FA06467D
:10197000674B1B6813F4807FC8D1FFF7E9FA801B1F
:101980000228F5D90320B2E0624A136F43F0010345
:101990001367C9E75F4B1A6F42F004021A671A6FA8
:1019A00042F001021A67BFE7FFF7D2FA0646594B29
:1019B0001B6F13F0020F08D0FFF7CAFA801B41F229
:1019C00088339842F3D9032091E0EDB9A369002B45
:1019D00000F08C804F4A926802F00C02082A54D022
:1019E000022B17D04C4B00221A66FFF7B1FA0446BF
:1019F000484B1B6813F0007F45D0FFF7A9FA001B86
:101A00000228F5D9032072E0424A136C23F0805378
:101A10001364DBE7404B00221A66FFF799FA05468C
:101A20003C4B1B6813F0007F06D0FFF791FA401B78
:101A30000228F5D903205AE0E369226A1343626A57
:101A400043EA8213A26A5208013A43EA0243E26A75
:101A500043EA0263226B43EA02732E4A53602E4B21
:101A600001221A66FFF774FA04462A4B1B6813F02A
:101A7000007F06D1FFF76CFA001B0228F5D903207E
:101A800035E0002033E0002031E0012B31D0214B44
:101A90005B6803F48001E26991422CD103F03F02BC
:101AA000216A8A4229D1616A47F6C0721A40B2EBB4
:101AB000811F24D103F44031A26A5208013AB1EBEC
:101AC000024F1ED103F07062E16AB2EB016F1AD1CE
:101AD00003F0E043226BB3EB027F16D1002006E057
:101AE00001207047012002E0012000E0002002B048
:101AF00070BD0120FBE70120F9E70120F7E7012095
:101B0000F5E70120F3E70120F1E70120EFE700BF4F
:101B10000070004000380240000047420368304A2D
:101B2000904212D0B0F1804F0FD0A2F57C4290428B
:101B30000BD002F58062904207D002F5806290429D
:101B400003D002F57842904203D123F070034A6833
:101B50001343234A90422AD0B0F1804F27D0A2F5F8
:101B60007C42904223D002F5806290421FD002F561
:101B7000806290421BD002F57842904217D002F565
:101B80007052904213D002F5806290420FD002F55D
:101B9000806290420BD0A2F59832904207D002F5B5
:101BA0008062904203D002F58062904203D123F418
:101BB0004073CA68134323F080034A6913430360E8
:101BC0008B68C3620B688362054B984203D003F5B0
:101BD0008063984201D10B6903630123436170471D
:101BE00000000140002853D0F8B50D46044690F897
:101BF0003D30002B47D0022384F83D3022689368A3
:101C000023F4804323F007039360214651F8040B2B
:101C1000FFF784FF21688B688A690E6A2868184379
:101C200022F4407222F00302AB68AF6943EA072353
:101C3000134323F47C4323F0FC03EA68EF6942EA90
:101C400007221A432B6A1B032F6943EA0713134326
:101C500026F0AA066A686D6942EA05123243886076
:101C600021688B6123681A62012384F8463084F866
:101C70003E3084F83F3084F8423084F8433084F8B2
:101C80003D300020F8BD80F83C30FFF7C3F8B2E7E4
:101C90000120704701F01F014FF0010C0CFA01FC0C
:101CA000036A23EA0C030362036A8A401343036254
:101CB000704738B5044690F83E00C0B294F83F3003
:101CC00094F84220D2B294F843C00D46B1B901282D
:101CD00049D1012A48D1022384F83E3084F84230A9
:101CE0007DB3042D39D0012200212068FFF7D2FFF7
:101CF000012204212068FFF7CDFF27E0DBB25FFA65
:101D00008CFC042912D0012833D1012B2CD1012ABB
:101D100031D1BCF1010F30D1022384F83E3084F878
:101D20003F3084F8423084F84330D9E7012B1CD18E
:101D3000BCF1010F1BD1022384F83F3084F84330FB
:101D4000CEE7012200212068FFF7A4FF2268136874
:101D500043F001031360002006E001220421206803
:101D6000FFF798FFF2E7012038BD0120FCE7184695
:101D7000FAE70120F8E71846F6E71046F4E7000016
:101D800090F83C20012A3DD010B40346012280F88F
:101D90003C20022280F83D2002685068946820F0C0
:101DA000700C086840EA0C0050601A6816488242BD
:101DB0001AD0B2F1804F17D0A0F57C40824213D0E8
:101DC00000F5806082420FD000F5806082420BD027
:101DD00000F57840824207D000F57050824203D06F
:101DE000A0F59430824204D124F080044968214354
:101DF0009160012283F83D20002083F83C005DF8CB
:101E0000044B70470220704700000140026802F155
:101E10000C0353E8003F23F490730C3242E8003186
:101E20000029F3D1026802F1140353E8003F23F0C4
:101E30000103143242E800310029F3D1036B012B76
:101E400005D0202380F83E300023036370470268EA
:101E500002F10C0353E8003F23F010030C3242E878
:101E600000310029F3D1ECE790F83D30DBB2212BB3
:101E700001D0022070478368B3F5805F17D0036AF2
:101E80005A1C02621A7803685A60C38C9BB2013BE9
:101E90009BB2C3844BB90268D36823F08003D3603C
:101EA0000268D36843F04003D360002070470369A1
:101EB000002BE4D1036A1B880268C3F30803536054
:101EC000036A02330362E0E710B50446026813694F
:101ED00023F44053C1680B431361836802691A43BA
:101EE00043691A43C3691A430168CB6823F4164354
:101EF00023F00C031343CB600268536923F440734F
:101F000081690B4353610368314A934206D002F55D
:101F10008062934202D0FFF72BFB01E0FFF738FB12
:101F2000E369B3F5004F29D00021031849411B187C
:101F300041F10001C90041EA5371DB0018186368E0
:101F40004FEA83024FEA937341F10001FEF79EFAD4
:101F5000204AA2FB00314909642303FB11031B0142
:101F60003233A2FB03235B0903F0F00202EB011200
:101F700003F00F03216813448B6010BD0023021887
:101F800043EB0301121841F10001C90041EA52710B
:101F9000D200101841F10001626892185B41FEF70F
:101FA00075FA0C4AA2FB00314909642303FB1103B3
:101FB000DB003233A2FB03235B095A0002F4F87200
:101FC00002EB011203F00703216813448B60D4E78E
:101FD000001001401F85EB512DE9F84305460F46DF
:101FE00016469946DDF820802B681C6837EA040401
:101FF0000CBF01240024B4422DD1B8F1FF3FF3D02F
:10200000B8F1000F05D0FEF7A3FFA0EB0900404593
:10201000EAD92A6802F10C0353E8003F23F4D07395
:102020000C3242E800310029F3D12A6802F114038E
:1020300053E8003F23F00103143242E80031002945
:10204000F3D1202385F83D3085F83E30002385F814
:102050003C30032000E00020BDE8F88358B310B501
:10206000044690F83D300BB3242384F83D302268B9
:10207000D36823F40053D3602046FFF725FF22687E
:10208000136923F4904313612268536923F02A03F0
:1020900053612268D36843F40053D3600020206466
:1020A000202384F83D3084F83E3010BD80F83C3069
:1020B000FEF772FED8E7012070472DE9F04182B0AB
:1020C0001E4690F83D30DBB2202B54D104460D461D
:1020D0009046002953D0002A53D090F83C30012B71
:1020E00051D0012380F83C3000230364212380F881
:1020F0003D30FEF72DFF0746A4F82480A4F8268083
:10210000A368B3F5805F05D04FF00008002384F882
:102110003C3012E0236913B14FF00008F6E7A846FF
:102120000025F3E738F8023B2268C3F30803536045
:10213000E28C92B2013A92B2E284E38C9BB273B128
:1021400000963B46002280212046FFF745FFE0B97C
:10215000002DE7D015F8012B23685A60E8E70096B8
:102160003B46002240212046FFF736FF78B9202366
:1021700084F83D3000E0022002B0BDE8F08101208B
:10218000FAE70120F8E70220F6E70320F4E703204E
:10219000F2E7704708B50168CA6822F04002CA60D9
:1021A000202280F83D20FFF7F4FF002008BD704793
:1021B00008B5806B0023C385C384FFF7F8FF08BD13
:1021C000704790F83E30DBB2222B67D18368B3F5BD
:1021D000805F4DD0826AB3F5805F04D0002B54D16C
:1021E0000369002B51D103685B681370836A013364
:1021F0008362C38D9BB2013B9BB2C385002B4FD141
:1022000000B583B00268D36823F02003D36002686E
:10221000D36823F48073D3600268536923F0010309
:102220005361202380F83E30036B012B33D1002310
:102230000363026802F10C0353E8003F23F010032C
:102240000C3242E800310029F3D103681A6812F019
:10225000100F06D0002201921A6801925B68019368
:10226000019B818DFFF7ACFF002003B05DF804FBFC
:102270000269002AAED1826A03685B68C3F308036F
:102280001380836A02338362B3E703685B6803F0F9
:102290007F031370AAE700F0FFFAE5E7022070471A
:1022A0000020704710B582B0044602681368D068F9
:1022B000516913F00F0F09D113F0200F0CD010F05B
:1022C000200F09D02046FFF77CFF16E011F0010136
:1022D00015D110F4907F12D1216B012979D013F020
:1022E000800F03D010F0800F40F0108113F0400FEA
:1022F00003D010F0400F40F00D8102B010BD13F07C
:10230000010F06D010F4807F03D0226C42F001024E
:10231000226413F0040F04D019B1226C42F00202BF
:10232000226413F0020F04D019B1226C42F00402AF
:10233000226413F0080F07D010F0200F00D119B15C
:10234000226C42F008022264226C002AD5D013F0DD
:10235000200F02D010F0200F29D123685B6903F011
:102360004003226C12F0080F00D163B32046FFF740
:102370004DFD23685B6913F0400F20D0226802F105
:10238000140353E8003F23F04003143242E80031C5
:102390000029F3D1A36B73B1604A1A65A06BFEF7F5
:1023A00028FF0028A9D0A06B036D9847A5E7204619
:1023B000FFF707FFD1E72046FFF7F9FE9DE720462C
:1023C000FFF7F5FE99E72046FFF7F1FE00232364AF
:1023D00093E713F0100F82D010F0100F3FF47FAF8F
:1023E000002301931368019353680193019B536980
:1023F00013F0400F50D0A26B13685B689BB2002BA8
:102400003FF47BAFA18D99427FF677AFE385D36927
:10241000B3F5807F37D0226802F10C0353E8003F08
:1024200023F480730C3242E800310029F3D1226892
:1024300002F1140353E8003F23F00103143242E891
:1024400000310029F3D1226802F1140353E8003F60
:1024500023F04003143242E800310029F3D1202355
:1024600084F83E3000232363226802F10C0353E812
:10247000003F23F010030C3242E800310029F3D171
:10248000A06BFEF76CFEA18DE38D9BB2C91A89B2D9
:102490002046FFF795FE30E7A18DE38D9BB2C91A68
:1024A00089B2E38D9BB2002B3FF427AF00293FF4A4
:1024B00024AF226802F10C0353E8003F23F4907329
:1024C0000C3242E800300028F3D1226802F11403F4
:1024D00053E8003F23F00103143242E800300028A3
:1024E000F3D1202384F83E3000232363226802F1D5
:1024F0000C0353E8003F23F010030C3242E8003095
:102500000028F3D12046FFF75BFEF6E62046FFF7F2
:10251000ABFCF2E62046FFF73DFEEEE6B1210008F7
:10252000034681628285C28500201864222283F8D6
:102530003E2083F83C001968CA6842F48072CA6081
:1025400019684A6942F001024A611A68D36843F087
:102550002003D360704708B590F83E30DBB2202BE3
:102560000DD171B17AB190F83C30012B0DD001231F
:1025700080F83C3000230363FFF7D2FF00E0022025
:1025800008BD0120FCE70120FAE70220F8E700007F
:10259000DFF834D00D480E490E4A002302E0D4582B
:1025A000C4500433C4188C42F9D30B4A0B4C00239B
:1025B00001E013600432A242FBD3FEF773FCFEF786
:1025C00003F9FEF78DFB7047000002200000002099
:1025D0008C000020B0720008900000201804002039
:1025E000FEE7D0F8C4309B6A0361704730B589B00C
:1025F0000024039404940594069407940194134BC7
:102600001A6B42F080021A631A6B02F08002019288
:10261000019A02941A6B42F001021A631B6B03F0D9
:1026200001030293029B0A4D224610212846FEF721
:10263000E3FE10230393012304930594069403A956
:102640002846FEF7E9FD09B030BD00BF0038024062
:102650000000024008B5FFF7C9FF024803F036FD4D
:1026600008BD00BF0C68000838B5044600F1180525
:102670004369012B18D0C3680A3BC3600023AB62D7
:10268000284602F011F8EB6823B10122A96A284616
:1026900001F028FEE36840F6F972934201DD002262
:1026A0006261002B04DD38BDC3680A33C360E5E70F
:1026B00001236361F7E710B500F19804012380F866
:1026C000C030204601F0F0FFE36823B10122A16A87
:1026D000204601F007FE10BD10B5436C996ACC0F7F
:1026E000044803F08BFC224610210348FEF784FEC9
:1026F00010BD00BF1C6800080000024038B54FF450
:102700007E7000F0A9FE6FF00104C0F8904000F563
:102710001471024642F8881FC2650022C267012177
:102720000166C0F8104100F52E74C0F8084100F5AC
:102730008474C0F8DC40C0F8FC20C0F8E010C0F899
:1027400020213C4CC0F81841C0F81C01C0F864219D
:10275000C0F86821384CC0F87441C0F87821C0F83E
:102760008811364DC0F88051C0F88401C0F8CC21E2
:10277000C0F8D021C0F8DC41C0F8E0210225C0F843
:10278000F0512F4DC0F8E851C0F8EC01C0F83422E8
:10279000C0F83822C0F84442C0F848220325C0F8E7
:1027A0005852284DC0F85052C0F85402C0F89C222C
:1027B000C0F8A022C0F8AC42C0F8B0220425C0F88E
:1027C000C052214DC0F8B852C0F8BC02C0F8042372
:1027D000C0F80823C0F81443C0F81823C0F85423E5
:1027E00000F5C074C0F8604300F55874C0F8344375
:1027F000C0F8381380F83C13C0F89C2300F5F4743B
:10280000C0F8A84300F56A74C0F87C43C0F8801390
:1028100080F8841300F58C74C0F8F043C0F8E4230A
:1028200000F57C74C0F8C443C0F8C81380F8CC230A
:1028300038BD00BF55260008286800086926000832
:10284000B7260008D9260008E325000808B50122AC
:1028500002490348FFF77FFE08BD00BF4002002089
:10286000F801002070B5044600F14006084D2978B3
:10287000084803F0C3FBA566304601F015FFE36C82
:1028800023B10122A16E304601F02CFD70BD00BFC6
:10289000400200202C68000810B5054C217805483E
:1028A00003F0ACFB012221460348FFF754FE10BDA4
:1028B0004002002040680008F801002038B54FF4BD
:1028C000E87000F0C9FD00F11402C26080630022CC
:1028D00082671C4901674067C0F8BC20C0F8C0206F
:1028E000194CC0F8CC40C0F8D0200121C0F8E0104D
:1028F000164DC0F8D850C0F8DC00C0F82421C0F84C
:102900002821C0F83441C0F8382100F17004C0F823
:102910008041C0F8742100F5C074C0F85441C0F87B
:10292000581180F85C21C0F8BC2100F1D802C0F831
:10293000C82100F5E472C0F89C21C0F8A011C0F8CD
:10294000881138BD4D28000828680008652800084F
:1029500000B58DB02422002103A8FDF72DFF002330
:102960000193029313484FF08042026043608360FA
:102970004FF0FF32C260036180238361032303931E
:102980000123059309930A230B9303A9FFF72AF95F
:1029900050B900230193029301A90648FFF7F0F90B
:1029A00028B90DB05DF804FB02F052FCF1E702F02B
:1029B0004FFCF6E74802002008B5FFF7C9FF3C21AD
:1029C0000148FFF776F908BD4802002038B50446F3
:1029D00000F140054FF080435B6A8366284601F0B2
:1029E00063FEE36C23B10122A16E284601F07AFC5C
:1029F00038BD000038B54FF4E87000F02DFD00F14F
:102A00001402C2608063002282671C49016740672C
:102A1000C0F8BC20C0F8C020194CC0F8CC40C0F8A9
:102A2000D0200121C0F8E010164DC0F8D850C0F8F1
:102A3000DC00C0F82421C0F82821C0F83441C0F8D7
:102A4000382100F17004C0F88041C0F8742100F50D
:102A5000C074C0F85441C0F8581180F85C21C0F827
:102A6000BC2100F1D802C0F8C82100F5E472C0F81A
:102A70009C21C0F8A011C0F8881138BDB929000800
:102A800028680008CD29000800B583B00023009312
:102A900001930C480C4B0360FEF7D8FA58B9002399
:102AA00000930193102269460648FEF72CFB28B9D3
:102AB00003B05DF804FB02F0CBFBF0E702F0C8FBCB
:102AC000F6E700BF900200200074004008B5FFF751
:102AD000DBFF10210148FEF7CBFA08BD9002002071
:102AE00008B5C3689B6A002B05DB0022102105484E
:102AF000FEF7F2FA08BD5B42002210210148FEF702
:102B0000EBFAF7E79002002038B54FF4D07000F0F0
:102B1000A3FC00F11402C2608063002282641D499C
:102B200001644064C0F88C20C0F890201A4CC0F8B2
:102B30009C40C0F8A0200121C0F8B010174DC0F88B
:102B4000A850C0F8AC00C0F8F420C0F8F820C0F8D5
:102B50000441C0F8082100F14004C0F85041C0F819
:102B6000442100F5A874C0F82441C0F8281180F869
:102B70002C21C0F88C2100F1A802C0F8982100F5A2
:102B8000CC72C0F86C21C0F870110422C0F8582132
:102B900038BD00BFCD2A000828680008E12A0008D7
:102BA0002DE9F8432DED028B0446456ED0F83080B8
:102BB00000F19809806800F07BFB06460F46226A08
:102BC000636A821AAD6AD8F82800A5EB000507EE03
:102BD000905AB8EEE78AA169A0EB010067EB030306
:102BE000C117FDF703FCFDF7C3FB06EE900A94ED59
:102BF0000A7AD4ED0B7A27EE277A37EE087A84ED3D
:102C00000B7AD4ED037A67EE887A94ED046A27EEA6
:102C1000067A77EE877A94ED057A27EE267A77EEB4
:102C2000877AFDEEE77AC4ED307A484601F03CFD44
:102C3000D4F8A4302BB10122D4F8C010484601F0DA
:102C400051FBD8F82830A36126626762BDEC028B85
:102C5000BDE8F88338B54FF4E07000F0FDFB00F1FB
:102C600038020263C06500F16C024266C0F8900051
:102C70000022C0F8D0201549C0F8C810C0F8CC0018
:102C8000C0F81421C0F818211149C0F82411C0F867
:102C90002821C0F8642100F1C805C0F8705100F582
:102CA000B871C0F844110124C0F848410421C0F8AB
:102CB0003011C0F8AC21C0F8B85100F5DC72C0F892
:102CC0008C21C0F89041C0F8781138BDA12B0008C4
:102CD0002868000808B50021084601F017FE08BD65
:102CE0007047000000B589B000210691059104915C
:102CF0000523039302910191042300930223044AC4
:102D00001268044801F022FC09B05DF804FB00BF22
:102D100058030020A8020020014B036001207047E7
:102D2000A8020020000000002DE9F04F2DED048BDB
:102D300087B0FFF7E3FC0446DFF83CA3C0F808A027
:102D4000DAF8643000F58C721A604FF00009C0F8B0
:102D50000C90C0F81090012747619FEDBD9B80ED5E
:102D6000D09BC14A0023C0E9D223DAF85C3000F5D9
:102D700048721A60C0F85C9380EDE29BB6A3D3E979
:102D80000023C0E9E423DAF85C3000F55A725A6097
:102D9000C0F8A4939FEDB28B80ED568B80ED708BC5
:102DA00080ED8A8B80EDA48B80EDBE8BFFF786FDD6
:102DB0008046C0F808A06FF0010BC0F86CB0C0F8F6
:102DC00010B0DAF8643000F170025A6080ED2C8B9C
:102DD00080ED468BFFF70EFE0646C0F808A0C0F84F
:102DE0006CB0C0F810B0DAF8643000F170029A608C
:102DF00080ED2C8B80ED468BFFF786FEC0F808A097
:102E0000C0F810B0DAF8643000F14002DA6080ED0A
:102E1000208B009080ED3A8BFFF71CFF0546C0F831
:102E200008A0924BC360924B03614361C0F8C4B0E9
:102E3000C0F834B0C0F868B0C0F8189080ED089BB6
:102E40008C4B83620023C36280ED428BC4F84091B7
:102E5000C4F8A87122460421384600F0DFFAC4F80D
:102E6000B40122460421384600F0D8FAC4F8B00173
:102E700022460421384600F0D1FAC4F8AC0104F12E
:102E80002C0301930360C4F81072224604213846D3
:102E900000F0C4FAC4F81C0222460421384600F0AF
:102EA000BDFAC4F8180222460421384600F0B6FAEA
:102EB000C4F8140204F1AC0302930360C4F87892DE
:102EC000C4F8E092C8F89890C8F80071424604210E
:102ED000384600F0A3FAC8F80C01424604213846EF
:102EE00000F09CFAC8F8080142460421384600F078
:102EF00095FAC8F8040108F15403039303603946B6
:102F000008F1400001F0FCF9C6F89890C6F800718D
:102F100032460421384600F081FAC6F80C013246E8
:102F20000421384600F07AFAC6F808013246042136
:102F3000384600F073FAC6F8040106F1540BC0F8E5
:102F400000B00099C1F86890C1F8D090C5F8F07051
:102F50002A460421384600F061FAC5F8FC002A46EA
:102F60000421384600F05AFAC5F8F8002A46042130
:102F7000384600F053FAC5F8F40005F1AC0AC0F881
:102F800000A0A763E463C4F8B870C4F8BC40CDF8EF
:102F90001490D4F8B0311F6022460421384600F066
:102FA0003DFAD4F8B43105971860B9F1000F1ADD75
:102FB000D4F8B431059A53F8223005F5BC721A6082
:102FC00000270597D4F818324FF00109C3F8009094
:102FD00022460421484600F021FAD4F81C32CDF8EC
:102FE000149018600FE006AB03EB8903002243F84E
:102FF000042C09F10109D8E706AB03EB8703002293
:1030000043F8042C0137002FF6DDD4F81C32059A62
:1030100053F8223006F5C4721A6000234246002B92
:1030200012DD904602203066766600270597D6F8B6
:10303000083118603246042100F0F0F9D6F80C315E
:1030400001220592186020E052660133E7E700BFD5
:10305000000000000000000000E1F5050000000095
:10306000000000000000008080969800CDCC4C3E0F
:10307000CDCCCC3D6666663FA802002006AB03EBD4
:103080008703002243F8042C0137002FF6DDD6F821
:103090000C21059B52F8232004F1C8011160D6F8D9
:1030A0000C2152F8233005F598725A600220C5F8B9
:1030B000B800C5F8BC5000270597D5F8F83018605F
:1030C0002A46042100F0AAF9D5F8FC300122059225
:1030D0001860002F7BDDD5F8FC20059B52F82320DB
:1030E00004F148011160D5F8FC2052F82330009F0C
:1030F00007F5AC725A6004F19803F36006F14003DF
:10310000C4F8C4302B6304F118036B6605F198030F
:103110006364FB60364B5A6B019911605A6B0299DC
:1031200051605A6B039991605A6BC2F80CB05B6B9B
:10313000C3F810A001220023C4E94C232D484FF00E
:10314000FF31C4E94A01C4E966239FED257B84ED84
:10315000647BC4E98023DFF8A4A04FF0FF3BC4E9FF
:103160007EABC4E99A23DFF898A04FF0FF3BC4E997
:1031700098ABC4E9B4239FED1C6B84EDB26BC8E936
:103180002223C8E92001C8E93C2388ED3A7BC6E93F
:103190002223C6E92001C6E93C23DFF868804FF00E
:1031A000FF39C6E93A89C7E91623C7E91401C7E917
:1031B0003023C7E92EABC5E938230F4A4FF0FF3360
:1031C000C5E9362307B0BDEC048BBDE8F08F06AB34
:1031D00003EB8703002243F8042C013779E700BF93
:1031E0000100FFFFFFFFFFFF0600FFFFFFFFFFFFE4
:1031F000A80200200000FFFF0400FFFF0200FFFF05
:103200000500FFFF0300FFFF7047000008B51248EC
:1032100001F094FFD8B9104A136852680F4801684A
:1032200040685B1842EB00020D48016840685B187B
:1032300042EB00020B49086849689842914102DA62
:1032400008490B604A60074BD3E9000108BD0648F6
:1032500001F012FEDFE700BF6800002040030020FD
:1032600038030020300300205068000884B00DF1BE
:10327000100C0CE90F000146019A0498059B81424D
:1032800072EB030C09DB884293410ADB029A069B2E
:103290009A4208D30AD9012001E04FF0FF3004B070
:1032A00070470120FBE74FF0FF30F8E70020F6E71A
:1032B000D0E902017047000008B5FFF7F9FF034AA3
:1032C00013685268C01A61EB020108BD700000204B
:1032D00008B5FFF79BFF08BD08B5FFF797FF034A46
:1032E00013685268C01A61EB020108BD700000202B
:1032F0002DE9F04190B00546194652EA010305D088
:103300001046002907DB0026002418E02F4B1B88FD
:103310000380012655E02E4B1B8825F8013B012632
:10332000F2E7671C10AB03EBC40444F8380C44F814
:10333000341C4FF47A720023FDF758F83C460128FC
:1033400071F10003EDDA013C10AB03EBC4014FF463
:103350007A72002351E90E01FDF748F890461F46A6
:10336000009201931B4A0521284602F05FFCB8F148
:10337000640F77F1000302DB033503361EE0B8F17A
:103380000A0F77F1000702DB0235023616E001353D
:10339000013613E010AB03EBC7014FF47A72002340
:1033A00051E90E01FDF722F8CDE900230A4A082170
:1033B000284602F03BFC043504363C46671E002CD0
:1033C000E8DC304610B0BDE8F08100BF746800084A
:1033D000786800087C6800088468000810B5C06A36
:1033E00001F07BFC044608B1204610BD20210120DD
:1033F00002F00AF904460028F6D1024801F076FDF1
:10340000F2E700BF8C68000838B504460D46006935
:10341000884201D000F03AFF256138BD70B51446EE
:1034200002F0F2F8054660B14CB10821012002F02B
:10343000EBF8064648B1356023682660736028467D
:1034400070BD044801F052FDEEE7024801F04EFD68
:10345000F1E700BF8C68000808B50146024A012068
:10346000FFF7DCFF08BD00BF5003002080B170B53E
:103470000646046807E0206802F036FA65682046D0
:1034800002F032FA2C46002CF5D10023336070BDD7
:10349000704710B50446FFF7E9FF204602F024FA12
:1034A00010BD000038B5084B1C6807E02068FFF726
:1034B000F0FF6568204602F017FA2C46002CF5D183
:1034C000014B00221A6038BD5003002082B010B5B5
:1034D00084B0044606A981E80C0000F118030FCB64
:1034E0008DE80F0006AB0FCBFFF7C0FE002804DB12
:1034F00004B0BDE8104002B07047183406AB0FCBE3
:1035000084E80F00F4E770B5064600F09FFFF46B07
:10351000306CB36B834201DA746B1846002304E00D
:1035200054F823200021117001339842F8DC736CA9
:10353000ABB1002400E0013406F14405284601F057
:103540008DFA84420BD22146284601F068FA002801
:10355000F1D00368002BEED000221A60EBE70023C5
:10356000336470BD82B000B585B006A981E80C0057
:1035700018300FC88DE80F0006AB0FCBFFF776FEB3
:103580000028D4BF0020012005B05DF804EB02B094
:1035900070472DE9F04106460D460F6A4C6A57EA1E
:1035A000040312D1002408E06B694FF0FF3253F896
:1035B0002410304601F0B0F80134AB69A342F3DCCB
:1035C000AF6AEC6A57EA040312D03046FFF706FFF1
:1035D000804685603046FFF76BFEC01944EB01045E
:1035E000C8F80000C8F804404146B06A01F055FB35
:1035F000BDE8F08138B50546002400E001342B6EAB
:10360000A34208DDEB6D53F824100029F6D02846BC
:10361000FFF7BFFFF2E738BD38B50546002400E0EC
:103620000134AB6EA3420DDD6B6E53F824100029FC
:10363000F6D00B6E002BF3D14FF0FF32284601F08D
:103640006BF8EDE738BD38B50546002400E00134DD
:103650002B6FA3420DDDEB6E53F824100029F6D03A
:103660000B6E002BF3D14FF0FF32284601F054F8D7
:10367000EDE738BD0000000008B59FED077B81ED48
:10368000007B00228A60CA600A610A758A61C06A8A
:1036900001F003FB08BD00BF0000000000000000B7
:1036A0002DE9F04F8FB004460D4617469946DDF8D8
:1036B00060B000F1100393E803008DE8030004F10B
:1036C00008030CCB2046FFF74DFF002869D1B9F164
:1036D000000F6EDBBBF1000F04D0DBF80C300133C0
:1036E000CBF80C30002D6CD02B7F2BB92B6A6A6A7B
:1036F000DB191F4642EB0909A368E26813EB0708D0
:1037000042EB090AAB6A0393EB6A04932046FFF786
:1037100065FE064600238361C0F810B0856095F809
:103720003030002B52D16F6BEB6A002B55DB2B7FB7
:10373000F3B9EFB13B687A68039913EB0109049977
:1037400042EB01010591C14571EB0A0110DB95F8CF
:10375000381001296FD0022900F08580A068E16847
:103760008A4208BF834200F09D80C846DDF814A05D
:10377000C6F80080C6F804A0A269E369424573EB6D
:103780000A03C0F2B7806E633146A06A01F085FA81
:10379000A06D431CA365002BC0F2B5800FB0BDE83F
:1037A000F08F584600F072FD584801F081FB002070
:1037B000F4E73A464B46564801F07AFB0027B946F3
:1037C00088E7584600F062FD0020E7E7FFF780FD3C
:1037D00010EB070849EB010AA5E7CDF81880CDF8F2
:1037E0001CA000230893C6F80080C6F804A0314648
:1037F000A06A01F04DFA07460028B9D001230893CA
:1038000003E0089B013308931746BA69002AF8D1F0
:1038100008AB93E803008DE8030006AB0CCB204611
:10382000FFF7A0FE10B9BE610020B7E73146204681
:10383000FFF722FFF8E7039B012B049B73F10003C2
:103840000BDB3B695B4502D0584600F01FFD31465B
:103850002046FFF711FF0020A0E73946A06A01F0DB
:1038600017FA0028EDD138687A68A168E3688142C8
:1038700073EB020C0CDB9A4208BF884203D0C846A7
:10388000DDF814A074E73946A06A01F001FA48B3E4
:1038900059463846FFF7B8FD31462046FFF7ECFEA3
:1038A00000207BE73946A06A01F0F2F9F0B1D7E9D0
:1038B0000023CDE90A23236901330C930EAB13E9EE
:1038C00003008DE803000AAB0CCB2046FFF74AFE4D
:1038D00010B9BE61002061E731462046FFF7CCFEFB
:1038E00000205BE7C846DDF814A041E7C846DDF8D4
:1038F00014A03DE7584600F0C9FC31462046FFF7CA
:10390000BBFE00204AE70123A36547E79C68000847
:10391000C4680008F0B583B00646806A01F0F2F989
:1039200006E029463046FFF7A7FEB06A01F0EAF943
:1039300000285BD004684268B168F3689A4208BF07
:103940008C4253D1B06A01F0C8F90546037D33B10A
:1039500081690029E5D0306B01F09FF9E1E7076943
:10396000002400E00134AB689A69A2420CDD5B6977
:1039700053F8241091F83830002BF3D14FF0FF3278
:10398000304600F0C9FEEDE7012283F83920A9682E
:103990000B7F2BB18A6ACB6A012A73F1000017DA18
:1039A0003946A86800F042FD384600F06FFCAB686D
:1039B000012283F83920A96911B1306B01F06DF94A
:1039C00029463046FFF758FEB06A01F09BF9AFE791
:1039D000002000903046FFF763FEE1E7B46A306BE9
:1039E00001F07BF90146204601F057F9306B01F0F8
:1039F00089F90028F2D103B0F0BD000010B5846849
:103A0000C168944271EB030C04DA8260C360002346
:103A1000036110BD994208BF944203D10369013389
:103A20000361F6E7014801F061FAF2E70C6900086A
:103A300010B50C464B6859600B6848689847636836
:103A400000225A6010BD2DE9F04F87B083469146A1
:103A500005920025A8462F460A463AE06B6A534570
:103A600016D12F4604E04A462946584600F054FE37
:103A70000134B369A34214DD736953F82450002D57
:103A8000F6D0AF42F4D008F10108B8F1010FE5D04B
:103A9000002FE8D04A463946584600F03DFE002740
:103AA000E1E7019903985246DDF808A00AF1010AFE
:103AB000136B5B5853450ADD50F82A60002EF5D091
:103AC00000240191CDF808A003909246D1E7049D0F
:103AD0000135936AAB420ED9D36AA90053F8253059
:103AE000002BF5D01B78002BF2D0536B58584FF0B9
:103AF000000A0495DCE75FB37B6C002B1ADBFFF751
:103B0000E7FB3B6C7A6C53EA020409D0DBF80850FF
:103B1000DBF80C405B1942EB040283428A4109DA6C
:103B2000FB6C93B178689847059A39465846FFF779
:103B30008AFF0AE0059C224639465846FFF778FF7F
:103B4000224639465846FFF77EFF002387F8483063
:103B500007B0BDE8F08F000070B505460E461A4864
:103B600002F0B4FA194802F0B1FA194802F0AEFABC
:103B7000184802F0ABFA184802F0A8FA174802F009
:103B8000A5FA174802F0A2FA164802F09FFA164862
:103B900002F09CFA154802F099FA154802F096FADC
:103BA000144802F093FA144802F090FA002405E059
:103BB00056F82410114802F021FA0134AC42F7DB28
:103BC0000F4802F083FA70BD4C690008686900086C
:103BD00084690008C4690008E8690008346A0008BC
:103BE000846A0008986A0008E46A0008F86A000815
:103BF000346B0008446B0008806B0008906B000871
:103C00007C6B00082DE9F04780460F4601240DE04B
:103C1000B04554DD023457F82650B0492846FCF729
:103C2000A7FC002854D1AE4B01221A70444580F203
:103C3000BD81661C57F82450AA492846FCF798FC19
:103C40000028E5D0A8492846FCF792FC0028DFD0E0
:103C5000A6492846FCF78CFC58B1A5492846FCF734
:103C600087FC30B1A3492846FCF782FC002840F0CD
:103C7000EE80A31C434539DA57F82690033457F8F1
:103C800023A0484602F08CFA05460E469A4B18606F
:103C9000596050EA010303D199F80030302B2ED13E
:103CA00003229649504602F019FA90BB944AA5FBAC
:103CB000025302FB0633904A15605360B6E7914801
:103CC00001F0DAF839464046FFF746FF00206EE182
:103CD0008D492846FCF74CFC18B9814B00221A701C
:103CE000A4E72946894801F0C7F89FE7884801F012
:103CF000C3F839464046FFF72FFF002057E14946F9
:103D0000844801F0B9F839464046FFF725FF002006
:103D10004DE104228049504602F0E0F9D8B9720121
:103D200042EAD5626B015B1B62EB0602520242EA79
:103D3000D3525B025B1946EB0202900140EA9360AA
:103D40009901CB1A60EB02005B1946EB00006A4A4E
:103D5000136050606AE704227049504602F0BEF9D1
:103D6000A8B9730143EAD5636A01521B63EB0603EA
:103D70009B0043EA92739200521946EB0303DB0067
:103D800043EA5273D2005C490A604B604EE704225A
:103D90006349504602F0A2F900283FF447AF0322DE
:103DA0006049504602F09AF960B95F4A0D2305FB5D
:103DB00003F302FB0633A5FB02252B444E490A60A0
:103DC0004B6033E704225949504602F087F968B93D
:103DD000574A40F2463305FB03F302FB0633A5FBCB
:103DE00002252B4444490A604B601FE703225149D6
:103DF000504602F073F968B94F4A44F6946305FBE4
:103E000003F302FB0633A5FB02252B443A490A6063
:103E10004B600BE704224949504602F05FF960B954
:103E2000474A484B05FB03F302FB0633A5FB02524E
:103E30001344314A15605360F8E65146424801F098
:103E40001BF839464046FFF787FE0020AFE03F49A8
:103E50002846FCF78DFB20B13D492846FCF788FB3E
:103E600020BBB0450BDD023457F826501B492846CD
:103E7000FCF77EFB60B9374B01221A70D6E6364854
:103E800000F0FAFF39464046FFF766FE00208EE05C
:103E90001D492846FCF76CFB18B92E4B00221A70FE
:103EA000C4E629462D4800F0E7FFBFE62C49284626
:103EB000FCF75EFB28B12B492846FCF759FB00288C
:103EC00063D1B04552DD023457F82650284601F040
:103ED00097FB002853DD244B1860A7E6B86B000859
:103EE0005C030020946B0008986B0008E86B0008E6
:103EF000EC6B0008F86B0008780000203C6C0008B0
:103F000000CA9A3BA06B0008C06B0008C86B000891
:103F1000046C0008246C0008406C0008486C000821
:103F2000506C0008586C0008005847F85C6C00089A
:103F300000A0B830646C000800004F91686C000865
:103F4000000029F90F260200706C0008886C000838
:103F50008C6C000854030020986C0008B86C0008B2
:103F6000DC6C0008E06C000858030020114800F0E9
:103F700083FF39464046FFF7EFFD002017E0294652
:103F80000D4800F079FF0120A5E70C492846FCF711
:103F9000EFFA08B9344649E62946094800F06CFFB3
:103FA00039464046FFF7D8FD002000E00120BDE87B
:103FB000F08700BFEC6C0008146D0008406D00082D
:103FC0004C6D000810B582B00024084B1C60084BF3
:103FD0001C6001A8FEF7A0FE234600E001338342E7
:103FE000FCDBFEF7A1FE02B010BD00BF7003002095
:103FF0006C03002070B58AB009A8FEF78DFE054657
:104000000998FFF701F9002410E041683B4800F0EF
:104010004FFF0AE00998FFF74FF90B1E33DA0998B2
:1040200000F072FA099B883309930134AC4245DAF7
:10403000099B5968324800F001FF09980378002B6A
:10404000E3D0FFF760FA099B986A0028E2D000F0FD
:1040500019FE0028DED0099B986A00F013FE014685
:10406000284800F025FF099B986A00F04BFE026883
:104070004668254801684368521A66EB03032348E3
:1040800000F016FFC6E7024601A8FFF731F901A9C3
:104090001F4801F0B3FF1C4B1A685B68012A73F1DB
:1040A0000003BCDBFFF718F902460B4601A8FFF737
:1040B0001FF901A9174801F0A1FFB0E700F064F96A
:1040C000154B1B68002B07DC144B1B68002B0CDC0A
:1040D000FFF7E8F90AB070BD114800F0E9FE0E4B99
:1040E0001968104800F0E4FEEEE70F4800F0E0FE2B
:1040F0000A4B19680D4800F0DBFEE9E7946D0008F3
:10410000746D0008C06D000870000020046E000887
:10411000486E0008746E0008700300206C030020D5
:10412000A06E0008D46E0008F46E0008246F00082A
:1041300003688BB110B50446084A1368013B13604D
:1041400083685B6823B1006898470023236010BD33
:10415000006801F0C9FBF8E7704700BF700300205A
:10416000002841D010B50446C3680BB1002010BD33
:10417000FFF7DEFF002000F02FFBA0B91B4B1B68F0
:10418000ABB11A4B186800F037FFB0F5007F1BD2B7
:104190002146164B186800F05BFFC0B92146144851
:1041A00000F086FE13E0134800F0A0FEE6E70420CE
:1041B00000F02FFF0D4B18600028E2D100F010FB3B
:1041C0000D4800F093FEDCE7204601F08DFB002057
:1041D00000F006FB20B9094A1368013B1360C5E7EC
:1041E000074800F083FEF6E70020704764030020D4
:1041F000A06F0008446F0008686F00086C0300207F
:10420000E06F00082DE9F04107460D4616460020F4
:1042100000F0E2FAD8B91A4B1C685CB1204600F0F5
:1042200043FF804600F04EFF002814DA0024404689
:1042300001F05AFB002000F0D3FAB0B9CCB1A7606E
:10424000666025600023E3602046BDE8F0810D48EC
:1042500000F04CFEDFE7404600F055FF0446014603
:10426000074B186800F0FEFEE1E7074800F03EFE4D
:10427000E4E71421012001F0C7F90446DFE700BF9D
:1042800064030020446F0008E06F000868B108B5BF
:104290000146C36823B1013BC360FFF761FF08BD5E
:1042A000034800F005FE0020F9E70020704700BF3A
:1042B0000470000810B50446C06820B1C368012B23
:1042C0000BD0FFF7E3FF002211462046FFF79AFFCD
:1042D000E0600123C360E06810BDFFF729FFE068DC
:1042E000FAE7000038B50D461446FFF7E3FF056016
:1042F00002490A6801320A60446038BD7003002038
:1043000038B504460D46002000F066FA10BB1B4B82
:104310001B681BB32146194B186800F099FE00205A
:1043200000F05EFA00BBE06850B1C368012B03D116
:1043300083681B68AB421BD0FFF7A8FF0023E36034
:104340002560002211462046FFF75CFFE060012354
:10435000C36038BD0A4800F0C9FDD8E7042000F06A
:1043600058FE064B1860D5E7064800F0BFFDDAE7B7
:10437000FFF7DEFEE3680122DA60EAE7600300206F
:10438000446F0008E06F000838B5002000F024FA00
:1043900030B9224B1868F0B100F086FE05460CE0FB
:1043A0001F4800F0A3FDF4E7284600F0ACFE0446E9
:1043B000C068FFF76BFF0023E360284600F082FE31
:1043C0000028F1DA284601F08FFA144C206800F03A
:1043D00015FE00232360134B1868B0B100F064FE93
:1043E000044604E0204600F08EFE01F07DFA2046EF
:1043F00000F068FE0028F5DA204601F075FA094C55
:10440000206800F0FBFD00232360002000F0E8F9A5
:1044100000B938BD044800F069FDFAE760030020E8
:10442000446F000864030020E06F000838B50546BB
:10443000C068884208D00C4608B1FFF727FF14B1C6
:10444000E3680133E360EC6038BD0000074B186897
:1044500050B110B50469FFF719FF044B1C60034B02
:1044600018680028F6D110BD704700BF680300200F
:1044700008B5D0F8840000F0FCFB08BD10B584B08E
:104480000446084B0293084B0193084B0093084BDA
:10449000084A09490A2000F0C3FBC4F8840004B0AC
:1044A00010BD00BF5D4D0008374D0008594D000894
:1044B000514D0008474D0008194D0008F0B585B072
:1044C000844614461D460A9F0B9E8260C3600023EB
:1044D00003610C4B0FCB0DF1100E0EE90F00002EF7
:1044E00006DBE41945EB06050094019500230293D1
:1044F0000CF1180C04AB13E90F008CE80F0005B0A9
:10450000F0BD00BFB067000810B50446C06D01F0F3
:10451000EBF9606E01F0E8F9E06E01F0E5F9606F2B
:1045200001F0E2F9606B01F0DFF9E06B01F0DCF91A
:10453000A06A00F09EFBE06A00F09BFB206B00F09D
:1045400098FB2046FFF794FF10BD00002DE9F04FC7
:1045500085B004461E46DDF83890DDF83C80109D9D
:10456000119F4160474B00F1180C0FCB8CE80F00F6
:1045700026664021304601F047F8E065424E31465C
:10458000003818BF012000F0BDFCC4F86890682115
:10459000484601F039F860663146003818BF0120FE
:1045A00000F0B0FCC4F870806821404601F02CF89F
:1045B000E0663146003818BF012000F0A3FCA56773
:1045C0006821284601F020F860673146003818BF9E
:1045D000012000F097FCA7630025256404213846DC
:1045E00001F012F860633146401B18BF012000F053
:1045F00089FC0421384601F007F8E0633146401B8E
:1046000018BF012000F07EFC4FF0010BC4F858B039
:104610001E4F1F4EDFF884A0CDF808A0DFF8809071
:10462000CDF80490DFF87C80CDF800803B46324620
:1046300018490A2000F0F4FAA062CDF808A0CDF8DD
:104640000490CDF800803B46324613490A2000F022
:10465000E7FAE062CDF808A0CDF80490CDF800802C
:104660003B4632460C490A2000F0DAFA2063C4F8CF
:1046700080502046FFF702FF84F800B0284605B0BE
:10468000BDE8F08FB0670008387000084D4D000895
:10469000414D0008194D0008254D00085F4D0008E8
:1046A000294D0008554D0008436A43B310B49B6878
:1046B00000F114041A6C996B8A4202DAD96B41F842
:1046C00022401A6C01321A6401230375836973B1A5
:1046D000C269002A0BDB1A68002A08DB511C19602A
:1046E00083695968914205D84FF0FF321A605DF82E
:1046F000044B7047C169023243F82210F7E7704754
:104700000449097809B10020704708B500F066FD3A
:1047100008BD00BF5C03002008B591F8383003B134
:1047200008BD012381F83830D0F8840000F0B5FAD4
:104730000028F5D0014800F0D9FBF1E748700008E7
:1047400070B584B005460CE0002221462846FFF7EC
:104750006FF9002221462846FFF775F9002384F8F7
:104760003830D5F8840000F08DFA20B3D5F88400F5
:1047700000F0B3FA0446022380F83830436C002B73
:10478000E2DBFEF7A5FD236C626C53EA020C07D056
:10479000AE689B19EE6842EB060283428A41D3DA87
:1047A000E36C002BDAD06068984700222146284647
:1047B000FFF749F9D2E705F118030FCB8DE80F0099
:1047C000083595E80F00FEF751FD002802DA0120B8
:1047D00004B070BD0020FBE708B500F0E3FC08BDA5
:1047E00008B500F0EBFC08BDF0B58DB00446FFF74E
:1047F000F3FF002851D1A06A00F084FA05463F4B30
:104800000DF1100C0FCB8CE80F00002D49D02A6859
:104810006B6804920593A068E1688B4208BF8242EE
:1048200055D00023069306AB93E803008DE8030000
:1048300004AB0CCB2046FEF795FE28B104AD04F185
:1048400018030FCB85E80F00DDE9046732463B46CD
:104850002046FFF755FF00283DD132463B46204613
:10486000FFF7CCF804F118030FCB8DE80F0004F12B
:1048700008030FCBFEF7FAFC002836DA2046FEF7D5
:1048800042FE2046FFF746F82046FFF7A9FF80BB0F
:104890002046FFF755FF0DB0F0BD194800F026FB8C
:1048A000A9E7184B1B78002BBDD1D4E90223CDE931
:1048B0000823236901330A930CAB13E903008DE845
:1048C000030008AB0CCB2046FEF700FEABE72369E4
:1048D00001330693A7E72046FFF782FF08B90120BE
:1048E000D9E7094800F002FBF9E72046FEF7ABFEE6
:1048F000C4E7054800F0FAFACAE700BFC06700083D
:10490000446F000854030020E06F000830B587B002
:1049100004460D46FEF7E4F900F0E2FC2E4B196860
:104920002E4B1868FFF76EF9002852D02946204612
:10493000FFF768F900284CD0294800F05BFE0028FA
:104940003FD1FEF7CFF905A8FEF7E6F90246254963
:10495000012814BF0020012000F0D4FAFFF732FB39
:10496000FEF7B6FC02460B461F490A604B601F4922
:10497000D1E90001CDE900010598FFF79FFD1C4B2F
:1049800001221A700598FEF747FE0598FEF732FEE1
:10499000059C04F118030FCB8DE80F0004F1080308
:1049A0000FCBFEF763FC00280FDA0598FFF7C8FE6F
:1049B00020B10598FFF718FF0028FAD1002007B0B2
:1049C00030BD0C4800F074FABBE70598FEF73BFEDB
:1049D000EBE74FF0FF30F2E7480300204C030020E4
:1049E000F53F0008A070000870000020780000204B
:1049F000550300207470000801B9704770B5044673
:104A000046680068361A8D00294601F043F90023F4
:104A100023612060064466602844A06070BD38B5FC
:104A200004460A460168950001EB8203043340689E
:104A3000834200D963606068A36898420BD3E06842
:104A40000130E0605B1A591000E049009142FCD946
:104A50002046FFF7D1FF2068284438BD436800682E
:104A6000181A801070472DE9F8430368B3EB410F23
:104A70001AD904464D006E1CB34216D9D0F80C90DA
:104A80000369426A52F82500984780460F46236919
:104A9000626A52F82600984702460B46404639465D
:104AA000C84710B1354600E000252846BDE8F88328
:104AB0002DE9F04704460D46436A53F821900369F7
:104AC0004846984780460F466E080CE0636A53F8E4
:104AD000262043F82520A369626A294652F825005A
:104AE000984735467608012D0BD9D4F80CA02369D8
:104AF000626A52F82600984742463B46D047002853
:104B0000E4D1636A43F82590A3692946484698474B
:104B10002846BDE8F0872DE9F04704460D46436A74
:104B200053F8219003694846984780460F460BE0AA
:104B3000636A53F8262043F82520A369626A294650
:104B400052F825009847354629462046FFF78BFF47
:104B5000064668B1D4F80CA02369626A52F82000B6
:104B6000984702460B4640463946D0470028DFD1D9
:104B7000636A43F82590A369294648469847BDE8EB
:104B8000F08700002DE9F04704460F46151E34DB80
:104B9000002C3FD02368AB423ED9636A53F82560AE
:104BA0007EB3D4F80CA023693046984781468846E6
:104BB00023693846984702460B4648464146D04747
:104BC000F8B92369304698478146884623693846B4
:104BD0009847884508BF814504D1E3693946304686
:104BE000984738B96D002A4639462046FFF7CAFF74
:104BF000064640B13046BDE8F087084800F076F937
:104C0000C6E70026F6E76A1C39462046FFF7BAFFDA
:104C10000646EFE72646EDE70026EBE7EC700008D6
:104C20002DE9F8430546894690461F46282000F0A6
:104C300053FE0446A8B10135A80000F04DFE06461B
:104C4000606288B101232360A5606560C4F80C90A0
:104C5000C4F810806761089BA361099BE3610A9B0C
:104C600023622046BDE8F883204600F03DFE34462E
:104C7000F7E710B50446406A00F036FE204600F023
:104C800033FE10BD10B10068013870470020704736
:104C900008B50122FFF776FF08BDD0B170B50E460A
:104CA000044605684268954208D382681544A90005
:104CB000406A00F0EFFF70B16062656021684B1CD4
:104CC0002360636A43F821602046FFF7F1FE00206D
:104CD00070BD012070470120FAE710B570B103687C
:104CE000012B0DD0416A4C68013B036051F8233021
:104CF0004B600121FFF70FFF204610BD0446FBE784
:104D00000024F9E728B10268012A03D0436A5868F1
:104D1000704770470020704782428B4134BF0120AA
:104D2000002070470020704780688B68984214BF4D
:104D3000002001207047814214BF002001207047ED
:104D4000D0E900017047D0E904017047C06870479E
:104D5000006A7047C16070470162704770477047D2
:104D60002DE9F04383B080460D4616461F46254B7D
:104D70001C68022C03DD002C02DA022400E002246D
:104D80000A9B9C4202DA03B0BDE8F0832846FBF799
:104D9000E7FB04463046FBF7E3FB204400F1200923
:104DA000213000F099FD0446174B1B68002B0FDBE8
:104DB00001960095154A494600F038FF144B1B68D0
:104DC0006BB1394620469847204600F08DFDDAE762
:104DD00000962B460F4A494600F028FFEEE7B8F14F
:104DE000000F07D00C4B1B683A462146D86800F0EC
:104DF00069FDE9E7084B1B683A462146986800F0D0
:104E000061FDE1E78000002084000020347100088B
:104E1000740300202C7100080C00002000B583B042
:104E200002460B460221009103490020FFF798FF3C
:104E300003B05DF804FB00BF3C6800080FB400B588
:104E400083B004A951F8040B0191FFF7E7FF03B009
:104E50005DF804EB04B0704700B583B002460B4622
:104E60000021009103490120FFF77AFF03B05DF8AC
:104E700004FB00BF487100080FB400B583B004A95B
:104E800051F8040B0191FFF7E7FF03B05DF804EB65
:104E900004B0704700B583B002460B460120009075
:104EA0000249FFF75DFF03B05DF804FB5071000895
:104EB0000FB400B583B004A951F8040B0191FFF7BA
:104EC000E9FF03B05DF804EB04B0704700B583B0B0
:104ED00002460B460021009103490120FFF740FFE5
:104EE00003B05DF804FB00BF5C7100080FB400B5AF
:104EF00083B004A951F8040B0191FFF7E7FF0120EB
:104F0000FBF786FB00B170470EB400B582B004A970
:104F100001910398FFF7DAFF0120FBF779FB0129E4
:104F20002DD930B5456801EBC10301EBC3032B401C
:104F30004FF0FF3E03E003F59C5311332B40C46850
:104F40004FEA830C54F8232042B18A421AD0012A36
:104F5000F1D1BEF1000FEEDA9E46ECE703690133B2
:104F60000361BEF1000F06DB4369013B436144F876
:104F70002E10012007E044F80C10012003E04FF050
:104F8000FF307047002030BDF8B503694269134413
:104F900007EE903AF8EE677A866807EE106AB8EE88
:104FA000477ADFED146A27EE267AF4EEC77AF1EE3F
:104FB00010FA00DAF8BD0546C768036801330360DC
:104FC00001209840A860431E6B60042100F01CFB88
:104FD000E86000242C616C6105E057F82410284635
:104FE000FFF79DFF0134A642F7D8384600F07CFC5D
:104FF000E0E700BF9A99593F0069704710B5044631
:1050000018B1C06808B100F06FFC204600F06CFCDD
:1050100010BD38B505461821012000F0F5FA044608
:1050200078B10560012303FA05F0A060431E6360B8
:10503000042100F0E9FA0546E06020B10023236175
:105040006361204638BD2046FFF7D8FF2C46F8E7BD
:1050500038B50546FFF763FF04462846FFF794FF7F
:10506000204638BD30B4456801EBC10301EBC303F2
:105070002B4003E003F59C5311332B40C4684FEAE7
:10508000830C54F8232062B18A42F3D1012344F8FF
:105090000C300269013A026142691A4442611846C1
:1050A00000E0002030BC704710B504460821012004
:1050B00000F0AAFA034618B104604FF0FF324260D4
:1050C000184610BD436801680A69CAB110B4844625
:1050D00001338C689C4203D14FF0FF300DE0013367
:1050E0009C4208D9CA6852F82320012AF7D91846E9
:1050F000CCF8043001E04FF0FF305DF8044B70470E
:105100004FF0FF3070470368DB68426853F82200B5
:1051100070470000074B1B6913F0020F08D0054AC7
:10512000136923F002031361034A13680133136008
:10513000704700BF000C0040780300208446E0B1B7
:105140000F4B586A0F4B1A68013A510141EAD0617E
:1051500043011B1A61EB0201890041EA93719B0034
:105160001B1842EB0102D20042EA5372DB00CCF87A
:105170000030CCF80420002070474FF0FF3070471B
:10518000000C00407803002030B583B005460C4683
:105190006846FFF7D3FF009BAB42019BA341F7DBBF
:1051A00003B030BD044B1B6803B972B6024A1368E2
:1051B00001331360002070477C030020064B1B68FE
:1051C00033B1013B044A136023B962B60020704733
:1051D00001207047002070477C03002030B583B069
:1051E00014461D466846FFF7A9FF009BE31A019A83
:1051F00065EB0202012B72F1000122DB0A2B72F136
:10520000000218DB114B00221A70FFF7D7FF684627
:10521000FFF794FF0D4A12782AB9009AA242019B27
:1052200073EB050CF3DBFFF7BDFF084B1B7853B99D
:10523000002003B030BD20462946FFF7A5FF00201F
:10524000F7E70020F5E74FF0FF30F2E7800300209A
:1052500072B6FEE700B595B03422002107A8FBF72F
:10526000ABFA0023029303930493059306930093F0
:10527000194A116C41F080511164126C02F0805295
:105280000092009A019315490A6822F4404242F4C0
:1052900080420A600A6802F440420192019A0222A6
:1052A000079201220A9210220B920D9307A8FCF795
:1052B00013FA68B90F230293002103910491059119
:1052C000069102A8FCF79EF820B915B05DF804FB22
:1052D000FFF7BEFFFFF7BCFF003802400070004040
:1052E00000B583B0FBF70EFEFFF7B4FF0023019378
:1052F0000E4B1A6C42F008021A641B6C03F0080390
:105300000193019B0A4B01221A600F229A62DA680C
:1053100042F00202DA60074A4FF4802151606FF0D8
:1053200001025A6203B05DF804FB00BF003802407E
:10533000000C004000E100E02DE9F047089D0C461C
:10534000002B4ED194468C458646B2FA82F262D941
:105350004AB1C2F12003914020FA03F30CFA02FC97
:10536000194300FA02FE4FEA1C471FFA8CF6B1FB04
:10537000F7F44FEA1E4307FB141143EA014304FB11
:1053800006F199420AD91CEB030304F1FF3080F0C7
:105390001281994240F20F81023C6344591A1FFA6C
:1053A0008EF3B1FBF7F007FB101143EA014300FB5A
:1053B00006F69E420AD91CEB030300F1FF3180F090
:1053C000FC809E4240F2F980634402389B1B40EA15
:1053D000044000211DB1D3400022C5E90032BDE8E0
:1053E000F0878B4205D90DB1C5E9000100210846BF
:1053F000F5E7B3FA83F1002946D1A34202D39042E4
:10540000C0F0F080861A64EB03030120002DE6D083
:10541000C5E90063E3E7002A40F09080A1EB0C04AB
:105420004FEA1C481FFA8CF70121B4FBF8F64FEA4B
:105430001E4308FB164443EA044307FB06F0984268
:1054400008D91CEB030306F1FF3402D2984200F2A4
:10545000CD8026461C1A1FFA8EF3B4FBF8F008FB29
:10546000104443EA044300FB07F79F4208D91CEBB2
:10547000030300F1FF3402D29F4200F2B0802046C5
:10548000DB1B40EA0640A5E7C1F120068B4022FA6B
:1054900006F71F4320FA06FC04FA01F343EA0C0363
:1054A000F44000FA01F8380C4FEA1349B4FBF0FE5F
:1054B0001FFA87FC00FB1E4449EA04440EFB0CF96A
:1054C000A14502FA01F20AD93C190EF1FF3A80F027
:1054D0008480A14540F28180AEF1020E3C44A4EBF1
:1054E00009041FFA83F9B4FBF0F300FB134449EA03
:1054F000044403FB0CFCA44507D93C1903F1FF301D
:1055000067D2A44565D9023B3C4443EA0E40A0FB68
:105510000293A4EB0C049C42CE469C4651D34ED041
:1055200055B1B8EB0E0364EB0C0404FA06F6CB405D
:105530001E43CC40C5E90064002150E7C2F12003BE
:1055400020FA03F10CFA02FC24FA03F394400C4312
:105550004FEA1C4800FA02FE1FFA8CF7B3FBF8F082
:1055600008FB1031230C43EA014300FB07F1994289
:1055700008D91CEB030300F1FF362CD299422AD93B
:10558000023863445B1AA4B2B3FBF8F108FB113391
:1055900044EA034401FB07F3A34208D91CEB0404CB
:1055A00001F1FF3613D2A34211D902396444E41A3F
:1055B00041EA004139E70446F0E6084606E7C845F7
:1055C000AED2B9EB020E63EB070C0138A8E7314607
:1055D000EDE7034699E73046D4E7D6467FE76344D4
:1055E00002384DE70646234608460FE7023E63446D
:1055F00030E700BF002301461A46184600F0D4BD2C
:105600000A22002100F0FABB024B0A460146186844
:1056100000F002B80C00002070B5A1FB02543CB9A8
:105620002946FBF71BF9064628B90026304670BD0F
:105630000C220260F9E72A462146FBF7BDF8F5E7A0
:105640009368013B002B10B4936008DA9469A3427D
:1056500001DB0A2903D15DF8044B00F0D9BB1368C4
:10566000581C1060197008465DF8044B7047F8B577
:1056700006460F461446D518AC4201D1002007E07B
:1056800014F8011B3A463046FFF7DAFF431CF3D10A
:10569000F8BD00002DE9F04F0D469DB01446984628
:1056A000064618B1036A0BB9FBF750F86B6ED907C1
:1056B00005D4AB899A0502D4A86DFBF7AAF8AB898B
:1056C0001B0701D52B699BB92946304600F0DEFB4C
:1056D00070B16B6EDC0704D54FF0FF301DB0BDE834
:1056E000F08FAB899805F7D4A86DFBF793F8F3E733
:1056F0000023099320238DF82930CDF80C80302326
:10570000DFF8AC818DF82A304FF0010923469A4624
:1057100013F8012B0AB1252AF9D1BAEB040B0BD0EF
:105720005B46224629463046FFF7A1FF013000F0D4
:10573000A780099A5A4409929AF80030002B00F089
:105740009F8000234FF0FF32CDE905230AF1010AC3
:10575000049307938DF853301A935446052214F896
:10576000011B5348FAF7ACFE049AD8B9D10644BFDE
:1057700020238DF85330130744BF2B238DF853306B
:105780009AF800302A2B15D0079A544600204FF083
:105790000A0C214611F8013B303B092B4BD9B0B123
:1057A000079214E0A0EB080309FA03F313430493F0
:1057B000A246D2E7039B191D1B680391002BBBBFB8
:1057C0005B4242F0020207930793B8BF049223782A
:1057D0002E2B0AD163782A2B32D1039B1A1D1B680A
:1057E000039243EAE37302340593DFF8D4A02178EF
:1057F00003225046FAF764FE38B1049BA0EB0A007E
:105800004022824013430134049314F8011B2948B9
:105810008DF828100622FAF753FE00283FD0264BB9
:105820001BBB039B073323F0070308330393099B38
:105830003B4409936AE70CFB02320C460120A8E7BF
:1058400000230134059319464FF00A0C204610F846
:10585000012B303A092A03D9002BC6D00591C4E7A1
:105860000CFB012104460123F0E703AB00932A4619
:10587000124B04A93046AFF300800746781CD6D1FE
:105880006B6ED90705D4AB899A0502D4A86DFAF7D7
:10589000C1FFAB895B063FF51FAF09981EE703AB5D
:1058A00000932A46054B04A9304600F093F8E4E73C
:1058B0006A71000874710008000000006F5600084B
:1058C0007071000813460A46014602480068FFF757
:1058D000E1BE00BF0C000020024B01461868FAF739
:1058E000BDBF00BF0C000020024B01461868FBF74B
:1058F00087B900BF0C0000202DE9F04716469846F6
:105900008A680B69DDF820909342B8BF1346336074
:1059100091F8432007460C460AB1013333602368EF
:10592000990642BF336802333360256815F00605D7
:1059300006D104F1190AE36832689B1AAB4226DCEF
:1059400094F843302268003B18BF012392062BD401
:1059500004F1430241463846C84701301ED023684F
:10596000226903F00603042B02BFE5683368ED1AD1
:10597000A3680CBF25EAE57500259342C4BF9B1AB6
:10598000ED1800261A34B5421AD1002008E0012390
:10599000524641463846C847013003D14FF0FF30E8
:1059A000BDE8F0870135C6E7E1185A1C302081F8C0
:1059B0004300224494F8451082F843100233C7E7AD
:1059C0000123224641463846C8470130E6D0013619
:1059D000D9E700002DE9FF470F7E0C9E782F9146F6
:1059E00080460C469A4601F1430207D8622F0AD836
:1059F000002F00F0DD80582F00F0C38004F1420634
:105A000084F842703AE0A7F16303152BF6D801A1A0
:105A100051F823F06D5A0008815A0008FD5900081A
:105A2000FD590008FD590008FD590008815A000879
:105A3000FD590008FD590008FD590008FD590008EE
:105A4000975B00080F5B00084F5B0008FD590008DA
:105A5000FD590008B95B0008FD5900080F5B0008FC
:105A6000FD590008FD590008575B000833681A1DEE
:105A70001B68326004F1420684F842300123A8E03A
:105A800031682368081D30601E0601D50D6803E0EB
:105A90005D06FBD5B1F900506168002D78DA2D2044
:105AA000002984F84300A1602DDA5E486D420A2384
:105AB0001646B5FBF3F103FB1157C75D06F8017DF0
:105AC0002F46BB420D46F4D9082B0BD12368DF07C4
:105AD00008D5236961689942DEBF302306F8013C8E
