:020000040800F2
:10000000000002205D260008390F00083B0F0008A1
:100010003D0F00083F0F0008410F000800000000DE
:10002000000000000000000000000000430F000876
:10003000450F000800000000470F0008490F0008A6
:10004000AD260008AD260008AD260008AD26000844
:10005000AD260008AD260008AD260008AD26000834
:10006000AD260008AD260008AD260008AD26000824
:10007000AD260008AD260008AD260008AD26000814
:10008000AD260008AD260008AD260008AD26000804
:10009000AD260008AD260008AD260008AD260008F4
:1000A000AD260008AD260008AD260008AD260008E4
:1000B000AD260008AD260008AD260008AD260008D4
:1000C000AD260008AD260008AD260008AD260008C4
:1000D000AD260008610F0008510F0008AD2600088A
:1000E000AD260008AD260008AD260008AD260008A4
:1000F000AD260008AD260008AD260008AD26000894
:10010000AD260008AD260008CD5D0008AD2600082C
:10011000AD260008AD260008AD260008AD26000873
:10012000AD260008AD260008AD260008AD26000863
:10013000AD2600080000000000000000AD26000809
:10014000AD260008AD260008AD260008AD26000843
:10015000AD260008AD260008AD260008AD26000833
:10016000AD260008AD260008AD260008AD26000823
:10017000AD260008AD260008AD26000800000000EE
:1001800000000000AD260008000000000000000094
:10019000AD2600080000000000000000AD260008A9
:1001A000000000000000000000000000AD26000874
:1001B000AD260008AD260008AD260008AD260008D3
:0401C000AD26000860
:1001D00080F0004002E000BF81F0004142001FBFFC
:1001E0005FEA410392EA030F7FEA226C7FEA236C05
:1001F0006AD04FEA1262D2EB1363C1BFD2184140FA
:1002000048404140B8BF5B42192B88BF704710F08F
:10021000004F40F4000020F07F4018BF404211F032
:10022000004F41F4000121F07F4118BF494292EA9A
:10023000030F3FD0A2F1010241FA03FC10EB0C00C6
:10024000C3F1200301FA03F100F0004302D5494253
:1002500060EB4000B0F5000F13D3B0F1807F06D300
:1002600040084FEA310102F10102FE2A51D2B1F1F8
:10027000004F40EBC25008BF20F0010040EA0300ED
:100280007047490040EB0000013A28BFB0F5000F6D
:10029000EDD2B0FA80FCACF1080CB2EB0C0200FA23
:1002A0000CF0AABF00EBC25052421843BCBFD04072
:1002B0001843704792F0000F81F4000106BF80F4EC
:1002C00000000132013BB5E74FEA41037FEA226CAF
:1002D00018BF7FEA236C21D092EA030F04D092F07A
:1002E000000F08BF0846704790EA010F1CBF0020AE
:1002F000704712F07F4F04D1400028BF40F000400B
:10030000704712F100723CBF00F50000704700F02A
:10031000004343F0FE4040F4000070477FEA226251
:1003200016BF08467FEA23630146420206BF5FEA22
:10033000412390EA010F40F4800070474FF0000322
:1003400004E000BF10F0004348BF40425FEA000CE9
:1003500008BF704743F0964301464FF000001CE091
:1003600050EA010208BF70474FF000030AE000BFE7
:1003700050EA010208BF704711F0004302D5404225
:1003800061EB41015FEA010C02BF84460146002097
:1003900043F0B64308BFA3F18053A3F50003BCFAB2
:1003A0008CF2083AA3EBC25310DB01FA02FC63445F
:1003B00000FA02FCC2F12002BCF1004F20FA02F266
:1003C00043EB020008BF20F00100704702F1200259
:1003D00001FA02FCC2F1200250EA4C0021FA02F2BA
:1003E00043EB020008BF20EADC7070477BB972B9AA
:1003F0000029BEBF00204FF0004106E008BF0028E2
:100400001CBF6FF000414FF0FF3000F057B8ADF166
:10041000080C6DE904CE002909DB002B1ADB05F07E
:10042000EFFDDDF804E0DDE9022304B0704740424F
:1004300061EB4101002B1BDB05F0E2FDDDF804E080
:10044000DDE9022304B0404261EB4101524263EB1B
:1004500043037047524263EB430305F0D1FDDDF8DF
:1004600004E0DDE9022304B0404261EB4101704742
:10047000524263EB430305F0C3FDDDF804E0DDE920
:10048000022304B0524263EB4303704753B94AB9A5
:10049000002908BF00281CBF4FF0FF314FF0FF308C
:1004A00000F00CB8ADF1080C6DE904CE05F0A8FD24
:1004B000DDF804E0DDE9022304B07047704700BFB7
:1004C00001F0FF01102A2BDB10F0070F08D010F805
:1004D000013B013A8B422DD010F0070F42B3F6D109
:1004E000F0B441EA012141EA014122F007047FF022
:1004F00000070023F0E80256083C85EA010586EA79
:10050000010685FA47F5A3FA87F586FA47F6A5FAB4
:1005100087F68EB9EED1F0BC01F0FF0102F00702C0
:1005200032B110F8013B013A83EA010313B1F8D16B
:100530000020704701387047002D06BF354603384C
:10054000073815F0010F07D1013015F4807F02BF85
:10055000013015F4C03F0130F0BC0138704700BFD6
:10056000034613F8012B002AFBD1181A01387047F3
:1005700010F8012B11F8013B012A28BF9A42F7D04D
:10058000D01A70470348044B834202D0034B03B197
:10059000184770479C0000209C00002000000000CD
:1005A0000548064B1B1AD90F01EBA301491002D0D5
:1005B000034B03B1184770479C0000209C000020AB
:1005C0000000000010B5064C237843B9FFF7DAFFAE
:1005D000044B13B10448AFF300800123237010BD16
:1005E000A0000020000000005C74000808B5054B66
:1005F0001BB105490548AFF30080BDE80840FFF78F
:10060000CFBF00BF00000000A40000205C74000801
:1006100008B5064B044613B1002106F085FC044BD7
:100620001B6803B19847204606F016FF296F0008A3
:10063000F4010020002310B50446C0E90033C0E9EE
:100640000433836081814366C28183611946082235
:100650005C3000F0B1F80D4B63620D4BA3620D4BA3
:10066000E3620D4B23630D4B24629C4206D003F1E1
:100670006802944202D0D0339C4205D104F1580064
:10068000BDE8104000F0C4B810BD00BFCD0A00089E
:10069000EF0A0008270B00084B0B0008BC000020E5
:1006A000024A0349034800F069B800BF0000002077
:1006B000650A00081000002041680C4B994210B5F3
:1006C000044601D000F0CEF9A168094B994202D04E
:1006D000204600F0C7F9E168064B994204D0204655
:1006E000BDE8104000F0BEB910BD00BFBC00002046
:1006F000240100208C01002010B50B4B0B4C0C4A40
:100700001A60204600220421FFF794FF04F16800DC
:1007100001220921FFF78EFF04F1D0000222BDE87B
:1007200010401221FFF786BFF4010020BC0000201A
:10073000A1060008014800F06CB800BFFA010020D3
:10074000014800F067B800BFFA01002010B5044668
:10075000FFF7F0FF236A1BB1BDE81040FFF7F0BFC1
:10076000044B2362044B1B68002BF5D1FFF7C4FF39
:10077000F2E700BFB9060008F40100202DE9F843B4
:100780000746884614460026D4E90195B9F10109C7
:1007900005D52468002CF7D13046BDE8F883AB8935
:1007A000012B07D9B5F90E30013303D0294638465D
:1007B000C04706436835E9E702440346934200D147
:1007C000704703F8011BF9E770B50D4D0D4C641B24
:1007D000A4100026A64209D10B4D0C4C06F03EFE9B
:1007E000641BA4100026A64205D170BD55F8043B39
:1007F00098470136EEE755F8043B98470136F2E793
:100800003881000838810008388100083C810008E0
:10081000704770477047000070B50F4E0C46316846
:10082000054611B900F0CAF930602146284600F0AB
:10083000C5F9431C03D14FF0FF34204670BDC41CE2
:1008400024F00304A042F8D0211A284600F0B6F99B
:100850000130F2D1EFE700BFFC0100202DE9F843A1
:10086000CD1C25F0030508350C2D38BF0C25002DB7
:10087000064601DBA94204D90C2333600020BDE801
:10088000F883DFF8D48000F015F9D8F800301C4662
:1008900044BB29463046FFF7BFFF431C044658D1EE
:1008A000D8F800402746002F43D1002C4BD02368B6
:1008B0003946304604EB030900F080F9814542D106
:1008C00021686D1A29463046FFF7A6FF01303AD05D
:1008D00023682B442360D8F800305A6862BBC8F8FC
:1008E00000700FE02268521B20D40B2A17D961191F
:1008F000A342256018BF5960636808BFC8F800109C
:1009000062514B60304600F0DBF804F10B00231D10
:1009100020F00700C21A1CBF1B1AA350AFE7626881
:10092000A3420CBFC8F800205A60EBE72346646876
:10093000AEE73C467F68B6E71A465B68A342FBD148
:1009400000235360DEE70C233360304600F0B8F834
:1009500094E70560D6E700BF00020020B1F90C2043
:100960002DE9F041170705460C4656D44B68002B7D
:1009700002DC0B6C002B3DDDE66A002E3AD0002332
:1009800012F480522F68216A2B6025D0626DA389F2
:10099000580705D56368D21A636B0BB1236CD21A62
:1009A000216AE66A00232846B047411C24D0002370
:1009B000636023692360A389DA0400D56065616BF5
:1009C0002F60B9B104F14403994202D0284600F0E7
:1009D00017F9002363630DE001232846B047461C46
:1009E0000246D4D12B68002BD1D01D2B01D0162B61
:1009F0002BD12F6000202FE02A68B4F90C3042B1CF
:100A00001D2A01D0162A22D10023636023692360A6
:100A1000D5E7626022692260CEE70F69002FE9D036
:100A200093070E6808BF4B690F6018BF0023A6EB41
:100A300007088B60B8F1000FDCDD216AA66A434627
:100A40003A462846B047002808DCB4F90C3043F099
:100A50004003A3814FF0FF30BDE8F0810744A8EBCD
:100A60000008E7E738B50B6905460C4613B90025C1
:100A7000284638BD18B1036A0BB9FFF767FEB4F911
:100A80000C30002BF3D0626ED00704D4990502D449
:100A9000A06DFFF7BEFE28462146FFF75FFF636E9D
:100AA000DA070546E4D4A3899B05E1D4A06DFFF7DE
:100AB000B1FEDDE70148FFF7ACBE00BFF801002042
:100AC0000148FFF7A7BE00BFF801002010B50C4693
:100AD000B1F90E1000F060F80028ABBF636DA38978
:100AE0001B1823F48053ACBF6365A38110BD2DE9AF
:100AF000F0411F468B89DB0505460C46164605D599
:100B0000B1F90E100223002200F034F8A389B4F9E1
:100B10000E1023F48053A38132463B462846BDE89D
:100B2000F04100F05BB810B50C46B1F90E1000F0C2
:100B300021F8431CA38915BF606523F4805343F457
:100B40008053A38118BFA38110BDB1F90E1000F02E
:100B500001B8000038B5064D0023044608462B6056
:100B600006F044FC431C02D12B6803B1236038BD5E
:100B70000402002038B5074D0446084611460022FD
:100B80002A601A4606F04AFC431C02D12B6803B1C6
:100B9000236038BD0402002038B5074D04460846DE
:100BA000114600222A601A4606F040FC431C02D17E
:100BB0002B6803B1236038BD0402002038B5064D10
:100BC0000023044608462B6006F038FC431C02D183
:100BD0002B6803B1236038BD0402002038B5074DEF
:100BE00004460846114600222A601A4600F06CF8B6
:100BF000431C02D12B6803B1236038BD04020020DE
:100C000038B50546002941D051F8043C0C1F002B93
:100C1000B8BFE418FFF74EFF1D4A136833B963608D
:100C200014602846BDE83840FFF74ABFA34208D900
:100C3000206821188B4201BF19685B680918216080
:100C4000EDE71A465B680BB1A342FAD91168501858
:100C5000A0420BD120680144501883421160E0D1BA
:100C600018685B68536008441060DAE702D90C2307
:100C70002B60D6E7206821188B4204BF19685B6897
:100C8000636004BF091821605460CAE738BD00BF23
:100C90000002002008B50A480A4B03604FF4E13314
:100CA000436000238360C36003610C22426183615F
:100CB000C36101F039FA08B172B6FEE708BD00BFA2
:100CC000080200200044004010B514464FF0FF33E6
:100CD00092B2024801F057FA204610BD08020020E7
:100CE00008B5FFF7D7FF034806F054F802F018F9EB
:100CF00008BD00BF9874000882B0002100910B4B22
:100D00005A6C42F480425A645A6C02F48042009257
:100D1000009A01911A6C42F080521A641B6C03F025
:100D200080530193019B02B0704700BF003802401E
:100D300000B589B0002303930493059306930793AA
:100D40000268134B9A4202D009B05DF804FB0021FF
:100D5000019103F5E2331A6C42F000521A641A6CE6
:100D600002F000520192019A02911A6B42F00102C4
:100D70001A631B6B03F001030293029B202303936E
:100D80000323049303A9034800F0ACFADCE700BF97
:100D9000007400400000024030B58BB004460023D0
:100DA000059306930793089309930268314B9A427F
:100DB00005D02268304B9A422DD00BB030BD0025B3
:100DC000019503F5FA331A6C42F400321A641A6C76
:100DD00002F400320192019A02951A6B42F001026C
:100DE0001A631B6B03F001030293029B0C23059310
:100DF00002230693032308930723099305A91F4899
:100E000000F070FA2A462946262000F053F92620E1
:100E100000F060F9CDE70024039403F594335A6C95
:100E200042F010025A645A6C02F010020392039AC4
:100E300004941A6B42F001021A631B6B03F0010366
:100E40000493049B4FF4C063059302230693079415
:100E5000032308930723099305A9084800F042FAE1
:100E600022462146252000F025F9252000F032F900
:100E7000A3E700BF00440040001001400000024012
:100E800010B58AB004460023059306930793089390
:100E900009930368B3F1804F05D02268244B9A422E
:100EA00023D00AB010BD0021019103F50E331A6C56
:100EB00042F001021A641A6C02F001020192019AD6
:100EC00002911A6B42F001021A631B6B03F00103DB
:100ED0000293029B032305930223069301230993A4
:100EE00005A9144800F0FEF9D7E70022039203F5A4
:100EF0000D33196C41F002011964196C01F0020103
:100F0000039103990492196B41F0010119631B6B62
:100F100003F001030493049BC0230593022306936B
:100F200007920892099305A9024800F0DBF9B8E797
:100F30000004004000000240FEE7FEE7FEE7FEE797
:100F4000FEE770477047704708B500F05BF808BDD2
:100F500008B5024801F00CFA08BD00BF08020020E5
:100F600008B5024801F004FA08BD00BF5C02002089
:100F7000034AD2F8883043F47003C2F888307047CF
:100F800000ED00E010B504460E4B1A784FF47A736A
:100F9000B3FBF2F30C4A1068B0FBF3F000F0A8F8D2
:100FA00068B90F2C01D901200AE0002221464FF038
:100FB000FF3000F07FF8054B1C60002000E00120AE
:100FC00010BD00BF600000205C0000206400002015
:100FD00008B50B4B1A6842F400721A601A6842F4A2
:100FE00080621A601A6842F480721A60032000F06E
:100FF0004FF80F20FFF7C6FFFFF77EFE002008BD69
:10100000003C0240034A1168034B1B780B441360F9
:10101000704700BF4C02002060000020014B1868A0
:10102000704700BF4C020020002808DB0901C9B24C
:1010300000F1604000F5614080F80013704700F057
:101040000F000901C9B2014B1954704714ED00E0BB
:1010500000B500F00700C0F1070CBCF1040F28BF79
:101060004FF0040C031D062B0FD9C31E4FF0FF3E9B
:101070000EFA0CF021EA000199400EFA03FE22EA72
:101080000E0241EA02005DF804FB0023EEE70000D7
:10109000074AD36823F4E0631B041B0C000200F42E
:1010A000E060034343F0BF6343F40033D360704711
:1010B00000ED00E010B50446054BD868C0F30220EF
:1010C000FFF7C6FF01462046FFF7AEFF10BD00BF89
:1010D00000ED00E0002807DB00F01F0240090123BB
:1010E0009340024A42F82030704700BF00E100E020
:1010F0000138B0F1807F0BD24FF0E0235861054AF0
:10110000F02182F823100020986107221A617047AD
:101110000120704700ED00E070B110B5044603797E
:1011200033B102232371002020610123237110BDFC
:101130004371FFF7FDFDF4E7012070474279012A72
:101140002ED010B4034601224271022018711C688F
:10115000206801F0100C02FA0CF20243226089B9F7
:1011600019680A6802F03C023C2A06D001221A7172
:10117000002058715DF8044B70474A6842F0010244
:101180004A60F3E71868016801F470113C2202FA22
:101190000CF29142EAD1426842F002024260E5E775
:1011A0000220704710B483B00024019400680190BD
:1011B00051B901990A4408320192019A1360002042
:1011C00003B05DF8044B704701990A441432019250
:1011D000F3E7034608465979012924D010B54FF0AA
:1011E000010E83F805E0022119711C68216802F0E4
:1011F000100240F6FE7C0CFA02FC21EA0C0C01689D
:1012000040680143914041EA0C0121601C6821685B
:10121000C02000FA02F221EA0202226083F804E010
:101220000020587110BD0220704770B50446866DCD
:10123000FFF7F4FE94F83530DBB2022B06D08023A2
:101240006365002384F83430012070BD05462268B0
:10125000136823F0160313602268536923F0800398
:101260005361236CE3B12268136823F00803136011
:101270002268136823F00103136023681B6813F0CE
:10128000010F11D0FFF7CAFE431B052BF5D9202310
:101290006365032084F83500002384F83430D4E7F4
:1012A000A36C002BDFD1E3E7E26D3F239340B360F3
:1012B000012384F83530002084F83400C5E790F825
:1012C0003530DBB2022B03D0802343650120704709
:1012D000052380F835300268136823F0010313609A
:1012E0000020704700230F2B00F2E38070B582B01E
:1012F00065E085684FEA430E032404FA0EF425EAFC
:101300000405CC6804FA0EF42C438460446824EA93
:1013100002044A68C2F300129A40224342605CE031
:10132000DC08083450F8242003F00705AD004FF026
:101330000F0E0EFA05FE22EA0E0E0A69AA4042EAD4
:101340000E0240F824205CE0062200E0002202FAAF
:101350000EF22A430234574D45F82420564A1468A9
:101360006FEA0C0224EA0C054E6816F4803F01D0A7
:101370004CEA0405504C2560646802EA04054E6896
:1013800016F4003F01D04CEA04054B4C6560A4689C
:1013900002EA04054E6816F4801F01D04CEA0405E9
:1013A000454CA560E46822404D6815F4001F01D04B
:1013B0004CEA0402404CE26001330F2B77D8012243
:1013C0009A400C6804EA020C32EA0404F4D14C6836
:1013D00004F00304013C012C8BD94A6802F003029B
:1013E000032A09D0C4685D000322AA4024EA02044B
:1013F0008A68AA402243C2604A6802F00302022AB5
:101400008ED004684FEA430E032202FA0EF224EA59
:1014100002044A6802F0030202FA0EF2224302605A
:101420004A6812F4403FC7D000220192234A546C0C
:1014300044F480445464526C02F480420192019A54
:101440009C08A51C1B4A52F8255003F0030E4FEAD6
:101450008E0E0F2202FA0EF225EA0205184A904279
:101460003FF474AF02F58062904216D002F58062BC
:10147000904214D002F58062904212D002F5806250
:10148000904210D002F5806290420ED002F5806248
:1014900090423FF459AF072259E7012257E7022251
:1014A00055E7032253E7042251E705224FE702B034
:1014B00070BD704700380140003C014000380240D8
:1014C000000002400AB181617047090481617047E0
:1014D000002800F09B8070B50D4604464F4B1B68FA
:1014E00003F00F038B4208D2CBB24C4A137013683F
:1014F00003F00F038B4240F08B80236813F0020F40
:1015000017D013F0040F04D0454A936843F4E05316
:101510009360236813F0080F04D0414A936843F4A2
:10152000604393603E4A936823F0F003A1680B4345
:101530009360236813F0010F32D06368012B21D030
:101540009A1E012A25D9364A126812F0020F61D07C
:1015500033498A6822F0030213438B60FFF75EFD74
:1015600006462F4B9B6803F00C036268B3EB820FB7
:1015700016D0FFF753FD801B41F288339842F0D913
:10158000032042E0264A126812F4003FE0D1012015
:101590003BE0234A126812F0007FD9D1012034E0E9
:1015A0001E4B1B6803F00F03AB4207D9EAB21B4B7B
:1015B0001A701B6803F00F03AB422DD1236813F0A0
:1015C000040F06D0164A936823F4E053E1680B43F6
:1015D0009360236813F0080F07D0114A936823F42F
:1015E0006043216943EAC103936000F047F80C4B64
:1015F0009B68C3F303130B4AD35CD8400A4B1860B3
:101600000A4B1868FFF7BEFC002070BD0120704730
:101610000120FAE70120F8E70120F6E7003C02404C
:1016200000380240C47400085C0000206400002000
:10163000014B1868704700BF5C00002008B5FFF739
:10164000F7FF044B9B68C3F38223034AD35CD84063
:1016500008BD00BF00380240BC74000808B5FFF7A1
:10166000E7FF044B9B68C3F34233034AD35CD84083
:1016700008BD00BF00380240BC74000808B5464BE6
:101680009B6803F00C03082B07D00C2B45D0042BD0
:1016900001D0424808BD4248FCE73F4B5A6802F07F
:1016A0003F025B6813F4800F12D03B4B5968C1F3C3
:1016B00088113B480023A1FB0001FEF7E7FE364BF3
:1016C0005B68C3F3014301335B00B0FBF3F0E1E778
:1016D000314B5868C0F388104FEA401CBCEB000C3B
:1016E0006EEB0E0E4FEA8E1343EA9C634FEA8C11A9
:1016F000B1EB0C0163EB0E03DB0043EA5173C9004D
:1017000011EB000C43F10003990200234FEA8C20F7
:1017100041EA9C51FEF7BAFED1E71F4B5A6802F02E
:101720003F025B6813F4800F10D01B4B5968C1F364
:1017300088111B480023A1FB0001FEF7A7FE164BF2
:101740005B68C3F30273B0FBF3F0A3E7124B586876
:10175000C0F388104FEA401CBCEB000C6EEB0E0E81
:101760004FEA8E1343EA9C634FEA8C11B1EB0C01F4
:1017700063EB0E03DB0043EA5173C90011EB000C6D
:1017800043F10003990200234FEA8C2041EA9C5167
:10179000FEF77CFED3E700BF003802400024F400CF
:1017A00040787D01002800F0018270B582B00446C7
:1017B000036813F0010F41D0994B9B6803F00C03B1
:1017C000042B32D0964B9B6803F00C03082B27D0D8
:1017D000934B9B6803F00C030C2B59D06368B3F553
:1017E000803F5BD0B3F5A02F5ED08D4B1A6822F4FA
:1017F00080321A601A6822F480221A606368002B13
:101800005CD0FFF70BFC0546854B1B6813F4003FCB
:1018100014D1FFF703FC401B6428F5D90320CCE169
:101820007F4B5B6813F4800FD2D07D4B1B6813F4A1
:10183000003F03D06368002B00F0BA81236813F0E7
:10184000020F60D0764B9B6813F00C0F4AD0744B9C
:101850009B6803F00C03082B3FD0714B9B6803F08F
:101860000C030C2B69D0E368002B75D06D4B012263
:101870001A60FFF7D3FB0546694B1B6813F0020F94
:1018800061D1FFF7CBFB401B0228F5D9032094E17F
:10189000634B5B6813F4800FA0D0C6E7604A1368FF
:1018A00043F480331360A9E75D4B1A6842F4802249
:1018B0001A601A6842F480321A609FE7FFF7AEFBA5
:1018C0000546574B1B6813F4003FB7D0FFF7A6FB44
:1018D000401B6428F5D903206FE1514B5B6813F47A
:1018E000800FBAD14E4B1B6813F0020F03D0E36890
:1018F000012B40F05F814A4A136823F0F803216905
:1019000043EAC1031360236813F0080F49D06369E9
:10191000002B33D0434B0122C3F8802EFFF77EFB10
:1019200005463F4B5B6F13F0020F3AD1FFF776FB92
:10193000401B0228F5D903203FE1394B5B6813F4C3
:10194000800F90D1CEE7364A136823F0F80321695F
:1019500043EAC1031360D6E7324B00221A60FFF757
:101960005DFB05462E4B1B6813F0020FCBD0FFF733
:1019700055FB401B0228F5D903201EE1294B00220C
:10198000C3F8802EFFF74AFB0546254B5B6F13F02B
:10199000020F06D0FFF742FB401B0228F5D90320B7
:1019A0000BE1236813F0040F76D01D4B1B6C13F072
:1019B000805F33D100230193194B1A6C42F080529F
:1019C0001A641B6C03F080530193019B0125164B95
:1019D0001B6813F4807F29D0A368012B3AD0052B14
:1019E0003ED00F4B1A6F22F001021A671A6F22F0D5
:1019F00004021A67A368002B3CD0FFF70FFB0646D2
:101A0000074B1B6F13F0020F45D1FFF707FB801B3D
:101A100041F288339842F3D90320CEE00025D6E77F
:101A20000038024000004742007000406B4A1368D3
:101A300043F480731360FFF7F1FA0646674B1B68A7
:101A400013F4807FC8D1FFF7E9FA801B0228F5D98B
:101A50000320B2E0624A136F43F001031367C9E742
:101A60005F4B1A6F42F004021A671A6F42F00102CC
:101A70001A67BFE7FFF7D2FA0646594B1B6F13F000
:101A8000020F08D0FFF7CAFA801B41F28833984250
:101A9000F3D9032091E0EDB9A369002B00F08C800D
:101AA0004F4A926802F00C02082A54D0022B17D039
:101AB0004C4B00221A66FFF7B1FA0446484B1B68EC
:101AC00013F0007F45D0FFF7A9FA001B0228F5D9D3
:101AD000032072E0424A136C23F080531364DBE767
:101AE000404B00221A66FFF799FA05463C4B1B68EB
:101AF00013F0007F06D0FFF791FA401B0228F5D9BA
:101B000003205AE0E369226A1343626A43EA8213BC
:101B1000A26A5208013A43EA0243E26A43EA0263D4
:101B2000226B43EA02732E4A53602E4B01221A663F
:101B3000FFF774FA04462A4B1B6813F0007F06D1A6
:101B4000FFF76CFA001B0228F5D9032035E00020CE
:101B500033E0002031E0012B31D0214B5B6803F4EE
:101B60008001E26991422CD103F03F02216A8A424E
:101B700029D1616A47F6C0721A40B2EB811F24D1A5
:101B800003F44031A26A5208013AB1EB024F1ED170
:101B900003F07062E16AB2EB016F1AD103F0E04327
:101BA000226BB3EB027F16D1002006E001207047C4
:101BB000012002E0012000E0002002B070BD012001
:101BC000FBE70120F9E70120F7E70120F5E7012015
:101BD000F3E70120F1E70120EFE700BF00700040CC
:101BE00000380240000047420368304A904212D059
:101BF000B0F1804F0FD0A2F57C4290420BD002F59D
:101C00008062904207D002F58062904203D002F5D4
:101C10007842904203D123F070034A681343234A69
:101C200090422AD0B0F1804F27D0A2F57C4290425A
:101C300023D002F5806290421FD002F5806290426C
:101C40001BD002F57842904217D002F570529042B4
:101C500013D002F5806290420FD002F5806290426C
:101C60000BD0A2F59832904207D002F580629042E4
:101C700003D002F58062904203D123F44073CA6816
:101C8000134323F080034A69134303608B68C362E4
:101C90000B688362054B984203D003F5806398423A
:101CA00001D10B69036301234361704700000140C8
:101CB000002853D0F8B50D46044690F83D30002B6F
:101CC00047D0022384F83D302268936823F4804390
:101CD00023F007039360214651F8040BFFF784FFBC
:101CE00021688B688A690E6A2868184322F440725A
:101CF00022F00302AB68AF6943EA0723134323F4DE
:101D00007C4323F0FC03EA68EF6942EA07221A43A6
:101D10002B6A1B032F6943EA0713134326F0AA0615
:101D20006A686D6942EA05123243886021688B61F6
:101D300023681A62012384F8463084F83E3084F820
:101D40003F3084F8423084F8433084F83D3000203E
:101D5000F8BD80F83C30FFF793F8B2E701207047F8
:101D600001F01F014FF0010C0CFA01FC036A23EA99
:101D70000C030362036A8A4013430362704738B559
:101D8000044690F83E00C0B294F83F3094F84220E8
:101D9000D2B294F843C00D46B1B9012849D1012A05
:101DA00048D1022384F83E3084F842307DB3042DBC
:101DB00039D0012200212068FFF7D2FF012204213F
:101DC0002068FFF7CDFF27E0DBB25FFA8CFC042927
:101DD00012D0012833D1012B2CD1012A31D1BCF1F1
:101DE000010F30D1022384F83E3084F83F3084F86C
:101DF000423084F84330D9E7012B1CD1BCF1010FEC
:101E00001BD1022384F83F3084F84330CEE701220F
:101E100000212068FFF7A4FF2268136843F0010344
:101E20001360002006E0012204212068FFF798FFDC
:101E3000F2E7012038BD0120FCE71846FAE701204F
:101E4000F8E71846F6E71046F4E7000090F83C2063
:101E5000012A3DD010B40346012280F83C20022222
:101E600080F83D2002685068946820F0700C086883
:101E700040EA0C0050601A68164882421AD0B2F14B
:101E8000804F17D0A0F57C40824213D000F58060CF
:101E900082420FD000F5806082420BD000F578407E
:101EA000824207D000F57050824203D0A0F59430F2
:101EB000824204D124F080044968214391600122C8
:101EC00083F83D20002083F83C005DF8044B704708
:101ED0000220704700000140026802F10C0353E841
:101EE000003F23F490730C3242E800310029F3D113
:101EF000026802F1140353E8003F23F00103143297
:101F000042E800310029F3D1036B012B05D02023D7
:101F100080F83E30002303637047026802F10C032F
:101F200053E8003F23F010030C3242E8003100294F
:101F3000F3D1ECE790F83D30DBB2212B01D0022049
:101F400070478368B3F5805F17D0036A5A1C02623A
:101F50001A7803685A60C38C9BB2013B9BB2C3845E
:101F60004BB90268D36823F08003D3600268D3685A
:101F700043F04003D360002070470369002BE4D195
:101F8000036A1B880268C3F308035360036A0233C1
:101F90000362E0E710B504460268136923F4405376
:101FA000C1680B431361836802691A4343691A438A
:101FB000C3691A430168CB6823F4164323F00C036A
:101FC0001343CB600268536923F4407381690B4368
:101FD00053610368314A934206D002F5806293420E
:101FE00002D0FFF72BFB01E0FFF738FBE369B3F505
:101FF000004F29D00021031849411B1841F100016D
:10200000C90041EA5371DB00181863684FEA830284
:102010004FEA937341F10001FEF738FA204AA2FB20
:1020200000314909642303FB11031B013233A2FB76
:1020300003235B0903F0F00202EB011203F00F032C
:10204000216813448B6010BD0023021843EB030189
:10205000121841F10001C90041EA5271D200101872
:1020600041F10001626892185B41FEF70FFA0C4AD9
:10207000A2FB00314909642303FB1103DB00323367
:10208000A2FB03235B095A0002F4F87202EB01126F
:1020900003F00703216813448B60D4E7001001406C
:1020A0001F85EB512DE9F84305460F461646994624
:1020B000DDF820802B681C6837EA04040CBF01247B
:1020C0000024B4422DD1B8F1FF3FF3D0B8F1000F96
:1020D00005D0FEF7A3FFA0EB09004045EAD92A6826
:1020E00002F10C0353E8003F23F4D0730C3242E8B2
:1020F00000310029F3D12A6802F1140353E8003FAC
:1021000023F00103143242E800310029F3D12023E7
:1021100085F83D3085F83E30002385F83C300320BB
:1021200000E00020BDE8F88358B310B5044690F8ED
:102130003D300BB3242384F83D302268D36823F468
:102140000053D3602046FFF725FF2268136923F46C
:10215000904313612268536923F02A035361226874
:10216000D36843F40053D36000202064202384F814
:102170003D3084F83E3010BD80F83C30FEF70CFE58
:10218000D8E7012070472DE9F04182B01E4690F853
:102190003D30DBB2202B54D104460D469046002939
:1021A00053D0002A53D090F83C30012B51D001235A
:1021B00080F83C3000230364212380F83D30FEF793
:1021C0002DFF0746A4F82480A4F82680A368B3F561
:1021D000805F05D04FF00008002384F83C3012E007
:1021E000236913B14FF00008F6E7A8460025F3E78E
:1021F00038F8023B2268C3F308035360E28C92B2C2
:10220000013A92B2E284E38C9BB273B100963B46F2
:10221000002280212046FFF745FFE0B9002DE7D0DE
:1022200015F8012B23685A60E8E700963B46002228
:1022300040212046FFF736FF78B9202384F83D304F
:1022400000E0022002B0BDE8F0810120FAE70120A1
:10225000F8E70220F6E70320F4E70320F2E77047EF
:1022600008B50168CA6822F04002CA60202280F8DE
:102270003D20FFF7F4FF002008BD704708B5806BD4
:102280000023C385C384FFF7F8FF08BD704790F8AB
:102290003E30DBB2222B67D18368B3F5805F4DD02F
:1022A000826AB3F5805F04D0002B54D10369002B00
:1022B00051D103685B681370836A01338362C38DF5
:1022C0009BB2013B9BB2C385002B4FD100B583B0BD
:1022D0000268D36823F02003D3600268D36823F434
:1022E0008073D3600268536923F001035361202394
:1022F00080F83E30036B012B33D100230363026867
:1023000002F10C0353E8003F23F010030C3242E8C3
:1023100000310029F3D103681A6812F0100F06D0BB
:10232000002201921A6801925B680193019B818DE2
:10233000FFF7ACFF002003B05DF804FB0269002A40
:10234000AED1826A03685B68C3F308031380836AB3
:1023500002338362B3E703685B6803F07F031370A3
:10236000AAE700F095FAE5E70220704700207047E1
:1023700010B582B0044602681368D068516913F042
:102380000F0F09D113F0200F0CD010F0200F09D03F
:102390002046FFF77CFF16E011F0010115D110F483
:1023A000907F12D1216B012979D013F0800F03D0D7
:1023B00010F0800F40F0108113F0400F03D010F0A8
:1023C000400F40F00D8102B010BD13F0010F06D098
:1023D00010F4807F03D0226C42F00102226413F0DB
:1023E000040F04D019B1226C42F00202226413F0EF
:1023F000020F04D019B1226C42F00402226413F0DF
:10240000080F07D010F0200F00D119B1226C42F054
:1024100008022264226C002AD5D013F0200F02D0CB
:1024200010F0200F29D123685B6903F04003226C70
:1024300012F0080F00D163B32046FFF74DFD23686B
:102440005B6913F0400F20D0226802F1140353E8B7
:10245000003F23F04003143242E800310029F3D159
:10246000A36B73B1604A1A65A06BFEF728FF0028C2
:10247000A9D0A06B036D9847A5E72046FFF707FF9B
:10248000D1E72046FFF7F9FE9DE72046FFF7F5FE6E
:1024900099E72046FFF7F1FE0023236493E713F04A
:1024A000100F82D010F0100F3FF47FAF0023019384
:1024B0001368019353680193019B536913F0400F14
:1024C00050D0A26B13685B689BB2002B3FF47BAFCC
:1024D000A18D99427FF677AFE385D369B3F5807F0D
:1024E00037D0226802F10C0353E8003F23F48073D5
:1024F0000C3242E800310029F3D1226802F11403C2
:1025000053E8003F23F00103143242E80031002970
:10251000F3D1226802F1140353E8003F23F0400393
:10252000143242E800310029F3D1202384F83E30F0
:1025300000232363226802F10C0353E8003F23F0D9
:1025400010030C3242E800310029F3D1A06BFEF7F2
:102550006CFEA18DE38D9BB2C91A89B22046FFF7AC
:1025600095FE30E7A18DE38D9BB2C91A89B2E38D48
:102570009BB2002B3FF427AF00293FF424AF226821
:1025800002F10C0353E8003F23F490730C3242E84D
:1025900000300028F3D1226802F1140353E8003F11
:1025A00023F00103143242E800300028F3D1202345
:1025B00084F83E3000232363226802F10C0353E8C1
:1025C000003F23F010030C3242E800300028F3D122
:1025D0002046FFF75BFEF6E62046FFF7ABFCF2E68F
:1025E0002046FFF73DFEEEE67D22000803468162AD
:1025F0008285C28500201864222283F83E2083F859
:102600003C001968CA6842F48072CA6019684A6955
:1026100042F001024A611A68D36843F02003D36094
:10262000704708B590F83E30DBB2202B0DD171B168
:102630007AB190F83C30012B0DD0012380F83C306A
:1026400000230363FFF7D2FF00E0022008BD012052
:10265000FCE70120FAE70220F8E70000DFF834D0B9
:102660000D480E490E4A002302E0D458C4500433EA
:10267000C4188C42F9D30B4A0B4C002301E01360C1
:102680000432A242FBD3FEF773FCFEF79DF8FEF77F
:1026900027FB704700000220000000209C00002063
:1026A00040810008A00000207C040020FEE700B567
:1026B00083B00021009101F06DFC03B05DF804FBD4
:1026C0002C30014B1860704758020020D0F8AC3015
:1026D0009B6A43627047000008B500F5AC638361F4
:1026E00001230377014804F055FB08BDD4740008AA
:1026F00030B589B00024039404940594069407949B
:102700000194134B1A6B42F080021A631A6B02F0A9
:1027100080020192019A02941A6B42F001021A633C
:102720001B6B03F001030293029B0A4D2246C0215A
:102730002846FEF7C7FEC0230393012304930594A4
:10274000069403A92846FEF7CDFD09B030BD00BFB1
:10275000003802400000024008B50A480A4B0360F6
:102760004FF4E133436000238360C36003610C22B4
:1027700042618361C361FFF7D7FC00B908BD03F074
:10278000CBFBFBE75C0200200010014008B5FFF71F
:10279000AFFFFFF7E1FF012203490448FFF741FFC4
:1027A000034804F0F7FA08BD500200205C02002044
:1027B000E874000810B50446806802F064FB04F178
:1027C0002C0094F85135003B18BF012384F84030A9
:1027D000D4F82415A1B10B6803B1012384F84C305F
:1027E00002F01EF9A06802F052FB04F5AF63A3618A
:1027F0000123237700232362024804F0CBFA10BDA3
:102800000023EBE7F874000808B5036A002B06DB29
:10281000044B0362016A044804F054FA08BD002323
:102820000362F7E7F0D8FFFF0C75000810B500F160
:102830005004036A8367204602F07EFAE36823B1FE
:102840000122A16A204602F047F810BD10B500F140
:102850008004012380F8A830204602F06DFAE36876
:1028600023B10122A16A204602F036F810BD000013
:1028700008B5054804F08EFA0022002303490868D1
:10288000FFF715FF08BD00BF24750008580200209F
:1028900010B5064C012221460548FFF7C2FE2378F9
:1028A000C82B00D810BDFFF7E3FFFBE75002002064
:1028B0005C020020F8B54FF4B26000F00BFF00F5A9
:1028C000A362426480646FF00102C267C0F8F8201E
:1028D00000F57671024642F8F01FC0F8C4200022CD
:1028E000C0F8E4200124C0F8C840C0F808217449A9
:1028F000C0F80011C0F80401C0F84C21C0F8502104
:102900007049C0F85C11C0F86021C0F870416E4D8C
:10291000C0F86851C0F86C01C0F8B421C0F8B82103
:10292000C0F8C411C0F8C8210225C0F8D851674EBC
:10293000C0F8D061C0F8D401C0F81C22C0F8202231
:10294000C0F82C1200F5AC66C0F830620327C0F85E
:1029500040725F4FC0F83872C0F83C02C0F8842261
:10296000C0F88822C0F8941200F5AF67C0F89872DA
:102970000427C0F8A872574FC0F8A072C0F8A4028C
:10298000C0F8EC22C0F8F022C0F8FC12C0F8002316
:102990000527C0F81073504FC0F80873C0F80C0337
:1029A000C0F85423C0F85823C0F86413C0F8682353
:1029B0000627C0F87873494FC0F87073C0F87403E5
:1029C000C0F8BC23C0F8C023C0F8CC13C0F8D02393
:1029D0000727C0F8E073424FC0F8D873C0F8DC0393
:1029E000C0F82424C0F82824C0F83414C0F83824CF
:1029F000C0F8742400F50E71C0F8801400F5287139
:102A0000C0F8841400F59061C0F85414C0F858540C
:102A100080F85C44C0F8BC2400F54271C0F8C814CA
:102A200000F55C71C0F8CC1400F59961C0F89C14F5
:102A3000C0F8A05480F8A44400F58071C0F81015C7
:102A400000F5B471C0F81415C0F8042500F5A261B2
:102A5000C0F8E414C0F8E85480F8EC24C0F84C2521
:102A600000F5E871C0F8581500F5AB61C0F82C15F9
:102A7000C0F8304580F84845C0F81825C26200F11A
:102A80000C01C0F86015174CC0F8644500F5AE6C39
:102A9000002400254CE9024580F87025C0F878151F
:102AA0001149C0F87C1500F5B061C1E9004580F816
:102AB0008825C2600661466182610277F8BD00BF69
:102AC0008D27000838750008C1260008B5270008C2
:102AD000D9260008092800082D2800084D280008DC
:102AE000CD2600083C7500084875000800B58DB07B
:102AF0002422002103A8FDF75FFE00230193029327
:102B000013484FF080420260436083604FF0FF3211
:102B1000C260036180238361032303930123059330
:102B200009930A230B9303A9FFF7C2F850B90023B6
:102B30000193029301A90648FFF788F928B90DB05F
:102B40005DF804FB03F0E8F9F1E703F0E5F9F6E7D7
:102B5000A002002008B5FFF7C9FF3C210148FFF79C
:102B60000EF908BDA002002038B5044600F1540556
:102B70004FF080435B6AC367284602F0DDF8236E9E
:102B800023B10122E16F284601F0A6FE38BD000006
:102B900038B54FF4F47000F09DFD00F12802026298
:102BA000C0640022C0F890201D49C0F88810C0F809
:102BB0008C00C0F8D420C0F8D8201A4CC0F8E440EB
:102BC000C0F8E8200121C0F8F810174DC0F8F05007
:102BD000C0F8F400C0F83C21C0F84021C0F84C41D6
:102BE000C0F8502100F18804C0F89841C0F88C2149
:102BF00000F5CC74C0F86C41C0F8701180F87421F5
:102C0000C0F8D42100F1F002C0F8E02100F5F07224
:102C1000C0F8B421C0F8B811C0F8A01138BD00BF89
:102C2000552B000838750008692B000800B583B0E3
:102C30000023009301930B480B4B0360FEF76CFAE3
:102C400050B900220092019269460648FEF7C1FA87
:102C500028B903B05DF804FB03F05EF9F1E703F077
:102C60005BF9F6E7E80200200074004008B5FFF7C2
:102C7000DDFF00210148FEF761FA08BDE8020020EF
:102C800070B5056AAA6A02F10904122C8CBF0024EF
:102C900001240F4E002AD4BF0022012240213046D9
:102CA000FEF710FC224680213046FEF70BFCAB6A93
:102CB000002B05DB002211460648FEF773FA70BDB3
:102CC0005B42002211460348FEF76CFAF7E700BFAB
:102CD00000000240E802002038B54FF4DC7000F03C
:102CE000F9FC00F128020262C064002202661D495C
:102CF0008165C065C0F8A420C0F8A8201A4CC0F8AF
:102D0000B440C0F8B8200121C0F8C810174DC0F871
:102D1000C050C0F8C400C0F80C21C0F81021C0F8A1
:102D20001C41C0F8202100F15804C0F86841C0F8E7
:102D30005C2100F5B474C0F83C41C0F8401180F843
:102D40004421C0F8A42100F1C002C0F8B02100F570
:102D5000D872C0F88421C0F888110422C0F870210C
:102D600038BD00BF6D2C000838750008812C0008A4
:102D70002DE9F8432DED028B0446D0F87490076CD2
:102D800000F1A808806800F0CBFB05460E46226BD8
:102D9000821AD9F828103C4B83FB01E04FEAE1711D
:102DA000C1EBA001B86A83FB00EC4FEAE070A0EB36
:102DB000AC0C614407EE901AB8EEE78AE16ACCF1F8
:102DC0000000A0EB0100636B66EB0303C117FDF786
:102DD0000DFBFDF7CDFA06EE900A94ED0E7AD4EDD8
:102DE0000F7A27EE277A37EE087A84ED0F7AD4ED42
:102DF000087A67EE887A94ED096A27EE067A77EE0C
:102E0000877A94ED0A7A27EE267A77EE877A9FED15
:102E10001F7AF4EEC77AF1EE10FA17DC9FED1C7AF8
:102E2000F4EEC77AF1EE10FA2AD49FED1A7AF4EE96
:102E3000C77AF1EE10FA0BD59FED177AF4EEC77A48
:102E4000F1EE10FA04DDDFED157A01E0DFED0F7A27
:102E5000FDEEE77AC4ED347A404601F06DFFD4F818
:102E6000B4302BB10122D4F8D010404601F034FD2B
:102E7000BB6AE36225636663BDEC028BBDE8F88341
:102E8000DFED037AE4E700BF6766666600007A4517
:102E900000007AC50000C8420000C8C2000000005F
:102EA00038B54FF4E87000F015FC00F148020264F8
:102EB000C06600F17C024267C0F8A0000022C0F8A2
:102EC000E0201549C0F8D810C0F8DC00C0F8242173
:102ED000C0F828211149C0F83411C0F83821C0F8D1
:102EE000742100F1D805C0F8805100F5C071C0F818
:102EF00054110124C0F858410421C0F84011C0F811
:102F0000BC21C0F8C85100F5E472C0F89C21C0F89B
:102F1000A041C0F8881138BD712D0008387500082F
:102F200008B50021084602F049F808BD034B03220A
:102F30001A60034B034A1A60704700BFA4030020C5
:102F4000A00300206800002000B589B00021069190
:102F50000591012304930523039302910191042316
:102F600000930223034A1268034801F031FE09B0BE
:102F70005DF804FBB003002000030020014B036058
:102F800001207047000300202DE9F04F2DED048B48
:102F900085B0FFF78FFC0446DFF81CA3C0F808A03B
:102FA000DAF8643000F580721A60DAF8643000F5FF
:102FB000B4725A6042F210730362002747624FF006
:102FC0000108C0F8288000F58C639FEDB39B83ED6A
:102FD000009B00F58E63B9A1D1E9000143E902012C
:102FE000DAF85C3004F588621A60C4F87C7404F581
:102FF000966303ED029BAC480021C3E90001DAF8B7
:103000005C3004F591625A60C4F8C47404F5A86396
:1030100003ED029B4FF0FF304FF0FF31C3E9000199
:10302000C4F85475394604F5A36001F063FC84F8D4
:1030300051759FED9B8B84ED508B84ED6A8B84EDF5
:10304000848B84ED9E8B84EDB88B84EDD28B84EDE4
:10305000EC8B04F5846303ED028BDAF87C305B685B
:1030600004F10C021A60FFF793FD0646C0F808A0B1
:103070006FF0010BC0F880B0C0F824B0DAF864300B
:1030800000F188029A6080ED328B80ED4C8BFFF767
:1030900023FE8146C0F808A0C0F824B0DAF86430F6
:1030A00000F15802DA6080ED268B80ED408BFFF74F
:1030B000F7FE0546C0F808A07C4B03627C4B4362D8
:1030C0008362C0F8D4B0C0F844B0C0F878B0C7622A
:1030D00080ED0C9B774B83630023C36380ED468BAD
:1030E000C4F82871C4F89071C4F8F871C4F860721B
:1030F000C4F8C872C4F8308322460421404600F068
:10310000CBFAC4F83C0322460421404600F0C4FA3E
:10311000C4F8380322460421404600F0BDFAC4F842
:10312000340304F1640BC0F800B0C4F8988322465D
:103130000421404600F0B0FAC4F8A403224604215A
:10314000404600F0A9FAC4F8A003224604214046F4
:1031500000F0A2FAC4F89C0304F1940AC0F800A09D
:10316000C4F80074C6F8B070C6F81881324604215D
:10317000404600F091FAC6F8240132460421404648
:1031800000F08AFAC6F8200132460421404600F0D9
:1031900083FAC6F81C0106F1680300930360C9F8BE
:1031A0008070C9F8E870C5F800812A4604214046BD
:1031B00000F072FAC5F80C012A460421404600F0DE
:1031C0006BFAC5F808012A460421404600F064FA6B
:1031D000C5F8040105F1BC0301930360C4F87080D5
:1031E0006467C4F8A080C4F8A4400397D4F83833C7
:1031F000C3F8008022460421404600F04DFAD4F87E
:103200003C33CDF80C80186006E004AB03EB870379
:10321000002243F8042C0137002FF6DDD4F83C33AC
:10322000039A53F8223005F5C4721A6000270397F9
:10323000D4F8A0334FF00108C3F8008022460421DF
:10324000404600F029FAD4F8A433CDF80C80186079
:10325000002F19DDD4F8A433039A53F8223006F571
:10326000D0721A6002207067B66700270397D6F8FD
:10327000203118603246042100F00EFAD6F82431CD
:1032800001220392186024E004AB03EB87030022C1
:1032900043F8042C0137DBE70000000000000000C9
:1032A000000000000000008080969800CDCC4C3FCC
:1032B000CDCCCC3D6666663F0003002000F2052AB7
:1032C0000100000004AB03EB8703002243F8042C49
:1032D0000137002FF6DDD6F82421039B52F8232076
:1032E00004F1B0011160D6F8242152F8233005F51D
:1032F000A0725A604FF00108C5F8C880C5F8CC50DC
:1033000000270397D5F80831C3F800802A46042126
:10331000404600F0C1F9D5F80C31CDF80C801860AA
:10332000002F40F38780D5F80C31039A53F82230F0
:1033300009F5B8721A6004F18003336206F1540390
:10334000C4F8AC302B6404F150036B6705F1A8039B
:10335000C9F820303E4B5A6BC2F800B05A6BC2F825
:1033600004A05A6B04F1400191605A6B0099D1603E
:103370005B6B019A1A6101220023C4E94623354898
:103380004FF0FF31C4E94401C4E96023DFF8CCA069
:103390004FF0FF3BC4E95EABC4E97A23DFF8C0A07D
:1033A0004FF0FF3BC4E978ABC4E99423DFF8B4A045
:1033B0004FF0FF3BC4E992ABC4E9AE23DFF8A8A00D
:1033C0004FF0FF3BC4E9ACABC4E9C823DFF89CA0D5
:1033D0004FF0FF3BC4E9C6ABC4E9E223DFF890A09D
:1033E0004FF0FF3BC4E9E0ABC4E9FC23DFF884A065
:1033F0004FF0FF3BC4E9FAABC6E92823C6E9260132
:10340000C6E942239FED107B86ED407BC9E91C2372
:10341000C9E91A01C9E936230F484FF0FF31C9E95C
:103420003401C5E93C23C5E93AAB05B0BDEC048BDA
:10343000BDE8F08F04AB03EB8703002243F8042CB4
:1034400001376DE7AFF300800700FFFFFFFFFFFFCD
:10345000000300200000FFFF0900FFFF0100FFFF45
:103460000200FFFF0300FFFF0400FFFF0500FFFF56
:103470000600FFFF0800FFFF7047000008B5124874
:1034800002F0B8FCD8B9104A136852680F480168B6
:1034900040685B1842EB00020D48016840685B1809
:1034A00042EB00020B49086849689842914102DAF0
:1034B00008490B604A60074BD3E9000108BD064884
:1034C00002F06AF8DFE700BF7800002098030020D0
:1034D00090030020880300206C75000884B00DF173
:1034E000100C0CE90F000146019A0498059B8142DB
:1034F00072EB030C09DB884293410ADB029A069BBC
:103500009A4208D30AD9012001E04FF0FF3004B0FD
:1035100070470120FBE74FF0FF30F8E70020F6E7A7
:10352000D0E902017047000008B5FFF7F9FF034A30
:1035300013685268C01A61EB020108BD80000020C8
:1035400008B5FFF79BFF08BD08B5FFF797FF034AD3
:1035500013685268C01A61EB020108BD80000020A8
:10356000014BD3E900017047800000202DE9F041B4
:1035700090B00546194652EA010305D010460029CD
:1035800007DB0026002418E02F4B1B880380012650
:1035900055E02E4B1B8825F8013B0126F2E7671CFE
:1035A00010AB03EBC40444F8380C44F8341C4FF45B
:1035B0007A720023FCF71AFF3C46012871F10003E0
:1035C000EDDA013C10AB03EBC4014FF47A72002337
:1035D00051E90E01FCF70AFF90461F460092019345
:1035E0001B4A0521284603F085F9B8F1640F77F1ED
:1035F000000302DB033503361EE0B8F10A0F77F152
:10360000000702DB0235023616E00135013613E011
:1036100010AB03EBC7014FF47A72002351E90E019E
:10362000FCF7E4FECDE900230A4A0821284603F00E
:1036300061F9043504363C46671E002CE8DC304650
:1036400010B0BDE8F08100BF9075000894750008C7
:1036500098750008A075000810B5C06A01F0CCFE8E
:10366000044608B1204610BD2021012002F030FEA2
:1036700004460028F6D1024801F0C8FFF2E700BF77
:10368000A875000838B504460D460069884201D087
:1036900001F0F6F8256138BD70B5144602F018FE49
:1036A000054660B14CB10821012002F011FE06462A
:1036B00048B13560236826607360284670BD0448B1
:1036C00001F0A4FFEEE7024801F0A0FFF1E700BF20
:1036D000A875000808B50146024A0120FFF7DCFF83
:1036E00008BD00BFA803002080B170B5064604687D
:1036F00007E0206802F05CFF6568204602F058FF92
:103700002C46002CF5D10023336070BD704710B5F6
:103710000446FFF7E9FF204602F04AFF10BD000013
:1037200038B5084B1C6807E02068FFF7F0FF6568B4
:10373000204602F03DFF2C46002CF5D1014B002223
:103740001A6038BDA803002082B010B584B00446CA
:1037500006A981E80C0000F118030FCB8DE80F00DB
:1037600006AB0FCBFFF7BAFE002804DB04B0BDE8C0
:10377000104002B07047183406AB0FCB84E80F003E
:10378000F4E770B5064601F05BF9F46B306CB36B8F
:10379000834201DA746B1846002304E054F82320B6
:1037A0000021117001339842F8DC736CABB1002436
:1037B00000E0013406F14405284601F0ABFC8442E8
:1037C0000BD22146284601F086FC0028F1D0036880
:1037D000002BEED000221A60EBE70023336470BDAB
:1037E00082B000B585B006A981E80C0018300FC87A
:1037F0008DE80F0006AB0FCBFFF770FE0028D4BF9B
:103800000020012005B05DF804EB02B070472DE9FF
:10381000F04106460D46C86B02F050F838B1D5F8B5
:1038200020806C6A58EA040326D100241BE030464D
:10383000FFF712FF044685603046FFF771FE2A6AE3
:103840006B6A801843EB010320606360204601F03F
:10385000F1FF23E06B694FF0FF3253F8241030463C
:1038600001F0A2FA0134AB69A342F3DCD5F8288059
:10387000EC6A58EA040311D03046FFF7EDFE074624
:1038800085603046FFF74CFE10EB080044EB010466
:1038900038607C603946B06A01F05BFDBDE8F081BC
:1038A00038B50546002400E001342B6EA34208DD44
:1038B000EB6D53F824100029F6D02846FFF7A7FF38
:1038C000F2E738BD30B585B00546002400E001348C
:1038D000AA6EA2420DDD6B6E53F824100029F6D0BB
:1038E0000B6E002BF3D14FF0FF32284601F05CFA4B
:1038F000EDE7EB6F4BB1996802915B680193002390
:103900000093696E284602F001F805B030BD38B565
:103910000546002400E001342A6FA2420DDDEB6E63
:1039200053F824100029F6D00B6E002BF3D14FF082
:10393000FF32284601F038FAEDE7EB6F1BB1E96E74
:10394000284602F06AF838BD08B59FED077B81ED87
:10395000007B00228A60CA600A610A758A61C06AB7
:1039600001F0F7FC08BD00BF0000000000000000EF
:103970002DE9F04781460E4690461F46099CFFF709
:103980006BFE8246C0F800804760012303758660A5
:1039900005460BE04846FFF75FFEA861C0F80080CF
:1039A0004760012303758660013C05461CB1012C6C
:1039B000F0D1089BAB615046BDE8F08782B02DE99D
:1039C000F04790B00446884618A981E80C001C9F77
:1039D0000DF1100C00F108030FCB8CE80F008DE8FF
:1039E0000F0018AB0FCBFFF779FD002847DD17B1AB
:1039F000FB680133FB601AAB93E803008DE803001A
:103A000018AB0CCB2046FFF7EBFE00283DD120463B
:103A1000FFF722FE0546DDF860A0DDF86490C0F8EF
:103A200000A0C0F80490C0F8088007610146A06AB1
:103A300001F08AFC0646002800F0BA801A99002995
:103A400051D10023037598F83830012B2AD0022B6E
:103A500034D0D0E90023CDE9082301230A930AAB2F
:103A600093E803008DE8030008AB0CCB2046FFF77A
:103A7000B7FE60BBB36983BBB56101200DE0604850
:103A800001F0A6FD4FF0FF3007E05E4801F0A0FD19
:103A9000384600F0F5FE4FF0FF3010B0BDE8F047BB
:103AA00002B070470369BB4202D0384600F0E8FE1E
:103AB00029462046FFF748FF0020EEE73946FFF78A
:103AC000E1FD29462046FFF73FFF0020E5E72946B4
:103AD0002046FFF739FF0020DFE74B4801F05CFD8F
:103AE0004FF0FF30D9E7049A059B994508BF9245EE
:103AF00008D000234A1E934217D2B2692AB101337B
:103B00001646F7E7069B0133F4E7C91A013902D1DB
:103B1000B5610120C1E70191009552464B464146EF
:103B20002046FFF725FFB061F3E7B069E0B198F8F0
:103B30003820012A1BD0022A25D0D6E90001CDE980
:103B40000C0101330E9310AB13E903008DE8030061
:103B50000CAB0CCB2046FFF743FEE8B9B3699A697A
:103B600002BB9D61012098E7B561012095E70369DB
:103B7000BB4202D0384600F083FE29462046FFF7BC
:103B8000E3FE002089E73946FFF77CFD2946204601
:103B9000FFF7DAFE002080E729462046FFF7D4FE33
:103BA00000207AE7184801F0F7FC4FF0FF3074E787
:103BB0001A99049A059B994508BF92450BD008466F
:103BC000994508BF924509D059B92946A06A01F024
:103BD000C0FB012061E70698081AF1E70128F3D13C
:103BE000F3E7A66A0190009552464B4641462046AF
:103BF000FFF7BEFE0146304601F0ABFB01204CE76B
:103C0000B8750008FC750008447600082DE9F04FEF
:103C10008FB004460D4617469946DDF860B000F1B6
:103C2000100393E803008DE8030004F108030CCBB4
:103C30002046FFF7D5FD002869D1B9F1000F6EDBF2
:103C4000BBF1000F04D0DBF80C300133CBF80C30A3
:103C5000002D6CD02B7F2BB92B6A6A6ADB191F46AB
:103C600042EB0909A368E26813EB070842EB090A73
:103C7000AB6A0393EB6A04932046FFF7EDFC06461C
:103C800000238361C0F810B0856095F83030002BB8
:103C900052D16F6BEB6A002B55DB2B7FF3B9EFB181
:103CA0003B687A68039913EB0109049942EB01011F
:103CB0000591C14571EB0A0110DB95F83810012917
:103CC0006FD0022900F08580A068E1688A4208BFB1
:103CD000834200F09D80C846DDF814A0C6F800803D
:103CE000C6F804A0A269E369424573EB0A03C0F277
:103CF000B7806E633146A06A01F02BFBA06D431CB8
:103D0000A365002BC0F2B5800FB0BDE8F08F584618
:103D100000F0B6FD584801F05BFC0020F4E73A469D
:103D20004B46564801F054FC0027B94688E75846F0
:103D300000F0A6FD0020E7E7FFF702FC10EB070804
:103D400049EB010AA5E7CDF81880CDF81CA00023A7
:103D50000893C6F80080C6F804A03146A06A01F0B6
:103D6000F3FA07460028B9D00123089303E0089B23
:103D7000013308931746BA69002AF8D108AB93E8D3
:103D800003008DE8030006AB0CCB2046FFF728FDAF
:103D900010B9BE610020B7E731462046FFF7D4FDD9
:103DA000F8E7039B012B049B73F100030BDB3B69DA
:103DB0005B4502D0584600F063FD31462046FFF7D0
:103DC000C3FD0020A0E73946A06A01F0BDFA002833
:103DD000EDD138687A68A168E368814273EB020C20
:103DE0000CDB9A4208BF884203D0C846DDF814A015
:103DF00074E73946A06A01F0A7FA48B35946384635
:103E0000FFF740FC31462046FFF79EFD00207BE790
:103E10003946A06A01F098FAF0B1D7E90023CDE95C
:103E20000A23236901330C930EAB13E903008DE8D9
:103E300003000AAB0CCB2046FFF7D2FC10B9BE61E1
:103E4000002061E731462046FFF77EFD00205BE75A
:103E5000C846DDF814A041E7C846DDF814A03DE7E8
:103E6000584600F00DFD31462046FFF76DFD00205D
:103E70004AE70123A36547E778760008A0760008A3
:103E80002DE9F04182B0054601F08DFFA86A01F0EE
:103E9000C8FA09E0286B01F05CFA21462846FFF7D2
:103EA00053FDA86A01F0BDFA002860D0046842689A
:103EB000A968EB689A4208BF8C4258D1A86A01F001
:103EC0009BFA0446037D1BB181690029E2D1E4E736
:103ED0008368D86B01F0F2FC18B1D4F8108000268A
:103EE00004E02B4801F074FBF7E70136A3689A69F8
:103EF000B24212DD5B6953F8267097F83830002B18
:103F0000F3D1386E01F0DAFC0028EED04FF0FF322A
:103F10003946284600F048FFE7E7012283F83920B8
:103F2000A1680B7F2BB18A6ACB6A012A73F100006A
:103F300017DA4146A06800F073FD404600F0A0FC8F
:103F4000A368012283F83920A16911B1286B01F01F
:103F500000FA21462846FFF7F7FCA86A01F061FA4B
:103F6000A2E7002000902846FFF750FEE1E7286B0B
:103F700001F057FA40B1AC6A286B01F03DFA0146F6
:103F8000204601F0E6F9F2E702B0BDE8F08100BF9B
:103F9000E8760008F0B583B0054617461E46C369AB
:103FA0009C68204600F06FFF90B9089B00933A464A
:103FB0003346A9692046FFF729FE0546204600F052
:103FC0005EFF204600F063FF30B9284603B0F0BD25
:103FD000034801F01BFBE8E7024801F017FBF4E798
:103FE0004C7700087077000810B58468C168944267
:103FF00071EB030C04DA8260C3600023036110BD1F
:10400000994208BF944203D1036901330361F6E783
:10401000014801F0FBFAF2E79477000810B50C466E
:104020004B6859600B6848689847636800225A607B
:1040300010BD2DE9F04F87B08346914605920025CB
:10404000A8462F460A463AE06B6A534516D12F46DA
:1040500004E04A462946584600F0A6FE0134B369FA
:10406000A34214DD736953F82450002DF6D0AF42FB
:10407000F4D008F10108B8F1010FE5D0002FE8D025
:104080004A463946584600F08FFE0027E1E701997D
:1040900003985246DDF808A00AF1010A136B5B5839
:1040A00053450ADD50F82A60002EF5D00024019116
:1040B000CDF808A003909246D1E7049D0135936A9C
:1040C000AB420ED9D36AA90053F82530002BF5D0A6
:1040D0001B78002BF2D0536B58584FF0000A049510
:1040E000DCE75FB37B6C002B1ADBFFF729FA3B6C34
:1040F0007A6C53EA020409D0DBF80850DBF80C4074
:104100005B1942EB040283428A4109DAFB6C93B1EA
:1041100078689847059A39465846FFF78AFF0AE0BB
:10412000059C224639465846FFF778FF2246394615
:104130005846FFF77EFF002387F8483007B0BDE8F8
:10414000F08F000070B505460E461A4802F022FEB8
:10415000194802F01FFE194802F01CFE184802F030
:1041600019FE184802F016FE174802F013FE174811
:1041700002F010FE164802F00DFE164802F00AFE8C
:10418000154802F007FE154802F004FE144802F03C
:1041900001FE144802F0FEFD002405E056F824104C
:1041A000114802F08FFD0134AC42F7DB0F4802F0FA
:1041B000F1FD70BDD4770008F07700080C78000896
:1041C0004C78000870780008BC7800080C7900086A
:1041D000207900086C79000880790008BC79000813
:1041E000CC790008087A0008187A0008047A0008D8
:1041F0002DE9F04780460F4601240DE0B04554DD1F
:10420000023457F82650B0492846FCF7B1F9002887
:1042100054D1AE4B01221A70444580F2BD81661C18
:1042200057F82450AA492846FCF7A2F90028E5D0FF
:10423000A8492846FCF79CF90028DFD0A649284663
:10424000FCF796F958B1A5492846FCF791F930B129
:10425000A3492846FCF78CF9002840F0EE80A31C07
:10426000434539DA57F82690033457F823A04846D7
:1042700002F0FAFD05460E469A4B1860596050EA66
:10428000010303D199F80030302B2ED10322964937
:10429000504602F087FD90BB944AA5FB025302FBF7
:1042A0000633904A15605360B6E7914801F074F9FF
:1042B00039464046FFF746FF00206EE18D4928460B
:1042C000FCF756F918B9814B00221A70A4E7294669
:1042D000894801F061F99FE7884801F05DF93946A6
:1042E0004046FFF72FFF002057E14946844801F080
:1042F00053F939464046FFF725FF00204DE10422DF
:104300008049504602F04EFDD8B9720142EAD562AA
:104310006B015B1B62EB0602520242EAD3525B0264
:104320005B1946EB0202900140EA93609901CB1AB7
:1043300060EB02005B1946EB00006A4A13605060B4
:104340006AE704227049504602F02CFDA8B97301B7
:1043500043EAD5636A01521B63EB06039B0043EA01
:1043600092739200521946EB0303DB0043EA527347
:10437000D2005C490A604B604EE704226349504614
:1043800002F010FD00283FF447AF03226049504679
:1043900002F008FD60B95F4A0D2305FB03F302FB41
:1043A0000633A5FB02252B444E490A604B6033E7D8
:1043B00004225949504602F0F5FC68B9574A40F2C8
:1043C000463305FB03F302FB0633A5FB02252B4412
:1043D00044490A604B601FE703225149504602F0EE
:1043E000E1FC68B94F4A44F6946305FB03F302FB12
:1043F0000633A5FB02252B443A490A604B600BE7C4
:1044000004224949504602F0CDFC60B9474A484B66
:1044100005FB03F302FB0633A5FB02521344314AAA
:1044200015605360F8E65146424801F0B5F8394648
:104430004046FFF787FE0020AFE03F492846FCF7E3
:1044400097F820B13D492846FCF792F820BBB045CB
:104450000BDD023457F826501B492846FCF788F834
:1044600060B9374B01221A70D6E6364801F094F84D
:1044700039464046FFF766FE00208EE01D4928467B
:10448000FCF776F818B92E4B00221A70C4E62946BC
:104490002D4801F081F8BFE62C492846FCF768F862
:1044A00028B12B492846FCF763F8002863D1B045B2
:1044B00052DD023457F82650284601F005FF002847
:1044C00053DD244B1860A7E664750008B403002090
:1044D0001C7A0008207A0008687A00086C7A0008C4
:1044E000787A000888000020BC7A000800CA9A3B4D
:1044F000287A0008407A0008487A0008847A000880
:10450000A47A0008C07A0008C87A0008D07A0008A7
:10451000D87A0008005847F8DC7A000800A0B830C4
:10452000E47A000800004F91E87A0008000029F9B9
:104530000F260200F07A000860750008087B00086A
:10454000AC030020147B0008347B0008587B000873
:104550005C7B0008B0030020114801F01DF83946CB
:104560004046FFF7EFFD002017E029460D4801F017
:1045700013F80120A5E70C492846FBF7F9FF08B915
:10458000344649E62946094801F006F839464046CE
:10459000FFF7D8FD002000E00120BDE8F08700BF54
:1045A000687B0008907B0008BC7B0008C87B000883
:1045B00010B582B00024084B1C60084B1C6001A899
:1045C000FEF7DCFC234600E001338342FCDBFEF710
:1045D000DBFC02B010BD00BFC8030020C4030020F4
:1045E00070B58AB009A8FEF7C9FC05460998FEF720
:1045F00043FF002410E041683D4800F0E9FF0AE075
:104600000998FEF791FF0B1E36DA099800F0BCFA04
:10461000099B883309930134AC4248DA099B5968F5
:10462000344800F09BFF09980378002BE3D0FFF794
:10463000A8F8099801F076FB099B986A0028DFD05A
:1046400000F07CFE0028DBD0099B986A00F076FE23
:104650000146294800F0BCFF099B986A00F0E1FE82
:1046600002684668254801684368521A66EB0303EE
:10467000234800F0ADFFC3E7024601A8FEF776FF2E
:1046800001A9204802F01EFB1C4B1A685B68012A36
:1046900073F10003B9DBFEF757FF02460B4601A892
:1046A000FEF764FF01A9184802F00CFBADE700F02B
:1046B00065F9164B1B68002B07DC154B1B68002B9C
:1046C0000CDCFFF72DF80AB070BD124800F080FF37
:1046D0000E4B1968104800F07BFFEEE70F4800F022
:1046E00077FF0B4B19680E4800F072FFE9E700BF37
:1046F000107C0008F07B00083C7C00088000002053
:10470000807C0008C47C0008F07C0008C8030020FE
:10471000C40300201C7D0008507D0008707D000847
:10472000A07D000803688BB110B50446084A1368E1
:10473000013B136083685B6823B1006898470023DE
:10474000236010BD006801F033FFF8E7704700BF39
:10475000C8030020002841D010B50446C3680BB13F
:10476000002010BDFFF7DEFF002000F08CFBA0B999
:104770001B4B1B68ABB11A4B186800F0CDFFB0F5AE
:10478000007F1BD22146164B186800F0F1FFC0B91C
:104790002146144800F01CFF13E0134800F036FFD8
:1047A000E6E7042000F0C5FF0D4B18600028E2D1B9
:1047B00000F06DFB0D4800F029FFDCE7204601F01A
:1047C000F7FE002000F063FB20B9094A1368013BA3
:1047D0001360C5E7074800F019FFF6E700207047AF
:1047E000BC030020F87D00084C770008C07D00085D
:1047F000C4030020707700082DE9F04107460D46FC
:104800001646002000F03FFBD8B91A4B1C685CB17B
:10481000204600F0D9FF804600F0E4FF002814DABB
:104820000024404601F0C4FE002000F030FBB0B987
:10483000CCB1A760666025600023E3602046BDE838
:10484000F0810D4800F0E2FEDFE7404600F0EBFFAC
:1048500004460146074B186800F094FFE1E707485B
:1048600000F0D4FEE4E71421012001F031FD0446FC
:10487000DFE700BFBC0300204C770008707700081A
:1048800068B108B50146C36823B1013BC360FFF7B7
:1048900061FF08BD034800F09BFE0020F9E70020FF
:1048A000704700BF387E000810B50446C06820B1CC
:1048B000C368012B0BD0FFF7E3FF0022114620460F
:1048C000FFF79AFFE0600123C360E06810BDFFF7C7
:1048D00029FFE068FAE7000038B50D461446FFF7F7
:1048E000E3FF056002490A6801320A60446038BD8E
:1048F000C803002038B504460D46002000F0C3FA76
:1049000010BB1B4B1B681BB32146194B186800F0EA
:104910002FFF002000F0BBFA00BBE06850B1C36875
:10492000012B03D183681B68AB421BD0FFF7A8FFA4
:104930000023E3602560002211462046FFF75CFF5C
:10494000E0600123C36038BD0A4800F05FFED8E78D
:10495000042000F0EEFE064B1860D5E7064800F094
:1049600055FEDAE7FFF7DEFEE3680122DA60EAE7E8
:10497000B80300204C7700087077000838B5002095
:1049800000F081FA30B9224B1868F0B100F01CFF3A
:1049900005460CE01F4800F039FEF4E7284600F019
:1049A00042FF0446C068FFF76BFF0023E360284620
:1049B00000F018FF0028F1DA284601F0F9FD144C48
:1049C000206800F0ABFE00232360134B1868B0B1E1
:1049D00000F0FAFE044604E0204600F024FF01F057
:1049E000E7FD204600F0FEFE0028F5DA204601F043
:1049F000DFFD094C206800F091FE002323600020B9
:104A000000F045FA00B938BD044800F0FFFDFAE7B0
:104A1000B80300204C770008BC0300207077000822
:104A200038B50546C068884208D00C4608B1FFF783
:104A300027FF14B1E3680133E360EC6038BD000088
:104A4000074B186850B110B50469FFF719FF044B04
:104A50001C60034B18680028F6D110BD704700BFDA
:104A6000C0030020C36F63B110B50446586801F05D
:104A70009FFDE36FD86801F09BFDE06F01F098FDAA
:104A800010BD704708B5D0F8840000F04EFC08BD9A
:104A90002DE9F04105460C1E03DC0023C367BDE889
:104AA000F08116461421012001F012FCDFF8488045
:104AB00007464146003818BF012000F0B3FD04212D
:104AC000204601F005FC78604146003818BF0120FF
:104AD00000F0A8FDBC6000233B701021304601F0BF
:104AE000F7FBF8604146003818BF012000F09AFD3E
:104AF0003E61EF67D3E700BF6C7E000810B584B05D
:104B00000446084B0293084B0193084B0093084B53
:104B1000084A09490A2000F0DFFBC4F8840004B009
:104B200010BD00BF7B54000855540008775400089E
:104B30006F5400086554000837540008F0B585B07C
:104B4000844614461D460A9F0B9E8260C360002364
:104B500003610C4B0FCB0DF1100E0EE90F00002E70
:104B600006DBE41945EB060500940195002302934A
:104B70000CF1180C04AB13E90F008CE80F0005B022
:104B8000F0BD00BF7874000810B50446C06D01F098
:104B90000FFD606E01F00CFDE06E01F009FD606F2D
:104BA00001F006FD606B01F003FDE06B01F000FD1C
:104BB000A06A00F0BAFBE06A00F0B7FB206B00F0DF
:104BC000B4FB2046FFF75EFF2046FFF74BFF10BD0A
:104BD0002DE9F04F85B004461E46DDF83890DDF82B
:104BE0003C80109D119F41604A4B00F1180C0FCB87
:104BF0008CE80F0026664021304601F069FBE06535
:104C0000454E3146003818BF012000F00BFDC4F8B6
:104C100068906821484601F05BFB606631460038C9
:104C200018BF012000F0FEFCC4F8708068214046E7
:104C300001F04EFBE0663146003818BF012000F05D
:104C4000F1FCA5676821284601F042FB6067314608
:104C5000003818BF012000F0E5FCA763002525649B
:104C60000421384601F034FB60633146401B18BF15
:104C7000012000F0D7FC0421384601F029FBE06355
:104C80003146401B18BF012000F0CCFC4FF0010B57
:104C9000C4F858B0214F224EDFF890A0CDF808A0FC
:104CA000DFF88C90CDF80490DFF88880CDF8008094
:104CB0003B4632461B490A2000F00EFBA062CDF8AD
:104CC00008A0CDF80490CDF800803B463246164946
:104CD0000A2000F001FBE062CDF808A0CDF80490B6
:104CE000CDF800803B4632460F490A2000F0F4FA26
:104CF0002063C4F880502046FFF700FF139A1299F2
:104D00002046FFF7C5FE84F800B0284605B0BDE890
:104D1000F08F00BF787400086C7E00086B540008A8
:104D20005F54000837540008435400087D540008BD
:104D30004754000873540008436A43B310B49B6897
:104D400000F114041A6C996B8A4202DAD96B41F8AB
:104D500022401A6C01321A6401230375836973B10E
:104D6000C269002A0BDB1A68002A08DB511C196093
:104D700083695968914205D84FF0FF321A605DF897
:104D8000044B7047C169023243F82210F7E77047BD
:104D90000449097809B10020704708B501F07AF894
:104DA00008BD00BFB403002038B505460C46086EA8
:104DB00000F084FD10B194F8383003B138BD012300
:104DC00084F838302146D5F8840000F0C2FA002873
:104DD000F4D0024800F01AFCF0E700BF7C7E000827
:104DE00070B584B005460CE0002221462846FFF746
:104DF00015F9002221462846FFF71BF9002384F805
:104E00003830D5F8840000F099FA20B3D5F8840042
:104E100000F0F2FA0446022380F83830436C002B8D
:104E2000E2DBFEF78DFB236C626C53EA020C07D0C9
:104E3000AE689B19EE6842EB060283428A41D3DAE0
:104E4000E36C002BDAD060689847002221462846A0
:104E5000FFF7EFF8D2E7284600F094FF05F11803BA
:104E60000FCB8DE80F00083595E80F00FEF736FBF5
:104E7000002802DA012004B070BD0020FBE708B56D
:104E800001F042F808BD08B500F0E8FF08BD08B51C
:104E900000F0F0FF08BD0000F0B58DB00446FFF74C
:104EA000F2FF002851D1A06A00F0BBFA05463F4B43
:104EB0000DF1100C0FCB8CE80F00002D49D02A68A3
:104EC0006B6804920593A068E1688B4208BF824238
:104ED00055D00023069306AB93E803008DE803004A
:104EE00004AB0CCB2046FEF77BFC28B104AD04F1EB
:104EF00018030FCB85E80F00DDE9046732463B4617
:104F00002046FFF745FF00283DD132463B4620466C
:104F1000FFF76AF804F118030FCB8DE80F0004F1D6
:104F200008030FCBFEF7DAFA002836DA2046FEF740
:104F300028FC2046FEF7A4FF2046FFF7A8FF80BB11
:104F40002046FFF74DFF0DB0F0BD194800F05EFBA5
:104F5000A9E7184B1B78002BBDD1D4E90223CDE97A
:104F60000823236901330A930CAB13E903008DE88E
:104F7000030008AB0CCB2046FEF7E6FBABE723694A
:104F800001330693A7E72046FFF781FF08B9012008
:104F9000D9E7094800F03AFBF9E72046FEF7B7FCED
:104FA000C4E7054800F032FBCAE700BF8874000878
:104FB0004C770008AC0300207077000830B587B04C
:104FC00004460D46FDF7B2FF00F0EEFF304B1968C6
:104FD000304B1868FFF70CF9002855D029462046B9
:104FE000FFF706F900284FD02B4801F067F9002899
:104FF00042D1FDF7A9FF05A8FDF7C0FF02462749EA
:10500000012814BF0020012000F00CFBFFF7D0FAAC
:10501000FEF796FA02460B4621490A604B60214989
:10502000D1E90001CDE900010598FFF787FD05985A
:1050300000F0A0FE1C4B01221A700598FEF742FCFE
:105040000598FEF72DFC059C04F118030FCB8DE8A5
:105050000F0004F108030FCBFEF740FA00280FDA27
:105060000598FFF7BDFE20B10598FFF715FF002852
:10507000FAD1002007B030BD0C4800F0A9FAB8E71B
:105080000598FEF744FCEBE74FF0FF30F2E700BF76
:10509000A0030020A4030020E1450008D47E0008FE
:1050A0008000002088000020AD030020A87E0008BA
:1050B00001B9704770B5044646680068361A8D001D
:1050C000294601F04BFC0023236120600644666002
:1050D0002844A06070BD38B504460A4601689500B2
:1050E00001EB820304334068834200D96360606847
:1050F000A36898420BD3E0680130E0605B1A591056
:1051000000E049009142FCD92046FFF7D1FF20681A
:10511000284438BD43680068181A801070472DE98C
:10512000F8430368B3EB410F1AD904464D006E1CD7
:10513000B34216D9D0F80C900369426A52F82500A0
:10514000984780460F462369626A52F826009847BE
:1051500002460B4640463946C84710B1354600E086
:1051600000252846BDE8F8832DE9F04704460D46A2
:10517000436A53F8219003694846984780460F4692
:105180006E080CE0636A53F8262043F82520A369D3
:10519000626A294652F82500984735467608012D5F
:1051A0000BD9D4F80CA02369626A52F826009847FC
:1051B00042463B46D0470028E4D1636A43F8259035
:1051C000A3692946484698472846BDE8F0872DE957
:1051D000F04704460D46436A53F821900369484658
:1051E000984780460F460BE0636A53F8262043F841
:1051F0002520A369626A294652F82500984735465A
:1052000029462046FFF78BFF064668B1D4F80CA06C
:105210002369626A52F82000984702460B464046CE
:105220003946D0470028DFD1636A43F82590A36947
:10523000294648469847BDE8F08700002DE9F04729
:1052400004460F46151E34DB002C3FD02368AB42CA
:105250003ED9636A53F825607EB3D4F80CA0236965
:105260003046984781468846236938469847024623
:105270000B4648464146D047F8B92369304698471F
:1052800081468846236938469847884508BF814546
:1052900004D1E36939463046984738B96D002A464B
:1052A00039462046FFF7CAFF064640B13046BDE802
:1052B000F087084800F0AAF9C6E70026F6E76A1C5E
:1052C00039462046FFF7BAFF0646EFE72646EDE7E8
:1052D0000026EBE7207F00082DE9F84305468946C4
:1052E00090461F46282001F05BF90446A8B101351D
:1052F000A80001F055F90646606288B101232360D9
:10530000A5606560C4F80C90C4F810806761089BC4
:10531000A361099BE3610A9B23622046BDE8F883F1
:10532000204601F045F93446F7E710B50446406AD7
:1053300001F03EF9204601F03BF910BD10B10068C4
:10534000013870470020704708B50122FFF776FF4B
:1053500008BDD0B170B50E46044605684268954256
:1053600008D382681544A900406A01F0F7FA70B1C9
:105370006062656021684B1C2360636A43F82160AA
:105380002046FFF7F1FE002070BD0120704701208C
:10539000FAE70368012B2DD02DE9F04104460E46B3
:1053A0004369084698470546626A2368013B2360C3
:1053B00052F8233042F82030D4F80C80236930466C
:1053C000984707460E462369626A52F825009847B7
:1053D00002460B4638463146C04730B12946204682
:1053E000FFF7C2FE0020BDE8F08129462046FFF706
:1053F000EEFEF7E70020704710B570B10368012B8F
:105400000DD0416A4C68013B036051F823304B607A
:105410000121FFF7DCFE204610BD0446FBE7002417
:10542000F9E728B10268012A03D0436A5868704737
:1054300070470020704782428B4134BF012000201A
:1054400070470020704780688B68984214BF002026
:1054500001207047814214BF002001207047D0E92D
:1054600000017047D0E904017047C0687047006AC6
:105470007047C16070470162704770477047000015
:105480002DE9F04383B080460D4616461F46254B56
:105490001C68022C03DD002C02DA022400E0022446
:1054A0000A9B9C4202DA03B0BDE8F0832846FBF772
:1054B00057F804463046FBF753F8204400F1200922
:1054C000213001F06DF80446174B1B68002B0FDBF1
:1054D00001960095154A494601F00CFA144B1B68D9
:1054E0006BB1394620469847204601F061F8DAE76B
:1054F00000962B460F4A494601F0FCF9EEE7B8F159
:10550000000F07D00C4B1B683A462146D86801F0C3
:105510003DF8E9E7084B1B683A462146986801F0D8
:1055200035F8E1E79000002094000020687F000833
:10553000CC030020607F00080C00002000B583B081
:1055400002460B460221009103490020FFF798FF15
:1055500003B05DF804FB00BF207500080FB400B570
:1055600083B004A951F8040B0191FFF7E7FF03B0E2
:105570005DF804EB04B0704700B583B002460B46FB
:105580000021009103490120FFF77AFF03B05DF885
:1055900004FB00BF7C7F00080FB400B583B004A9F2
:1055A00051F8040B0191FFF7E7FF03B05DF804EB3E
:1055B00004B0704700B583B002460B46012000904E
:1055C0000249FFF75DFF03B05DF804FB847F00082C
:1055D0000FB400B583B004A951F8040B0191FFF793
:1055E000E9FF03B05DF804EB04B0704700B583B089
:1055F00002460B460021009103490120FFF740FFBE
:1056000003B05DF804FB00BF907F00080FB400B545
:1056100083B004A951F8040B0191FFF7E7FF0120C3
:10562000FAF7F6FF00B170470EB400B582B004A9D6
:1056300001910398FFF7DAFF0120FAF7E9FF01294A
:105640002DD930B5456801EBC10301EBC3032B40F5
:105650004FF0FF3E03E003F59C5311332B40C46829
:105660004FEA830C54F8232042B18A421AD0012A0F
:10567000F1D1BEF1000FEEDA9E46ECE7036901338B
:105680000361BEF1000F06DB4369013B436144F84F
:105690002E10012007E044F80C10012003E04FF029
:1056A000FF307047002030BDF8B5036942691344EC
:1056B00007EE903AF8EE677A866807EE106AB8EE61
:1056C000477ADFED146A27EE267AF4EEC77AF1EE18
:1056D00010FA00DAF8BD0546C768036801330360B5
:1056E00001209840A860431E6B60042100F0F0FD8B
:1056F000E86000242C616C6105E057F8241028460E
:10570000FFF79DFF0134A642F7D8384600F050FF5E
:10571000E0E700BF9A99593F0069704710B5044609
:1057200018B1C06808B100F043FF204600F040FF08
:1057300010BD38B505461821012000F0C9FD04460A
:1057400078B10560012303FA05F0A060431E636091
:10575000042100F0BDFD0546E06020B10023236177
:105760006361204638BD2046FFF7D8FF2C46F8E796
:1057700038B50546FFF763FF04462846FFF794FF58
:10578000204638BD30B4456801EBC10301EBC303CB
:105790002B4003E003F59C5311332B40C4684FEAC0
:1057A000830C54F8232062B18A42F3D1012344F8D8
:1057B0000C300269013A026142691A44426118469A
:1057C00000E0002030BC704710B5044608210120DD
:1057D00000F07EFD034618B104604FF0FF324260D6
:1057E000184610BD436801680A69CAB110B48446FE
:1057F00001338C689C4203D14FF0FF300DE0013340
:105800009C4208D9CA6852F82320012AF7D91846C1
:10581000CCF8043001E04FF0FF305DF8044B7047E6
:105820004FF0FF3070470368DB68426853F822008E
:105830007047000010B504460A4B1B6863B1196835
:10584000084A11605C6008490A681A6007480268E3
:10585000013202600B6010BD082000F0A1FE03467B
:10586000F0E700BFD0030020D8030020D4030020BD
:10587000024600680023536013600D490B68013B2A
:105880000B600C4B1B686BB113600A4B1A600A4B20
:105890001B68934209D019461B689342FBD101B1A2
:1058A00008607047034B1A60F1E7034B18607047BC
:1058B000D4030020D0030020D803002018B1007CBE
:1058C00000F001007047012070472DE9F04180464B
:1058D0000F461646002400E00134B4420EDA57F8B1
:1058E0002450002DF8D02868FFF7E8FF0028F3D0F7
:1058F000AA68137C43F003031374EDE7D8F87C2007
:10590000137843F002031370BDE8F0812DE9F04FE6
:1059100083B0814601929A460D9E0E9DC36F1B78FF
:1059200013F0020F23D08B4609B3002400E00134AA
:10593000019B9C421BDA5BF82470D7F86080B8F1B9
:10594000000FF4D097F83830002BF0D14046FFF725
:10595000B5FF0028EBD098F8103013F0020FE6D016
:105960004FF0FF3239464846FFF71EFADFE7D9F815
:105970007C301B7813F0080F46D0BAF1000F43D0EB
:10598000002400E001340C9B9C423DDA5AF824705C
:10599000D7F86080B8F1000FF4D097F83830002BBA
:1059A000F0D14046FFF78AFF0028EBD098F810307E
:1059B00013F0080FE6D04FF0FF3239464846FFF7A4
:1059C000F3F9DFE7BA68137C23F00803137401349A
:1059D000AC421BDA56F82470002FF8D0D7F80880B4
:1059E0004046FFF76BFF0028F1D098F8103013F015
:1059F000020FE7D043F0040388F81030BA68137C34
:105A000023F002031374DDE70024E1E7D9F87C30CA
:105A100000221A7003B0BDE8F08F29B1F8B507462F
:105A200015460E46002401E070470134AC4214DAFA
:105A300056F824100B6E002BF7D01B7C13F0040FCC
:105A4000F3D000230B6691F83830002BEDD14FF0E6
:105A5000FF323846FFF7A8F9E7E7F8BD2DE9F04F28
:105A60008FB081468A46904600273846CB469946F5
:105A700002E0F368C3B90137474580F2B9805AF8AC
:105A80002760002EF7D03368002BF2D01A68002A66
:105A9000EFD0D1688B42ECD1137C012BE9D1736834
:105AA000F36001233374E4E7337C012B15D09B4B67
:105AB0001C6866E00134AC4212DA09EB04130FCB28
:105AC0000DF1380C0CE90F00F3689842F2D10D9AF1
:105AD0000C990B9801F0BAF9ECE70024189DEAE75D
