:020000041000EA
:1000000000B5324B212058609868022188439860DF
:10001000D860186158612E4B002199600221596106
:100020000121F02299502B49196001219960352056
:1000300000F044F80222904214D00621196600F024
:1000400034F8196E01211966002018661A6600F04E
:100050002CF8196E196E196E052000F02FF8012189
:100060000842F9D1002199601B49196000215960AB
:100070001A491B48016001219960EB211966A021F2
:10008000196600F012F800219960164914480160C1
:100090000121996001BC002800D000471248134993
:1000A000086003C880F30888084703B5996A0420EC
:1000B0000142FBD001200142F8D103BD02B5186610
:1000C0001866FFF7F2FF186E186E02BD00000240BE
:1000D000000000180000070000035F00212200005C
:1000E000F4000018222000A00001001008ED00E03C
:1000F00000000000000000000000000074B24E7A12
:1001000000200420F7010010C3010010C5010010F9
:10011000C1010010C1010010C1010010C101001097
:10012000C1010010C1010010C1010010C701001081
:10013000C1010010C1010010C9010010CB01001065
:10014000CD010010CD010010CD010010CD01001037
:10015000CD010010CD010010CD010010CD01001027
:10016000CD010010CD010010CD010010CD01001017
:10017000CD010010CD010010CD010010CD01001007
:10018000CD010010CD010010CD010010CD010010F7
:10019000CD010010CD010010CD010010CD010010E7
:1001A000CD010010CD010010CD010010CD010010D7
:1001B000CD010010CD010010CD010010CD010010C7
:1001C00000BE00BE00BE00BE00BE00BEEFF3058054
:1001D000103800BEF2EB887170D100108CD1001085
:1001E0003402001090A31AE700201F49086006C8D7
:1001F00081F3088810471D48006800282FD10DA4FE
:100200000ECC002902D000F012F8F9E71849194A7B
:10021000002000E001C19142FCD1174988471749ED
:1002200088471749884700BEFDE701C901C29A42C5
:10023000FBD370478CD10010C00000201C0A0020A6
:10024000E8DA00100000042000000420E8DA0010C2
:10025000001004200010042000000000704709482E
:1002600002F0E4FF0047000008ED00E0000000D0CD
:10027000200A0020E4110020C118001051030010D2
:10028000E51900105756000006005250ABB36053FA
:1002900078C2001006005250861C030298C200105B
:1002A000060052505422A29DA0C2001005005250D8
:1002B000DE65F468E8DA0010F8B5C046064807497C
:1002C000091A8B10C90FC91810B5491003D0044B77
:1002D000002B00D0984710BD1C0A00201C0A0020EB
:1002E00000000000054B10B5002B03D00449054861
:1002F00000E000BFFFF7E2FF10BDC04600000000B5
:100300009810002088BF00107047C04610B5C0206C
:1003100004F0E6F80C4A010002610C4A0023C266B0
:10032000B822103183614061C36503660367815061
:100330000C3A8350A831203A815001210432815077
:100340000432835410BDC0460903001088BF00105A
:1003500010B50021002005F01DFB10BD7047C04600
:10036000094B00B51A68002389B0069305930493DE
:100370000393029301930133009300210023034868
:1003800005F03AF909B000BD0C100020600B002008
:10039000014B036001207047600B002010B5FFF790
:1003A000B5FF02000A4B103283605B6E1A60802337
:1003B00000221B060265436500230122836300239C
:1003C0008262C3620123034A5B420262436210BD40
:1003D000600B00200000FFFF7047C046024B18680A
:1003E0008007C00F7047C04600C0064070B5EFF3ED
:1003F000108C72B60D4D2B68002BFCD0BFF35F8FB5
:100400000724CB08C618C05C01230C40A3401C0085
:100410000440034207D118433070BFF35F8F2C6054
:100420008CF3108870BD100001F0FCFA2C0100D094
:10043000F8B54746CE46884680B5EFF3108C72B6C5
:10044000214D2C68002CFCD0BFF35F8F9A422CD832
:10045000D4080727055D061901241740BC402C422B
:100460001FD007210127894609E0D408055D061938
:100470004C4639001440A1400C00294211D00132F1
:100480009342F2D201204042BFF35F8F00220E4B15
:100490001A608CF3108800280FDBC0BCB946B04648
:1004A000F8BD254310003570EEE7BFF35F8F0023E2
:1004B0002B608CF31088012040424346002BECD087
:1004C000089801F0AFFAC0462C0100D00021044B7F
:1004D000044ABFF35F8F02C39342FAD17047C0460C
:1004E000000100D0800100D0044A1078431CDBB228
:1004F000172B00D9102313707047C04688020020C4
:1005000010B5064B064C82B00100009318221F2341
:100510002000FFF78DFF02B010BDC0468CBF001059
:100520003810002001238340002904D0034A1360BF
:10053000034A13607047034A1360FBE780E200E060
:1005400000E100E080E100E0024B10309B68800099
:10055000C058704700ED00E070B50D00EFF3108655
:1005600072B60F4A1368002BFCD0BFF35F8F0D4BA0
:1005700010309B6884001B590B4A934203D09D4264
:1005800001D001F067FA074B9B681D51BFF35F8FE5
:10059000BFF35F8F0022024B1A6086F3108870BD94
:1005A000240100D000ED00E0CD010010F0B5DE46E2
:1005B00057464E464546E0B50C0083B0EFF3108831
:1005C00072B65D4A1368002BFCD0BFF35F8F5B4BA4
:1005D0005B499A68030010339F00D5598D4239D08A
:1005E000A5424AD0574EAA1B2F2A33D80122924641
:1005F000824091464846544A12681040019048464D
:10060000524A1060BFF35F8FEFF305829346002AD2
:1006100035D0934201D001F01DFA2A0053469A4387
:100620009068844208D175E04B005B189B00F3187A
:100630009868A04234D01A00062151560029F3DAF6
:10064000844253D0019B002B26D04A46404B1A606F
:100650003D4B1A60394B9B68DD51BFF35F8FBFF391
:100660005F8F0022344B1A6088F3108803B0F0BC0F
:10067000BB46B246A946A046F0BD0D00EAE72A00F7
:1006800053469A4390688442D6D1062010561300F0
:10069000002809DA0D0031E04A462C4B1A60D9E7F0
:1006A00006201856002822DB420011188900741811
:1006B0008A46A1689960E179D971062161569971DC
:1006C000002925DBA488F11A64052415544409196E
:1006D000E0240905490D24022143998013181D4A7D
:1006E0009B001178F31899711070ABE7130059460D
:1006F000002914D1FF3191711749918015490A7869
:100700009A71164A9B1B5B415A43120D0A7099E776
:100710001349E2E70620105613000028C4DA114AF4
:100720001149D21A083A5002400D014399800F49ED
:1007300052080A43DA8085E7240100D000ED00E08A
:10074000CD0100108C02002000E100E080E100E01B
:1007500080E200E0DF11002001BDFFFFAAAA000037
:1007600001BD0000C602002000F0FFFF00F8FFFFFF
:1007700070B5EFF3058101240443EFF3108C72B6DA
:10078000214A1368002BFCD0BFF35F8F1F4B05007D
:100790001F4AED1A6D416A43120D1E4D8900AE6865
:1007A00052B27658A6421CD00621595691421CD00E
:1007B00012215956914222D01E215956914220D0E1
:1007C0002A2159560324914210D0134B19781A70DC
:1007D0008171BFF35F8F00220B4B1A608CF310887E
:1007E00070BDAB680D4C5C50EFE700246100091947
:1007F00089005B18FF21997109499980E5E7012477
:10080000F4E70224F2E7C046240100D08C02002065
:10081000AAAA000000ED00E0DF110020CD010010C9
:1008200001BDFFFF054B064A1360064A1360536083
:100830009360D360136153619361704780808080BF
:1008400000E400E004E400E070B504000E001500D0
:10085000FFF74AFE0100200000F006F8A680E580C0
:10086000BFF35F8F70BDC046024B9C466144890058
:10087000016070474000003410B50400FFF734FEFB
:1008800001002000FFF7F0FFFF232371BFF35F8F0C
:1008900010BDC04610B50400FFF726FE0100200081
:1008A000FFF7E2FFFF23A380BFF35F8F10BDC046B9
:1008B00010B504000120FFF723FE034BC3189B0073
:1008C0002360BFF35F8F10BD4000003483680B4886
:1008D00010B58446614462441201090159189B18FD
:1008E0005C684A680120944201D802D00020C0B25E
:1008F00010BD1A680B689A42F9D8F7E7FFFFFF0F9F
:100900000A4B1968EFF3108072B60A68002AFCD00F
:10091000BFF35F8F1B68BFF35F8F00221A6080F305
:10092000108840BF002000217047C046C811002039
:10093000F8B5574645464E46DE46E0B598460CAB00
:100940001C780DAB1B78070091469A460568002C71
:100950005AD1AC7B002C3BD0660029683619033E87
:1009600089194B78AB73002B00D1EB7300238B708C
:100970004B700B702B4BE218BB6812019B184A4658
:100980001A6042465A600A9A9A600B9ADA6000230B
:100990008B704B700B706B7B9B46002B27D022001B
:1009A0006B685946A86898475B465B005B442A68B9
:1009B000033B002812D058469619B070D118D35C6A
:1009C000002B00D073705B460C706B735C450FD0CE
:1009D000F0BCBB46B246A946A046F8BDD3189C70F1
:1009E0009119925D002A00D05A705B460B706C73AF
:1009F0004A464346387D00F03FFB051E0AD10E9B58
:100A0000002BE5D01D70E3E7660029683619033E28
:100A10008919AFE75346002BF1D12100386800F067
:100A200043FDECE7FFFFFF0FF0B5DE4657464E46AD
:100A300045460023E0B58BB00893684B8200D4583C
:100A400000239B46099000F093FA02000B006068B7
:100A5000EFF3108A72B6564601680029FCD0B24600
:100A6000BFF35F8F21684F7B8C46002F2ED0A56887
:100A70005B49A946791809018944494608684968CB
:100A800005000E00AD1A9E41002E5FDD02000B0036
:100A9000099800F0F1FA00230022994600230692FB
:100AA0000793002398466368BFF35F8F5A461A6026
:100AB0008AF310884346002B12D10028C3D10BB013
:100AC000F0BCBB46B246A946A046F0BD00230022BA
:100AD0009946002306920793002300209846E2E7F8
:100AE000089B494618023843C047626805000E005B
:100AF000EFF3108A72B61368002BFCD0BFF35F8F40
:100B0000002E41DB2B00334302D02369002B56D14A
:100B10002368D97B002905D01A684800411852186B
:100B2000033A57709A7B002A00D19F73DF73E26803
:100B3000013FD35D0133D3555B4623616368BFF347
:100B40005F8F5A461A608AF310887CE7002E02D124
:100B5000002D00D09AE70021604600F023FC4B46B0
:100B60001A685B68069207934B469B6898464B460B
:100B7000DB689946E368DB19013B1B7808931B028D
:100B80000343236100208EE72369002BC0D0069A1F
:100B9000079B8021521BB34109068B4202D30122DD
:100BA000104B5242002104910131039149460191B9
:100BB0004146200002970091FFF7BAFEBCE700F023
:100BC000D7F92A00330012184B41802109068B42C5
:100BD000E8D30122034B5242E4E7C046B0100020A4
:100BE000FFFFFF0FFFFFFF7F10B5144C6368002B62
:100BF00004D00A211248FFF737FE10BD2300114A26
:100C00001021206800F0EAFA032000F0A5F9032083
:100C100000F09AFA03200C4900F0E8F9FFF764FCB1
:100C20000A4B9C4603232375D0231B061B68604494
:100C30006375074B80006060DC60DAE7D402002057
:100C4000C8110020CD080010290A0010400000340F
:100C5000B0100020F0B557464E464546DE46E0B59A
:100C600085B0019310AB1B780600039300239A46CE
:100C7000984600927268EFF3108B72B61368002BDF
:100C8000FCD0BFF35F8F3568AC7B002C00D16EE0E9
:100C900067002B683F19033FDB195A78AA73002AB3
:100CA00000D1EA73484AA118B268090152180098A5
:100CB0000199106051600E9991600F99D160424680
:100CC0009A705A701A706B7B9946002B00D16BE0BA
:100CD00022006B684946A86898474B465B004B4426
:100CE0002A68033B002856D04846D719B870D11857
:100CF000D35C002B00D07B704B460C706B734C4563
:100D000053D0F3681B19013B18787368BFF35F8FEA
:100D100042461A608BF310885346002B08D100021C
:100D2000204305B0F0BCBB46B246A946A046F0BD84
:100D3000039B002B46D00E9B00200F999847030081
:100D40000B433FD004000D1E1ADA009A019B121BC0
:100D5000AB410092019380221206934204D30123F7
:100D60001A4C5B4200930194039B9A4682E7736896
:100D7000BFF35F8F1C608BF3108801204042D0E7E7
:100D800000F0F6F8802200196941120600900191E6
:100D90009142E9D3E3E7D3189C70D119D25D002AC0
:100DA00000D05A704B460B706C73307D009A019BDB
:100DB00000F062F982460028A3D02100306800F0DC
:100DC00073FB9EE70020ACE7FFFFFF0FFFFFFF7FF5
:100DD000F0B5EFF30583CE46474680B505000C001D
:100DE00085B0002B12D02A4A0020536AA34203D3B5
:100DF000926A0130AA4204D305B0C0BCB946B046DD
:100E0000F0BD1B1B5A1E9341D8B2F5E7214E029349
:100E10000193214B0200009330000B00FFF71AFFF3
:100E2000031EE0DD20BF7168EFF3108772B60A6819
:100E3000002AFCD0BFF35F8FDAB29446FF223068FD
:100E40001A40417B61450FD00168894651008846B0
:100E500049469044414403398978002904D13269D4
:100E6000934209D1316107E0F1681B0A8A18013AFF
:100E70001278DBB29A4207D07368BFF35F8F00220B
:100E80001A6087F31088AEE7614600F00DFBF3E7C8
:100E900000400540D402002001090010F0B5EFF336
:100EA0000582D6464F4646461000C0B51038EFF3CF
:100EB000108872B6214C2368002BFCD0BFF35F8FE3
:100EC0000123190081401E4D1F006963AA461D4D74
:100ED00029601D4D2E78AC463500C5402F402B4271
:100EE00015D053465F6A194B8500EB589F4218D3C3
:100EF0006246174B8E43EB581670BFF35F8F00228C
:100F0000226088F31088002B06D0984704E0BFF3D6
:100F10005F8F276088F31088E0BCBA46B146A846C8
:100F2000F0BD0C4B92009C46624413681360BFF303
:100F30005F8F0023236088F31088EDE7280100D03D
:100F4000004005403C700540E1110020CC1100201C
:100F500028100020D03F054010B5034B01001800B9
:100F6000024AFFF743FA10BDDD110020B0BF0010A8
:100F7000034B596A0A00986A596A8A42FAD1704743
:100F80000040054070B504000D00174A536A19006F
:100F9000966A536A8B42FAD13000190024184D41E9
:100FA000AB4216D813D0104B2A005B6A9D4203D97E
:100FB0000D494B6A9342FCD3934207D10A4A02E09F
:100FC000516A994202D1916AA142F9D370BDA642F9
:100FD000E9D9054B5B6A1C005A1CEFD001220124A1
:100FE0006442E5175242E3E70040054070B5040053
:100FF0000D00EFF3108672B61A4A1368002BFCD06E
:10100000BFF35F8F002D1BD02000FFF79DFA16491C
:1010100081420AD02000FFF79FFA01212000FFF74C
:1010200081FA0123A340114A1360114BA400E5503B
:10103000BFF35F8F00220B4B1A6086F3108870BDE0
:101040000121A1400A4BA200D5500A4B20001A787A
:101050008A4305491A70FFF7A9FA00212000FFF71B
:1010600061FAE5E7280100D09D0E001038600540C8
:1010700028100020E1110020F0B54F46D646464624
:10108000C0B507002B4C616A0D00A66A616AA942CF
:10109000FAD18B4208D805D00120E0BCBA46B1464F
:1010A000A846F0BDB242F7D9EFF3108A72B62248D3
:1010B00001680029FCD0BFF35F8F0125BD401F49A7
:1010C0001C4C8846097889462943C9B28C4641465A
:1010D00060460870391D890065630A511849B800D7
:1010E0004350216A0020294219D0616A0800A66A8B
:1010F000616A8142FAD18B4219D801D1B24216D825
:10110000CC450BD00B4B1F221D625D6301233A407F
:1011100093400C4A136043464A461A700120BFF3BD
:101120005F8F0022044B1A608AF31088B5E7002015
:10113000F5E7C04600400540280100D0E11100203D
:10114000CC11002080E200E0EFF3108C72B60A4967
:101150000B68002BFCD0BFF35F8F01238340074A4D
:101160000748136202789A430270BFF35F8F00232F
:101170000B608CF310887047280100D000400540B8
:10118000E111002070B506000D00140000291DD0EB
:10119000002A12D073688068984762006B001219A9
:1011A0005B193168033A033B002808D08A18957010
:1011B000C818CB5C002B0BD10470280070BDCB1875
:1011C0009C7088188A5C002A05D105702000F5E71C
:1011D00053700470F1E75A700570F7E710B583603B
:1011E0000023CCB243730133426004738373C4732E
:1011F0000068421C012C05D90133DBB213700332A5
:101200009C42F9D1FF230B405A00D318C018002389
:101210000338437010BDC04670B505000C1E07D0E2
:10122000630001681B19033BCB185A78002A01D1CF
:10123000200070BD500080180338091800204E7837
:101240004870210058702800FFF79CFF310004000F
:101250002800FFF7E1FF0600002C20D00028E7D08F
:10126000320021006B68A8689847720063009219E9
:101270001B192968033A033B002808D08A18947088
:10128000C818CB5C002B00D053700670D0E7CB1889
:101290009E7088188A5C002A00D05A70047034004E
:1012A000C6E7C046F0B557464546DE464E46E0B571
:1012B0000D006F0001687F19033F0400C85D83B013
:1012C0000192CA19002850D043001B18033BCB18C9
:1012D0005E78B446002E1AD1019E002E42D0E67BE5
:1012E000002E04D073009B19CB18033B5D70A37BC9
:1012F000002B00D1A573E57300282FD10023537074
:1013000003B0F0BCBB46B246A946A046F0BD720091
:101310006244033A8A185178884600215170894600
:101320005970320001002000FFF72CFF434682462F
:10133000002B07D05B0021684344033BCB185A784D
:10134000002A16D1424651462000FFF71BFF2168B4
:10135000019BCA19002BC2D10028CFD043001B1813
:10136000033BCB1800219970C8E7019B002BB6D135
:10137000C4E7500080180338091848788346484667
:101380004870587041462000FFF7FCFE59468046E1
:101390002000FFF741FF414602002000FFF7F2FE68
:1013A0008046CFE7F0B557464546DE464E46E0B5A7
:1013B00083B00191457B04006F0000687F19033FF3
:1013C000C15DC219002952D04B005B18033BC31802
:1013D0005E78B446002E1CD1019E002E44D0E67BE0
:1013E000002E04D073009B19C318033B5D70A37BD0
:1013F000002B00D1A573E573002931D1002328000B
:101400005370617303B0F0BCBB46B246A946A04618
:10141000F0BD72006244033A821850788046002082
:1014200050708146587032002000FFF7ABFE4346F3
:101430008246002B07D05B0021684344033BCB1856
:101440005A78002A17D1424651462000FFF79AFEEB
:10145000019B01002068C219002BC0D10029CDD00A
:101460004B005B18033BC31800209870C6E7019B34
:10147000002BB4D1C2E7500080180338091848780F
:10148000834648464870587041462000FFF77AFE70
:10149000594680462000FFF7BFFE4146020020006B
:1014A000FFF770FE8046CEE770B5050000292CD00E
:1014B000437B8B422ED04C0000686418033C041917
:1014C000A278002A21D053009B18033BC25CC618A7
:1014D0008A4202D11BE0002A08D053009B18033B2C
:1014E000C3185A788A42F6D162785A7000230122D2
:1014F0002800A3706370FFF7D5FE697B0200280007
:10150000FFF740FE6873012000E0002070BD6378A3
:101510003370EBE701221900FFF7C4FEF2E7C04683
:1015200010B50C2082B000F0AFF9FEF757FF00288D
:1015300010D08B4B8B488B498B4A18605960986050
:10154000D960186159619861D961186259625A620B
:1015500002B010BD854CA06700F09EF90122844BBB
:101560001A60636C012BFCD10322824B1A607F4A04
:10157000936B012BFCD1013301217F4A7F480093FB
:10158000043300F031F905237D4A009301217D48A1
:1015900000F02AF97C4B5A68FF2A02D880225200B8
:1015A0005A608022734B6E4C12011A602169002927
:1015B00007D0606901F094FE013043001B18033B23
:1015C000FDD2E022704B714819680A400260022285
:1015D0001968514001320A40042102609A681142A0
:1015E000FCD080216A4A09011160802252005A60B1
:1015F000684B2361684B5968FF2900D85A60032261
:1016000001215B4B1A60644A93681942FCD0E023C5
:101610001068034061480360126803234A400221B6
:1016200013405D4A036093681942FCD080215C4BF3
:101630000901196080215B4B4900516063615A4B7D
:101640005A68FF2A00D859608022584B12011A604C
:10165000E169002907D0606901F042FE01304300D2
:101660001B18033BFDD2E0234F4A11680B40504941
:101670000B6080214F4B090119608021394B4900D3
:101680005160E3614C4B5A68FF2A00D859608022B0
:101690004A4B12011A60216A002907D0606901F0E3
:1016A0001FFE013043001B18033BFDD2E023424ADA
:1016B00011680B4042490B608021424B09011960BF
:1016C00080235B0053608022264BD20223623E4B74
:1016D0005968914200D25A6080223C4B12011A6034
:1016E000616A002907D0606901F0FAFD013043000A
:1016F0001B18033BFDD2E023334A11680B403449E9
:101700000B608021334B090119608023DB02536099
:10171000154B6362304B5A68FF2A02D88022520070
:101720005A6080222D4B12011A60A169002907D04E
:10173000606901F0D5FD013043001B18033BFDD269
:10174000E023254A11680B4025490B608021254B79
:101750000901196080235B005360124BA361F7E617
:10176000380A0020006CDC021BB70000008000403B
:101770003CB0004030B00040002F6859008002406B
:10178000008C864700C0024030800040309000400E
:1017900030A00040001BB7003C8000403C9000405F
:1017A0003CA00040405973075480004054B00040B2
:1017B0005490004054A000406080004060B0004061
:1017C0006090004060A000406C8000406CB0004021
:1017D0006C9000406CA000404880004048B0004041
:1017E0004890004048A00040F8B5040021481D0082
:1017F00017000E0001F074FD0100380001F070FDCB
:10180000069B29041B0319432368002B20DB1A4B7A
:101810001A4DE21853425A4180235B019C46120341
:10182000174B62441A60174B1A601700AB689F434E
:10183000FBD1C022231D92011A4321232660A06000
:1018400013602368002BFCDA0823E1601360F8BD05
:101850003F2322681340B342D9D1A3681B051B0D57
:101860008342D4D1EE22E368D20213408B42CED120
:10187000EDE7C046001BB7000040FDBF00C00040C0
:1018800000E0004000F000408023024A9B00034338
:10189000D362704700800540AA23064A1B011360EB
:1018A0002F230549D360054B19605368002BFCDAE0
:1018B0007047C0460040024000B0FA00006002409D
:1018C0002B4B2C4A70B51A602B4A2C4B2C491A60B2
:1018D00014008B689C43FBD12A4D2B4EB54208D295
:1018E000013E761BB60808CD984723000134B34269
:1018F000F9D1FFF715FE254A204B1A60204A93685C
:10190000DB43DB01DD09002BF9D14022204B214EC6
:10191000214C9A675A671A67DA66B44208D223687C
:1019200020000834002B1FD0FEF7B4FFB442F6D3DA
:101930001A4C1B4EC022B168200002F095F9B46029
:10194000FEF7C4FDFEF76EFFFFF74EF9154C164E7D
:10195000B44208D2013E361BB60808CC98472B008B
:1019600001359E42F9D170BDFEF786FFD5E7C0462E
:1019700000E00040BFCDFBFEFE7F3C0000F00040D9
:1019800000C00040040A0020140A0020FFFFFF01ED
:1019900000F00140040A0020F409002000000020AB
:1019A00000ED00E0140A00201C0A002000BEFDE744
:1019B000094A03001068002805D00849C3188B4263
:1019C00007D81360704706480449C31810608B425B
:1019D000F7D901204042F5E79010002000000420D4
:1019E000E411002010B5FFF7E1FFC04630B50D004F
:1019F00083B01900002A0BD0074B084C01920093CA
:101A000002002B00200001F0D1FB0120FFF7CEFFE8
:101A1000034B1A00F1E7C046D4BF0010E4BF00102A
:101A200040C400100FB400B5084883B002F0EAF9D2
:101A3000049B002B07D005A91800019101F0D6FBEB
:101A4000034802F0DFF90120FFF7B0FF14C00010D7
:101A5000FCC5001010B50148FFF7E4FF24C00010DA
:101A60009A4200D2885470477047C046F8B557462E
:101A70004546DE464E46E0B598460A9B06009A4625
:101A80000D9B0F00934615009B0710D10B9B0C9AE2
:101A900093420CD213005C460B9A9D1A5D442200BF
:101AA0004346013439002020B047A542F7D10B9CB2
:101AB0006319002C09D01D0053462A1B013C185DF8
:101AC00039004346B047002CF6D10D9B9B070ED53D
:101AD0005B46EC1A0C9BA34209D999462A0043465F
:101AE000390020200134B0470135A145F6D828003F
:101AF000F0BCBB46B246A946A046F8BDF0B54F467D
:101B00004646D646C0B584B098460EAB1B78944680
:101B10009946129B0D9C109F119E9A0724D4002E6B
:101B20006AD1BC4220D201221A409246202C00D118
:101B3000D2E00C9A551E302201E0202C30D0013426
:101B40002A55A742F9D85246002A0DD0B4420BD2EA
:101B50000C9A551E3022202C02D126E0202C63D076
:101B600001342A55B442F9D1DA0634D55A0564D481
:101B7000002C5ED10F9A102A00D197E0022A00D1E2
:101B8000A8E030220C9C227001244A46002A5ED133
:101B90005A0700D483E02B220C9D2A5501341CE007
:101BA0005246002A02D0202E3ED92024DA0614D52F
:101BB0005A0512D4202F00D1A1E0202E3DD120269D
:101BC0001F2234000F9D102D00D18BE0022D52D02A
:101BD00030250C9FBD54202CD7D103930C9B62461B
:101BE0000093029643460194FFF740FF04B0E0BC27
:101BF000BA46B146A846F0BD012215001D40AA46CE
:101C00001A4229D04A46002A39D10C321A4236D11A
:101C1000BC429BD2202C00D08BE710221A40202EF1
:101C2000C3D8002AA2D1D8E72024DA06D5D55A0590
:101C300003D4A74225D0B44223D00F9A102A25D02E
:101C4000022A14D0202CC8D022000134C0E72D2253
:101C50000C9D2A550134C0E7BC4200D384E7202CF8
:101C600000D066E710221A40002AE0D1B5E7202C08
:101C7000B3D02200013462250C9FBD54E2E7013E3F
:101C8000C6E7621E012C00D174E79BE79A0616D4C2
:101C9000202CA2D078220C9D2A550134D2E71A07B5
:101CA0009BD520220C9D2A55013496E79A060FD425
:101CB00078220C9C227030226270022465E7202C6E
:101CC00000D18AE758250C9A121915700134B9E72A
:101CD0005822EEE76222ECE7102255461A40002D0A
:101CE0009FD1C1E7023C9D0604D478250C9F3D5549
:101CF0001400A9E758250C9F3D551400A4E71F22A6
:101D000060E7C04610B5002800D110BD02F02EF8E3
:101D1000FBE7C0460B0010B5002802D049681B68DD
:101D2000984710BDF0B557464E464546DE46E0B5ED
:101D300099B08246894690460893229A239B1000C8
:101D4000190001F08EFD002800D0CDE022982399E3
:101D50000122D94B524201F07FFD002800D0C3E0A0
:101D6000229823990122D54B524201F05FFD0028B1
:101D700000D0B9E0229823990022002301F056FDFB
:101D8000002800D0F1E1229E239F8023269ADB00C9
:101D90001A400D92269A1A4201D1062324938023D9
:101DA000269A1B011A403B0093460996334300D004
:101DB000B3E0002A00D0C2E1002300240A930B9470
:101DC000002304250993259B0024AB4200D95C1B0A
:101DD0000223269A1A400C92269A134203D06B4291
:101DE0006B415B421C40099B002B07D00A9A0B9B5E
:101DF0003000390001F0B9FC06000F002298239949
:101E00000022002301F012FD002803D080210906E2
:101E10007B181F00269AAA4B009601971340089E34
:101E20000493249B03940293424633004946504650
:101E300000F0AAF90400002D67D02020269A494618
:101E4000024013005A4253415B42621C18400A92FE
:101E5000330022004530D047099A6F1ED317D4189B
:101E60005C40D30F9B46002501E0202D13D008AA2B
:101E700094461F23200063440A2101355E1901F0B6
:101E80002FFA3031317020000A2101F029FA2600A2
:101E90000400092EE9D805230693002304930A338E
:101EA00003935B46089E029310AB0A9A009349463F
:101EB0003300504605970195FFF720FE0C9A040069
:101EC000002A22D04246851A259AAA421DD9B04638
:101ED0005746160022004346494620200135B847A0
:101EE0000134AE42F6D810E0269B42460493259B6F
:101EF00049460393249B50460293229B239C0093C4
:101F00000194089B00F040F90400200019B0F0BCD7
:101F1000BB46B246A946A046F0BD6A4B78009C4637
:101F2000400D604401F0B0FC674A684B01F037FC9B
:101F3000674A684B01F014FC674A3B031B0B1A43CA
:101F400004000D0009981100644B002201F003FC0D
:101F5000634A644B01F023FC02000B0020002900BF
:101F600001F0FEFB01F0A8FC099001F08DFC5E4A37
:101F70005E4B04000D0001F012FC00225C4B01F0EE
:101F8000EFFB01F099FC5B4A5B4B29000C902000B1
:101F900001F005FC04000C980D0001F075FC574A97
:101FA000574B01F0FCFB02000B002000290001F060
:101FB000D2FB04000D0002000B000A940B9501F007
:101FC000EEFB04000D000A980B9902000B0001F0D3
:101FD000C7FB00220E900F914A4B2000290001F010
:101FE000C4FB0022484B01F0BBFB02000B002000A9
:101FF000290001F0BAFB0022444B01F0B1FB0200C2
:102000000B002000290001F0B0FB0A9A0B9B0D0089
:1020100080210400C905002001F09DFB02000B0097
:102020002000290001F09CFB02000B000E980F9984
:1020300001F09BFB0022284B01F092FB344B0C9CDF
:102040009C4664442305002201F0A9FB04000D0016
:1020500002000B00300039000A940B9501F0E6FBFA
:1020600000285DD123002A00C625099963318D42DD
:10207000AD4159466D420435002900D1A3E6134312
:1020800063D030003900234A234B01F0DDFB0028E8
:1020900007D0002230003900204B01F0C7FB002898
:1020A00053D1249B002B00D18DE60D9B5A1E9341EA
:1020B000249AD31A249386E6FFFFEF7FFFFFEFFFFA
:1020C000FFF7FFFF01FCFFFFFB799F501344D33F55
:1020D000B3C8608B288AC63F0000F03F0000F83F7D
:1020E00061436F63A787D23F71A379094F930A4079
:1020F0000000E03F1655B5BBB16B0240EF39FAFE68
:10210000422EE63F00002C40000024400000184012
:10211000FF0300002D431CEBE2361A3F80842E4162
:10212000099B0022013B09932000164B290001F076
:102130001CFB0A00010003000A910B9294E70023A4
:1021400000240A930B9400230993249A099B9A4232
:1021500014DDD31A013B24938023269ADB001A4313
:1021600000230025269209932DE68022120694462C
:10217000229B1E00239B63441F0006E6002324933A
:10218000EAE7C04600002440F0B54546DE464E462C
:102190005746E0B595B08B46904699461E9A1F9BD0
:1021A0000A9019001000209D01F05BFB002800D070
:1021B000B0E11E981F990122C74B524201F036FB35
:1021C000002800D037E11E981F990122C34B5242CC
:1021D00001F042FB002800D0A7E01E981F990022C2
:1021E000BF4B01F039FB002800D088E01E981F99F2
:1021F0000022BC4B01F01AFB002800D07FE01E98A3
:102200001F990022002301F011FB002800D0FAE002
:1022100000230B938023229C229ADB001C401A424D
:1022200000D102E1092D00D87EE106A98C462C00E0
:10223000172200233021093C62440133D154EF1AA4
:10224000202B00D132E1A342F7D10022A44B069209
:1022500007931E981F9901F02FFB050001F014FB56
:1022600002000B001E981F9901F075FA069A079B51
:1022700001F095FA0890099101F042FB060001F087
:10228000FFFA02000B000898099901F064FA002295
:10229000954B0890099101F0DFFA002800D1D2E0B7
:1022A0000136300001F0ECFA069A079B01F0CCFAF7
:1022B000002801D000260135AA46002F00D098E062
:1022C000280001F0E1FA02000B001E981F9901F0AE
:1022D00042FA854B002206000F0001F0A7FA0CAB72
:1022E0009A46002845D10022300039007E4B01F08B
:1022F000B3FA00283DD1EB073BD5013539E0229BED
:1023000042460493219B594603930A981E9B1F9CA7
:102310000295009301944B46FFF704FD15B0F0BC05
:10232000BB46B246A946A046F0BD229B5B0767D4D8
:1023300003226E4B229901920391219902910093FD
:1023400042464B4659460A98FFF790FBE6E706AA35
:1023500094461723280063440A2101341E1900F013
:1023600097FF3031280031700A2100F091FF051EDF
:1023700076D0202CEBD10323229A1340012B1DD1C0
:10238000219B002B1AD00B9B002B00D0BBE0229A84
:102390000C33134200D0B6E0219BA34200D887E063
:1023A00006AB9C4617223023624404E02199013495
:1023B00013558C4259D0202CF8D12024229B019413
:1023C0000393219B02935346B9E706AA9446172329
:1023D0000A216344300001341D1900F081FF3031BF
:1023E000297030000A21013F00F07AFF092E46D9FA
:1023F0000600202CE9D155460CAB20249A46B8E7BC
:1024000004223B4B96E71E9A1F9B0020002101F0FF
:10241000A2F901230B938023229C229ADB001E90B9
:102420001F911C401A4200D0FCE60022314B0627C7
:10243000069207930DE7229B0393219B02930423AB
:1024400001932D4B7BE7002208980999264B01F058
:10245000EDF9002800D02FE7002E4FD101362BE7F1
:102460000323229A1340012B68D0202CA6D00B9B6B
:10247000002B1FD02D235246135501349EE755469D
:10248000202CB9D030223B19002F4BD0172006A9A1
:10249000013409180A55202CAED09C42F6D10CAA62
:1024A00092462E2251465C1CCA5462E72024CCE698
:1024B000202C83D0229B5B0708D4229B1B0700D4CF
:1024C0007CE7202352461355013477E72B235246ED
:1024D0001355013472E7C046FFFFEFFFFFFFEF7FA8
:1024E00065CDCD4165CDCDC10000E03F38C00010C5
:1024F00030C0001080842E4140C00010F30700D48B
:10250000DAE60136D8E6219B013B2193A34200D9AC
:1025100046E7AAE7229B0393219B0293032301939F
:10252000084B0CE72300BAE7074BEA009B185C68EE
:102530001B682F000693079400248AE6219B002B3A
:1025400093D020E73CC00010E8C10010F0B545462C
:10255000DE4657464E46E0B5A1B01D002A9B904688
:102560000B93D04AD04B83468A461A60002900D18B
:10257000A4E1002328789946002800D1A6E1CB4B9E
:102580005E460993CA4B4C46D34647460D930AE034
:10259000631C984622003B005946B04744462878C1
:1025A000002800D1CDE001352528F1D108239A4635
:1025B000043B9946023B9846013B00229C460C9402
:1025C0002878691C0300203BDBB2102B03D8099C40
:1025D0009B00E3589F460300303B0C9C0A92092B5A
:1025E0007FD9002398462A2800D1C1E000239A46CB
:1025F0002E2800D190E00300683BDBB2122B1ED8DE
:10260000AC4A9B00D3589F4663460D001A43D7E758
:1026100043460D001A43D3E74B460D001A43CFE75C
:1026200010230D001A43CBE753460D001A43C7E7AA
:1026300080235B000A9A68781A430A9201310D00E0
:1026400067280AD82428A3D90300253BDBB2422BF4
:102650009ED80D9A9B00D3589F4601006939C9B294
:102660000F2995D801238B409C46934B994663468E
:102670004A4613400C9362464B461A4200D05EE233
:102680000A2900D124E1072982D10B9B02CB98466D
:10269000002900D19BE121200A9A0243914610AB08
:1026A0009C461F220F23404662440B959C46A04641
:1026B00015000C9B0A9002E0202B0CD01100644600
:1026C0000C4020003730092C00D807380133E8547B
:1026D0000A090F29F0D80C930A9B44460B9D984693
:1026E00085E1002398460A9B45469C4600E001315F
:1026F000AB005B195B001D180878303D0300303BD0
:10270000092BF4D963460A930023A8469A460D0084
:1027100001312E2800D06EE780200A9AC0000243C3
:102720000A9230225242944668780B0084446246F2
:10273000092A00D82EE12A2800D13DE10D000131FF
:1027400059E7DA46A146B346B846C84503D801233F
:102750005B424344994643464A4651460020D84787
:10276000200021B0F0BCBB46B246A946A046F0BD51
:102770000B9B04CB9046002A04DB68780B930D007A
:10278000013133E70A9A283802430A9242465242FC
:10279000687890460D000B93013127E7672800D138
:1027A000C7E1472800D114E2452800D116E20A9A71
:1027B0000721049242460B9B0392073352468B43F8
:1027C000190002920CC93000009201930B91220073
:1027D0003B005946FFF7A6FA0400E0E680239B0081
:1027E00028E76878682800D11BE280230A9A013123
:1027F0001A430A9223E768786C2800D109E2802303
:102800000A9A5B001A430A92013118E7462800D160
:102810008AE10A9A0721049242460B9B03920733EE
:1028200052468B43190002920CC93000009201936A
:102830000B9122003B005946FFF7A6FC0400AEE6D0
:10284000631C984622003B0059462520B047444669
:10285000A5E60B9B04330C93631C99460A9B9A07CD
:1028600000D4E7E10B9B2200187859463B00B047A3
:1028700043464444012B00D8B8E22B00B84625005B
:102880005F464C46994622004346013439002020D9
:10289000B047AC42F7D12C00BB464D4647460C9B97
:1028A0000B937CE64D2500109410002048C00010CA
:1028B000D8C000108CC0001041900000DC4B28787C
:1028C0009B4600239946002800D058E600243CE7A8
:1028D0000B9B02CB12930B789C4618005346002B9F
:1028E00000D09CE0002812D002235B4201339946BD
:1028F00089444A460B008946110001E08B4203D00F
:102900005A780133002AF9D149465B1A0C93802387
:10291000DB0099460A9A13400B934B461A4204D0A7
:102920000C9B534501D953460C93022399460A9AAE
:1029300013400A934B46134200D1B5E16346002B86
:1029400000D197E10B9B002B00D14CE1D1460B1B32
:102950009A462B00A1444D462200B9465F469B464D
:1029600009E04B463900541CB0475346185D002817
:1029700000D158E122009542F3D15B46BB464F4659
:10298000A9461D004C460A9B002B00D072E1129B09
:102990000B9304E655460A9AA900491949000133E8
:1029A0000D181878303D010030390929F4D9AA46AC
:1029B0000A921D00591C1EE60B9BA87804CB023519
:1029C000D143C9170A4092460B93691C13E60A9B30
:1029D00010211A008A4310001131084381468020DB
:1029E0001A00C00002401100034200D157E64B46D6
:1029F000082206935346059208320392002204935C
:102A00000C9B0292019318AB2200009359463B00A5
:102A10003000FFF773F8434604000B93BFE500282E
:102A200000D174E75346013B60E7622800D1DFE143
:102A3000582800D1ECE10A9980230A00DB001A40F3
:102A400010000A00194200D1BDE111239A430C92F3
:102A50000C9A802311009B0019408C461A4200D02A
:102A600046E1802311005B00194089460B9904312F
:102A70000A911A4200D08FE213005B0600D59EE156
:102A800013001B0600D426E30B9B00229B5ED91784
:102A90005A184A4092B2D90F0B91002B00D177E21D
:102AA000100010AA944642461F23129252466344D5
:102AB000AA4614944D460400B946B0461F0013922E
:102AC00001E0202D0FD020000A2100F009FC013583
:102AD0007E193031317020000A2100F001FC2600FF
:102AE0000400092EEDD8129B46469846139B4F468C
:102AF000A94655469A46149C0C9B0693434605935B
:102B0000534604930A2303930B9B02934B46019372
:102B100018AB2200009359463B003000FEF7EEFF51
:102B20000A9B04000B933AE520230A9A1A430A925F
:102B30006FE680230A9A1B011A430A9237E6782827
:102B400000D0AFE10A9880230200DB001A40110098
:102B50000200184200D1D0E20D239A431000033343
:102B60000A93802302009B001A409446184200D02A
:102B7000ACE1802302005B001A4091460B9A0432BC
:102B80000C92184200D04AE2430600D493E20B9B19
:102B90001B780893002B00D04BE110339843002999
:102BA00000D146E1002399464346059353460493DA
:102BB0000A9B06900393002302934B46019318ABA4
:102BC0002200009359463B003000FEF797FF0400B7
:102BD00065E680230A9A1B011A430A9220230A9A67
:102BE0001A430A92E3E50B1B9A460C9B99462B006D
:102BF0005D469B4622003B002900B0475346013406
:102C0000185D0028F6D14B460C935B46AB461D0081
:102C1000B9E6C0239B000A9AA8781A430A92E91CD5
:102C20000DE5C023F7E75D46BB464F46ABE6C04621
:102C3000691A00104346012B00D8D1E0631E4344BB
:102C4000B9461D005F46A2468B4622004B46013422
:102C500039002020B047AC42F7D15D46BB464F4615
:102C6000A14654460B9B4A46187859463B004444BB
:102C7000B04714E60C9BA146984500D887E644442B
:102C8000E41A2B00B84625005F464C4699462200C0
:102C90004346013439002020B047AC42F7D12C0024
:102CA000BB464D46474672E60C98804500D81CE26C
:102CB00043461A19131A99462B004D46B9465F46EA
:102CC0009B460C9122004B46013439002020B0472E
:102CD000AC42F7D143460C9901330C930B785D4617
:102CE0009C46BB464F466046002800D02AE64EE68A
:102CF00007220B9B07339343013294469C44624660
:102D00000B920CCBD90F0A91110019435FD0D91740
:102D10001191109151400E91119959400F910E98B7
:102D20000F99109A119B801A99410E900F9110AA39
:102D30000023944642469946129252461F336344FA
:102D4000B046AA464E461494B9460E9C0F9D1F00ED
:102D5000139201E0202E10D0200029000A22002327
:102D600000F0FCFA013630322B00BA550D0022007B
:102D70000400002BEED1092AECD8129B4F46B14635
:102D800046469846139B0E940F9555469A46149CBA
:102D90000C9B069343460593534604930A230393DF
:102DA0000A9B02934B46019318AB220000935946AD
:102DB0003B003000FEF7A2FE0400FFF7F0FB0B9B88
:102DC0001B781A0067E610239A430C9240E6002312
:102DD00099460028DCD1002200230E920F93A6E72B
:102DE0000B9B2200187859463B00B0474C4656E5ED
:102DF0000A9880230200DB001A401100184200D11B
:102E00005FE102000D239A430B3B10000A93A8E6F2
:102E10000A9880230200DB001A40110002001842C9
:102E200000D166E10D2320209A43033310430A9317
:102E300097E66123820600D54123DBB20A3B0B9360
:102E4000434610A91F228C46129353466244AA4659
:102E5000149415974C468046B14617000A9E089D6B
:102E6000139308E03033DBB201343B55B5420ED347
:102E7000202C0CD005003100280000F031FACBB234
:102E80000929EFD90B9A94466344DBB2ECE7129B15
:102E900040469846139B4E465546A1469A46149C7A
:102EA000159F81E66F2800D037E10A990C230A00AC
:102EB0009A43802310000A00DB001A4011000A9A8E
:102EC0001A4200D021E108230A934AE60B9AFA3B02
:102ED000FF3B07329A4301339C46944463460B936D
:102EE000136852680893134312921A1E05D10023E7
:102EF000103299469043002941D16122810600D5C4
:102F00004122D2B20A3A0C924246002310A91392EF
:102F100052468C46994614921F330A9A6344AA4635
:102F2000159417964C469046B946089E1F00129D70
:102F300016900AE03032D2B2002301343A55AB4247
:102F400011D0202C11D006000D0042460023300085
:102F5000290000F003FAD2B2092AEBD90C9B9C4657
:102F60006244D2B2E8E7B045EBD9139B5546984688
:102F7000149B4F469A46A1461698179E159C4346A9
:102F80000593534604930A9B06900393002308E796
:102F9000002800D0B0E584E50B9B1B68DA0F110018
:102FA000002B00D194E0DA179818504010AA9146EF
:102FB00042461F23129252464B44A046AA461497FB
:102FC0000400B14665461F000B91139201E0202DCD
:102FD0000FD020000A2100F083F901357E1930312D
:102FE000317020000A2100F07BF926000400092E30
:102FF000EDD8129B444698460B9BAC461900139B98
:1030000055464E469A46149F0C9B029106934346A2
:103010000593534604930A230393634677E50B9B7A
:103020001B680893002B03D110339843002937D134
:103030006123820600D54123DBB20A3B0B93434652
:1030400010A989461F22129353464A44AA46B14604
:1030500014941597644680461700089D0A9E1393A2
:1030600008E03033DBB201343B55B5420ED3202C9F
:103070000CD005003100280000F032F9CBB209294C
:10308000EFD90B9A94466344DBB2ECE7129B4046BF
:103090009846139B55464E469A46A446159F149C47
:1030A00043460593534604930A9B069003930023DB
:1030B0000293634682E5030613D50B9B1B88089396
:1030C00068E502000C239A430A3B10000A9348E586
:1030D000002899D16AE70B9B1B68D9175A184A40F8
:1030E000D9E40B9B1B68089354E5030001330C9350
:1030F000F9E520230A9A1A430A920C230A9A00211E
:103100009A43043310000A932BE50A9B0C9308237F
:103110000A930D230C98984323E510230A9A9A43A7
:103120000C9269280AD10A9980230A00DB001A4010
:1031300010000A00194200D18AE486E40A991C238F
:103140000A009A43802310000A00DB001A40110095
:103150000A9A1A4202D10A230A9302E50A230A9321
:10316000D7E7C0460CB430B585B008AC08CC064DE6
:103170000A000094010028000394FFF7E7F905B066
:1031800030BC08BC02B01847611A001000B585B009
:103190000391012102900093034813004A4202A9BF
:1031A000FFF7D4F905B000BD151D00100FB430B500
:1031B0000C4985B008AA08CA0D680392002D0CD0EE
:1031C00000920122084C5242200002A9A847012087
:1031D00005B030BC08BC04B01847180000F012FE5F
:1031E0000020F5E794100020051D001010B5094AD5
:1031F0000300146884B0002C08D001220091064816
:10320000524203A9A047012004B010BD00F0FAFD0E
:103210000020F9E794100020051D0010014804214A
:10322000014B1847000300204D320010142310B545
:103230000100188804331B88984710BD162310B569
:103240000100188802331B88984710BDF8B547461F
:10325000CE4680B50F1E19D01423994604330400BE
:103260000025012698464B461888434621681B884E
:10327000984701C4431E9841013540420640AF4281
:10328000F1D13000C0BCB946B046F8BD0126F8E720
:10329000124A936F9B0815D29066D166002905D01B
:1032A000FFE7FFE7FFE7516F106F704704B580211C
:1032B0000906C2175140002800D0C84308F044FE58
:1032C000002104BDF0B5146E556E576F166FFFF7F1
:1032D000E3FF1466556657671667F0BD000000D01F
:1032E000114A936F9B0813D210665166002905D0CE
:1032F000FFE7FFE7FFE7516F106F704704B5002845
:1033000001D00020C04308F01FFE002104BDC046CC
:10331000F0B5146E556E576F166FFFF7E5FF146624
:10332000556657671667F0BD000000D094464A4ABC
:10333000926F9208624601D228E0C046F0B5464E30
:10334000346E756E776F366F00F020F89446424AFF
:1033500014665566576716676246F0BD94463E4A46
:10336000926F9208624601D254E0C046F0B53A4EE0
:10337000346E756E776F366F00F04CF89446364AAF
:1033800014665566576716676246F0BD002B24DB4E
:1033900011D000293EDA00B5C943404200D10131C5
:1033A00000F038F8C943404200D10131DB435242BA
:1033B00000D1013300BD002AEBD1002801D1002942
:1033C00005D00020C90FC90701D1C043410800B58D
:1033D00008F0AAFD0022002300BD00B500290ADB89
:1033E000DB43524200D1013300F014F8C94340429C
:1033F00000D1013100BDC943404200D10131DB435E
:10340000524200D1013300F005F8DB43524200D1B3
:10341000013300BD002923D1002B18D1002A0CD084
:10342000BC460D4F38667A6600210023FFE7FFE7B0
:10343000FFE77A6F386F67467047002801D007486A
:10344000010000B508F070FD0022002300BD02005D
:103450000B00002000217047000000D0FFFFFFFF9D
:10346000002B00D0BFE0130C28D1002AE7D080B495
:10347000114F39667A66FFE7FFE730B4040C7B6FC3
:10348000396F1B0423433B667A66FFE7FFE7FFE7DC
:10349000C04684B27B6F3D6F1B0423433B667A6654
:1034A000FFE7FFE7C04600232C042D0C7A6F386F2E
:1034B00000196941B0BC7047000000D0F0B59446D7
:1034C0000025140E01D112020835140F01D112018A
:1034D0000435940F01D192000235D40F01D152006E
:1034E0000135D40B0134254F7C66254C3C660E0C0F
:1034F00093B2FFE7FFE7FFE73C6F6643360C7703C5
:10350000BE467343DF0B5B04C01AB941130C73430F
:10351000DB18C91ACE086643360CB64493B273431F
:103520001F0F1B01C01AB941130C73431F0B1B055E
:10353000C01AB941860D8F023E436643360C092DF1
:1035400024DB520A7243801A7703460A6643360C1C
:1035500016235B1BDE40DF40BF1964466643821BB7
:103560007046043506330100D940A840C01900D385
:103570000131A24206D20023F0BD0000000000D0BD
:10358000FFFFFFFF121B0130F3D3F1E709277F1B79
:10359000FE406446A2B27243801A00D20139220C66
:1035A0007243130C1204821A99410B0070460435C1
:1035B00013370100F940A840801900D30131002BD6
:1035C00002D1A2420AD2F0BD013000D30131121B58
:1035D000FAD2013BF8D1A24200D2F0BD013000D3B3
:1035E0000131121BF7E7F0B51C0C00D080E00CB4E1
:1035F00000251C0A04D11B02160E334312020835A3
:103600001C0B04D11B01160F3343120104359C0B14
:1036100004D19B00960F334392000235DC0B02D19C
:1036200092185B4101351C00971864410134464FE4
:103630007C66464C3C660E0CFFE7FFE7FFE7C046A2
:103640003C6F6643360C7703BE4697B27743C01B88
:1036500000D20139C01B00D201399FB27743C91B88
:10366000C91B170C77437E04FF0B801BB941CE08A2
:103670006643360C0C2D33DBB644120B1F053A4360
:103680001B0B97B27743C01B00D201399FB277431F
:10369000C91B170C77433E043F0C801BB941860DB4
:1036A0008F023E43664329277F1BFE400C3D774631
:1036B000AF40BF1930BCA2B2ABB272437343801AA1
:1036C0009941220C7243130C1204801A9941020092
:1036D0000B000137001BA941F9D2781E0021F0BD73
:1036E0000C277F1BFE4077467F0BAF40FF19E0E7BA
:1036F00000245D1C07D0144F7D663966FFE7FFE7A5
:10370000FFE7FFE73C6F95B29EB265436643401BFF
:10371000B141150C1E0C6543664336042F0C3E4325
:103720002D04401BB141994204D202000B0020003D
:103730000021F0BD01D19042F7D3801A99410134A4
:103740009942F2D3F6E70000000000D0FFFFFFFF30
:1037500048404140484018B4134B5B68019308BD92
:1037600018B4114B1B68019308BD94460F4A926F21
:10377000920805D2624618B40B4BDB68019308BD72
:103780000A4AF0B5146E556E576F166F6246FFF712
:10379000F2FF064A1466556657671667F0BD18B4FF
:1037A000014B9B68019308BDE80B0020000000D08E
:1037B000FFB550404240504059404B40594000E016
:1037C000FFB5154F4C00640D03D0BC4204D10C036F
:1037D00014D80020090D09055C00640D03D0BC421B
:1037E00004D11C030AD800221B0D1B0501264B40E7
:1037F00009D44B4003D58B4200D18242FFBD994290
:10380000FCD19042FFBD0B43DB1803431343F5D0BB
:10381000C9434918FFBD0000FF07000000B5FFF7CE
:10382000CFFF01D0002000BD012000BD00B5FFF793
:10383000C7FF804100BDC04600B5FFF7C1FF01D9F9
:10384000002000BD012000BD00B5FFF7B1FF01D988
:10385000002000BD012000BD00B5FFF7A9FF804199
:1038600000BD012040054A00121804D85A00121861
:1038700001D80020704701207047002070470000E9
:103880000021002805D17047C1174840401AFAD0DE
:10389000C90713B5064B1B6898470CBC441CA240D3
:1038A0001005120B0349091B09051943114310BDEB
:1038B000C41000201F04000010B54C00620D8023CE
:1038C000D218DB00D21A5B057E2A10DD9E3A13DA8D
:1038D000CC170903490819435242D140640001340E
:1038E0001532202A05DAD0400843604310BD00207D
:1038F00010BD0846604310BDC80FC018013810BD88
:1039000018B4024B5B6A019308BD0000E80B00206D
:1039100010B50148FEF786F838C20010132370B5C1
:103920001D78012D15D010DD1B48FFF787FC1B4CBF
:1039300001008022200000F097F9022D06D01848DF
:10394000FFF774FC174B186070BD144C164BA36442
:10395000F5E7164B114C23606360A360E3602361BD
:103960006361A361E36123626362A362E362236331
:103970006363A363E36323646364A364E364236511
:103980006365A365E36523666366A366E3662367F1
:103990006367A367E367D9E753440000E80B00209F
:1039A0004C330000C4100020B13900101139001050
:1039B00007B5604601880A0A0230DF2AFAD1C9B287
:1039C000820804D3028840880004104300E00068A5
:1039D000014A5050039007BDE80B00205143434378
:1039E000C9188C46110C83B24B4310B4040C6143CC
:1039F00092B280B2504362431C041B0C001910BCED
:103A000059411304120CC018514161447047000021
:103A10004840414048400E4B5B6818470C4B1B68C0
:103A200018470C4A936F9B0802D2094BDB68184772
:103A3000F0B5146E556E576F166FFFF7F6FF054A17
:103A40001466556657671667F0BD014B9B681847AB
:103A5000C8100020000000D007B548404140484051
:103A600001E0C04607B54200120E03D0FF2A03D181
:103A7000420218D8C00DC0054A00120E03D0FF2A1A
:103A800003D14A020FD8C90DC9050122414005D40E
:103A9000414001D5814207BD884207BD0143491815
:103AA00001D0C043001807BD00B5FFF7D5FF01D90D
:103AB000002000BD012000BD491A002808D1084699
:103AC00070470000C10FC90700D54042002817D039
:103AD000F44603B40B4B1B68984706BC81409E38E4
:103AE0004042803107D20B0607D04900490AC00581
:103AF0001043084360470130F8E7490A8902F5E7B7
:103B000070470000C410002010B50148FDF78AFF7F
:103B100040C40010132310B510481C78FFF78EFB2B
:103B20000100012C0AD003DD80220D4800F09CF832
:103B30000C48FFF77BFB0C4B186010BD084C54225F
:103B4000200000F091F82200084980322368002B01
:103B500000D1216004349442F8D1E9E753460000D3
:103B6000C81000204C330000C4100020093B001096
:103B700070B504000A4E300008F0F6F9200002F09B
:103B8000D5FC0500300008F0C7F9002D05D0054B25
:103B90002C199C4201D8280070BD0348FDF742FF54
:103BA000F40900200000042050C2001070B5050088
:103BB0000C000B4E300008F0D7F92800210002F06D
:103BC00055FC0500300008F0A7F9002D05D0054B85
:103BD0002C199C4201D8280070BD0348FDF722FF34
:103BE000F40900200000042050C2001070B5050048
:103BF0000C000B4E300008F0B7F92800210004F04B
:103C0000F9FE0500300008F087F9002D05D0054BBE
:103C10002C199C4201D8280070BD0348FDF702FF13
:103C2000F40900200000042050C2001070B5040008
:103C3000054D280008F098F9200002F081FC2800CA
:103C400008F06AF970BDC046F4090020014804215B
:103C5000014B1847100300204D320010014B1B6828
:103C60001847000010030020014B5B681847000054
:103C700010030020F0B5C64600B5437D07000D00D7
:103C80001600002B38D0002A2EDD00216A1E904637
:103C90006A5C037D4C1C00200A2A0CD0A64216D078
:103CA00043461B5D21000D3B5A4253416A5CDBB227
:103CB0004C1C0A2AF2D1002BF0D1814217DC0221E0
:103CC00010483B689847A64207D02000E8E78642A4
:103CD00003DD311A3B6828189847AD19013D2B7850
:103CE0000D3B5A4253413B7580BCB846F0BD091AA2
:103CF0003B6828189847E2E70368110028009847B6
:103D0000F2E7C046D0C20010F0B5C6460B68060008
:103D10000C0000B5802B06D05A1C2260E4182671D6
:103D200080BCB846F0BD0F4B1D68002D16D00B1D92
:103D300098460D4F02E02D69002D0FD02B68002B07
:103D4000F9D03B68002B01D0AB42F4D128004146AA
:103D50002268FFF78FFF2D69002DEFD1012200238C
:103D6000DBE7C046841000208C100020F0B5CE4662
:103D7000474680B583B06B460600DD1D2870FDF711
:103D8000F7F800231A4A12184B41802109068B428A
:103D900002D30122174B524217490800884608F007
:103DA000DBF8164B81461C68002C14D0144F02E03F
:103DB0002469002C0FD02368002BF9D03B68002B1E
:103DC00001D0A342F4D1200001222900FFF752FFC5
:103DD0002469002CEFD14B46002B05D1300003B0F5
:103DE000C0BCB946B046F0BD404608F095F8F5E7CE
:103DF00040420F00FFFFFF7FFC09002084100020DD
:103E00008C100020F0B5DE4657464E464546E0B5DC
:103E100085B0070005F006FE0600FDF7A9F80023AF
:103E20002B4A12184B41802109068B4202D30122F2
:103E3000284B5242284908008B4608F08DF8274B42
:103E400001901C689A46002C3BD0254B984602AB4B
:103E5000DD1D0A23994602E02469002C17D023684F
:103E6000002BF9D043461B68002B01D0A342F3D1AD
:103E7000200032003900FFF7FDFE4B4620000122F2
:103E800029002B70FFF7F6FE2469002CE7D1019B77
:103E9000002B18D153461C68002C06D06368002BF9
:103EA0000BD098472469002CF8D1300005B0F0BC45
:103EB000BB46B246A946A046F0BD2469002CEDD110
:103EC000F3E70028F1D0584608F026F8E2E7C046AC
:103ED00040420F00FFFFFF7FFC09002084100020FC
:103EE0008C100020F8B557464E46DE464546E0B5F4
:103EF0000E00170000282CD11B4B1C4D1A685B6864
:103F000093469A461A4B99461A4B98464B461C685C
:103F1000002C03D115E02469002C12D02B68002B53
:103F200001D0A342F7D1A368002BF4D039003000B0
:103F300098470028EFDDF0BCBB46B246A946A04634
:103F4000F8BD43465B6A9A4508D84246926A5A458C
:103F500002D301204042EEE79A45FAD10120002128
:103F6000FDF710F8D2E7C046A8BF00108C10002063
:103F70008410002000400540F0B54646D6464F4626
:103F800001380D009046C0B5012841D8FCF7F0FF7C
:103F90000023214A12184B41802109068B422FD25F
:103FA0001E49474608008A4607F0D6FF4346814629
:103FB000013303D1280005F035FD0700184B1C68BC
:103FC000002C14D0174E02E02469002C0FD0236877
:103FD000002BF9D03368002B01D0A342F4D120008C
:103FE0003A002900FFF746FE2469002CEFD14B462A
:103FF000002B09D14046E0BCBA46B146A846F0BD08
:104000000122094B5242CBE7504607F085FFF1E70A
:1040100001204042EFE7C04640420F00FC0900206B
:10402000841000208C100020FFFFFF7F0120404201
:104030007047C046012040427047C04601204042C0
:104040007047C0460300022200209A424041704758
:10405000F0B5CE46474680B5A3B004000D00FCF78E
:1040600087FF0023294A12184B41802109068B4201
:1040700002D30122264B5242264F380007F06CFF34
:1040800000230600019322002B00234801A9FFF71B
:104090007DF8019B8046002B14D1204B1C68002C1E
:1040A00006D06368002B0BD098472469002CF8D108
:1040B000002E25D1404623B0C0BCB946B046F0BD65
:1040C0002469ECE7154B1D689946002D1CD0144C53
:1040D00002E02D69002D0FD02B68002BF9D023684A
:1040E000002B01D0AB42F4D12800019A02A9FFF7BE
:1040F000C1FD2D69002DEFD14B4601951C68CEE71F
:10410000380007F009FFD5E70195D1E740420F00DD
:10411000FFFFFF7FFC090020093D001084100020F4
:104120008C1000200FB400B583B004A901C901911F
:10413000FFF78EFF03B008BC04B0184710B500F0BD
:1041400003F8012010BDC0467047C04684B0059BEF
:104150000292049A8B4212DC0FD099420BDC08D0F9
:10416000029B069883420AD398428041404204B0A1
:1041700070479042F4D90120F9E78242EDD901203D
:104180004042F4E7C16880687047C046034BC1688D
:1041900080681A685B68801A99417047280300207C
:1041A00010B5124C200002F0E3F8002819D1226863
:1041B00063680F490F4C0868496812184B410E4953
:1041C0000868496812184B41616820688B4203DC1B
:1041D00000D010BD8242FCD910001900226063603B
:1041E000F7E7064801F0E6FEE1E7C04620030020BD
:1041F000280A0020200A0020300A0020D4C2001023
:1042000010B5144C200002F0B3F800281ED122682B
:1042100063681149114C0868496812184B411049EC
:104220000868496812184B41206861688B4208DCB5
:1042300005D00C4B1A685B68801A994110BD824208
:10424000F7D91000190022606360F2E7064801F018
:10425000B1FEDCE720030020280A0020200A00200D
:10426000300A002028030020D4C20010F0B54E46CA
:104270004546DE465746E0B51D0013000400160013
:1042800093B02B4300D1C1E0002D00DAABE00492E3
:10429000FA2200233000290092000595FFF746F826
:1042A00080460F00002D00DCC3E00690079100233C
:1042B000300029007A4AFFF739F882468946002DF6
:1042C00000DCAAE0534608934B46300009932900CE
:1042D0000023744AFFF72AF880460F00002D00DC07
:1042E000B3E00A900B91E823300029006E4AFFF7F3
:1042F0001DF882468946E82D00DCB1E053460C9358
:104300004B4630000D932900684B694AFFF70EF8C1
:10431000664B834603919D4200DCAAE05B460E9308
:10432000039B30000F932900624B634AFEF7FEFFA8
:10433000604B80460F009D4200DCA5E00625072665
:104340001090119103239946013B9B46013B9A46ED
:10435000023EFA224046390000239200FEF7E6FFB3
:1043600056499046009220000A00019305211F0043
:10437000FEF7F8FE002F0BDC07D003DC56D14346D6
:10438000092B53D9D946023403E04346632BF6D9AF
:104390000334002D1FDDF30004AAD518484B370065
:1043A000984628686968FA2200239200FEF7BEFF4B
:1043B00020000092019308214246FEF7D3FE043408
:1043C0003B00083D013F002BEBDCF343DB171E40B5
:1043D0000136B600B144484613B0F0BCBB46B24605
:1043E000A946A046F0BD02223649FFF73DFC029BDC
:1043F00002269846042301259946013B9B46013B32
:104400009A46039F013476426D42A2E702222E496A
:10441000FFF72AFC01239946DDE7002D03D12B4B42
:104420009E4200D94EE7012502268BE7D146013492
:10443000AFE7002D04D1FA239B009E4200D334E75E
:10444000B0462F00012600257CE7002D03D1204B2C
:104450009E4200D945E7D0464F460225032671E724
:10446000E82D03D11B4B9E4200D947E703250426C4
:1044700068E79D4203D1184B9E4200D94EE7D046D3
:104480004F46042505265DE79D4203D1134B9E420E
:1044900000D953E7D84605250626039F52E7C046B4
:1044A00040420F0000CA9A3B0010A5D47E8D030045
:1044B0000080C6A4B3B6E00D000064A7FCC20010E3
:1044C00004C30010F8C2001074C200103F420F0075
:1044D000FFC99A3BFF0FA5D4FF7FC6A4FFFF63A7C8
:1044E000010070B50120FFF761FB051E0CD008210B
:1044F0000120FFF75BFB041E0AD0074B28001A6857
:1045000025601C60626070BD044801F0DBFDEEE7D1
:10451000024801F0D7FDF0E7101000200CC3001096
:1045200082B010B5183084B0010006920400102249
:1045300068460793FFF798FB06980799089A099B26
:10454000FFF704FE002804DA1022200006A9FFF776
:104550008BFB04B010BC08BC02B01847F8B50500CE
:1045600000F0DAFF296CAA6BEB6B8A4201DA1100CA
:104570006B6B002906DD00208900591804CB1070F0
:104580009942FBD16B6C002B18D02E0044363000C2
:104590000024002701F0A8FA84420FD22100300045
:1045A00001F07CFA002803D00368002B00D01F60C4
:1045B0003000013401F098FA8442EFD300232B64D9
:1045C000F8BDC046010082B000B585B006926846CD
:1045D000102218310793FFF747FB099B06980799AC
:1045E000089AFFF7B3FDC317181AC00F05B008BC2F
:1045F00002B01847F8B54746CE4680B50E6A4F6AF6
:10460000330080460D003B4314D18B69002B0CDD39
:1046100000246B69A200D15801224046524201F0A9
:10462000AFF8AB690134A342F3DCAE6AEF6A330042
:104630003B4312D04346D86A01F0D0FB041E10D091
:104640004046A560FFF79EFD4346801979412060F2
:1046500061602100986A01F0A1FBC0BCB946B04678
:10466000F8BD20210120FFF7A1FA041EE8D102487D
:1046700001F028FDA560FFDE0CC30010026E70B5CE
:104680000500002A0CDD0024E86DA300C1580029B4
:1046900007D02800FFF7AEFF2A6E01349442F3DB07
:1046A00070BD01349442F0DBFAE7C04670B50500F6
:1046B000806E0024002803DC13E00134844210DA09
:1046C0006B6EA200D1580029F7D00B6E002BF4D1ED
:1046D00001222800524201F053F8A86E01348442AE
:1046E000EEDB70BD70B50500006F0024002803DC10
:1046F00013E00134844210DAEB6EA200D158002995
:10470000F7D00B6E002BF4D101222800524201F0A9
:1047100037F8286F01348442EEDB70BDF0B5DE4619
:104720004E465746454688460100E0B58FB0814663
:10473000083116000AA810221F00FFF795FA182367
:104740004B441900102268469B46FFF78DFA0A98E1
:104750000B990C9A0D9BFFF7F9FC002800DDC7E0D0
:10476000002F00DACFE0189B002B03D01A00DB6883
:104770000133D3604346002B00D1F2E01B7F002BB6
:104780005DD04B469C68DD6843469A6ADB6A0492BA
:1047900005934B46D86A01F021FB8246002800D1E0
:1047A000D0E00023524693615346189A1A6142465C
:1047B0009A603023D35C002B47D14346A4197D4136
:1047C0005E6BDB6A002B4BDB43461B7F002B00D06C
:1047D00077E0002E00D174E030687168049A059B80
:1047E00012184B4106900791089209939D4268DC8C
:1047F00065D038214346595C012900D1D4E0022913
:1048000000D1C3E04B469968069B994200D0C8E0AE
:104810004B46DA68079B9A4200D0C2E04B46310013
:10482000986A01F0B5FA002800D1BAE030687168E2
:104830004B461B690A900B9101330C9328E04346C9
:104840001A6A5B6AB6185F419BE7FFF7A9FC43460B
:10485000801979415E6BDB6A04000D00002BB3DA2E
:1048600053461C605D604B465146986A01F090FAD1
:10487000061E26D08369002B00D1ACE002221E0068
:104880009B6911000132002BF9D10A940B950C9110
:10489000102259466846FFF7E7F90A980B990C9AD7
:1048A0000D9BFFF753FC00283CDC5346B36100200E
:1048B0000FB0F0BCBB46B246A946A046F0BD94423C
:1048C00097D953461C605D604B46DB69AB4226DBE3
:1048D00021D0434652465A634B465146986A01F0EE
:1048E0005DFA4B46986D431C09D44A469365DFE751
:1048F000189800F0F9FD3E4801F0A0FBD7E701232E
:104900004A469365D4E732003B003A4801F096FBF3
:104910000026002727E74B469B69A342D9D2189867
:1049200000F0E2FD5146002200230A604B600023A4
:104930008B60CB600B610B758B614B46D86A01F0C5
:104940002DFAB4E720210120FFF730F982460690C6
:10495000002800D025E7284801F0B4FB069B9B61A6
:10496000FFDE189800F0C0FDA1E7049B059C002C19
:1049700001D1002B1BD14B463100986A01F008FA97
:10498000002814D133687468069307944B46D9689D
:104990009868069B079C8C4214DC10D0069B9842BA
:1049A0001BD0089C099D8CE7059B002BDDDD33693E
:1049B000189A9342B6D0100000F096FDB2E7069B1D
:1049C0008342EBD93069189B834201D000F08CFD03
:1049D000189B3361A6E7012157E7079B9942E0D175
:1049E0004B463100986A01F0D3F90028EAD1D8E7A4
:1049F0001CC3001044C300100CC30010F0B54646A1
:104A0000D6464F46C0B5060082B0806A01F0FAF97A
:104A100000285DD039239A46383B994618E0A169B1
:104A2000002902D0306B01F0B9F900220023226086
:104A3000636000232100F06AA360E36023612375B3
:104A4000A36101F0ABF9B06A01F0DCF900283FD0B6
:104A50000268B3689A423BD14268F3689A4237D100
:104A6000B06A01F0BBF9037D0400002BD7D10369C4
:104A7000806898468269002A0CDD436900259C46BF
:104A800038276146AB00C958CB5D002B2BD00135D0
:104A90009542F6DB53464A46C254037F002B04D0AE
:104AA000C36A826A002B2DDC2AD0414600F0FAFC52
:104AB000404600F019FD52464946A3689954AEE7B6
:104AC000306BB46A01F08AF90100200001F066F948
:104AD000306B01F097F90028F2D102B0E0BCBA4681
:104AE000B146A846F0BD01223000524200F048FE17
:104AF000A068013582699542CCDA43699C46C0E7DB
:104B0000002AD2D00021009101003000FFF706FEFC
:104B1000A068CAE7C16810B584688B420ADC07D078
:104B200094420CD199420AD103690133036105E033
:104B3000A242F5D9C36000238260036110BD024820
:104B400001F0C0FAFAE7C0468CC30010486810B5FF
:104B50000C000B6841609847002263685A6010BDE2
:104B6000F0B5DE4657464E464546E0B592468A6A5F
:104B700081468B4685B0002A70D00027002439007A
:104B800002E00134944255D25B46DB6AA0001B5818
:104B9000002BF6D01B78002BF3D05B465B6B1B58C9
:104BA00098465B461B6B1D58002DEADD42460023EC
:104BB000019203941A00029002E00132AA4233DA11
:104BC00001989300C658002EF7D0B369002BF4DD8E
:104BD000002490460FE0002903D05246484600F0DA
:104BE000CFFD29005246484600F0CAFD0021B369B6
:104BF00001349C4210DA7269A0008558002DF7D06C
:104C00008D42F5D00137012FE5D16A6A5A45E2D1CC
:104C1000013429009C42EEDB5B4642461B6B029846
:104C200001321D58AA42CBDB5B46039C9A6A0134D1
:104C30009442A9D30F1E11D04B6C002B15DA786863
:104C40003B684760984700227B6839005A604846B5
:104C50005246FFF785FF48230022FA5405B0F0BC06
:104C6000BB46B246A946A046F0BDFFF799FA3C6C98
:104C70007D6C23002B4309D04B469A68DB681219E0
:104C80006B41994202DCDAD19042D8D9FB6C002BFF
:104C9000E1D078689847524639004846FFF760FFF0
:104CA000D9E7C046F8B505001B480E00FFF7AAF883
:104CB0001A48FFF7A7F81A48FFF7A4F81948FFF7B2
:104CC000A1F81948FFF79EF81848FFF79BF8184815
:104CD000FFF798F81748FFF795F81748FFF792F88D
:104CE0001648FFF78FF81648FFF78CF81548FFF7BE
:104CF00089F81548FFF786F8002D09DD0024134FC9
:104D0000A3003800F1580134FFF70CFAA542F7D19F
:104D10000F48FFF777F8F8BDCCC30010E8C30010C8
:104D200004C4001044C4001068C40010B4C40010CF
:104D300004C5001018C5001064C5001078C5001027
:104D4000B4C50010C4C5001000C6001010C6001085
:104D5000FCC50010F0B5DE4657464E464546E0B568
:104D6000012489B0012824DD80460D00BF4B00934B
:104D7000BF4B0193A600AF59631C9A463B789946F6
:104D80002D2B1ED17B78662B1BD1BB78002B18D125
:104D9000D04500DCDCE0AE1976680099300004F004
:104DA000B5FD00284ED10122B24B1A7002344445A1
:104DB000E0DB012009B0F0BCBB46B246A946A046E4
:104DC000F0BD3800AC4904F0A1FD0028E0D04B460E
:104DD0002D2B40D17B786F2B3DD1BB78002B3AD166
:104DE000A31C434500DBF1E0AE1973689B46B36832
:104DF0005846994604F010FE06000F009F4B9A4655
:104E00001E605F6003000B4304D15B461B78302BB0
:104E100000D0F5E04B461B789B46732B44D14B46A4
:104E20005B78652B40D14B469B78632B3CD1944AF1
:104E3000002330003900FEF7D1FD53461860596059
:104E40000334B4E73000019904F060FD002826D156
:104E5000884B1870AAE738008A4904F057FD0028EB
:104E6000BED03800884904F051FD0028B8D04B4628
:104E70002D2B66D03800854904F048FD00287CD1F0
:104E8000D04500DCE5E0AE1976687849300004F0E2
:104E90003DFD002868D101227D4B1A7086E7310064
:104EA0007C4801F087F881E7042248467A4904F0FB
:104EB00097FC002826D1F30E7A011A43730103925E
:104EC0000293029A039B921BBB41D10D58020843E7
:104ED000530205900493049A059B92197B41910E0D
:104EE0009801084391010790069106980799801A46
:104EF00099410B000200514692197B4103340A602C
:104F00004B6054E704224846644904F069FC0028D9
:104F100002D1FA2292008BE704224846604904F04D
:104F20005FFC00288CD05B466D2B40D14B465B78F4
:104F3000692B3CD14B469B786E2B38D10D23594AB7
:104F400077E77B786B2B95D1BB78002B98D091E7D6
:104F50002B0045469846544801F02CF8280041465D
:104F6000FFF7A0FE002025E73000414904F0CEFC09
:104F7000002826D1464B187018E74B462D2B02D13E
:104F80007B78772B51D03800484904F0BFFC0028CB
:104F900043D1D04500DCA9E0AE1976680234300078
:104FA00001F05EFA00284EDD414B1860FFE6042256
:104FB0004846404904F014FC002813D13E4A3F4BB8
:104FC00037E731003E4800F0F5FFEFE62B0045469D
:104FD00098463C4800F0EEFF28004146FFF762FE8D
:104FE0000020E7E65B46642B23D14B465B78612BC0
:104FF0001FD14B469B78792B1BD1334A334B18E793
:105000002B00454698465946314800F0D3FF28000A
:105010004146FFF747FE0020CCE638002D4904F05A
:1050200075FC00286ED15446C1E6BB78002BB0D089
:10503000A9E704224846284904F0D2FB00286ED193
:10504000264A274BF5E62748310000F0B3FF012040
:10505000AAE72B0045469846234800F0ABFF2800FE
:105060004146FFF71FFE0020A4E6C04634C60010EC
:105070003CC60010DE11002014C6001030030020D2
:1050800000CA9A3B64C6001070C60010F4C6001037
:10509000E011002044C60010B4C60010BCC60010C9
:1050A000C4C60010005847F81CC6001044C70010C2
:1050B0000C100020CCC6001000A0B8304603000041
:1050C00020C700107CC6001000004F91944E0000D5
:1050D0009CC60010A4C70010D4C60010000029F917
:1050E0000F26020078C7001000C700102B004546AD
:1050F0009846114800F05EFF28004146FFF7D2FDB8
:10510000002057E62B004546984639000B4800F032
:1051100051FF28004146FFF7C5FD00204AE62B005D
:10512000454698464946064800F044FF2800414657
:10513000FFF7B8FD00203DE650C70010B0C70010D3
:10514000DCC60010002200B5054B83B01A60054B89
:1051500001A81A60FBF71CF9FBF720F903B000BDAA
:10516000F80F0020FC0F0020F0B5CE46474680B572
:105170008BB001A8FBF70CF905000198FBF72CF99F
:10518000002D29DD4E4B002498464E4B4E4E99463D
:105190004E4F019B3000596800F0C8FE019803781B
:1051A000002B67D0FFF7DAF90198836A002B05D04E
:1051B000180000F0E5FD002844D10198FEF7E6FF55
:1051C00002000B1E5BDA019800F0F4F9019B8833B2
:1051D00001930134A542DCD100F0F4F83C4C236883
:1051E000002B06DD3B4800F029FF21683A4800F01B
:1051F00025FF3A4C2368002B06DD394800F01EFFDE
:105200002168384800F01AFF374F3D68002D50D014
:105210002E68002E0BD03468002C08D02068FEF7D2
:1052200005FD20006468FEF701FD002CF6D130007A
:10523000FEF7FCFC6C682800FEF7F8FC002C38D068
:105240002500E5E7019B986A00F09AFD274B0100D5
:10525000180000F0F3FE019B986A00F0D3FD1B4993
:105260000268436808684968121A8B41204800F0B8
:10527000E5FEA2E741681F4800F0E0FEA9E702A8AA
:10528000FEF7F4FF404602A9FEF74CFF7B68002BB7
:1052900003DC98D13B68002B95D0FEF7B1FF0200EC
:1052A0000B0002A8FEF7E2FF484602A9FEF73AFF0C
:1052B00089E700233B600BB0C0BCB946B046F0BDE7
:1052C000ACC80010D8C80010D8C7001028030020B0
:1052D000F80F002004C9001038C90010FC0F00208E
:1052E00058C9001088C900101010002024C80010F0
:1052F00068C80010F8C7001070B5040000680028E6
:105300000AD0294A1368013B1360A3685B68002B2D
:1053100046D0984700232360002000F0B7FB002808
:1053200025D1224D2868002828D000F0F3FE8023E4
:105330009B0098420FD22100286800F019FF002836
:1053400029D0002000F0A6FB00280CD1184A1368D1
:10535000013B136070BD2000FEF768FC002000F0E8
:1053600099FB0028F2D0134800F0ACFEEEE712489B
:1053700000F0A8FE0D4D28680028D6D1043000F0BA
:10538000D7FE28600028D0D100F084FB0B4800F045
:1053900099FE2868C9E72100094800F04FFED0E7D0
:1053A000FEF744FCB6E7C046F80F00201C100020B2
:1053B000FC0F002044CA0010A8C90010CCC900107E
:1053C00004CA0010F0B5C646002000B500F05EFB30
:1053D000002854D12E4F3868002828D000F088FFCC
:1053E00005002C4B28009846002600F08FFF00286F
:1053F00015DB280000F0A6FF0400C068002808D0D4
:10540000C368002B35D0013BC360002B01D1FFF7EF
:1054100073FFE660280000F079FF0028E9DA280031
:10542000FEF704FC386800F077FE00233B601A4D5D
:105430002868002815D000F05BFF040004E020007D
:1054400000F080FFFEF7F2FB200000F05FFF002875
:10545000F5DA2000FEF7EAFB286800F05DFE002385
:105460002B60002000F016FB00280CD180BCB84651
:10547000F0BD0100404600F0E1FDE660CAE70748E4
:1054800000F020FEA6E7064800F01CFEEEE7C0464E
:105490002010002068CA00101C100020A8C90010AD
:1054A00044CA001070B50C00C1680500A1420ED0BE
:1054B000002906D0CB68002B10D0013BCB60002B1D
:1054C00006D0002C02D0E3680133E360EC6070BDCD
:1054D0000800FFF711FF002CF5D1F7E7014800F0B5
:1054E000ADFDEEE768CA001010B5002806D0C3680D
:1054F000002B08D0013BC360002B01D0002010BD61
:10550000FFF7FAFEFAE7034B0100180000F096FDE2
:10551000F4E7C04668CA001070B50E4D2C68002C28
:1055200016D00D4E08E0013BC360002B01D1FFF700
:10553000E3FE2C60002C0BD02000C3682469002BF4
:10554000F1D10100300000F079FD2C60002CF3D186
:1055500070BDC0462410002068CA0010D0B51600E7
:105560001F00002384B003618660C760040010221E
:1055700068460E49FEF778FB099B002B0FDB089A63
:10558000099B0021B6185F41200002911022694654
:10559000183000960197FEF767FB04B0D0BD0121DB
:1055A0000126034F49427642EEE7C046A0CA0010EA
:1055B000FFFFFF7F10B50400C06DFEF737FB606E84
:1055C000FEF734FBE06EFEF731FB606FFEF72EFB5B
:1055D000606BFEF72BFBE06BFEF728FBA06A00F088
:1055E000C5FBE06A00F0C2FB206B00F0BFFB842328
:1055F000E05800F0BBFB10BDF0B5DE4657464E4606
:1056000045460400E0B51D0085B0102241604E49BA
:105610001830119EFEF728FB256640212800FEF772
:10562000C5FAE065431E9841484DC0B2290000F01C
:105630005BFD0E9B6821A3661800FEF7B7FA606653
:10564000431E98412900C0B200F04EFD0F9B682117
:1056500023671800FEF7AAFAE066431E9841290066
:10566000C0B200F041FD109B6821A3671800FEF74F
:105670009DFA6067431E98412900C0B200F034FDD6
:105680000023A663236404213000FEF78FFA6063D1
:10569000431E98412900C0B200F026FD04213000CD
:1056A000FEF784FAE063431E98412900C0B200F07F
:1056B0001BFD01212648A165834602902548264E00
:1056C000264D8246264F01902648330081462A0007
:1056D000390000900A2000F01FFBA062584602909B
:1056E000504601904846204933002A0000900A2085
:1056F000884600F011FBE062584602905046019047
:10570000484633002A00414600900A2000F004FB7E
:105710008023002215492063E25002911449154B61
:1057200001911549154A00910A20390000F0F4FA58
:1057300084230121E0500020217005B0F0BCBB465D
:10574000B246A946A046F0BDA0CA001050C2001043
:105750006D5E0010355E0010595E0010495E00104D
:10576000195E0010615E0010315E0010695E00106D
:10577000415E00105D5E0010655E0010515E00101D
:105780003823CA5C10B5002A00D010BD0132CA54BB
:105790004C33C05800F002FB0028F6D0014800F05E
:1057A00091FCF2E7B0CA00108423F0B54646984653
:1057B000D6464F464C3B9946363B05009A464346F3
:1057C000C0B5E85884B000F0DBFA002838D0434672
:1057D000E85800F003FB4B465246C254436C0400A9
:1057E000002B1ADBFEF7DCFC226C636C16001E43F8
:1057F00008D0AE68EF68B6185F41B94202DC0CD140
:10580000B0420AD9E36C002B11D06068984700229F
:1058100021002800FFF7A4F909E000222100280058
:10582000FFF794F9002221002800FFF799F90023DF
:105830004A46A3544346E85800F0A2FA0028C6D1CD
:1058400029001022684618310835FEF70DFA0FCDF1
:10585000FEF77CFCC00F04B0E0BCBA46B146A846D7
:10586000F0BDC04670B58CB0040000F0B7FD002854
:1058700050D1A06A00F0C6FA102205003F4904A8E2
:10588000FEF7F2F9002D4DD02E68A3686D68B34283
:105890003AD0002306930822684606A90496059587
:1058A000FEF7E2F92000049A059BFEF78BFE002824
:1058B00001D0A669E569324B1B78002B3AD02B004A
:1058C00032002000FFF726F9210010221831684627
:1058D000FEF7CAF9A068E16822696369FEF736FC41
:1058E000002802DB2000FEF7FDFE2000FEF736FE5A
:1058F0002000FFF783F800F08FFD00280ED1200074
:10590000FFF752FF0CB070BDE368AB42C1D1236911
:105910000133BFE71B4800F0D5FBAAE71A4800F0A7
:10592000D1FBECE7194B1B78002B10D00126184D4A
:105930007642B0E732002B00200000F02BFD00285B
:10594000BDD000F069FD002813D10120DAE7A2687C
:10595000E3680892099323690822013368460AA97B
:105960000A93FEF781F92000089A099BFEF7D8FDFB
:10597000DCE7054800F0A6FB0120C3E750CB001090
:10598000DE110020A8C9001044CA0010E011002058
:10599000FFFFFF7F30B587B004000D00FAF7DEFC93
:1059A00000F0D6FC314B1968314B1868FFF7D2F97B
:1059B000002857D029002000FFF7CCF9002851D04B
:1059C0002C4800F045FD002848D1FAF7C9FC05A88D
:1059D000FAF7DEFC431E0200584243412649D8B282
:1059E00000F082FBFFF7AEFBFEF7DAFB02000B00D4
:1059F000224905980CC122490C684D680094019514
:105A0000FFF7ACFD01221F4B05981A70FEF74EFE02
:105A10000598FEF733FE059C1022210068461831D8
:105A20000834FEF721F90FCCFEF790FB002802DBCB
:105A30000598FEF757FE0598FFF7B6FE002802D13D
:105A4000002007B030BD0598FFF70CFF0028F7D005
:105A50000598FFF707FF0028F5D1F1E70A4800F0A5
:105A6000EDFAB2E701204042EBE7C046801000208B
:105A70007C1000206951001008CB00102803002082
:105A800030030020DC110020DCCA001010B500F04B
:105A9000A5FC10BD10B500F0BFFC10BDF8B50500A9
:105AA0008E000068331D6F68C318BB4201D91F0008
:105AB0006B60AB68BB4215D8EC681B1A0134EC6014
:105AC0005B10994202D35B009942FCD29C002100FA
:105AD0003F1AFEF78BF80023C71904192B612860C1
