:020000040800F2
:1000000000000220F1190008410C0008430C000810
:10001000450C0008470C0008490C000800000000CF
:100020000000000000000000000000004B0C000871
:100030004D0C0008000000004F0C0008510C000897
:10004000411A0008411A0008411A0008411A000824
:10005000411A0008411A0008411A0008411A000814
:10006000411A0008411A0008411A0008411A000804
:10007000411A0008411A0008411A0008411A0008F4
:10008000411A0008411A0008411A0008411A0008E4
:10009000411A0008411A0008411A0008411A0008D4
:1000A000411A0008411A0008411A0008411A0008C4
:1000B000411A0008411A0008411A0008411A0008B4
:1000C000411A0008411A0008411A0008411A0008A4
:1000D000411A0008411A0008411A0008411A000894
:1000E000411A0008411A0008411A0008411A000884
:1000F000411A0008411A0008411A0008411A000874
:10010000411A0008411A0008610A0008411A000853
:10011000411A0008411A0008411A0008411A000853
:10012000411A0008411A0008411A0008411A000843
:10013000411A00080000000000000000411A0008F9
:10014000411A0008411A0008411A0008411A000823
:10015000411A0008411A0008411A0008411A000813
:10016000411A0008411A0008411A0008411A000803
:10017000411A0008411A0008411A00080000000056
:1001800000000000411A000800000000000000000C
:10019000411A00080000000000000000411A000899
:1001A000000000000000000000000000411A0008EC
:1001B000411A0008411A0008411A0008411A0008B3
:0401C000411A0008D8
:1001D00053B94AB9002908BF00281CBF4FF0FF31AE
:1001E0004FF0FF3000F00CB8ADF1080C6DE904CE13
:1001F00001F028FCDDF804E0DDE9022304B07047DB
:10020000704700BF00000000000000000000000078
:1002100001F0FF01102A2BDB10F0070F08D010F8B7
:10022000013B013A8B422DD010F0070F42B3F6D1BB
:10023000F0B441EA012141EA014122F007047FF0D4
:1002400000070023F0E80256083C85EA010586EA2B
:10025000010685FA47F5A3FA87F586FA47F6A5FA67
:1002600087F68EB9EED1F0BC01F0FF0102F0070273
:1002700032B110F8013B013A83EA010313B1F8D11E
:100280000020704701387047002D06BF35460338FF
:10029000073815F0010F07D1013015F4807F02BF38
:1002A000013015F4C03F0130F0BC0138704700BF89
:1002B0000348044B834202D0034B03B118477047F5
:1002C0006800002068000020000000000548064B80
:1002D0001B1AD90F01EBA301491002D0034B03B144
:1002E00018477047680000206800002000000000E8
:1002F00010B5064C237843B9FFF7DAFF044B13B16E
:100300000448AFF300800123237010BD6800002073
:10031000000000007825000808B5054B1BB1054911
:100320000548AFF30080BDE80840FFF7CFBF00BF2E
:10033000000000006C00002078250008002310B5A4
:100340000446C0E90033C0E9043383608181436619
:10035000C2818361194608225C3000F0B1F80D4B70
:1003600063620D4BA3620D4BE3620D4B23630D4B98
:1003700024629C4206D003F16802944202D0D0333A
:100380009C4205D104F15800BDE8104000F0C4B80B
:1003900010BD00BFD5070008F70700082F080008A8
:1003A0005308000884000020024A0349034800F073
:1003B00069B800BF000000206D0700081000002091
:1003C00041680C4B994210B5044601D000F0CEF9BB
:1003D000A168094B994202D0204600F0C7F9E168B4
:1003E000064B994204D02046BDE8104000F0BEB94B
:1003F00010BD00BF84000020EC000020540100204C
:1004000010B50B4B0B4C0C4A1A60204600220421FD
:10041000FFF794FF04F1680001220921FFF78EFF26
:1004200004F1D0000222BDE810401221FFF786BF80
:10043000BC01002084000020A9030008014800F04E
:100440006CB800BFC1010020014800F067B800BFD0
:10045000C101002010B50446FFF7F0FF236A1BB16D
:10046000BDE81040FFF7F0BF044B2362044B1B684C
:10047000002BF5D1FFF7C4FFF2E700BFC10300086E
:10048000BC0100202DE9F8430746884614460026A3
:10049000D4E90195B9F1010905D52468002CF7D1FB
:1004A0003046BDE8F883AB89012B07D9B5F90E308A
:1004B000013303D029463846C04706436835E9E78B
:1004C00002440346934200D1704703F8011BF9E749
:1004D00070B50D4D0D4C641BA4100026A64209D129
:1004E0000B4D0C4C02F048F8641BA4100026A642E9
:1004F00005D170BD55F8043B98470136EEE755F835
:10050000043B98470136F2E7FC250008FC2500086B
:10051000FC2500080026000870477047704700005F
:1005200070B50F4E0C463168054611B900F0CAF996
:1005300030602146284600F0C5F9431C03D14FF036
:10054000FF34204670BDC41C24F00304A042F8D040
:10055000211A284600F0B6F90130F2D1EFE700BFCA
:10056000C40100202DE9F843CD1C25F00305083512
:100570000C2D38BF0C25002D064601DBA94204D9FD
:100580000C2333600020BDE8F883DFF8D48000F04E
:1005900015F9D8F800301C4644BB29463046FFF711
:1005A000BFFF431C044658D1D8F800402746002F0F
:1005B00043D1002C4BD023683946304604EB030965
:1005C00000F080F9814542D121686D1A29463046F4
:1005D000FFF7A6FF01303AD023682B442360D8F8F8
:1005E00000305A6862BBC8F800700FE02268521BE6
:1005F00020D40B2A17D96119A342256018BF59606E
:10060000636808BFC8F8001062514B60304600F0C4
:10061000DBF804F10B00231D20F00700C21A1CBFF9
:100620001B1AA350AFE76268A3420CBFC8F80020B2
:100630005A60EBE723466468AEE73C467F68B6E75E
:100640001A465B68A342FBD100235360DEE70C230C
:100650003360304600F0B8F894E70560D6E700BF95
:10066000C8010020B1F90C202DE9F041170705461B
:100670000C4656D44B68002B02DC0B6C002B3DDD86
:10068000E66A002E3AD0002312F480522F68216AC5
:100690002B6025D0626DA389580705D56368D21AEF
:1006A000636B0BB1236CD21A216AE66A00232846D9
:1006B000B047411C24D00023636023692360A389D1
:1006C000DA0400D56065616B2F60B9B104F14403B1
:1006D000994202D0284600F017F9002363630DE029
:1006E00001232846B047461C0246D4D12B68002B74
:1006F000D1D01D2B01D0162B2BD12F6000202FE045
:100700002A68B4F90C3042B11D2A01D0162A22D130
:100710000023636023692360D5E762602269226059
:10072000CEE70F69002FE9D093070E6808BF4B6929
:100730000F6018BF0023A6EB07088B60B8F1000F0D
:10074000DCDD216AA66A43463A462846B0470028BF
:1007500008DCB4F90C3043F04003A3814FF0FF30C4
:10076000BDE8F0810744A8EB0008E7E738B50B695E
:1007700005460C4613B90025284638BD18B1036A52
:100780000BB9FFF767FEB4F90C30002BF3D0626EA3
:10079000D00704D4990502D4A06DFFF7BEFE284609
:1007A0002146FFF75FFF636EDA070546E4D4A389AD
:1007B0009B05E1D4A06DFFF7B1FEDDE70148FFF72F
:1007C000ACBE00BFC00100200148FFF7A7BE00BFBC
:1007D000C001002010B50C46B1F90E1000F060F811
:1007E0000028ABBF636DA3891B1823F48053ACBFF3
:1007F0006365A38110BD2DE9F0411F468B89DB05A0
:1008000005460C46164605D5B1F90E100223002206
:1008100000F034F8A389B4F90E1023F48053A381B7
:1008200032463B462846BDE8F04100F05BB810B5C3
:100830000C46B1F90E1000F021F8431CA38915BF36
:10084000606523F4805343F48053A38118BFA381D0
:1008500010BDB1F90E1000F001B8000038B5064D1A
:100860000023044608462B6001F050FE431C02D1D1
:100870002B6803B1236038BDCC01002038B5074D8B
:1008800004460846114600222A601A4601F056FE28
:10089000431C02D12B6803B1236038BDCC0100207A
:1008A00038B5074D04460846114600222A601A460C
:1008B00001F04CFE431C02D12B6803B1236038BD0C
:1008C000CC01002038B5064D0023044608462B60B5
:1008D00001F044FE431C02D12B6803B1236038BDF4
:1008E000CC01002038B5074D0446084611460022C9
:1008F0002A601A4600F07CF8431C02D12B6803B131
:10090000236038BDCC01002038B50546002941D010
:1009100051F8043C0C1F002BB8BFE418FFF74EFF42
:100920001D4A136833B9636014602846BDE8384037
:10093000FFF74ABFA34208D9206821188B4201BFA4
:1009400019685B6809182160EDE71A465B680BB10E
:10095000A342FAD911685018A0420BD12068014473
:10096000501883421160E0D118685B6853600844F6
:100970001060DAE702D90C232B60D6E72068211833
:100980008B4204BF19685B68636004BF091821606B
:100990005460CAE738BD00BFC801002030B587B039
:1009A00000240194029403940494059400940E4B43
:1009B0001A6B42F001021A631B6B03F001030093F0
:1009C000009B0A4D22462021284600F00FFB2023E1
:1009D0000193012302930394049401A9284600F093
:1009E00015FA07B030BD00BF0038024000000240D9
:1009F00010B514464FF0FF3392B2024800F08BFF5F
:100A0000204610BDD401002082B0002301930E4B7C
:100A10001A6C42F008021A641B6C03F0080301937D
:100A2000019B0A4B01221A600F229A62DA6842F097
:100A30000202DA60064A4FF4802151606FF0010231
:100A40005A6202B0704700BF00380240000C0040FC
:100A500000E100E0014B586A704700BF000C004005
:100A6000074B1B6913F0020F08D0054A136923F0E6
:100A700002031361034A136801331360704700BF18
:100A8000000C0040D001002072B6FEE708B50A480D
:100A90000A4B03604FF4E133436000238360C3607B
:100AA00003610C2242618361C36100F005FF00B95C
:100AB00008BDFFF7E9FF00BFD4010020004400405B
:100AC00000B595B03422002107A8FFF7F9FC0023F8
:100AD000029303930493059306930093194A116CB0
:100AE00041F080511164126C02F080520092009A21
:100AF000019315490A6822F4404242F480420A6098
:100B00000A6802F440420192019A022207920122ED
:100B10000A9210220B920D9307A800F0E1FB68B92E
:100B20000F2302930021039104910591069102A8DD
:100B300000F06CFA20B915B05DF804FBFFF7A4FFD4
:100B4000FFF7A2FF003802400070004008B500F037
:100B5000B3F8FFF7B5FFFFF721FFFFF797FFFFF7A8
:100B600053FF72B662B62021084800F045FAFFF73D
:100B700071FF0146064B1A68013A064801F0C0F8B9
:100B80004FF47A7000F0C4F8EDE700BF00000240B7
:100B9000D00100209025000882B0002100910B4B6D
:100BA0005A6C42F480425A645A6C02F480420092B9
:100BB000009A01911A6C42F080521A641B6C03F087
:100BC00080530193019B02B0704700BF0038024080
:100BD00000B589B00023039304930593069307930C
:100BE0000268154B9A4202D009B05DF804FB00215F
:100BF000019103F5FA331A6C42F400321A641A6C4C
:100C000002F400320192019A02911A6B42F0010241
:100C10001A631B6B03F001030293029B0C230393E3
:100C200002230493032306930723079303A903488E
:100C300000F0ECF8D8E700BF00440040000002409C
:100C4000FEE7FEE7FEE7FEE7FEE770477047704706
:100C500008B500F04BF808BD034AD2F8883043F4D9
:100C60007003C2F88830704700ED00E010B504460C
:100C70000E4B1A784FF47A73B3FBF2F30C4A1068F8
:100C8000B0FBF3F000F0AEF868B90F2C01D90120E9
:100C90000AE0002221464FF0FF3000F093F8054BA8
:100CA0001C60002000E0012010BD00BF600000209B
:100CB0005C0000206400002008B50B4B1A6842F469
:100CC00000721A601A6842F480621A601A6842F46C
:100CD00080721A60032000F063F80F20FFF7C6FF50
:100CE000FFF75AFF002008BD003C0240034A11688C
:100CF000034B1B780B441360704700BF18020020A1
:100D000060000020014B1868704700BF18020020E7
:100D100038B50446FFF7F6FF0546B4F1FF3F02D0B1
:100D2000044B1B781C44FFF7EDFF401BA042FAD395
:100D300038BD00BF60000020002808DB0901C9B2EF
:100D400000F1604000F5614080F80013704700F04A
:100D50000F000901C9B2014B1954704714ED00E0AE
:100D600000B500F00700C0F1070CBCF1040F28BF6C
:100D70004FF0040C031D062B0FD9C31E4FF0FF3E8E
:100D80000EFA0CF021EA000199400EFA03FE22EA65
:100D90000E0241EA02005DF804FB0023EEE70000CA
:100DA000074AD36823F4E0631B041B0C000200F421
:100DB000E060034343F0BF6343F40033D360704704
:100DC00000ED00E010B50446054BD868C0F30220E2
:100DD000FFF7C6FF01462046FFF7AEFF10BD00BF7C
:100DE00000ED00E00138B0F1807F0BD24FF0E0233E
:100DF0005861054AF02182F82310002098610722EB
:100E00001A6170470120704700ED00E000230F2BAE
:100E100000F2E38070B582B065E085684FEA430E6A
:100E2000032404FA0EF425EA0405CC6804FA0EF44F
:100E30002C438460446824EA02044A68C2F3001226
:100E40009A40224342605CE0DC08083450F82420D9
:100E500003F00705AD004FF00F0E0EFA05FE22EA73
:100E60000E0E0A69AA4042EA0E0240F824205CE015
:100E7000062200E0002202FA0EF22A430234574D05
:100E800045F82420564A14686FEA0C0224EA0C053F
:100E90004E6816F4803F01D04CEA0405504C2560A2
:100EA000646802EA04054E6816F4003F01D04CEA7B
:100EB00004054B4C6560A46802EA04054E6816F40C
:100EC000801F01D04CEA0405454CA560E46822402F
:100ED0004D6815F4001F01D04CEA0402404CE2605A
:100EE00001330F2B77D801229A400C6804EA020CD8
:100EF00032EA0404F4D14C6804F00304013C012CF0
:100F00008BD94A6802F00302032A09D0C4685D0045
:100F10000322AA4024EA02048A68AA402243C2604B
:100F20004A6802F00302022A8ED004684FEA430E98
:100F3000032202FA0EF224EA02044A6802F00302D3
:100F400002FA0EF2224302604A6812F4403FC7D010
:100F500000220192234A546C44F480445464526C3D
:100F600002F480420192019A9C08A51C1B4A52F887
:100F7000255003F0030E4FEA8E0E0F2202FA0EF2F6
:100F800025EA0205184A90423FF474AF02F58062E8
:100F9000904216D002F58062904214D002F5806231
:100FA000904212D002F58062904210D002F5806229
:100FB00090420ED002F5806290423FF459AF072272
:100FC00059E7012257E7022255E7032253E704229B
:100FD00051E705224FE702B070BD7047003801406D
:100FE000003C014000380240000002400AB181612B
:100FF0007047090481617047436901EA030221EAED
:10100000030141EA0241816170470000002800F0BD
:101010009B8070B50D4604464F4B1B6803F00F03D1
:101020008B4208D2CBB24C4A1370136803F00F0303
:101030008B4240F08B80236813F0020F17D013F01F
:10104000040F04D0454A936843F4E0539360236847
:1010500013F0080F04D0414A936843F4604393604F
:101060003E4A936823F0F003A1680B439360236822
:1010700013F0010F32D06368012B21D09A1E012A90
:1010800025D9364A126812F0020F61D033498A68B6
:1010900022F0030213438B60FFF734FE06462F4B0A
:1010A0009B6803F00C036268B3EB820F16D0FFF766
:1010B00029FE801B41F288339842F0D9032042E098
:1010C000264A126812F4003FE0D101203BE0234A97
:1010D000126812F0007FD9D1012034E01E4B1B684A
:1010E00003F00F03AB4207D9EAB21B4B1A701B681F
:1010F00003F00F03AB422DD1236813F0040F06D089
:10110000164A936823F4E053E1680B439360236825
:1011100013F0080F07D0114A936823F46043216944
:1011200043EAC103936000F047F80C4B9B68C3F39C
:1011300003130B4AD35CD8400A4B18600A4B18685B
:10114000FFF794FD002070BD012070470120FAE7F1
:101150000120F8E70120F6E7003C02400038024099
:10116000B02500085C00002064000020014B1868D6
:10117000704700BF5C00002008B5FFF7F7FF044B85
:101180009B68C3F38223034AD35CD84008BD00BFE9
:1011900000380240A825000808B5FFF7E7FF044B18
:1011A0009B68C3F34233034AD35CD84008BD00BFF9
:1011B00000380240A825000808B5464B9B6803F09C
:1011C0000C03082B07D00C2B45D0042B01D0424830
:1011D00008BD4248FCE73F4B5A6802F03F025B689B
:1011E00013F4800F12D03B4B5968C1F388113B4870
:1011F0000023A1FB0001FEF7EBFF364B5B68C3F356
:10120000014301335B00B0FBF3F0E1E7314B586879
:10121000C0F388104FEA401CBCEB000C6EEB0E0EC6
:101220004FEA8E1343EA9C634FEA8C11B1EB0C0139
:1012300063EB0E03DB0043EA5173C90011EB000CB2
:1012400043F10003990200234FEA8C2041EA9C51AC
:10125000FEF7BEFFD1E71F4B5A6802F03F025B6802
:1012600013F4800F10D01B4B5968C1F388111B4831
:101270000023A1FB0001FEF7ABFF164B5B68C3F335
:101280000273B0FBF3F0A3E7124B5868C0F3881069
:101290004FEA401CBCEB000C6EEB0E0E4FEA8E13B7
:1012A00043EA9C634FEA8C11B1EB0C0163EB0E0334
:1012B000DB0043EA5173C90011EB000C43F100035A
:1012C000990200234FEA8C2041EA9C51FEF780FFEF
:1012D000D3E700BF003802400024F40040787D01CD
:1012E000002800F0018270B582B00446036813F054
:1012F000010F41D0994B9B6803F00C03042B32D0B3
:10130000964B9B6803F00C03082B27D0934B9B68EC
:1013100003F00C030C2B59D06368B3F5803F5BD00E
:10132000B3F5A02F5ED08D4B1A6822F480321A607C
:101330001A6822F480221A606368002B5CD0FFF7E1
:10134000E1FC0546854B1B6813F4003F14D1FFF701
:10135000D9FC401B6428F5D90320CCE17F4B5B68A6
:1013600013F4800FD2D07D4B1B6813F4003F03D0E1
:101370006368002B00F0BA81236813F0020F60D07D
:10138000764B9B6813F00C0F4AD0744B9B6803F0AC
:101390000C03082B3FD0714B9B6803F00C030C2B04
:1013A00069D0E368002B75D06D4B01221A60FFF7FE
:1013B000A9FC0546694B1B6813F0020F61D1FFF7CA
:1013C000A1FC401B0228F5D9032094E1634B5B6824
:1013D00013F4800FA0D0C6E7604A136843F480334B
:1013E0001360A9E75D4B1A6842F480221A601A68FC
:1013F00042F480321A609FE7FFF784FC0546574BA2
:101400001B6813F4003FB7D0FFF77CFC401B642837
:10141000F5D903206FE1514B5B6813F4800FBAD10B
:101420004E4B1B6813F0020F03D0E368012B40F012
:101430005F814A4A136823F0F803216943EAC10334
:101440001360236813F0080F49D06369002B33D071
:10145000434B0122C3F8802EFFF754FC05463F4B57
:101460005B6F13F0020F3AD1FFF74CFC401B0228D0
:10147000F5D903203FE1394B5B6813F4800F90D11D
:10148000CEE7364A136823F0F803216943EAC10323
:101490001360D6E7324B00221A60FFF733FC054693
:1014A0002E4B1B6813F0020FCBD0FFF72BFC401B19
:1014B0000228F5D903201EE1294B0022C3F8802E13
:1014C000FFF720FC0546254B5B6F13F0020F06D09B
:1014D000FFF718FC401B0228F5D903200BE1236815
:1014E00013F0040F76D01D4B1B6C13F0805F33D1CB
:1014F00000230193194B1A6C42F080521A641B6C42
:1015000003F080530193019B0125164B1B6813F4D4
:10151000807F29D0A368012B3AD0052B3ED00F4BFA
:101520001A6F22F001021A671A6F22F004021A677A
:10153000A368002B3CD0FFF7E5FB0646074B1B6F6B
:1015400013F0020F45D1FFF7DDFB801B41F288331A
:101550009842F3D90320CEE00025D6E700380240B8
:1015600000004742007000406B4A136843F48073E8
:101570001360FFF7C7FB0646674B1B6813F4807FB9
:10158000C8D1FFF7BFFB801B0228F5D90320B2E0CA
:10159000624A136F43F001031367C9E75F4B1A6F89
:1015A00042F004021A671A6F42F001021A67BFE79D
:1015B000FFF7A8FB0646594B1B6F13F0020F08D02C
:1015C000FFF7A0FB801B41F288339842F3D9032038
:1015D00091E0EDB9A369002B00F08C804F4A92682E
:1015E00002F00C02082A54D0022B17D04C4B0022D8
:1015F0001A66FFF787FB0446484B1B6813F0007F11
:1016000045D0FFF77FFB001B0228F5D9032072E0CD
:10161000424A136C23F080531364DBE7404B0022F3
:101620001A66FFF76FFB05463C4B1B6813F0007F03
:1016300006D0FFF767FB401B0228F5D903205AE0CC
:10164000E369226A1343626A43EA8213A26A520878
:10165000013A43EA0243E26A43EA0263226B43EA45
:1016600002732E4A53602E4B01221A66FFF74AFB83
:1016700004462A4B1B6813F0007F06D1FFF742FB9C
:10168000001B0228F5D9032035E0002033E00020BC
:1016900031E0012B31D0214B5B6803F48001E2691A
:1016A00091422CD103F03F02216A8A4229D1616A1A
:1016B00047F6C0721A40B2EB811F24D103F44031C7
:1016C000A26A5208013AB1EB024F1ED103F07062D8
:1016D000E16AB2EB016F1AD103F0E043226BB3EB86
:1016E000027F16D1002006E001207047012002E0B1
:1016F000012000E0002002B070BD0120FBE70120C6
:10170000F9E70120F7E70120F5E70120F3E70120E1
:10171000F1E70120EFE700BF007000400038024011
:101720000000474210B504460268136923F4405391
:10173000C1680B431361836802691A4343691A4302
:10174000C3691A430168CB6823F4164323F00C03E2
:101750001343CB600268536923F4407381690B43E0
:1017600053610368314A934206D002F58062934286
:1017700002D0FFF701FD01E0FFF70EFDE369B3F5CD
:10178000004F29D00021031849411B1841F10001E5
:10179000C90041EA5371DB00181863684FEA8302FD
:1017A0004FEA937341F10001FEF712FD204AA2FBBC
:1017B00000314909642303FB11031B013233A2FBEF
:1017C00003235B0903F0F00202EB011203F00F03A5
:1017D000216813448B6010BD0023021843EB030102
:1017E000121841F10001C90041EA5271D2001018EB
:1017F00041F10001626892185B41FEF7E9FC0C4A76
:10180000A2FB00314909642303FB1103DB003233DF
:10181000A2FB03235B095A0002F4F87202EB0112E7
:1018200003F00703216813448B60D4E700100140E4
:101830001F85EB512DE9F84305460F46164699469C
:10184000DDF820802B681C6837EA04040CBF0124F3
:101850000024B4422DD1B8F1FF3FF3D0B8F1000F0E
:1018600005D0FFF74FFAA0EB09004045EAD92A68F6
:1018700002F10C0353E8003F23F4D0730C3242E82A
:1018800000310029F3D12A6802F1140353E8003F24
:1018900023F00103143242E800310029F3D1202360
:1018A00085F83D3085F83E30002385F83C30032034
:1018B00000E00020BDE8F88358B310B5044690F866
:1018C0003D300BB3242384F83D302268D36823F4E1
:1018D0000053D3602046FFF725FF2268136923F4E5
:1018E000904313612268536923F02A0353612268ED
:1018F000D36843F40053D36000202064202384F88D
:101900003D3084F83E3010BD80F83C30FFF760F980
:10191000D8E7012070472DE9F04182B01E4690F8CB
:101920003D30DBB2202B54D104460D4690460029B1
:1019300053D0002A53D090F83C30012B51D00123D2
:1019400080F83C3000230364212380F83D30FFF70A
:10195000D9F90746A4F82480A4F82680A368B3F533
:10196000805F05D04FF00008002384F83C3012E07F
:10197000236913B14FF00008F6E7A8460025F3E706
:1019800038F8023B2268C3F308035360E28C92B23A
:10199000013A92B2E284E38C9BB273B100963B466B
:1019A000002280212046FFF745FFE0B9002DE7D057
:1019B00015F8012B23685A60E8E700963B460022A1
:1019C00040212046FFF736FF78B9202384F83D30C8
:1019D00000E0022002B0BDE8F0810120FAE701201A
:1019E000F8E70220F6E70320F4E70320F2E700001F
:1019F000DFF834D00D480E490E4A002302E0D458D7
:101A0000C4500433C4188C42F9D30B4A0B4C002346
:101A100001E013600432A242FBD3FFF71DF9FEF789
:101A200057FDFFF793F870470000022000000020E8
:101A30006800002004260008680000202002002022
:101A4000FEE700002DE9F047089D0C46002B4ED123
:101A500094468C458646B2FA82F262D94AB1C2F106
:101A60002003914020FA03F30CFA02FC194300FA18
:101A700002FE4FEA1C471FFA8CF6B1FBF7F44FEA5F
:101A80001E4307FB141143EA014304FB06F199428C
:101A90000AD91CEB030304F1FF3080F01281994254
:101AA00040F20F81023C6344591A1FFA8EF3B1FBD6
:101AB000F7F007FB101143EA014300FB06F69E42D4
:101AC0000AD91CEB030300F1FF3180F0FC809E4239
:101AD00040F2F980634402389B1B40EA0440002135
:101AE0001DB1D3400022C5E90032BDE8F0878B422A
:101AF00005D90DB1C5E9000100210846F5E7B3FAA3
:101B000083F1002946D1A34202D39042C0F0F08075
:101B1000861A64EB03030120002DE6D0C5E90063BB
:101B2000E3E7002A40F09080A1EB0C044FEA1C4848
:101B30001FFA8CF70121B4FBF8F64FEA1E4308FBAD
:101B4000164443EA044307FB06F0984208D91CEB0D
:101B5000030306F1FF3402D2984200F2CD802646FC
:101B60001C1A1FFA8EF3B4FBF8F008FB104443EA8A
:101B7000044300FB07F79F4208D91CEB030300F165
:101B8000FF3402D29F4200F2B0802046DB1B40EAC5
:101B90000640A5E7C1F120068B4022FA06F71F4355
:101BA00020FA06FC04FA01F343EA0C03F44000FABD
:101BB00001F8380C4FEA1349B4FBF0FE1FFA87FC1A
:101BC00000FB1E4449EA04440EFB0CF9A14502FA4D
:101BD00001F20AD93C190EF1FF3A80F08480A14548
:101BE00040F28180AEF1020E3C44A4EB09041FFADE
:101BF00083F9B4FBF0F300FB134449EA044403FB0C
:101C00000CFCA44507D93C1903F1FF3067D2A44569
:101C100065D9023B3C4443EA0E40A0FB0293A4EB8F
:101C20000C049C42CE469C4651D34ED055B1B8EBE5
:101C30000E0364EB0C0404FA06F6CB401E43CC40C2
:101C4000C5E90064002150E7C2F1200320FA03F146
:101C50000CFA02FC24FA03F394400C434FEA1C48AC
:101C600000FA02FE1FFA8CF7B3FBF8F008FB103104
:101C7000230C43EA014300FB07F1994208D91CEB0E
:101C8000030300F1FF362CD299422AD9023863446B
:101C90005B1AA4B2B3FBF8F108FB113344EA034426
:101CA00001FB07F3A34208D91CEB040401F1FF3642
:101CB00013D2A34211D902396444E41A41EA004123
:101CC00039E70446F0E6084606E7C845AED2B9EB68
:101CD000020E63EB070C0138A8E73146EDE7034637
:101CE00099E73046D4E7D6467FE7634402384DE7AC
:101CF0000646234608460FE7023E634430E700BF2E
:101D00000FB407B5064904AB086853F8042B816883
:101D1000019300F031F803B05DF804EB04B07047B4
:101D20000C0000209368013B002B10B4936008DA8C
:101D30009469A34201DB0A2903D15DF8044B00F04A
:101D4000CDBA1368581C1060197008465DF8044B32
:101D50007047F8B506460F461446D518AC4201D177
:101D6000002007E014F8011B3A463046FFF7DAFF7F
:101D7000431CF3D1F8BD00002DE9F04F0D469DB096
:101D800014469846064618B1036A0BB9FEF762FB83
:101D90006B6ED90705D4AB899A0502D4A86DFEF7FE
:101DA000BCFBAB891B0701D52B699BB92946304683
:101DB00000F0D2FA70B16B6EDC0704D54FF0FF3043
:101DC0001DB0BDE8F08FAB899805F7D4A86DFEF77C
:101DD000A5FBF3E70023099320238DF82930CDF8E4
:101DE0000C803023DFF8AC818DF82A304FF00109E8
:101DF00023469A4613F8012B0AB1252AF9D1BAEBEA
:101E0000040B0BD05B46224629463046FFF7A1FF64
:101E1000013000F0A780099A5A4409929AF80030DC
:101E2000002B00F09F8000234FF0FF32CDE9052307
:101E30000AF1010A049307938DF853301A9354461C
:101E4000052214F8011B5348FEF7E2F9049AD8B9A9
:101E5000D10644BF20238DF85330130744BF2B23F2
:101E60008DF853309AF800302A2B15D0079A544633
:101E700000204FF00A0C214611F8013B303B092BA2
:101E80004BD9B0B1079214E0A0EB080309FA03F3B1
:101E900013430493A246D2E7039B191D1B680391C9
:101EA000002BBBBF5B4242F0020207930793B8BF0F
:101EB000049223782E2B0AD163782A2B32D1039BEC
:101EC0001A1D1B68039243EAE37302340593DFF89B
:101ED000D4A0217803225046FEF79AF938B1049B2A
:101EE000A0EB0A004022824013430134049314F80B
:101EF000011B29488DF828100622FEF789F90028D1
:101F00003FD0264B1BBB039B073323F0070308334B
:101F10000393099B3B4409936AE70CFB02320C468E
:101F20000120A8E700230134059319464FF00A0C5D
:101F3000204610F8012B303A092A03D9002BC6D0CD
:101F40000591C4E70CFB012104460123F0E703AB34
:101F500000932A46124B04A93046AFF3008007468F
:101F6000781CD6D16B6ED90705D4AB899A0502D4FB
:101F7000A86DFEF7D3FAAB895B063FF51FAF099852
:101F80001EE703AB00932A46054B04A9304600F038
:101F900079F8E4E7C0250008CA2500080000000021
:101FA000531D0008C62500082DE9F047164698463F
:101FB0008A680B69DDF820909342B8BF13463360FE
:101FC00091F8432007460C460AB101333360236879
:101FD000990642BF336802333360256815F0060561
:101FE00006D104F1190AE36832689B1AAB4226DC79
:101FF00094F843302268003B18BF012392062BD48B
:1020000004F1430241463846C84701301ED02368D8
:10201000226903F00603042B02BFE5683368ED1A5A
:10202000A3680CBF25EAE57500259342C4BF9B1A3F
:10203000ED1800261A34B5421AD1002008E0012319
:10204000524641463846C847013003D14FF0FF3071
:10205000BDE8F0870135C6E7E1185A1C302081F849
:102060004300224494F8451082F843100233C7E736
:102070000123224641463846C8470130E6D00136A2
:10208000D9E700002DE9FF470F7E0C9E782F91467F
:1020900080460C469A4601F1430207D8622F0AD8BF
:1020A000002F00F0DD80582F00F0C38004F14206BD
:1020B00084F842703AE0A7F16303152BF6D801A12A
:1020C00051F823F01D21000831210008AD2000083F
:1020D000AD200008AD200008AD2000083121000827
:1020E000AD200008AD200008AD200008AD2000089C
:1020F00047220008BF210008FF210008AD2000088A
:10210000AD20000869220008AD200008BF210008AA
:10211000AD200008AD2000080722000833681A1D12
:102120001B68326004F1420684F842300123A8E0C3
:1021300031682368081D30601E0601D50D6803E074
:102140005D06FBD5B1F900506168002D78DA2D20CD
:10215000002984F84300A1602DDA5E486D420A230D
:102160001646B5FBF3F103FB1157C75D06F8017D79
:102170002F46BB420D46F4D9082B0BD12368DF074D
:1021800008D5236961689942DEBF302306F8013C17
:1021900006F1FF36921B2261CDF800A04B4603AA40
:1021A00021464046FFF700FF01306FD14FF0FF306E
:1021B00004B0BDE8F08723F004032360CDE7216875
:1021C0003368080653F8045B02D4490648BFADB231
:1021D0006F2F4048336014BF0A230823002184F87E
:1021E00043106668A660002EBADB216821F0040166
:1021F0002160002DB4D1002EB2D11646BCE7236871
:1022000043F0200323603448782784F8457023681E
:1022100031681F0651F8045B02D45F0648BFADB2B7
:102220003160D90744BF43F0200323601DB1102360
:10223000D4E72848E9E7236823F020032360F6E782
:1022400024480A23CDE7336825686169181D30608A
:102250002E061B6801D5196002E06806FBD51980BF
:1022600000232361164697E733681A1D32601E6803
:10227000626800213046FDF7CBFF08B1801B60602B
:1022800063682361002384F8433085E7236932467D
:1022900049464046D047013088D023689B0714D474
:1022A000E068039B9842B8BF184681E70123324695
:1022B00049464046D04701303FF478AF0135E368E6
:1022C00003995B1AAB42F1DCEAE7002504F1190639
:1022D000F5E700BFD1250008E2250008F8B50E4655
:1022E0001446054618B1036A0BB9FEF7B3F8A369A3
:1022F000A360A3891A0701D5236943B9214628465B
:1023000000F02AF818B14FF0FF373846F8BD2368BF
:102310002269981A6369F6B28342374605DC214682
:102320002846FEF723FA0028EDD1A368013BA360FD
:1023300023685A1C22601E706269431C9A4204D0B2
:10234000A389DB07E1D50A2EDFD121462846FEF717
:102350000DFA0028D9D0D6E738B5294B05461868BC
:102360000C4618B1036A0BB9FEF774F8B4F90C30D7
:10237000190722D4DA0607D409222A6043F0400361
:10238000A3814FF0FF3033E0580712D5616B41B1A4
:1023900004F14403994202D02846FEF7B5FA00231F
:1023A0006363A38923F02403A3810023636023696B
:1023B0002360A38943F00803A38123694BB9A38950
:1023C00003F42073B3F5007F03D02146284600F0C4
:1023D0003FF8B4F90C3013F001020AD00022A260D9
:1023E00062695242A261226942B913F08000C5D1EC
:1023F00038BD990758BF6269A260F4E70020F7E78B
:102400000C00002070B50C46B1F90E10002996B0F2
:1024100015461E460DDAA38913F0800F4FF0000118
:1024200014BF40234FF48063002031602B6016B04E
:1024300070BD6A4600F048F80028ECDB019901F411
:102440007041A1F50053594259414FF48063EBE7C5
:102450008B89F7B59D0706460C4607D504F147035F
:10246000236023610123636103B0F0BD01AB6A46C1
:10247000FFF7C8FF009F054639463046FEF772F861
:1024800048B9B4F90C309A05EED423F0030343F0B5
:102490000203A381E2E7A389206043F08003A381C4
:1024A000019BC4E904075BB1B4F90E10304600F09B
:1024B0001DF828B1A38923F0030343F00103A3818E
:1024C000A3891D43A581CFE738B5074D00230446F6
:1024D000084611462B6000F021F8431C02D12B68FE
:1024E00003B1236038BD00BFCC01002038B5064DD4
:1024F0000023044608462B6000F018F8431C02D164
:102500002B6803B1236038BDCC010020024B582258
:102510001A604FF0FF307047CC010020024B582268
:102520001A604FF0FF307047CC010020024B582258
:102530001A600020704700BFCC010020024B5822D7
:102540001A604FF0FF307047CC010020024B582238
:102550001A604FF0FF307047CC010020044A054953
:102560001368002B08BF0B461844106018467047CC
:102570001C02002020020020F8B500BFF8BC08BCF7
:102580009E467047F8B500BFF8BC08BC9E46704731
:1025900054494D453A20256C752055505045523AC6
:1025A00020256C750D0A00000000000001020304E4
:1025B00000000000000000000102030406070809F3
:1025C000232D302B2000686C4C006566674546471C
:1025D000003031323334353637383941424344459F
:1025E000460030313233343536373839616263640E
:0425F000656600001C
:0825F4001CDCFF7F0100000068
:0425FC0019030008B7
:04260000F1020008DB
:1026040000000000030000008400002010000020EF
:102614000000000084000020EC0000205401002091
:1026240000000000000000000000000000000000A6
:102634000000000000000000000000000000000096
:102644000000000000000000000000000000000086
:102654000000000000000000000000000024F4005E
:0826640001000000100000005D
:04000005080019F1E5
:00000001FF
