:020000040800F2
:1000000000000220691D00085D0500085F0500086A
:100010006105000863050008650500080000000090
:10002000000000000000000000000000670500085C
:1000300069050008000000006B0500086D05000858
:10004000B91D0008B91D0008B91D0008B91D000838
:10005000B91D0008B91D0008B91D0008B91D000828
:10006000B91D0008B91D0008B91D0008B91D000818
:10007000B91D0008B91D0008B91D0008B91D000808
:10008000B91D0008B91D0008B91D0008B91D0008F8
:10009000B91D0008B91D0008B91D0008B91D0008E8
:1000A000B91D0008B91D0008B91D0008B91D0008D8
:1000B000B91D0008B91D0008B91D0008B91D0008C8
:1000C000B91D0008B91D0008B91D0008B91D0008B8
:1000D000B91D0008B91D000875050008B91D000804
:1000E000B91D0008B91D0008B91D0008B91D000898
:1000F000B91D0008B91D0008B91D0008B91D000888
:10010000B91D0008B91D0008B91D0008B91D000877
:10011000B91D0008B91D0008B91D0008B91D000867
:10012000B91D0008B91D0008B91D0008B91D000857
:10013000B91D00080000000000000000B91D000803
:10014000B91D0008B91D0008B91D0008B91D000837
:10015000B91D0008B91D0008B91D0008B91D000827
:10016000B91D0008B91D0008B91D0008B91D000817
:10017000B91D0008B91D0008B91D000800000000E5
:1001800000000000B91D0008000000000000000091
:10019000B91D00080000000000000000B91D0008A3
:1001A000000000000000000000000000B91D000871
:1001B000B91D0008B91D0008B91D0008B91D0008C7
:0401C000B91D00085D
:1001D00001F0FF01102A2BDB10F0070F08D010F8F8
:1001E000013B013A8B422DD010F0070F42B3F6D1FC
:1001F000F0B441EA012141EA014122F007047FF015
:1002000000070023F0E80256083C85EA010586EA6B
:10021000010685FA47F5A3FA87F586FA47F6A5FAA7
:1002200087F68EB9EED1F0BC01F0FF0102F00702B3
:1002300032B110F8013B013A83EA010313B1F8D15E
:100240000020704701387047002D06BF354603383F
:10025000073815F0010F07D1013015F4807F02BF78
:10026000013015F4C03F0130F0BC0138704700BFC9
:1002700053B94AB9002908BF00281CBF4FF0FF310D
:100280004FF0FF3000F00CB8ADF1080C6DE904CE72
:1002900002F05CFDDDF804E0DDE9022304B0704704
:1002A000704700BF0348044B834202D0034B03B1A5
:1002B0001847704768000020680000200000000018
:1002C0000548064B1B1AD90F01EBA301491002D0B8
:1002D000034B03B1184770476800002068000020F6
:1002E0000000000010B5064C237843B9FFF7DAFF91
:1002F000044B13B10448AFF300800123237010BDF9
:1003000068000020000000000830000808B5054B18
:100310001BB105490548AFF30080BDE80840FFF771
:10032000CFBF00BF000000006C00002008300008B4
:1003300082B0002100910B4B1A6B42F080021A63CD
:100340001A6B02F080020092009A01911A6B42F03F
:1003500001021A631B6B03F001030193019B02B0BE
:10036000704700BF0038024010B514464FF0FF330D
:1003700092B2024801F097FA204610BD8C0000208E
:1003800008B5044801F044FE01220349034801F086
:10039000D8FC08BD20300008840000208C0000201C
:1003A00072B6FEE700B583B00023009301930B48BB
:1003B0000B4B036000F0A8F958B900230093019398
:1003C00010226946054800F0B1F920B903B05DF884
:1003D00004FBFFF7E5FFFFF7E3FF00BF1C01002070
:1003E0000074004008B50A480A4B03604FF4E1333B
:1003F000436000238360C36003610C224261836118
:10040000C36101F020FA00B908BDFFF7C9FF00BFC2
:100410008C0000200044004000B58DB02422002153
:1004200003A801F0FDFD00230193029312484FF051
:1004300080420260436083604FF0FF32C26003611C
:1004400080238361032303930123059309930A23E4
:100450000B9303A900F0B0FF50B90023019302935E
:1004600001A9054801F076F820B90DB05DF804FB4C
:10047000FFF796FFFFF794FFD400002000B595B07A
:100480003422002107A801F0CBFD0023029303933F
:100490000493059306930093194A116C41F080511F
:1004A0001164126C02F080520092009A0193154977
:1004B0000A6822F4404242F480420A600A6802F468
:1004C00040420192019A0222079201220A921022CE
:1004D0000B920D9307A800F0C5FA68B90F23029399
:1004E0000021039104910591069102A800F050F9B2
:1004F00020B915B05DF804FBFFF752FFFFF750FF7E
:10050000003802400070004008B500F0BDFEFFF763
:10051000B5FFFFF70DFFFFF745FFFFF763FFFFF79D
:100520007BFF01220849094801F00BFC3C210848E7
:1005300000F0A9FF074801F06BFD4FF08043596AB6
:10054000054801F0FDFCF8E7840000208C00002045
:10055000D40000202C30000850300008FEE7FEE7F1
:10056000FEE7FEE7FEE770477047704708B500F00A
:10057000A5FE08BD08B5024801F086FA08BD00BF17
:100580008C00002082B0002100910B4B5A6C42F489
:1005900080425A645A6C02F480420092009A01919F
:1005A0001A6C42F080521A641B6C03F08053019362
:1005B000019B02B0704700BF0038024000B589B00F
:1005C0000023039304930593069307930268134B48
:1005D0009A4202D009B05DF804FB0021019103F5B5
:1005E000E2331A6C42F000521A641A6C02F00052A4
:1005F0000192019A02911A6B42F001021A631B6B7D
:1006000003F001030293029B20230393032304932B
:1006100003A9034800F048FCDCE700BF0074004079
:100620000000024000B589B00023039304930593B2
:10063000069307930368B3F1804F02D009B05DF8C9
:1006400004FB0021019103F50E331A6C42F0010204
:100650001A641A6C02F001020192019A02911A6B5B
:1006600042F001021A631B6B03F001030293029B29
:1006700003230393022304930123079303A902484E
:1006800000F012FCDAE700BF0000024010B588B0AD
:100690000023039304930593069307930268184B72
:1006A0009A4201D008B010BD0024019403F5FA333A
:1006B0001A6C42F400321A641A6C02F4003201928D
:1006C000019A02941A6B42F001021A631B6B03F049
:1006D00001030293029B0C2303930223049303233D
:1006E00006930723079303A9064800F0DDFB224683
:1006F0002146262000F07AFD262000F087FDD1E774
:10070000004400400000024070B110B50446037977
:1007100033B102232371002020610123237110BD16
:100720004371FFF74BFFF4E70120704748B384465D
:1007300049B34379012B28D010B54FF0010E80F852
:1007400005E0022303710468206802F0100240F6FD
:10075000FE73934020EA03000B6849680B43934003
:1007600003432360DCF800000368C02101FA02F2B1
:1007700023EA020303608CF804E000208CF80500F3
:1007800010BD012070470120704702207047000013
:10079000002800F09B8070B50D4604464F4B1B6847
:1007A00003F00F038B4208D2CBB24C4A137013688C
:1007B00003F00F038B4240F08B80236813F0020F8D
:1007C00017D013F0040F04D0454A936843F4E05364
:1007D0009360236813F0080F04D0414A936843F4F0
:1007E000604393603E4A936823F0F003A1680B4393
:1007F0009360236813F0010F32D06368012B21D07E
:100800009A1E012A25D9364A126812F0020F61D0C9
:1008100033498A6822F0030213438B6000F05AFDCB
:1008200006462F4B9B6803F00C036268B3EB820F04
:1008300016D000F04FFD801B41F288339842F0D96A
:10084000032042E0264A126812F4003FE0D1012062
:100850003BE0234A126812F0007FD9D1012034E036
:100860001E4B1B6803F00F03AB4207D9EAB21B4BC8
:100870001A701B6803F00F03AB422DD1236813F0ED
:10088000040F06D0164A936823F4E053E1680B4343
:100890009360236813F0080F07D0114A936823F47C
:1008A0006043216943EAC103936000F047F80C4BB1
:1008B0009B68C3F303130B4AD35CD8400A4B186000
:1008C0000A4B186800F0BAFC002070BD0120704788
:1008D0000120FAE70120F8E70120F6E7003C02409A
:1008E00000380240683000080800002004000020A2
:1008F000014B1868704700BF0800002008B5FFF7DB
:10090000F7FF044B9B68C3F38223034AD35CD840B0
:1009100008BD00BF003802406030000808B5FFF78E
:10092000E7FF044B9B68C3F34233034AD35CD840D0
:1009300008BD00BF003802406030000808B5464BD3
:100940009B6803F00C03082B07D00C2B45D0042B1D
:1009500001D0424808BD4248FCE73F4B5A6802F0CC
:100960003F025B6813F4800F12D03B4B5968C1F310
:1009700088113B480023A1FB0001FFF779FC364BAF
:100980005B68C3F3014301335B00B0FBF3F0E1E7C5
:10099000314B5868C0F388104FEA401CBCEB000C88
:1009A0006EEB0E0E4FEA8E1343EA9C634FEA8C11F6
:1009B000B1EB0C0163EB0E03DB0043EA5173C9009A
:1009C00011EB000C43F10003990200234FEA8C2045
:1009D00041EA9C51FFF74CFCD1E71F4B5A6802F0EB
:1009E0003F025B6813F4800F10D01B4B5968C1F3B2
:1009F00088111B480023A1FB0001FFF739FC164BAF
:100A00005B68C3F30273B0FBF3F0A3E7124B5868C3
:100A1000C0F388104FEA401CBCEB000C6EEB0E0ECE
:100A20004FEA8E1343EA9C634FEA8C11B1EB0C0141
:100A300063EB0E03DB0043EA5173C90011EB000CBA
:100A400043F10003990200234FEA8C2041EA9C51B4
:100A5000FFF70EFCD3E700BF003802400024F4008B
:100A600040787D01002800F0018270B582B0044614
:100A7000036813F0010F41D0994B9B6803F00C03FE
:100A8000042B32D0964B9B6803F00C03082B27D025
:100A9000934B9B6803F00C030C2B59D06368B3F5A0
:100AA000803F5BD0B3F5A02F5ED08D4B1A6822F447
:100AB00080321A601A6822F480221A606368002B60
:100AC0005CD000F007FC0546854B1B6813F4003F23
:100AD00014D100F0FFFB401B6428F5D90320CCE1C2
:100AE0007F4B5B6813F4800FD2D07D4B1B6813F4EF
:100AF000003F03D06368002B00F0BA81236813F035
:100B0000020F60D0764B9B6813F00C0F4AD0744BE9
:100B10009B6803F00C03082B3FD0714B9B6803F0DC
:100B20000C030C2B69D0E368002B75D06D4B0122B0
:100B30001A6000F0CFFB0546694B1B6813F0020FEB
:100B400061D100F0C7FB401B0228F5D9032094E1D6
:100B5000634B5B6813F4800FA0D0C6E7604A13684C
:100B600043F480331360A9E75D4B1A6842F4802296
:100B70001A601A6842F480321A609FE700F0AAFBFC
:100B80000546574B1B6813F4003FB7D000F0A2FB9B
:100B9000401B6428F5D903206FE1514B5B6813F4C7
:100BA000800FBAD14E4B1B6813F0020F03D0E368DD
:100BB000012B40F05F814A4A136823F0F803216952
:100BC00043EAC1031360236813F0080F49D0636937
:100BD000002B33D0434B0122C3F8802E00F07AFB68
:100BE00005463F4B5B6F13F0020F3AD100F072FBEA
:100BF000401B0228F5D903203FE1394B5B6813F411
:100C0000800F90D1CEE7364A136823F0F8032169AC
:100C100043EAC1031360D6E7324B00221A6000F0AA
:100C200059FB05462E4B1B6813F0020FCBD000F08A
:100C300051FB401B0228F5D903201EE1294B00225D
:100C4000C3F8802E00F046FB0546254B5B6F13F082
:100C5000020F06D000F03EFB401B0228F5D903200E
:100C60000BE1236813F0040F76D01D4B1B6C13F0BF
:100C7000805F33D100230193194B1A6C42F08052EC
:100C80001A641B6C03F080530193019B0125164BE2
:100C90001B6813F4807F29D0A368012B3AD0052B61
:100CA0003ED00F4B1A6F22F001021A671A6F22F022
:100CB00004021A67A368002B3CD000F00BFB064629
:100CC000074B1B6F13F0020F45D100F003FB801B95
:100CD00041F288339842F3D90320CEE00025D6E7CD
:100CE0000038024000004742007000406B4A136821
:100CF00043F48073136000F0EDFA0646674B1B68FF
:100D000013F4807FC8D100F0E5FA801B0228F5D9E2
:100D10000320B2E0624A136F43F001031367C9E78F
:100D20005F4B1A6F42F004021A671A6F42F0010219
:100D30001A67BFE700F0CEFA0646594B1B6F13F057
:100D4000020F08D000F0C6FA801B41F288339842A7
:100D5000F3D9032091E0EDB9A369002B00F08C805A
:100D60004F4A926802F00C02082A54D0022B17D086
:100D70004C4B00221A6600F0ADFA0446484B1B6843
:100D800013F0007F45D000F0A5FA001B0228F5D92A
:100D9000032072E0424A136C23F080531364DBE7B4
:100DA000404B00221A6600F095FA05463C4B1B6842
:100DB00013F0007F06D000F08DFA401B0228F5D911
:100DC00003205AE0E369226A1343626A43EA82130A
:100DD000A26A5208013A43EA0243E26A43EA026322
:100DE000226B43EA02732E4A53602E4B01221A668D
:100DF00000F070FA04462A4B1B6813F0007F06D1FE
:100E000000F068FA001B0228F5D9032035E0002025
:100E100033E0002031E0012B31D0214B5B6803F43B
:100E20008001E26991422CD103F03F02216A8A429B
:100E300029D1616A47F6C0721A40B2EB811F24D1F2
:100E400003F44031A26A5208013AB1EB024F1ED1BD
:100E500003F07062E16AB2EB016F1AD103F0E04374
:100E6000226BB3EB027F16D1002006E00120704711
:100E7000012002E0012000E0002002B070BD01204E
:100E8000FBE70120F9E70120F7E70120F5E7012062
:100E9000F3E70120F1E70120EFE700BF0070004019
:100EA000003802400000474200230F2B00F2E3808D
:100EB00070B582B065E085684FEA430E032404FAFA
:100EC0000EF425EA0405CC6804FA0EF42C43846081
:100ED000446824EA02044A68C2F300129A4022439A
:100EE00042605CE0DC08083450F8242003F0070579
:100EF000AD004FF00F0E0EFA05FE22EA0E0E0A6943
:100F0000AA4042EA0E0240F824205CE0062200E0FB
:100F1000002202FA0EF22A430234574D45F82420EB
:100F2000564A94686FEA0C0224EA0C054E6816F4DF
:100F3000801F01D04CEA0405504CA560E46802EA29
:100F400004054E6816F4001F01D04CEA04054B4C12
:100F5000E560646802EA04054E6816F4003F01D0BB
:100F60004CEA0405454C6560246822404D6815F440
:100F7000803F01D04CEA0402404C226001330F2B29
:100F800077D801229A400C6804EA020C32EA040481
:100F9000F4D14C6804F00304013C012C8BD94A685D
:100FA00002F00302032A09D0C4685D000322AA40AC
:100FB00024EA02048A68AA402243C2604A6802F016
:100FC0000302022A8ED004684FEA430E032202FA7B
:100FD0000EF224EA02044A6802F0030202FA0EF258
:100FE000224302604A6812F4403FC7D000220192B7
:100FF000234A546C44F480445464526C02F480429A
:101000000192019A9C08A51C1B4A52F8255003F036
:10101000030E4FEA8E0E0F2202FA0EF225EA0205A7
:10102000184A90423FF474AF02F58062904216D0A5
:1010300002F58062904214D002F58062904212D094
:1010400002F58062904210D002F5806290420ED08C
:1010500002F5806290423FF459AF072259E701221E
:1010600057E7022255E7032253E7042251E70522FE
:101070004FE702B070BD704700380140003C0140AE
:10108000003802400000024070B50446866D00F052
:1010900021F994F83530DBB2022B06D0802363654A
:1010A000002384F83430012070BD0546226813689F
:1010B00023F0160313602268536923F08003536101
:1010C000236CE3B12268136823F0080313602268DD
:1010D000136823F00103136023681B6813F0010FEA
:1010E00011D000F0F7F8431B052BF5D920236365D9
:1010F000032084F83500002384F83430D4E7A36C4F
:10110000002BDFD1E3E7E26D3F239340B36001237F
:1011100084F83530002084F83400C5E790F8353085
:10112000DBB2022B03D080234365012070470523E7
:1011300080F835300268136823F001031360002043
:1011400070470000002807DB00F01F024009012360
:101150009340024A42F82030704700BF00E100E0AF
:10116000002808DB0901C9B200F1604000F56140C8
:1011700080F80013704700F00F000901C9B2014B5D
:101180001954704714ED00E000B500F00700C0F1FD
:10119000070CBCF1040F28BF4FF0040C031D062BF5
:1011A0000FD9C31E4FF0FF3E0EFA0CF021EA0001EA
:1011B00099400EFA03FE22EA0E0241EA02005DF8AF
:1011C00004FB0023EEE70000074AD36823F4E06342
:1011D0001B041B0C000200F4E060034343F0BF63F8
:1011E00043F40033D360704700ED00E010B50446CF
:1011F000054BD868C0F30220FFF7C6FF0146204622
:10120000FFF7AEFF10BD00BF00ED00E008B5FFF72F
:1012100099FF08BD0138B0F1807F0BD24FF0E02379
:101220005861054AF02182F82310002098610722B6
:101230001A6170470120704700ED00E010B50446C8
:101240000E4B1A784FF47A73B3FBF2F30C4A106822
:10125000B0FBF3F0FFF7DEFF68B90F2C01D90120D6
:101260000AE0002221464FF0FF30FFF7BFFF054B99
:101270001C60002000E0012010BD00BF0000002025
:10128000080000200400002008B50B4B1A6842F447
:1012900000721A601A6842F480621A601A6842F496
:1012A00080721A600320FFF78FFF0F20FFF7C6FF41
:1012B000FFF768F9002008BD003C0240034A1168AE
:1012C000034B1B780B441360704700BF30010020B4
:1012D00000000020014B1868704700BF300100205B
:1012E0000368344A904212D0B0F1804F0FD0A2F57B
:1012F0007C4290420BD002F58062904207D002F50A
:101300008062904203D002F57842904203D123F0EC
:1013100070034A681343274A90422AD0B0F1804FA5
:1013200027D0A2F57C42904223D002F58062904201
:101330001FD002F5806290421BD002F578429042A5
:1013400017D002F57052904213D002F5806290429D
:101350000FD002F5806290420BD0A2F598329042F5
:1013600007D002F58062904203D002F5806290427D
:1013700003D123F44073CA68134323F080034A69FE
:10138000134303608B68C3620B688362094B984206
:1013900003D003F58063984201D10B6903630123F5
:1013A0004361036913F0010F03D0036923F00103C4
:1013B0000361704700000140002853D0F8B50D4686
:1013C000044690F83D30002B47D0022384F83D308E
:1013D0002268936823F4804323F007039360214637
:1013E00051F8040BFFF77CFF21688B688A690E6A4D
:1013F0002868184322F4407222F00302AB68AF69F8
:1014000043EA0723134323F47C4323F0FC03EA68F5
:10141000EF6942EA07221A432B6A1B032F6943EA4A
:101420000713134326F0AA066A686D6942EA05129B
:101430003243886021688B6123681A62012384F833
:10144000463084F83E3084F83F3084F8423084F8E7
:10145000433084F83D300020F8BD80F83C30FFF781
:10146000E1F8B2E70120704701F01F014FF0010CD5
:101470000CFA01FC036A23EA0C030362036A8A4044
:1014800013430362704738B5044690F83E00C0B27B
:1014900094F83F3094F84220D2B294F843C00D46FD
:1014A000B1B9012849D1012A48D1022384F83E303C
:1014B00084F842307DB3042D39D001220021206808
:1014C000FFF7D2FF012204212068FFF7CDFF27E0BC
:1014D000DBB25FFA8CFC042912D0012833D1012B36
:1014E0002CD1012A31D1BCF1010F30D1022384F873
:1014F0003E3084F83F3084F8423084F84330D9E7F6
:10150000012B1CD1BCF1010F1BD1022384F83F3009
:1015100084F84330CEE7012200212068FFF7A4FFC2
:101520002268136843F001031360002006E00122E3
:1015300004212068FFF798FFF2E7012038BD012061
:10154000FCE71846FAE70120F8E71846F6E71046E8
:10155000F4E7000090F83C20012A3DD010B4034687
:10156000012280F83C20022280F83D200268506869
:10157000946820F0700C086840EA0C0050601A680B
:10158000164882421AD0B2F1804F17D0A0F57C40A5
:10159000824213D000F5806082420FD000F5806057
:1015A00082420BD000F57840824207D000F570509F
:1015B000824203D0A0F59430824204D124F080040A
:1015C000496821439160012283F83D20002083F87F
:1015D0003C005DF8044B704702207047000001405A
:1015E000034AD2F8883043F47003C2F88830704759
:1015F00000ED00E0026802F10C0353E8003F23F421
:1016000090730C3242E800310029F3D1026802F1F4
:10161000140353E8003F23F00103143242E8003181
:101620000029F3D1036B012B05D0202380F8423031
:10163000002303637047026802F10C0353E8003F84
:1016400023F010030C3242E800310029F3D1ECE71B
:1016500090F84130DBB2212B01D002207047836823
:10166000B3F5805F17D0036A5A1C02621A780368C8
:101670005A60C38C9BB2013B9BB2C3844BB90268D6
:10168000D36823F08003D3600268D36843F040033B
:10169000D360002070470369002BE4D1036A1B88E4
:1016A0000268C3F308035360036A02330362E0E78E
:1016B00010B504460268136923F44053C1680B4314
:1016C0001361836802691A4343691A43C3691A4361
:1016D0000168CB6823F4164323F00C031343CB605B
:1016E0000268536923F4407381690B4353610368B3
:1016F000314A934206D002F58062934202D0FFF74E
:10170000FDF801E0FFF70AF9E369B3F5004F29D0CE
:101710000021031849411B1841F10001C90041EAA9
:101720005371DB00181863684FEA83024FEA937322
:1017300041F10001FEF79CFD204AA2FB003149095E
:10174000642303FB11031B013233A2FB03235B0958
:1017500003F0F00202EB011203F00F0321681344BF
:101760008B6010BD0023021843EB0301121841F1F6
:101770000001C90041EA5271D200101841F1000184
:10178000626892185B41FEF773FD0C4AA2FB0031C0
:101790004909642303FB1103DB003233A2FB03235B
:1017A0005B095A0002F4F87202EB011203F007031E
:1017B000216813448B60D4E7001001401F85EB5172
:1017C0002DE9F04383B005460E4617469946DDF8ED
:1017D00028802B681C6836EA04040CBF012400240E
:1017E000BC4228D1B8F1FF3FF3D0FFF773FDA0EB67
:1017F0000900404523D8B8F1000F22D02B68DA68E1
:1018000012F0040FE5D0802EE3D0402EE1D01A680C
:1018100012F0080FDDD0002401941A6801925B6871
:101820000193019B2846FFF7E5FE08236B6485F8CA
:101830004040012000E0002003B0BDE8F083032019
:10184000FAE70320F8E760B310B5044690F841309A
:1018500013B3242384F841302268D36823F400535F
:10186000D3602046FFF724FF2268136923F49043D6
:1018700013612268536923F02A0353612268D368F5
:1018800043F40053D36000206064202384F8413087
:1018900084F84230606310BD80F84030FEF7F6FEF9
:1018A000D7E7012070472DE9F04182B01E4690F83D
:1018B0004130DBB2202B56D104460D46904600291C
:1018C00055D00AB901204FE000234364212380F85A
:1018D0004130FFF7FFFC0746A4F82480A4F82680D7
:1018E000A368B3F5805F02D04FF0000814E02369CD
:1018F0002BB34FF000080FE0202384F84130032081
:1019000032E038F8023B2268C3F308035360E28CEC
:1019100092B2013A92B2E284E38C9BB293B1009608
:101920003B46002280212046FFF74AFF0028E3D1F2
:10193000002DE6D015F8012B23685A60E7E7A8468A
:101940000025E9E700963B46002240212046FFF7AC
:1019500037FF18B9202384F8413005E0202384F8AC
:101960004130032000E0022002B0BDE8F0810120F8
:10197000FAE7704708B50168CA6822F04002CA60F9
:10198000202280F84120FFF7F4FF002008BD7047B7
:1019900008B5806B0023C385C384FFF7F8FF08BD3B
:1019A000704790F84230DBB2222B69D18368B3F5DF
:1019B000805F4FD0826AB3F5805F04D0002B56D190
:1019C0000369002B53D103685B681370836A01338A
:1019D0008362C38D9BB2013B9BB2C385002B51D167
:1019E00000B583B00268D36823F02003D360026897
:1019F000D36823F48073D3600268536923F0010332
:101A00005361202380F8423000234363036B012B92
:101A100033D100230363026802F10C0353E8003F53
:101A200023F010030C3242E800310029F3D103689F
:101A30001A6812F0100F06D0002201921A68019263
:101A40005B680193019B818DFFF7AAFF002003B023
:101A50005DF804FB0269002AACD1826A03685B6806
:101A6000C3F308031380836A02338362B1E7036818
:101A70005B6803F07F031370A8E7FEF781FCE5E7DE
:101A8000022070470020704710B582B004460268FB
:101A90001368D068516913F00F0F09D113F0200FAC
:101AA0000CD010F0200F09D02046FFF77AFF16E087
:101AB00011F0010115D110F4907F12D1216B012991
:101AC00079D013F0800F03D010F0800F40F0148114
:101AD00013F0400F03D010F0400F40F0118102B01E
:101AE00010BD13F0010F06D010F4807F03D0626C9C
:101AF00042F00102626413F0040F04D019B1626C69
:101B000042F00202626413F0020F04D019B1626C59
:101B100042F00402626413F0080F07D010F0200FA7
:101B200000D119B1626C42F008026264626C002A52
:101B3000D5D013F0200F02D010F0200F29D1236848
:101B40005B6903F04003626C12F0080F00D163B3CD
:101B50002046FFF74FFD23685B6913F0400F20D04C
:101B6000226802F1140353E8003F23F040031432CB
:101B700042E800310029F3D1E36B73B1624A1A6580
:101B8000E06BFFF7CBFA0028A9D0E06B036D984714
:101B9000A5E72046FFF705FFD1E72046FFF7F7FE50
:101BA0009DE72046FFF7F3FE99E72046FFF7EFFE9B
:101BB0000023636493E713F0100F82D010F0100F2E
:101BC0003FF47FAF0023019313680193536801939F
:101BD000019B536913F0400F52D0E26B13685B68AE
:101BE0009BB2002B3FF47BAFA18D99427FF677AF7C
:101BF000E385D369B3F5807F37D0226802F10C0307
:101C000053E8003F23F480730C3242E8003100298E
:101C1000F3D1226802F1140353E8003F23F00103DB
:101C2000143242E800310029F3D1226802F1140392
:101C300053E8003F23F04003143242E8003100290A
:101C4000F3D1202384F8423000232363226802F179
:101C50000C0353E8003F23F010030C3242E800313C
:101C60000029F3D1E06BFFF70FFA02236363A18D24
:101C7000E38D9BB2C91A89B22046FFF791FE2EE789
:101C8000A18DE38D9BB2C91A89B2E38D9BB2002B63
:101C90003FF425AF00293FF422AF226802F10C0384
:101CA00053E8003F23F490730C3242E800300028E0
:101CB000F3D1226802F1140353E8003F23F001033B
:101CC000143242E800300028F3D1202384F8423057
:101CD00000232363226802F10C0353E8003F23F042
:101CE00010030C3242E800300028F3D10223636372
:101CF0002046FFF755FEF2E62046FFF7A9FCEEE688
:101D00002046FFF737FEEAE69119000881628285D6
:101D1000C28500234364222380F84230036923B143
:101D20000268D36843F48073D3600268536943F058
:101D3000010353610268D36843F02003D36000209D
:101D4000704708B590F84230DBB2202B08D149B17A
:101D50000AB9012008BD00230363FFF7D7FFF9E7A5
:101D60000220F7E70120F5E7DFF834D0FFF738FC71
:101D70000C480D490D4A002302E0D458C4500433E6
:101D8000C4188C42F9D30A4A0A4C002301E01360BC
:101D90000432A242FBD300F04BF9FEF7B5FB7047CB
:101DA000000002200000002068000020BC30000875
:101DB0006800002084020020FEE70000002310B528
:101DC0000446C0E90033C0E904338360818143667F
:101DD000C2818361194608225C3000F021F90D4B65
:101DE00063620D4BA3620D4BE3620D4B23630D4BFE
:101DF00024629C4206D003F16802944202D0D033A0
:101E00009C4205D104F15800BDE8104000F034B9FF
:101E100010BD00BFE92800080B290008432900086D
:101E20006729000834010020024A0349034800F0F2
:101E300069B800BF0C000020812800081C000020A9
:101E400041680C4B994210B5044601D000F018FDD2
:101E5000A168094B994202D0204600F011FDE168CB
:101E6000064B994204D02046BDE8104000F008BD62
:101E700010BD00BF340100209C010020040200209E
:101E800010B50B4B0B4C0C4A1A6020460022042163
:101E9000FFF794FF04F1680001220921FFF78EFF8C
:101EA00004F1D0000222BDE810401221FFF786BFE6
:101EB0006C02002034010020291E0008014800F0B7
:101EC000DCB800BF71020020014800F0D7B800BFA5
:101ED0007102002010B50446FFF7F0FF236A1BB122
:101EE000BDE81040FFF7F0BF044B2362044B1B68B2
:101EF000002BF5D1FFF7C4FFF2E700BF411E000839
:101F00006C0200202DE9F843074688461446002657
:101F1000D4E90195B9F1010905D52468002CF7D160
:101F20003046BDE8F883AB89012B07D9B5F90E30EF
:101F3000013303D029463846C04706436835E9E7F0
:101F40000FB407B5064904AB086853F8042B816841
:101F5000019300F0BDF803B05DF804EB04B07047E6
:101F600018000020036A70B5846805460E460BB958
:101F7000FFF7B0FF636EDB0705D4A389980502D491
:101F8000A06D00F07AF8A389190702D52369002B08
:101F900035D12146284600F029FD80B34FF0FF35AA
:101FA000636EDA0705D4A3899B0502D4A06D00F007
:101FB00065F8284670BD002B15DB23685A1C22608B
:101FC0001970A36816F8011F013BA3600029F2D124
:101FD000002B16DA22460A21284600F0C8FC013000
:101FE000DCD00A25DCE7A2699A4201DC0A29E4D1A7
:101FF0002246284600F0BBFC0130E2D1CEE7013E8C
:10200000DFE723685A1C22600A221A70E9E7000001
:10201000024B01461868FFF7A5BF00BF180000205B
:1020200002440346934200D1704703F8011BF9E7CD
:1020300070B50D4D0D4C641BA4100026A64209D1AD
:102040000B4D0C4C00F0E0FF641BA4100026A642D0
:1020500005D170BD55F8043B98470136EEE755F8B9
:10206000043B98470136F2E7B4300008B43000086A
:10207000B4300008B8300008704770477047936864
:10208000013B002B10B4936008DA9469A34201DB92
:102090000A2903D15DF8044B00F069BC1368581C91
:1020A0001060197008465DF8044B7047F8B5064695
:1020B0000F461446D518AC4201D1002007E014F8B1
:1020C000011B3A463046FFF7DAFF431CF3D1F8BD57
:1020D0002DE9F04F0D469DB014469846064618B1BE
:1020E000036A0BB9FFF7F6FE6B6ED90705D4AB890F
:1020F0009A0502D4A86DFFF7C0FFAB891B0701D575
:102100002B699BB92946304600F070FC70B16B6EAC
:10211000DC0704D54FF0FF301DB0BDE8F08FAB8970
:102120009805F7D4A86DFFF7A9FFF3E700230993FB
:1021300020238DF82930CDF80C803023DFF8AC81D6
:102140008DF82A304FF0010923469A4613F8012BE7
:102150000AB1252AF9D1BAEB040B0BD05B46224613
:1021600029463046FFF7A2FF013000F0A780099A08
:102170005A4409929AF80030002B00F09F80002307
:102180004FF0FF32CDE905230AF1010A04930793CA
:102190008DF853301A935446052214F8011B534806
:1021A000FEF716F8049AD8B9D10644BF20238DF85B
:1021B0005330130744BF2B238DF853309AF8003067
:1021C0002A2B15D0079A544600204FF00A0C2146BE
:1021D00011F8013B303B092B4BD9B0B1079214E009
:1021E000A0EB080309FA03F313430493A246D2E7D2
:1021F000039B191D1B680391002BBBBF5B4242F080
:10220000020207930793B8BF049223782E2B0AD1BA
:1022100063782A2B32D1039B1A1D1B68039243EA71
:10222000E37302340593DFF8D4A0217803225046EB
:10223000FDF7CEFF38B1049BA0EB0A00402282409C
:1022400013430134049314F8011B29488DF8281016
:102250000622FDF7BDFF00283FD0264B1BBB039B8A
:10226000073323F0070308330393099B3B44099387
:102270006AE70CFB02320C460120A8E70023013478
:10228000059319464FF00A0C204610F8012B303AFE
:10229000092A03D9002BC6D00591C4E70CFB012104
:1022A00004460123F0E703AB00932A46124B04A92E
:1022B0003046AFF300800746781CD6D16B6ED90745
:1022C00005D4AB899A0502D4A86DFFF7D7FEAB8978
:1022D0005B063FF51FAF09981EE703AB00932A4644
:1022E000054B04A9304600F01BF9E4E778300008FC
:1022F0008230000800000000AD2000087E30000899
:1023000070B50F4E0C463168054611B900F07CFCE3
:1023100030602146284600F077FC431C03D14FF083
:10232000FF34204670BDC41C24F00304A042F8D042
:10233000211A284600F068FC0130F2D1EFE700BF17
:10234000740200202DE9F843CD1C25F00305083563
:102350000C2D38BF0C25002D064601DBA94204D9FF
:102360000C2333600020BDE8F883DFF8D48000F050
:10237000AFFAD8F800301C4644BB29463046FFF778
:10238000BFFF431C044658D1D8F800402746002F11
:1023900043D1002C4BD023683946304604EB030967
:1023A00000F032FC814542D121686D1A2946304641
:1023B000FFF7A6FF01303AD023682B442360D8F8FA
:1023C00000305A6862BBC8F800700FE02268521BE8
:1023D00020D40B2A17D96119A342256018BF596070
:1023E000636808BFC8F8001062514B60304600F0C7
:1023F00075FA04F10B00231D20F00700C21A1CBF60
:102400001B1AA350AFE76268A3420CBFC8F80020B4
:102410005A60EBE723466468AEE73C467F68B6E760
:102420001A465B68A342FBD100235360DEE70C230E
:102430003360304600F052FA94E70560D6E700BFFB
:10244000780200202DE9F047164698468A680B6905
:10245000DDF820909342B8BF1346336091F84320D3
:1024600007460C460AB1013333602368990642BF20
:10247000336802333360256815F0060506D104F190
:10248000190AE36832689B1AAB4226DC94F84330A1
:102490002268003B18BF012392062BD404F14302AB
:1024A00041463846C84701301ED02368226903F0F0
:1024B0000603042B02BFE5683368ED1AA3680CBF5E
:1024C00025EAE57500259342C4BF9B1AED18002646
:1024D0001A34B5421AD1002008E001235246414681
:1024E0003846C847013003D14FF0FF30BDE8F087D0
:1024F0000135C6E7E1185A1C302081F84300224418
:1025000094F8451082F843100233C7E701232246AE
:1025100041463846C8470130E6D00136D9E70000C9
:102520002DE9FF470F7E0C9E782F914680460C4682
:102530009A4601F1430207D8622F0AD8002F00F013
:10254000DD80582F00F0C38004F1420684F8427009
:102550003AE0A7F16303152BF6D801A151F823F057
:10256000B9250008CD25000849250008492500089F
:102570004925000849250008CD25000849250008FF
:10258000492500084925000849250008E3260008D8
:102590005B2600089B2600084925000849250008FD
:1025A00005270008492500085B2600084925000882
:1025B00049250008A326000833681A1D1B683260ED
:1025C00004F1420684F842300123A8E03168236810
:1025D000081D30601E0601D50D6803E05D06FBD5C1
:1025E000B1F900506168002D78DA2D20002984F8B7
:1025F0004300A1602DDA5E486D420A231646B5FB02
:10260000F3F103FB1157C75D06F8017D2F46BB426E
:102610000D46F4D9082B0BD12368DF0708D52369B1
:1026200061689942DEBF302306F8013C06F1FF36AF
:10263000921B2261CDF800A04B4603AA21464046DA
:10264000FFF700FF01306FD14FF0FF3004B0BDE85D
:10265000F08723F004032360CDE721683368080680
:1026600053F8045B02D4490648BFADB26F2F40480F
:10267000336014BF0A230823002184F843106668DE
:10268000A660002EBADB216821F004012160002D34
:10269000B4D1002EB2D11646BCE7236843F0200324
:1026A00023603448782784F84570236831681F0612
:1026B00051F8045B02D45F0648BFADB23160D90760
:1026C00044BF43F0200323601DB11023D4E7284802
:1026D000E9E7236823F020032360F6E724480A2370
:1026E000CDE7336825686169181D30602E061B68C8
:1026F00001D5196002E06806FBD51980002323612B
:10270000164697E733681A1D32601E68626800211A
:102710003046FDF75DFD08B1801B60606368236192
:10272000002384F8433085E7236932464946404612
:10273000D047013088D023689B0714D4E068039BFE
:102740009842B8BF184681E70123324649464046C1
:10275000D04701303FF478AF0135E36803995B1A45
:10276000AB42F1DCEAE7002504F11906F5E700BF0A
:10277000893000089A300008B1F90C202DE9F041A9
:10278000170705460C4656D44B68002B02DC0B6C31
:10279000002B3DDDE66A002E3AD0002312F4805271
:1027A0002F68216A2B6025D0626DA389580705D553
:1027B0006368D21A636B0BB1236CD21A216AE66A82
:1027C00000232846B047411C24D0002363602369BE
:1027D0002360A389DA0400D56065616B2F60B9B10D
:1027E00004F14403994202D0284600F02FFA002356
:1027F00063630DE001232846B047461C0246D4D14E
:102800002B68002BD1D01D2B01D0162B2BD12F6084
:1028100000202FE02A68B4F90C3042B11D2A01D003
:10282000162A22D10023636023692360D5E7626002
:1028300022692260CEE70F69002FE9D093070E6866
:1028400008BF4B690F6018BF0023A6EB07088B6019
:10285000B8F1000FDCDD216AA66A43463A462846F5
:10286000B047002808DCB4F90C3043F04003A381E2
:102870004FF0FF30BDE8F0810744A8EB0008E7E720
:1028800038B50B6905460C4613B90025284638BDF6
:1028900018B1036A0BB9FFF71DFBB4F90C30002B1C
:1028A000F3D0626ED00704D4990502D4A06DFFF76F
:1028B000E4FB28462146FFF75FFF636EDA07054613
:1028C000E4D4A3899B05E1D4A06DFFF7D7FBDDE736
:1028D0000148FFF7D2BB00BF700200200148FFF79C
:1028E000CDBB00BF7002002010B50C46B1F90E1030
:1028F00000F078F90028ABBF636DA3891B1823F49F
:102900008053ACBF6365A38110BD2DE9F0411F4624
:102910008B89DB0505460C46164605D5B1F90E1028
:102920000223002200F04CF9A389B4F90E1023F41D
:102930008053A38132463B462846BDE8F04100F073
:1029400073B910B50C46B1F90E1000F039F9431CFB
:10295000A38915BF606523F4805343F48053A3819A
:1029600018BFA38110BDB1F90E1000F0F7B8F8B58B
:102970000E461446054618B1036A0BB9FFF7AAFACA
:10298000A369A360A3891A0701D5236943B9214626
:10299000284600F02BF818B14FF0FF373846F8BD45
:1029A00023682269981A6369F6B28342374605DCC8
:1029B00021462846FFF764FF0028EDD1A368013BBC
:1029C000A36023685A1C22601E706269431C9A42ED
:1029D00004D0A389DB07E1D50A2EDFD121462846A2
:1029E000FFF74EFF0028D9D0D6E7000038B5294BB5
:1029F000054618680C4618B1036A0BB9FFF76AFA66
:102A0000B4F90C30190722D4DA0607D409222A6057
:102A100043F04003A3814FF0FF3033E0580712D555
:102A2000616B41B104F14403994202D0284600F0A1
:102A30000DF900236363A38923F02403A3810023FA
:102A4000636023692360A38943F00803A38123699A
:102A50004BB9A38903F42073B3F5007F03D021465B
:102A6000284600F03FF8B4F90C3013F001020AD008
:102A70000022A26062695242A261226942B913F047
:102A80008000C5D138BD990758BF6269A260F4E7DC
:102A90000020F7E71800002070B50C46B1F90E10C1
:102AA000002996B015461E460DDAA38913F0800F53
:102AB0004FF0000114BF40234FF4806300203160C9
:102AC0002B6016B070BD6A4600F058F80028ECDBA9
:102AD000019901F47041A1F50053594259414FF455
:102AE0008063EBE78B89F7B59D0706460C4607D553
:102AF00004F14703236023610123636103B0F0BD48
:102B000001AB6A46FFF7C8FF009F054639463046CD
:102B1000FFF718FC48B9B4F90C309A05EED423F04D
:102B2000030343F00203A381E2E7A389206043F09B
:102B30008003A381019BC4E904075BB1B4F90E10C3
:102B4000304600F02DF828B1A38923F0030343F0A9
:102B50000103A381A3891D43A581CFE738B5064DA5
:102B60000023044608462B6000F0BAF8431C02D14B
:102B70002B6803B1236038BD7C02002038B5074DB7
:102B800000230446084611462B6000F0B1F8431CB0
:102B900002D12B6803B1236038BD00BF7C02002046
:102BA00038B5064D0023044608462B6000F0A8F80F
:102BB000431C02D12B6803B1236038BD7C02002086
:102BC00038B5074D04460846114600222A601A46C9
:102BD00000F09EF8431C02D12B6803B1236038BD7E
:102BE0007C02002038B5074D0446084611460022F5
:102BF0002A601A4600F094F8431C02D12B6803B1F6
:102C0000236038BD7C02002038B5064D0023044601
:102C100008462B6000F08CF8431C02D12B6803B1EE
:102C2000236038BD7C02002038B5074D04460846B5
:102C3000114600222A601A46FDF796FB431C02D17A
:102C40002B6803B1236038BD7C02002038B50546EF
:102C5000002941D051F8043C0C1F002BB8BFE418E8
:102C6000FFF736FE1D4A136833B9636014602846C7
:102C7000BDE83840FFF732BEA34208D920682118CA
:102C80008B4201BF19685B6809182160EDE71A469D
:102C90005B680BB1A342FAD911685018A0420BD15E
:102CA00020680144501883421160E0D118685B68C5
:102CB000536008441060DAE702D90C232B60D6E792
:102CC000206821188B4204BF19685B68636004BFE9
:102CD000091821605460CAE738BD00BF780200209F
:102CE000024B58221A604FF0FF3070477C020020E0
:102CF000024B58221A604FF0FF3070477C020020D0
:102D0000024B58221A600020704700BF7C0200204E
:102D1000024B58221A604FF0FF3070477C020020AF
:102D2000024B58221A604FF0FF3070477C0200209F
:102D3000044A05491368002B08BF0B46184410606D
:102D40001846704780020020880200202DE9F047D5
:102D5000089D0C46002B4ED194468C458646B2FA0F
:102D600082F262D94AB1C2F12003914020FA03F302
:102D70000CFA02FC194300FA02FE4FEA1C471FFA44
:102D80008CF6B1FBF7F44FEA1E4307FB141143EA3C
:102D9000014304FB06F199420AD91CEB030304F139
:102DA000FF3080F01281994240F20F81023C63446F
:102DB000591A1FFA8EF3B1FBF7F007FB101143EA23
:102DC000014300FB06F69E420AD91CEB030300F107
:102DD000FF3180F0FC809E4240F2F980634402386B
:102DE0009B1B40EA044000211DB1D3400022C5E9ED
:102DF0000032BDE8F0878B4205D90DB1C5E900016D
:102E000000210846F5E7B3FA83F1002946D1A34231
:102E100002D39042C0F0F080861A64EB03030120D5
:102E2000002DE6D0C5E90063E3E7002A40F090807A
:102E3000A1EB0C044FEA1C481FFA8CF70121B4FBEC
:102E4000F8F64FEA1E4308FB164443EA044307FB27
:102E500006F0984208D91CEB030306F1FF3402D2B6
:102E6000984200F2CD8026461C1A1FFA8EF3B4FB5E
:102E7000F8F008FB104443EA044300FB07F79F42C5
:102E800008D91CEB030300F1FF3402D29F4200F289
:102E9000B0802046DB1B40EA0640A5E7C1F12006D2
:102EA0008B4022FA06F71F4320FA06FC04FA01F3CE
:102EB00043EA0C03F44000FA01F8380C4FEA1349D6
:102EC000B4FBF0FE1FFA87FC00FB1E4449EA0444F1
:102ED0000EFB0CF9A14502FA01F20AD93C190EF1D8
:102EE000FF3A80F08480A14540F28180AEF1020E6D
:102EF0003C44A4EB09041FFA83F9B4FBF0F300FB94
:102F0000134449EA044403FB0CFCA44507D93C19CB
:102F100003F1FF3067D2A44565D9023B3C4443EA44
:102F20000E40A0FB0293A4EB0C049C42CE469C46B0
:102F300051D34ED055B1B8EB0E0364EB0C0404FA38
:102F400006F6CB401E43CC40C5E90064002150E7A3
:102F5000C2F1200320FA03F10CFA02FC24FA03F375
:102F600094400C434FEA1C4800FA02FE1FFA8CF70B
:102F7000B3FBF8F008FB1031230C43EA014300FBDC
:102F800007F1994208D91CEB030300F1FF362CD25C
:102F900099422AD9023863445B1AA4B2B3FBF8F110
:102FA00008FB113344EA034401FB07F3A34208D9A9
:102FB0001CEB040401F1FF3613D2A34211D90239EC
:102FC0006444E41A41EA004139E70446F0E6084661
:102FD00006E7C845AED2B9EB020E63EB070C013829
:102FE000A8E73146EDE7034699E73046D4E7D646F1
:102FF0007FE7634402384DE70646234608460FE75D
:10300000023E634430E700BFF8B500BFF8BC08BC1F
:103010009E467047F8B500BFF8BC08BC9E46704796
:103020007265636965766564200D00002D2D2D2D78
:103030002D2D2D2D2D2053544D33322053544152DC
:10304000542D2D2D2D2D2D2D2D2D2D2D2D200D00E3
:10305000656E636F6465723A2025640D0A00000096
:103060000000000001020304000000000000000056
:103070000102030406070809232D302B2000686C89
:103080004C0065666745464700303132333435368B
:1030900037383941424344454600303132333435C4
:0C30A000363738396162636465660000F1
:0830AC0024D1FF7F01000000A8
:0430B4000D03000800
:0430B800E502000825
:1030BC0001000000100000000024F40000000000DB
:1030CC0003000000340100201C0000200000000060
:1030DC00340100209C0100200402002000000000AC
:1030EC0000000000000000000000000000000000D4
:1030FC0000000000000000000000000000000000C4
:10310C0000000000000000000000000000000000B3
:08311C000000000000000000AB
:0400000508001D6969
:00000001FF
