:020000040800F2
:1000000000000220451E00089D0B00089F0B000801
:10001000A10B0008A30B0008A50B000800000000BE
:10002000000000000000000000000000A70B000816
:10003000A90B000800000000AB0B0008AD0B000886
:10004000951E0008951E0008951E0008951E0008C4
:10005000951E0008951E0008951E0008951E0008B4
:10006000951E0008951E0008951E0008951E0008A4
:10007000951E0008951E0008951E0008951E000894
:10008000951E0008951E0008951E0008951E000884
:10009000951E0008951E0008951E0008951E000874
:1000A000951E0008951E0008951E0008951E000864
:1000B000951E0008951E0008951E0008951E000854
:1000C000951E0008951E0008951E0008951E000844
:1000D000951E0008951E0008B50B0008951E000827
:1000E000951E0008951E0008951E0008951E000824
:1000F000951E0008951E0008951E0008951E000814
:10010000951E0008951E0008F53C0008951E000885
:10011000951E0008951E0008951E0008951E0008F3
:10012000951E0008951E0008951E0008951E0008E3
:10013000951E00080000000000000000951E000849
:10014000951E0008951E0008951E0008951E0008C3
:10015000951E0008951E0008951E0008951E0008B3
:10016000951E0008951E0008951E0008951E0008A3
:10017000951E0008951E0008951E0008000000004E
:1001800000000000951E00080000000000000000B4
:10019000951E00080000000000000000951E0008E9
:1001A000000000000000000000000000951E000894
:1001B000951E0008951E0008951E0008951E000853
:0401C000951E000880
:1001D0007BB972B90029BEBF00204FF0004106E094
:1001E00008BF00281CBF6FF000414FF0FF3000F047
:1001F00057B8ADF1080C6DE904CE002909DB002BDE
:100200001ADB03F089FEDDF804E0DDE9022304B027
:100210007047404261EB4101002B1BDB03F07CFE89
:10022000DDF804E0DDE9022304B0404261EB410166
:10023000524263EB43037047524263EB430303F0C4
:100240006BFEDDF804E0DDE9022304B0404261EB1F
:1002500041017047524263EB430303F05DFEDDF85A
:1002600004E0DDE9022304B0524263EB430370472C
:1002700053B94AB9002908BF00281CBF4FF0FF310D
:100280004FF0FF3000F00CB8ADF1080C6DE904CE72
:1002900003F042FEDDF804E0DDE9022304B070471C
:1002A000704700BF000000000000000000000000D8
:1002B00001F0FF01102A2BDB10F0070F08D010F817
:1002C000013B013A8B422DD010F0070F42B3F6D11B
:1002D000F0B441EA012141EA014122F007047FF034
:1002E00000070023F0E80256083C85EA010586EA8B
:1002F000010685FA47F5A3FA87F586FA47F6A5FAC7
:1003000087F68EB9EED1F0BC01F0FF0102F00702D2
:1003100032B110F8013B013A83EA010313B1F8D17D
:100320000020704701387047002D06BF354603385E
:10033000073815F0010F07D1013015F4807F02BF97
:10034000013015F4C03F0130F0BC0138704700BFE8
:10035000034613F8012B002AFBD1181A0138704705
:1003600010F8012B11F8013B012A28BF9A42F7D05F
:10037000D01A70470348044B834202D0034B03B1A9
:10038000184770478C0000208C00002000000000FF
:100390000548064B1B1AD90F01EBA301491002D0E7
:1003A000034B03B1184770478C0000208C000020DD
:1003B0000000000010B5064C237843B9FFF7DAFFC0
:1003C000044B13B10448AFF300800123237010BD28
:1003D00090000020000000007453000808B5054B91
:1003E0001BB105490548AFF30080BDE80840FFF7A1
:1003F000CFBF00BF0000000094000020745300082D
:1004000008B5064B044613B1002104F019FD044B56
:100410001B6803B19847204604F0AAFF414E00082C
:10042000E4010020002310B50446C0E90033C0E910
:100430000433836081814366C28183611946082247
:100440005C3000F0B1F80D4B63620D4BA3620D4BB5
:10045000E3620D4B23630D4B24629C4206D003F1F3
:100460006802944202D0D0339C4205D104F1580076
:10047000BDE8104000F0C4B810BD00BFBD080008C2
:10048000DF080008170900083B090008AC0000203D
:10049000024A0349034800F069B800BF0000002089
:1004A000550800081000002041680C4B994210B517
:1004B000044601D000F0CEF9A168094B994202D060
:1004C000204600F0C7F9E168064B994204D0204667
:1004D000BDE8104000F0BEB910BD00BFAC00002068
:1004E000140100207C01002010B50B4B0B4C0C4A72
:1004F0001A60204600220421FFF794FF04F16800EF
:1005000001220921FFF78EFF04F1D0000222BDE88D
:1005100010401221FFF786BFE4010020AC0000204C
:1005200091040008014800F06CB800BFEA01002007
:10053000014800F067B800BFEA01002010B504468A
:10054000FFF7F0FF236A1BB1BDE81040FFF7F0BFD3
:10055000044B2362044B1B68002BF5D1FFF7C4FF4B
:10056000F2E700BFA9040008E40100202DE9F843E8
:100570000746884614460026D4E90195B9F10109D9
:1005800005D52468002CF7D13046BDE8F883AB8947
:10059000012B07D9B5F90E30013303D0294638466F
:1005A000C04706436835E9E702440346934200D159
:1005B000704703F8011BF9E770B50D4D0D4C641B36
:1005C000A4100026A64209D10B4D0C4C04F0D2FE1B
:1005D000641BA4100026A64205D170BD55F8043B4B
:1005E00098470136EEE755F8043B98470136F2E7A5
:1005F000585E0008585E0008585E00085C5E0008FF
:10060000704770477047000070B50F4E0C46316858
:10061000054611B900F0CAF930602146284600F0BD
:10062000C5F9431C03D14FF0FF34204670BDC41CF4
:1006300024F00304A042F8D0211A284600F0B6F9AD
:100640000130F2D1EFE700BFEC0100202DE9F843C3
:10065000CD1C25F0030508350C2D38BF0C25002DC9
:10066000064601DBA94204D90C2333600020BDE813
:10067000F883DFF8D48000F015F9D8F800301C4674
:1006800044BB29463046FFF7BFFF431C044658D100
:10069000D8F800402746002F43D1002C4BD02368C8
:1006A0003946304604EB030900F080F9814542D118
:1006B00021686D1A29463046FFF7A6FF01303AD06F
:1006C00023682B442360D8F800305A6862BBC8F80E
:1006D00000700FE02268521B20D40B2A17D9611931
:1006E000A342256018BF5960636808BFC8F80010AE
:1006F00062514B60304600F0DBF804F10B00231D23
:1007000020F00700C21A1CBF1B1AA350AFE7626893
:10071000A3420CBFC8F800205A60EBE72346646888
:10072000AEE73C467F68B6E71A465B68A342FBD15A
:1007300000235360DEE70C233360304600F0B8F846
:1007400094E70560D6E700BFF0010020B1F90C2066
:100750002DE9F041170705460C4656D44B68002B8F
:1007600002DC0B6C002B3DDDE66A002E3AD0002344
:1007700012F480522F68216A2B6025D0626DA38904
:10078000580705D56368D21A636B0BB1236CD21A74
:10079000216AE66A00232846B047411C24D0002382
:1007A000636023692360A389DA0400D56065616B07
:1007B0002F60B9B104F14403994202D0284600F0F9
:1007C00017F9002363630DE001232846B047461C58
:1007D0000246D4D12B68002BD1D01D2B01D0162B73
:1007E0002BD12F6000202FE02A68B4F90C3042B1E1
:1007F0001D2A01D0162A22D10023636023692360B9
:10080000D5E7626022692260CEE70F69002FE9D048
:1008100093070E6808BF4B690F6018BF0023A6EB53
:1008200007088B60B8F1000FDCDD216AA66A434639
:100830003A462846B047002808DCB4F90C3043F0AB
:100840004003A3814FF0FF30BDE8F0810744A8EBDF
:100850000008E7E738B50B6905460C4613B90025D3
:10086000284638BD18B1036A0BB9FFF767FEB4F923
:100870000C30002BF3D0626ED00704D4990502D45B
:10088000A06DFFF7BEFE28462146FFF75FFF636EAF
:10089000DA070546E4D4A3899B05E1D4A06DFFF7F0
:1008A000B1FEDDE70148FFF7ACBE00BFE801002064
:1008B0000148FFF7A7BE00BFE801002010B50C46B5
:1008C000B1F90E1000F060F80028ABBF636DA3898A
:1008D0001B1823F48053ACBF6365A38110BD2DE9C1
:1008E000F0411F468B89DB0505460C46164605D5AB
:1008F000B1F90E100223002200F034F8A389B4F9F4
:100900000E1023F48053A38132463B462846BDE8AF
:10091000F04100F05BB810B50C46B1F90E1000F0D4
:1009200021F8431CA38915BF606523F4805343F469
:100930008053A38118BFA38110BDB1F90E1000F040
:1009400001B8000038B5064D0023044608462B6068
:1009500004F0D8FC431C02D12B6803B1236038BDDE
:10096000F401002038B5074D044608461146002220
:100970002A601A4604F0DEFC431C02D12B6803B146
:10098000236038BDF401002038B5074D0446084601
:10099000114600222A601A4604F0D4FC431C02D1FE
:1009A0002B6803B1236038BDF401002038B5064D33
:1009B0000023044608462B6004F0CCFC431C02D103
:1009C0002B6803B1236038BDF401002038B5074D12
:1009D00004460846114600222A601A4600F06CF8C8
:1009E000431C02D12B6803B1236038BDF401002001
:1009F00038B50546002941D051F8043C0C1F002BA6
:100A0000B8BFE418FFF74EFF1D4A136833B963609F
:100A100014602846BDE83840FFF74ABFA34208D912
:100A2000206821188B4201BF19685B680918216092
:100A3000EDE71A465B680BB1A342FAD9116850186A
:100A4000A0420BD120680144501883421160E0D1CC
:100A500018685B68536008441060DAE702D90C2319
:100A60002B60D6E7206821188B4204BF19685B68A9
:100A7000636004BF091821605460CAE738BD00BF35
:100A8000F001002008B50A480A4B03604FF4E13337
:100A9000436000238360C36003610C224261836171
:100AA000C36100F06BFF08B172B6FEE708BD00BF7E
:100AB000F80100200044004010B514464FF0FF3309
:100AC00092B2024800F089FF204610BDF8010020D4
:100AD00008B5FFF7D7FF034804F0E8F801F03CFA47
:100AE00008BD00BFB053000882B0002100910B4B3D
:100AF0005A6C42F480425A645A6C02F4804200926A
:100B0000009A01911A6C42F080521A641B6C03F037
:100B100080530193019B02B0704700BF0038024030
:100B200010B588B0002303930493059306930793AD
:100B30000268184B9A4201D008B010BD00240194FD
:100B400003F5FA331A6C42F400321A641A6C02F498
:100B500000320192019A02941A6B42F001021A6368
:100B60001B6B03F001030293029B0C2303930223EC
:100B70000493032306930723079303A9064800F071
:100B800053F922462146262000F0BEF8262000F028
:100B9000CBF8D1E70044004000000240FEE7FEE74A
:100BA000FEE7FEE7FEE770477047704708B500F0C4
:100BB00053F808BD08B5024801F006F808BD00BFAB
:100BC000F8010020034AD2F8883043F47003C2F8D9
:100BD0008830704700ED00E010B504460E4B1A78DF
:100BE0004FF47A73B3FBF2F30C4A1068B0FBF3F0E6
:100BF00000F0A8F868B90F2C01D901200AE0002202
:100C000021464FF0FF3000F07FF8054B1C600020BC
:100C100000E0012010BD00BF600000205C0000204B
:100C20006400002008B50B4B1A6842F400721A6089
:100C30001A6842F480621A601A6842F480721A607C
:100C4000032000F04FF80F20FFF7C6FFFFF74CFF1F
:100C5000002008BD003C0240034A1168034B1B788A
:100C60000B441360704700BF3C020020600000206E
:100C7000014B1868704700BF3C020020002808DBC9
:100C80000901C9B200F1604000F5614080F800132D
:100C9000704700F00F000901C9B2014B19547047A9
:100CA00014ED00E000B500F00700C0F1070CBCF146
:100CB000040F28BF4FF0040C031D062B0FD9C31ED1
:100CC0004FF0FF3E0EFA0CF021EA000199400EFAB7
:100CD00003FE22EA0E0241EA02005DF804FB002353
:100CE000EEE70000074AD36823F4E0631B041B0C03
:100CF000000200F4E060034343F0BF6343F40033B9
:100D0000D360704700ED00E010B50446054BD8688D
:100D1000C0F30220FFF7C6FF01462046FFF7AEFFF3
:100D200010BD00BF00ED00E0002807DB00F01F024F
:100D3000400901239340024A42F82030704700BF27
:100D400000E100E00138B0F1807F0BD24FF0E023EA
:100D50005861054AF02182F823100020986107228B
:100D60001A6170470120704700ED00E070B504463D
:100D7000866DFFF77DFF94F83530DBB2022B06D08D
:100D800080236365002384F83430012070BD05465C
:100D90002268136823F0160313602268536923F056
:100DA00080035361236CE3B12268136823F00803C6
:100DB00013602268136823F00103136023681B6823
:100DC00013F0010F11D0FFF753FF431B052BF5D98B
:100DD00020236365032084F83500002384F8343031
:100DE000D4E7A36C002BDFD1E3E7E26D3F23934010
:100DF000B360012384F83530002084F83400C5E75F
:100E000090F83530DBB2022B03D0802343650120FC
:100E10007047052380F835300268136823F001031A
:100E2000136000207047000000230F2B00F2E380C6
:100E300070B582B065E085684FEA430E032404FA7A
:100E40000EF425EA0405CC6804FA0EF42C43846001
:100E5000446824EA02044A68C2F300129A4022431A
:100E600042605CE0DC08083450F8242003F00705F9
:100E7000AD004FF00F0E0EFA05FE22EA0E0E0A69C3
:100E8000AA4042EA0E0240F824205CE0062200E07C
:100E9000002202FA0EF22A430234574D45F824206C
:100EA000564A14686FEA0C0224EA0C054E6816F4E0
:100EB000803F01D04CEA0405504C2560646802EA8A
:100EC00004054E6816F4003F01D04CEA04054B4C73
:100ED0006560A46802EA04054E6816F4801F01D01C
:100EE0004CEA0405454CA560E46822404D6815F4C1
:100EF000001F01D04CEA0402404CE26001330F2B8A
:100F000077D801229A400C6804EA020C32EA040401
:100F1000F4D14C6804F00304013C012C8BD94A68DD
:100F200002F00302032A09D0C4685D000322AA402C
:100F300024EA02048A68AA402243C2604A6802F096
:100F40000302022A8ED004684FEA430E032202FAFB
:100F50000EF224EA02044A6802F0030202FA0EF2D8
:100F6000224302604A6812F4403FC7D00022019237
:100F7000234A546C44F480445464526C02F480421A
:100F80000192019A9C08A51C1B4A52F8255003F0B7
:100F9000030E4FEA8E0E0F2202FA0EF225EA020528
:100FA000184A90423FF474AF02F58062904216D026
:100FB00002F58062904214D002F58062904212D015
:100FC00002F58062904210D002F5806290420ED00D
:100FD00002F5806290423FF459AF072259E701229F
:100FE00057E7022255E7032253E7042251E705227F
:100FF0004FE702B070BD704700380140003C01402F
:1010000000380240000002400AB1816170470904C3
:1010100081617047002800F09B8070B50D46044642
:101020004F4B1B6803F00F038B4208D2CBB24C4AE4
:101030001370136803F00F038B4240F08B8023681A
:1010400013F0020F17D013F0040F04D0454A936831
:1010500043F4E0539360236813F0080F04D0414A2F
:10106000936843F4604393603E4A936823F0F0032F
:10107000A1680B439360236813F0010F32D06368BB
:10108000012B21D09A1E012A25D9364A126812F066
:10109000020F61D033498A6822F0030213438B6048
:1010A000FFF7E6FD06462F4B9B6803F00C036268D2
:1010B000B3EB820F16D0FFF7DBFD801B41F28833C4
:1010C0009842F0D9032042E0264A126812F4003F09
:1010D000E0D101203BE0234A126812F0007FD9D111
:1010E000012034E01E4B1B6803F00F03AB4207D90D
:1010F000EAB21B4B1A701B6803F00F03AB422DD1F1
:10110000236813F0040F06D0164A936823F4E053C3
:10111000E1680B439360236813F0080F07D0114A6E
:10112000936823F46043216943EAC103936000F0AC
:1011300047F80C4B9B68C3F303130B4AD35CD840AE
:101140000A4B18600A4B1868FFF746FD002070BD77
:10115000012070470120FAE70120F8E70120F6E7B7
:10116000003C024000380240DC5300085C000020D4
:1011700064000020014B1868704700BF5C0000202D
:1011800008B5FFF7F7FF044B9B68C3F38223034ABC
:10119000D35CD84008BD00BF00380240D4530008DB
:1011A00008B5FFF7E7FF044B9B68C3F34233034ADC
:1011B000D35CD84008BD00BF00380240D4530008BB
:1011C00008B5464B9B6803F00C03082B07D00C2B8B
:1011D00045D0042B01D0424808BD4248FCE73F4BB4
:1011E0005A6802F03F025B6813F4800F12D03B4B49
:1011F0005968C1F388113B480023A1FB0001FFF7A8
:1012000037F8364B5B68C3F3014301335B00B0FB37
:10121000F3F0E1E7314B5868C0F388104FEA401C07
:10122000BCEB000C6EEB0E0E4FEA8E1343EA9C6390
:101230004FEA8C11B1EB0C0163EB0E03DB0043EAC8
:101240005173C90011EB000C43F100039902002314
:101250004FEA8C2041EA9C51FFF70AF8D1E71F4B77
:101260005A6802F03F025B6813F4800F10D01B4BEA
:101270005968C1F388111B480023A1FB0001FEF748
:10128000F7FF164B5B68C3F30273B0FBF3F0A3E701
:10129000124B5868C0F388104FEA401CBCEB000C9E
:1012A0006EEB0E0E4FEA8E1343EA9C634FEA8C11ED
:1012B000B1EB0C0163EB0E03DB0043EA5173C90091
:1012C00011EB000C43F10003990200234FEA8C203C
:1012D00041EA9C51FEF7CCFFD3E700BF0038024043
:1012E0000024F40040787D01002800F0018270B5F0
:1012F00082B00446036813F0010F41D0994B9B68FC
:1013000003F00C03042B32D0964B9B6803F00C03C4
:10131000082B27D0934B9B6803F00C030C2B59D060
:101320006368B3F5803F5BD0B3F5A02F5ED08D4BE3
:101330001A6822F480321A601A6822F480221A6035
:101340006368002B5CD0FFF793FC0546854B1B6858
:1013500013F4003F14D1FFF78BFC401B6428F5D930
:101360000320CCE17F4B5B6813F4800FD2D07D4B20
:101370001B6813F4003F03D06368002B00F0BA81B0
:10138000236813F0020F60D0764B9B6813F00C0FAC
:101390004AD0744B9B6803F00C03082B3FD0714B71
:1013A0009B6803F00C030C2B69D0E368002B75D00D
:1013B0006D4B01221A60FFF75BFC0546694B1B6809
:1013C00013F0020F61D1FFF753FC401B0228F5D93F
:1013D000032094E1634B5B6813F4800FA0D0C6E751
:1013E000604A136843F480331360A9E75D4B1A68C1
:1013F00042F480221A601A6842F480321A609FE731
:10140000FFF736FC0546574B1B6813F4003FB7D077
:10141000FFF72EFC401B6428F5D903206FE1514BE8
:101420005B6813F4800FBAD14E4B1B6813F0020FA8
:1014300003D0E368012B40F05F814A4A136823F030
:10144000F803216943EAC1031360236813F0080F0E
:1014500049D06369002B33D0434B0122C3F8802E5F
:10146000FFF706FC05463F4B5B6F13F0020F3AD1C6
:10147000FFF7FEFB401B0228F5D903203FE1394B63
:101480005B6813F4800F90D1CEE7364A136823F0DF
:10149000F803216943EAC1031360D6E7324B002207
:1014A0001A60FFF7E5FB05462E4B1B6813F0020F91
:1014B000CBD0FFF7DDFB401B0228F5D903201EE14E
:1014C000294B0022C3F8802EFFF7D2FB0546254B9F
:1014D0005B6F13F0020F06D0FFF7CAFB401B022818
:1014E000F5D903200BE1236813F0040F76D01D4BD0
:1014F0001B6C13F0805F33D100230193194B1A6CDE
:1015000042F080521A641B6C03F080530193019BDC
:101510000125164B1B6813F4807F29D0A368012B8B
:101520003AD0052B3ED00F4B1A6F22F001021A67FA
:101530001A6F22F004021A67A368002B3CD0FFF751
:1015400097FB0646074B1B6F13F0020F45D1FFF7C1
:101550008FFB801B41F288339842F3D90320CEE001
:101560000025D6E7003802400000474200700040E6
:101570006B4A136843F480731360FFF779FB0646E8
:10158000674B1B6813F4807FC8D1FFF771FB801B8A
:101590000228F5D90320B2E0624A136F43F0010339
:1015A0001367C9E75F4B1A6F42F004021A671A6F9C
:1015B00042F001021A67BFE7FFF75AFB0646594B94
:1015C0001B6F13F0020F08D0FFF752FB801B41F294
:1015D00088339842F3D9032091E0EDB9A369002B39
:1015E00000F08C804F4A926802F00C02082A54D016
:1015F000022B17D04C4B00221A66FFF739FB04462A
:10160000484B1B6813F0007F45D0FFF731FB001BF0
:101610000228F5D9032072E0424A136C23F080536C
:101620001364DBE7404B00221A66FFF721FB0546F7
:101630003C4B1B6813F0007F06D0FFF719FB401BE3
:101640000228F5D903205AE0E369226A1343626A4B
:1016500043EA8213A26A5208013A43EA0243E26A69
:1016600043EA0263226B43EA02732E4A53602E4B15
:1016700001221A66FFF7FCFA04462A4B1B6813F096
:10168000007F06D1FFF7F4FA001B0228F5D90320EA
:1016900035E0002033E0002031E0012B31D0214B38
:1016A0005B6803F48001E26991422CD103F03F02B0
:1016B000216A8A4229D1616A47F6C0721A40B2EBA8
:1016C000811F24D103F44031A26A5208013AB1EBE0
:1016D000024F1ED103F07062E16AB2EB016F1AD1C2
:1016E00003F0E043226BB3EB027F16D1002006E04B
:1016F00001207047012002E0012000E0002002B03C
:1017000070BD0120FBE70120F9E70120F7E7012088
:10171000F5E70120F3E70120F1E70120EFE700BF43
:10172000007000400038024000004742026802F1A9
:101730000C0353E8003F23F490730C3242E800316D
:101740000029F3D1026802F1140353E8003F23F0AB
:101750000103143242E800310029F3D1036B012B5D
:1017600005D0202380F83E300023036370470268D1
:1017700002F10C0353E8003F23F010030C3242E85F
:1017800000310029F3D1ECE790F83D30DBB2212B9A
:1017900001D0022070478368B3F5805F17D0036AD9
:1017A0005A1C02621A7803685A60C38C9BB2013BD0
:1017B0009BB2C3844BB90268D36823F08003D36023
:1017C0000268D36843F04003D36000207047036988
:1017D000002BE4D1036A1B880268C3F3080353603B
:1017E000036A02330362E0E710B504460268136936
:1017F00023F44053C1680B431361836802691A43A1
:1018000043691A43C3691A430168CB6823F416433A
:1018100023F00C031343CB600268536923F4407335
:1018200081690B4353610368314A934206D002F544
:101830008062934202D0FFF7A3FC01E0FFF7B0FC07
:10184000E369B3F5004F29D00021031849411B1863
:1018500041F10001C90041EA5371DB0018186368C7
:101860004FEA83024FEA937341F10001FEF700FD56
:10187000204AA2FB00314909642303FB11031B0129
:101880003233A2FB03235B0903F0F00202EB0112E7
:1018900003F00F03216813448B6010BD002302186E
:1018A00043EB0301121841F10001C90041EA5271F2
:1018B000D200101841F10001626892185B41FEF7F6
:1018C000D7FC0C4AA2FB00314909642303FB110336
:1018D000DB003233A2FB03235B095A0002F4F872E7
:1018E00002EB011203F00703216813448B60D4E775
:1018F000001001401F85EB512DE9F84305460F46C6
:1019000016469946DDF820802B681C6837EA0404E7
:101910000CBF01240024B4422DD1B8F1FF3FF3D015
:10192000B8F1000F05D0FFF7A3F9A0EB090040457F
:10193000EAD92A6802F10C0353E8003F23F4D0737C
:101940000C3242E800310029F3D12A6802F1140375
:1019500053E8003F23F00103143242E8003100292C
:10196000F3D1202385F83D3085F83E30002385F8FB
:101970003C30032000E00020BDE8F88358B310B5E8
:10198000044690F83D300BB3242384F83D302268A0
:10199000D36823F40053D3602046FFF725FF226865
:1019A000136923F4904313612268536923F02A03D7
:1019B00053612268D36843F40053D360002020644D
:1019C000202384F83D3084F83E3010BD80F83C3050
:1019D000FFF7A6F8D8E7012070472DE9F04182B063
:1019E0001E4690F83D30DBB2202B54D104460D4604
:1019F0009046002953D0002A53D090F83C30012B58
:101A000051D0012380F83C3000230364212380F867
:101A10003D30FFF72DF90746A4F82480A4F826806E
:101A2000A368B3F5805F05D04FF00008002384F869
:101A30003C3012E0236913B14FF00008F6E7A846E6
:101A40000025F3E738F8023B2268C3F3080353602C
:101A5000E28C92B2013A92B2E284E38C9BB273B10F
:101A600000963B46002280212046FFF745FFE0B963
:101A7000002DE7D015F8012B23685A60E8E700969F
:101A80003B46002240212046FFF736FF78B920234D
:101A900084F83D3000E0022002B0BDE8F081012072
:101AA000FAE70120F8E70220F6E70320F4E7032035
:101AB000F2E7704708B50168CA6822F04002CA60C0
:101AC000202280F83D20FFF7F4FF002008BD70477A
:101AD000704708B5806B0023C385C384FFF7F8FF08
:101AE00008BD704790F83E30DBB2222B67D1836887
:101AF000B3F5805F4DD0826AB3F5805F04D0002BD0
:101B000054D10369002B51D103685B681370836A59
:101B100001338362C38D9BB2013B9BB2C385002B13
:101B20004FD100B583B00268D36823F02003D3609F
:101B30000268D36823F48073D3600268536923F08A
:101B400001035361202380F83E30036B012B33D116
:101B500000230363026802F10C0353E8003F23F003
:101B600010030C3242E800310029F3D103681A68EF
:101B700012F0100F06D0002201921A6801925B68E1
:101B80000193019B818DFFF7ACFF002003B05DF84E
:101B900004FB0269002AAED1826A03685B68C3F362
:101BA00008031380836A02338362B3E703685B68C8
:101BB00003F07F031370AAE7FFF789FFE5E7022030
:101BC000704700207047000010B582B004460268DC
:101BD0001368D068516913F00F0F09D113F0200F6B
:101BE0000CD010F0200F09D02046FFF77BFF16E045
:101BF00011F0010115D110F4907F12D1216B012950
:101C000079D013F0800F03D010F0800F40F01081D6
:101C100013F0400F03D010F0400F40F00D8102B0E0
:101C200010BD13F0010F06D010F4807F03D0226C9A
:101C300042F00102226413F0040F04D019B1226CA7
:101C400042F00202226413F0020F04D019B1226C98
:101C500042F00402226413F0080F07D010F0200FA6
:101C600000D119B1226C42F008022264226C002AD1
:101C7000D5D013F0200F02D010F0200F29D1236807
:101C80005B6903F04003226C12F0080F00D163B3CC
:101C90002046FFF74BFD23685B6913F0400F20D00F
:101CA000226802F1140353E8003F23F0400314328A
:101CB00042E800310029F3D1A36B73B1604A1A6581
:101CC000A06BFFF79DF80028A9D0A06B036D984783
:101CD000A5E72046FFF706FFD1E72046FFF7F8FE0D
:101CE0009DE72046FFF7F4FE99E72046FFF7F0FE58
:101CF0000023236493E713F0100F82D010F0100F2D
:101D00003FF47FAF0023019313680193536801935D
:101D1000019B536913F0400F50D0A26B13685B68AE
:101D20009BB2002B3FF47BAFA18D99427FF677AF3A
:101D3000E385D369B3F5807F37D0226802F10C03C5
:101D400053E8003F23F480730C3242E8003100294D
:101D5000F3D1226802F1140353E8003F23F001039A
:101D6000143242E800310029F3D1226802F1140351
:101D700053E8003F23F04003143242E800310029C9
:101D8000F3D1202384F83E3000232363226802F13C
:101D90000C0353E8003F23F010030C3242E80031FB
:101DA0000029F3D1A06BFEF7E1FFA18DE38D9BB27B
:101DB000C91A89B22046FFF794FE30E7A18DE38D62
:101DC0009BB2C91A89B2E38D9BB2002B3FF427AFB7
:101DD00000293FF424AF226802F10C0353E8003FCE
:101DE00023F490730C3242E800300028F3D12268CB
:101DF00002F1140353E8003F23F00103143242E8D8
:101E000000300028F3D1202384F83E3000232363E0
:101E1000226802F10C0353E8003F23F010030C3258
:101E200042E800300028F3D12046FFF75AFEF6E6DC
:101E30002046FFF7A9FCF2E62046FFF73BFEEEE660
:101E4000D31A0008DFF834D00D480E490E4A00239B
:101E500002E0D458C4500433C4188C42F9D30B4A5E
:101E60000B4C002301E013600432A242FBD3FEF7C7
:101E7000A9FEFEF7A1FBFEF72BFE70470000022033
:101E8000000000208C000020605E00089000002010
:101E9000B0030020FEE7000030B589B000240394B1
:101EA00004940594069407940194134B1A6B42F022
:101EB00080021A631A6B02F080020192019A029466
:101EC0001A6B42F001021A631B6B03F001030293C9
:101ED000029B0A4D224610212846FFF795F8102351
:101EE0000393012304930594069403A92846FEF75F
:101EF0009BFF09B030BD00BF003802400000024027
:101F000008B5FFF7C9FF024802F0D0FE08BD00BFC8
:101F1000EC53000808B5C02000F08AF90022826165
:101F20000B4901614061C26502660A49C1660267E8
:101F300000F11001C0F8B810C0F8AC2000F1B801F1
:101F4000C0F88C100121C0F8901080F8942008BDD2
:101F5000011F0008FC53000808B50021084601F0E5
:101F6000E7FA08BD7047000000B589B0002106916E
:101F700005910491039102910191012300930B4675
:101F8000034A1268034801F01FF909B05DF804FB29
:101F9000F002002040020020014B03600120704746
:101FA0004002002008B5FFF7B5FF0B4B83605B6E66
:101FB00000F110021A6000224FF00043C0E9142320
:101FC0000023836301220023C0E90A23034A4FF060
:101FD000FF33C0E9082308BD400200200000FFFFD6
:101FE0007047000008B5124801F098FED8B9104AB1
:101FF000136852680F48016840685B1842EB0002A2
:102000000D48016840685B1842EB00020B49086804
:1020100049689842914102DA08490B604A60074BCF
:10202000D3E9000108BD064801F038FDDFE700BF35
:1020300068000020D8020020D0020020C802002042
:102040000054000884B00DF1100C0CE90F0001469B
:10205000019A0498059B814272EB030C09DB8842CC
:1020600093410ADB029A069B9A4208D30AD90120BF
:1020700001E04FF0FF3004B070470120FBE74FF064
:10208000FF30F8E70020F6E7D0E9020170470000D2
:1020900008B5FFF7F9FF034A13685268C01A61EBED
:1020A000020108BD7000002008B5FFF79BFF08BDC6
:1020B00008B5FFF797FF034A13685268C01A61EB2F
:1020C000020108BD700000202DE9F04190B00546E6
:1020D000194652EA010305D01046002907DB002605
:1020E000002418E02F4B1B880380012655E02E4B5F
:1020F0001B8825F8013B0126F2E7671C10AB03EBB8
:10210000C40444F8380C44F8341C4FF47A720023A9
:10211000FEF75EF83C46012871F10003EDDA013C60
:1021200010AB03EBC4014FF47A72002351E90E01A6
:10213000FEF74EF890461F46009201931B4A052178
:10214000284602F063FBB8F1640F77F1000302DB6D
:10215000033503361EE0B8F10A0F77F1000702DB02
:102160000235023616E00135013613E010AB03EB01
:10217000C7014FF47A72002351E90E01FEF728F8E7
:10218000CDE900230A4A0821284602F03FFB043526
:1021900004363C46671E002CE8DC304610B0BDE833
:1021A000F08100BF24540008285400082C54000873
:1021B0003454000810B5C06A01F0A1FB044608B110
:1021C000204610BD2021012002F00EF80446002810
:1021D000F6D1024801F09CFCF2E700BF3C54000835
:1021E00038B504460D460069884201D000F0F6FE7D
:1021F000256138BD70B5144601F0F6FF054660B1A3
:102200004CB10821012001F0EFFF064648B13560CE
:10221000236826607360284670BD044801F078FC8E
:10222000EEE7024801F074FCF1E700BF3C540008FF
:1022300008B50146024A0120FFF7DCFF08BD00BFD8
:10224000E802002080B170B50646046807E0206807
:1022500002F03AF96568204602F036F92C46002C67
:10226000F5D10023336070BD704710B50446FFF709
:10227000E9FF204602F028F910BD000038B5084BF0
:102280001C6807E02068FFF7F0FF6568204602F051
:102290001BF92C46002CF5D1014B00221A6038BDE9
:1022A000E802002082B010B584B0044606A981E897
:1022B0000C0000F118030FCB8DE80F0006AB0FCB1D
:1022C000FFF7C0FE002804DB04B0BDE8104002B0F8
:1022D0007047183406AB0FCB84E80F00F4E770B5F5
:1022E000064600F0F1FEF46B306CB36B834201DA0A
:1022F000746B1846002304E054F823200021117069
:1023000001339842F8DC736CABB1002400E0013477
:1023100006F14405284601F0B3F984420BD2214668
:10232000284601F08EF90028F1D00368002BEED08A
:1023300000221A60EBE70023336470BD82B000B561
:1023400085B006A981E80C0018300FC88DE80F0091
:1023500006AB0FCBFFF776FE0028D4BF002001208C
:1023600005B05DF804EB02B070472DE9F041064678
:102370000D460F6A4C6A57EA040312D1002408E0A4
:102380006B694FF0FF3253F82410304600F0D6FF4F
:102390000134AB69A342F3DCAF6AEC6A57EA040389
:1023A00012D03046FFF706FF804685603046FFF7C3
:1023B0006BFEC01944EB0104C8F80000C8F80440E3
:1023C0004146B06A01F07BFABDE8F08138B50546B8
:1023D000002400E001342B6EA34208DDEB6D53F8BE
:1023E00024100029F6D02846FFF7BFFFF2E738BDDA
:1023F00038B50546002400E00134AB6EA3420DDD84
:102400006B6E53F824100029F6D00B6E002BF3D11D
:102410004FF0FF32284600F091FFEDE738BD38B5A8
:102420000546002400E001342B6FA3420DDDEB6E66
:1024300053F824100029F6D00B6E002BF3D14FF087
:10244000FF32284600F07AFFEDE738BD00000000BB
:1024500008B59FED077B81ED007B00228A60CA6092
:102460000A610A758A61C06A01F029FA08BD00BFD5
:1024700000000000000000002DE9F04F8FB004467E
:102480000D4617469946DDF860B000F1100393E859
:1024900003008DE8030004F108030CCB2046FFF78E
:1024A0004DFF002869D1B9F1000F6EDBBBF1000FC1
:1024B00004D0DBF80C300133CBF80C30002D6CD09D
:1024C0002B7F2BB92B6A6A6ADB191F4642EB09097D
:1024D000A368E26813EB070842EB090AAB6A0393AF
:1024E000EB6A04932046FFF765FE064600238361EE
:1024F000C0F810B0856095F83030002B52D16F6B6A
:10250000EB6A002B55DB2B7FF3B9EFB13B687A68A0
:10251000039913EB0109049942EB01010591C145AF
:1025200071EB0A0110DB95F8381001296FD00229F0
:1025300000F08580A068E1688A4208BF834200F00D
:102540009D80C846DDF814A0C6F80080C6F804A037
:10255000A269E369424573EB0A03C0F2B7806E6378
:102560003146A06A01F0ABF9A06D431CA365002BB6
:10257000C0F2B5800FB0BDE8F08F584600F02EFDD8
:10258000584801F0A7FA0020F4E73A464B4656486F
:1025900001F0A0FA0027B94688E7584600F01EFD72
:1025A0000020E7E7FFF780FD10EB070849EB010A81
:1025B000A5E7CDF81880CDF81CA000230893C6F835
:1025C0000080C6F804A03146A06A01F073F90746FE
:1025D0000028B9D00123089303E0089B0133089336
:1025E0001746BA69002AF8D108AB93E803008DE8D2
:1025F000030006AB0CCB2046FFF7A0FE10B9BE616E
:102600000020B7E731462046FFF722FFF8E7039B9B
:10261000012B049B73F100030BDB3B695B4502D08C
:10262000584600F0DBFC31462046FFF711FF002042
:10263000A0E73946A06A01F03DF90028EDD13868DD
:102640007A68A168E368814273EB020C0CDB9A4262
:1026500008BF884203D0C846DDF814A074E73946A5
:10266000A06A01F027F948B359463846FFF7B8FD8C
:1026700031462046FFF7ECFE00207BE73946A06A92
:1026800001F018F9F0B1D7E90023CDE90A23236955
:1026900001330C930EAB13E903008DE803000AAB82
:1026A0000CCB2046FFF74AFE10B9BE61002061E75F
:1026B00031462046FFF7CCFE00205BE7C846DDF838
:1026C00014A041E7C846DDF814A03DE7584600F0E5
:1026D00085FC31462046FFF7BBFE00204AE7012378
:1026E000A36547E74C54000874540008F0B583B064
:1026F0000646806A01F018F906E029463046FFF7E1
:10270000A7FEB06A01F010F900285BD004684268A7
:10271000B168F3689A4208BF8C4253D1B06A01F0A5
:10272000EEF80546037D33B181690029E5D0306BB1
:1027300001F0C5F8E1E70769002400E00134AB6867
:102740009A69A2420CDD5B6953F8241091F8383085
:10275000002BF3D14FF0FF32304600F0EFFDEDE7F4
:10276000012283F83920A9680B7F2BB18A6ACB6AD2
:10277000012A73F1000017DA3946A86800F094FCCA
:10278000384600F02BFCAB68012283F83920A96998
:1027900011B1306B01F093F829463046FFF758FE2F
:1027A000B06A01F0C1F8AFE7002000903046FFF7B3
:1027B00063FEE1E7B46A306B01F0A1F80146204600
:1027C00001F07DF8306B01F0AFF80028F2D103B0D2
:1027D000F0BD000010B58468C168944271EB030C31
:1027E00004DA8260C3600023036110BD994208BF10
:1027F000944203D1036901330361F6E7014801F014
:1028000087F9F2E7BC54000810B50C464B685960D4
:102810000B6848689847636800225A6010BD2DE92C
:10282000F04F87B08346914605920025A8462F4673
:102830000A463AE06B6A534516D12F4604E04A46F1
:102840002946584600F07AFD0134B369A34214DDED
:10285000736953F82450002DF6D0AF42F4D008F13C
:102860000108B8F1010FE5D0002FE8D04A463946FB
:10287000584600F063FD0027E1E7019903985246AE
:10288000DDF808A00AF1010A136B5B5853450ADD15
:1028900050F82A60002EF5D000240191CDF808A050
:1028A00003909246D1E7049D0135936AAB420ED95D
:1028B000D36AA90053F82530002BF5D01B78002BE4
:1028C000F2D0536B58584FF0000A0495DCE75FB321
:1028D0007B6C002B1ADBFFF7E7FB3B6C7A6C53EA4F
:1028E000020409D0DBF80850DBF80C405B1942EB1E
:1028F000040283428A4109DAFB6C93B178689847F5
:10290000059A39465846FFF78AFF0AE0059C224699
:1029100039465846FFF778FF224639465846FFF7B2
:102920007EFF002387F8483007B0BDE8F08F000035
:1029300070B505460E461A4802F0B8F9194802F07B
:10294000B5F9194802F0B2F9184802F0AFF9184881
:1029500002F0ACF9174802F0A9F9174802F0A6F9FD
:10296000164802F0A3F9164802F0A0F9154802F043
:102970009DF9154802F09AF9144802F097F91448A5
:1029800002F094F9002405E056F82410114802F0F2
:1029900025F90134AC42F7DB0F4802F087F970BD2E
:1029A000FC540008185500083455000874550008F8
:1029B00098550008E45500083456000848560008A9
:1029C00094560008A8560008E4560008F45600087B
:1029D00030570008405700082C5700082DE9F047F1
:1029E00080460F4601240DE0B04554DD023457F80F
:1029F0002650B0492846FDF7B3FC002854D1AE4B11
:102A000001221A70444580F2BD81661C57F824509B
:102A1000AA492846FDF7A4FC0028E5D0A849284685
:102A2000FDF79EFC0028DFD0A6492846FDF798FC5C
:102A300058B1A5492846FDF793FC30B1A349284673
:102A4000FDF78EFC002840F0EE80A31C434539DAE8
:102A500057F82690033457F823A0484602F090F91F
:102A600005460E469A4B1860596050EA010303D19F
:102A700099F80030302B2ED103229649504602F0AF
:102A80001DF990BB944AA5FB025302FB0633904A02
:102A900015605360B6E7914801F000F839464046AA
:102AA000FFF746FF00206EE18D492846FDF758FCF0
:102AB00018B9814B00221A70A4E72946894800F012
:102AC000EDFF9FE7884800F0E9FF39464046FFF7F1
:102AD0002FFF002057E14946844800F0DFFF3946C8
:102AE0004046FFF725FF00204DE104228049504673
:102AF00002F0E4F8D8B9720142EAD5626B015B1BBF
:102B000062EB0602520242EAD3525B025B1946EBC9
:102B10000202900140EA93609901CB1A60EB020037
:102B20005B1946EB00006A4A136050606AE70422B2
:102B30007049504602F0C2F8A8B9730143EAD56360
:102B40006A01521B63EB06039B0043EA92739200F7
:102B5000521946EB0303DB0043EA5273D2005C498F
:102B60000A604B604EE704226349504602F0A6F823
:102B700000283FF447AF03226049504602F09EF818
:102B800060B95F4A0D2305FB03F302FB0633A5FB87
:102B900002252B444E490A604B6033E70422594911
:102BA000504602F08BF868B9574A40F2463305FBAD
:102BB00003F302FB0633A5FB02252B4444490A60BC
:102BC0004B601FE703225149504602F077F868B97D
:102BD0004F4A44F6946305FB03F302FB0633A5FB5F
:102BE00002252B443A490A604B600BE7042249490D
:102BF000504602F063F860B9474A484B05FB03F3BF
:102C000002FB0633A5FB02521344314A15605360A0
:102C1000F8E65146424800F041FF39464046FFF78A
:102C200087FE0020AFE03F492846FDF799FB20B121
:102C30003D492846FDF794FB20BBB0450BDD02342F
:102C400057F826501B492846FDF78AFB60B9374BD9
:102C500001221A70D6E6364800F020FF3946404679
:102C6000FFF766FE00208EE01D492846FDF778FB41
:102C700018B92E4B00221A70C4E629462D4800F0E0
:102C80000DFFBFE62C492846FDF76AFB28B12B490A
:102C90002846FDF765FB002863D1B04552DD0234BC
:102CA00057F82650284601F09BFA002853DD244BA4
:102CB0001860A7E668570008F4020020445700088F
:102CC00048570008985700089C570008A857000864
:102CD00078000020EC57000800CA9A3B50570008C3
:102CE0007057000878570008B4570008D4570008F8
:102CF000F0570008F8570008005800080858000866
:102D0000005847F80C58000800A0B83014580008C4
:102D100000004F9118580008000029F90F26020002
:102D200020580008385800083C580008EC020020E1
:102D300048580008685800088C5800089058000847
:102D4000F0020020114800F0A9FE39464046FFF786
:102D5000EFFD002017E029460D4800F09FFE0120FE
:102D6000A5E70C492846FDF7FBFA08B9344649E6C1
:102D70002946094800F092FE39464046FFF7D8FD43
:102D8000002000E00120BDE8F08700BF9C5800084B
:102D9000C4580008F0580008FC58000810B582B06C
:102DA0000024084B1C60084B1C6001A8FFF7F4F8D6
:102DB000234600E001338342FCDBFFF7F3F802B067
:102DC00010BD00BF080300200403002070B58AB0C6
:102DD00009A8FFF7E1F805460998FFF701F9002473
:102DE00010E041683B4800F075FE0AE00998FFF7E3
:102DF0004FF90B1E33DA099800F0C4F9099B8833A8
:102E000009930134AC4245DA099B5968324800F015
:102E100027FE09980378002BE3D0FFF760FA099B9F
:102E2000986A0028E2D000F03FFD0028DED0099B20
:102E3000986A00F039FD0146284800F04BFE099BD6
:102E4000986A00F071FD0268466825480168436889
:102E5000521A66EB0303234800F03CFEC6E7024625
:102E600001A8FFF731F901A91F4801F0B7FE1C4B7B
:102E70001A685B68012A73F10003BCDBFFF718F9DD
:102E800002460B4601A8FFF71FF901A9174801F0F8
:102E9000A5FEB0E700F0B6F8154B1B68002B07DC69
:102EA000144B1B68002B0CDCFFF7E8F90AB070BD6F
:102EB000114800F00FFE0E4B1968104800F00AFE92
:102EC000EEE70F4800F006FE0A4B19680D4800F0C7
:102ED00001FEE9E744590008245900087059000828
:102EE00070000020B4590008F8590008245A00085E
:102EF0000803002004030020505A0008845A0008E8
:102F0000A45A0008D45A000803688BB110B50446CF
:102F1000084A1368013B136083685B6823B100684B
:102F200098470023236010BD006801F0CDFAF8E750
:102F3000704700BF08030020002841D010B50446A8
:102F4000C3680BB1002010BDFFF7DEFF002000F0CA
:102F500055FAA0B91B4B1B68ABB11A4B186800F0AF
:102F60005DFEB0F5007F1BD22146164B186800F0BD
:102F700081FEC0B92146144800F0ACFD13E01348AF
:102F800000F0C6FDE6E7042000F055FE0D4B18608A
:102F90000028E2D100F036FA0D4800F0B9FDDCE778
:102FA000204601F091FA002000F02CFA20B9094ADD
:102FB0001368013B1360C5E7074800F0A9FDF6E779
:102FC00000207047FC020020505B0008F45A000803
:102FD000185B000804030020905B000868B108B586
:102FE0000146C36823B1013BC360FFF7A5FF08BDDD
:102FF000034800F06FFD0020F9E70020704700BF94
:10300000B45B000838B5002000F0F8F930B9224B65
:103010001868F0B100F038FE05460CE01F4800F0DB
:1030200077FDF4E7284600F05EFE0446C068FFF72F
:10303000D5FF0023E360284600F034FE0028F1DAD3
:10304000284601F041FA144C206800F0E9FD002305
:103050002360134B1868B0B100F016FE044604E07C
:10306000204600F040FE01F02FFA204600F01AFE44
:103070000028F5DA204601F027FA094C206800F014
:10308000CFFD00232360002000F0BCF900B938BD5B
:10309000044800F03DFDFAE7F8020020F45A000869
:1030A000FC020020905B000838B50546C0688842E5
:1030B00008D00C4608B1FFF791FF14B1E368013363
:1030C000E360EC6038BD0000074B186850B110B5E4
:1030D0000469FFF783FF044B1C60034B186800284A
:1030E000F6D110BD704700BF0003002008B5D0F82E
:1030F000840000F0D0FB08BD10B584B00446084B36
:103100000293084B0193084B0093084B084A094966
:103110000A2000F097FBC4F8840004B010BD00BF83
:10312000813900085B3900087D39000875390008CD
:103130006B3900083D390008F0B585B08446144667
:103140001D460A9F0B9E8260C360002303610C4BE7
:103150000FCB0DF1100E0EE90F00002E06DBE41967
:1031600045EB060500940195002302930CF1180C21
:1031700004AB13E90F008CE80F0005B0F0BD00BFF1
:103180009053000810B50446C06D01F09DF9606EC3
:1031900001F09AF9E06E01F097F9606F01F094F98F
:1031A000606B01F091F9E06B01F08EF9A06A00F01C
:1031B00072FBE06A00F06FFB206B00F06CFB2046B6
:1031C000FFF794FF10BD00002DE9F04F85B00446D5
:1031D0001E46DDF83890DDF83C80109D119F41605F
:1031E000474B00F1180C0FCB8CE80F0026664021EE
:1031F000304600F0F9FFE065424E3146003818BF16
:10320000012000F091FCC4F868906821484600F065
:10321000EBFF60663146003818BF012000F084FCE7
:10322000C4F870806821404600F0DEFFE066314659
:10323000003818BF012000F077FCA56768212846F8
:1032400000F0D2FF60673146003818BF012000F05F
:103250006BFCA763002525640421384600F0C4FFF9
:1032600060633146401B18BF012000F05DFC042163
:10327000384600F0B9FFE0633146401B18BF01201B
:1032800000F052FC4FF0010BC4F858B01E4F1F4E17
:10329000DFF884A0CDF808A0DFF88090CDF8049086
:1032A000DFF87C80CDF800803B46324618490A2082
:1032B00000F0C8FAA062CDF808A0CDF80490CDF8CF
:1032C00000803B46324613490A2000F0BBFAE06218
:1032D000CDF808A0CDF80490CDF800803B463246EA
:1032E0000C490A2000F0AEFA2063C4F88050204652
:1032F000FFF702FF84F800B0284605B0BDE8F08F64
:1033000090530008E85B000871390008653900082F
:103310003D39000849390008833900084D39000853
:10332000793900080449097809B10020704708B5C7
:1033300000F044FD08BD00BFF402002008B591F87C
:10334000383003B108BD012381F83830D0F884004B
:1033500000F0B5FA0028F5D0014800F0D9FBF1E7FC
:10336000F85B000870B584B005460CE000222146E9
:103370002846FFF749FA002221462846FFF74FFA70
:10338000002384F83830D5F8840000F08DFA20B39B
:10339000D5F8840000F0B3FA0446022380F83830F0
:1033A000436C002BE2DBFEF77FFE236C626C53EA7A
:1033B000020C07D0AE689B19EE6842EB060283420E
:1033C0008A41D3DAE36C002BDAD060689847002298
:1033D00021462846FFF723FAD2E705F118030FCB61
:1033E0008DE80F00083595E80F00FEF72BFE00284A
:1033F00002DA012004B070BD0020FBE708B500F040
:10340000C1FC08BD08B500F0C9FC08BDF0B58DB021
:103410000446FFF7F3FF002851D1A06A00F084FAB8
:1034200005463F4B0DF1100C0FCB8CE80F00002D23
:1034300049D02A686B6804920593A068E1688B42C2
:1034400008BF824255D00023069306AB93E80300E1
:103450008DE8030004AB0CCB2046FEF76FFF28B1CC
:1034600004AD04F118030FCB85E80F00DDE9046714
:1034700032463B462046FFF755FF00283DD13246F5
:103480003B462046FFF7A6F904F118030FCB8DE861
:103490000F0004F108030FCBFEF7D4FD002836DA45
:1034A0002046FEF71CFF2046FFF720F92046FFF7D5
:1034B000A9FF80BB2046FFF755FF0DB0F0BD1948AE
:1034C00000F026FBA9E7184B1B78002BBDD1D4E9EF
:1034D0000223CDE90823236901330A930CAB13E9D6
:1034E00003008DE8030008AB0CCB2046FEF7DAFEA4
:1034F000ABE7236901330693A7E72046FFF782FF76
:1035000008B90120D9E7094800F002FBF9E7204695
:10351000FEF785FFC4E7054800F0FAFACAE700BFE6
:10352000A0530008F45A0008EC020020905B000849
:1035300030B587B004460D46FEF714FD00F0C0FC20
:103540002E4B19682E4B1868FFF748FA002852D006
:1035500029462046FFF742FA00284CD0294800F0BF
:1035600039FE00283FD1FEF7FFFC05A8FEF714FD49
:1035700002462549012814BF0020012000F0D4FA9A
:10358000FFF70CFCFEF790FD02460B461F490A6050
:103590004B601F49D1E90001CDE900010598FFF713
:1035A000CBFD1C4B01221A700598FEF721FF0598F0
:1035B000FEF70CFF059C04F118030FCB8DE80F00FC
:1035C00004F108030FCBFEF73DFD00280FDA059844
:1035D000FFF7C8FE20B10598FFF718FF0028FAD1C1
:1035E000002007B030BD0C4800F074FABBE7059826
:1035F000FEF715FFEBE74FF0FF30F2E7E0020020A7
:10360000E4020020CD2D0008505C0008700000206E
:1036100078000020ED020020245C000801B970470A
:1036200070B5044646680068361A8D00294601F0D8
:1036300021F9002323612060064466602844A060CD
:1036400070BD38B504460A460168950001EB820357
:1036500004334068834200D963606068A36898427D
:103660000BD3E0680130E0605B1A591000E04900BC
:103670009142FCD92046FFF7D1FF2068284438BD8D
:1036800043680068181A801070472DE9F8430368F2
:10369000B3EB410F1AD904464D006E1CB34216D944
:1036A000D0F80C900369426A52F82500984780468A
:1036B0000F462369626A52F82600984702460B4675
:1036C00040463946C84710B1354600E00025284637
:1036D000BDE8F8832DE9F04704460D46436A53F8E8
:1036E000219003694846984780460F466E080CE0D3
:1036F000636A53F8262043F82520A369626A2946A5
:1037000052F82500984735467608012D0BD9D4F894
:103710000CA02369626A52F82600984742463B464D
:10372000D0470028E4D1636A43F82590A36929466D
:10373000484698472846BDE8F0872DE9F0470446FB
:103740000D46436A53F821900369484698478046DE
:103750000F460BE0636A53F8262043F82520A3693F
:10376000626A294652F82500984735462946204680
:10377000FFF78BFF064668B1D4F80CA02369626A94
:1037800052F82000984702460B4640463946D0473B
:103790000028DFD1636A43F82590A369294648468B
:1037A0009847BDE8F08700002DE9F04704460F4632
:1037B000151E34DB002C3FD02368AB423ED9636A30
:1037C00053F825607EB3D4F80CA02369304698479F
:1037D0008146884623693846984702460B46484644
:1037E0004146D047F8B92369304698478146884614
:1037F000236938469847884508BF814504D1E36965
:1038000039463046984738B96D002A463946204631
:10381000FFF7CAFF064640B13046BDE8F0870848CA
:1038200000F076F9C6E70026F6E76A1C394620461E
:10383000FFF7BAFF0646EFE72646EDE70026EBE77F
:103840009C5C00082DE9F8430546894690461F46D2
:10385000282000F031FE0446A8B10135A80000F090
:103860002BFE0646606288B101232360A560656077
:10387000C4F80C90C4F810806761089BA361099B91
:10388000E3610A9B23622046BDE8F883204600F0EE
:103890001BFE3446F7E710B50446406A00F014FEFC
:1038A000204600F011FE10BD10B1006801387047CD
:1038B0000020704708B50122FFF776FF08BDD0B1A0
:1038C00070B50E46044605684268954208D3826882
:1038D0001544A900406A00F0CDFF70B160626560D8
:1038E00021684B1C2360636A43F821602046FFF780
:1038F000F1FE002070BD012070470120FAE710B5ED
:1039000070B10368012B0DD0416A4C68013B036024
:1039100051F823304B600121FFF70FFF204610BD07
:103920000446FBE70024F9E728B10268012A03D026
:10393000436A5868704770470020704782428B4145
:1039400034BF0120002070470020704780688B68DA
:10395000984214BF002001207047814214BF00200C
:1039600001207047D0E900017047D0E90401704799
:10397000C0687047006A7047C16070470162704755
:10398000704770472DE9F04383B080460D461646D8
:103990001F46254B1C68022C03DD002C02DA022492
:1039A00000E002240A9B9C4202DA03B0BDE8F083E7
:1039B0002846FCF7CDFC04463046FCF7C9FC204401
:1039C00000F12009213000F077FD0446174B1B68F9
:1039D000002B0FDB01960095154A494600F016FFB3
:1039E000144B1B686BB1394620469847204600F0BF
:1039F0006BFDDAE700962B460F4A494600F006FFBA
:103A0000EEE7B8F1000F07D00C4B1B683A46214691
:103A1000D86800F047FDE9E7084B1B683A462146A5
:103A2000986800F03FFDE1E780000020840000205E
:103A3000E45C00080C030020DC5C00080C000020A3
:103A400000B583B002460B460221009103490020D5
:103A5000FFF798FF03B05DF804FB00BF7055000846
:103A60000FB400B583B004A951F8040B0191FFF71E
:103A7000E7FF03B05DF804EB04B0704700B583B016
:103A800002460B460021009103490120FFF77AFF0F
:103A900003B05DF804FB00BFF85C00080FB400B58C
:103AA00083B004A951F8040B0191FFF7E7FF03B0BD
:103AB0005DF804EB04B0704700B583B002460B46D6
:103AC000012000900249FFF75DFF03B05DF804FBA1
:103AD000005D00080FB400B583B004A951F8040BD1
:103AE0000191FFF7E9FF03B05DF804EB04B0704704
:103AF00000B583B002460B46002100910349012026
:103B0000FFF740FF03B05DF804FB00BF0C5D000849
:103B10000FB400B583B004A951F8040B0191FFF76D
:103B2000E7FF0120FCF76CFC00B170470EB400B554
:103B300082B004A901910398FFF7DAFF0120FCF796
:103B40005FFC01292DD930B5456801EBC10301EBBC
:103B5000C3032B404FF0FF3E03E003F59C531133AA
:103B60002B40C4684FEA830C54F8232042B18A42A8
:103B70001AD0012AF1D1BEF1000FEEDA9E46ECE731
:103B8000036901330361BEF1000F06DB4369013BAA
:103B9000436144F82E10012007E044F80C10012086
:103BA00003E04FF0FF307047002030BDF8B50369E7
:103BB0004269134407EE903AF8EE677A866807EE9A
:103BC000106AB8EE477ADFED146A27EE267AF4EE33
:103BD000C77AF1EE10FA00DAF8BD0546C768036847
:103BE0000133036001209840A860431E6B600421EC
:103BF00000F0FAFAE86000242C616C6105E057F8E7
:103C000024102846FFF79DFF0134A642F7D8384616
:103C100000F05AFCE0E700BF9A99593F00697047ED
:103C200010B5044618B1C06808B100F04DFC20463C
:103C300000F04AFC10BD38B505461821012000F0FF
:103C4000D3FA044678B10560012303FA05F0A060B9
:103C5000431E6360042100F0C7FA0546E06020B10E
:103C6000002323616361204638BD2046FFF7D8FF5B
:103C70002C46F8E738B50546FFF763FF04462846AB
:103C8000FFF794FF204638BD10B5044608210120F7
:103C900000F0AAFA034618B104604FF0FF32426008
:103CA000184610BD436801680A69CAB110B4844659
:103CB00001338C689C4203D14FF0FF300DE001339B
:103CC0009C4208D9CA6852F82320012AF7D918461D
:103CD000CCF8043001E04FF0FF305DF8044B704742
:103CE0004FF0FF3070470368DB68426853F82200EA
:103CF00070470000074B1B6913F0020F08D0054AFC
:103D0000136923F002031361034A1368013313603C
:103D1000704700BF000C0040100300208446E0B153
:103D20000F4B586A0F4B1A68013A510141EAD061B2
:103D300043011B1A61EB0201890041EA93719B0068
:103D40001B1842EB0102D20042EA5372DB00CCF8AE
:103D50000030CCF80420002070474FF0FF3070474F
:103D6000000C00401003002030B583B005460C461F
:103D70006846FFF7D3FF009BAB42019BA341F7DBF3
:103D800003B030BD044B1B6803B972B6024A136816
:103D9000013313600020704714030020064B1B689A
:103DA00033B1013B044A136023B962B60020704767
:103DB00001207047002070471403002030B583B005
:103DC00014461D466846FFF7A9FF009BE31A019AB7
:103DD00065EB0202012B72F1000122DB0A2B72F16A
:103DE000000218DB114B00221A70FFF7D7FF68465C
:103DF000FFF794FF0D4A12782AB9009AA242019B5C
:103E000073EB050CF3DBFFF7BDFF084B1B7853B9D1
:103E1000002003B030BD20462946FFF7A5FF002053
:103E2000F7E70020F5E74FF0FF30F2E71803002036
:103E300072B6FEE700B595B03422002107A8FCF762
:103E4000B3FB00230293039304930593069300931B
:103E5000194A116C41F080511164126C02F08052C9
:103E60000092009A019315490A6822F4404242F4F4
:103E700080420A600A6802F440420192019A0222DA
:103E8000079201220A9210220B920D9307A8FDF7C8
:103E90002BFA68B90F230293002103910491059135
:103EA000069102A8FDF7B6F820B915B05DF804FB3D
:103EB000FFF7BEFFFFF7BCFF003802400070004074
:103EC00000B583B0FCF7AEFEFFF7B4FF002301930B
:103ED0000E4B1A6C42F008021A641B6C03F00803C4
:103EE0000193019B0A4B01221A600F229A62DA6841
:103EF00042F00202DA60074A4FF4802151606FF00D
:103F000001025A6203B05DF804FB00BF00380240B2
:103F1000000C004000E100E02DE9F047089D0C4650
:103F2000002B4ED194468C458646B2FA82F262D975
:103F30004AB1C2F12003914020FA03F30CFA02FCCB
:103F4000194300FA02FE4FEA1C471FFA8CF6B1FB38
:103F5000F7F44FEA1E4307FB141143EA014304FB45
:103F600006F199420AD91CEB030304F1FF3080F0FB
:103F70001281994240F20F81023C6344591A1FFAA0
:103F80008EF3B1FBF7F007FB101143EA014300FB8E
:103F900006F69E420AD91CEB030300F1FF3180F0C4
:103FA000FC809E4240F2F980634402389B1B40EA49
:103FB000044000211DB1D3400022C5E90032BDE814
:103FC000F0878B4205D90DB1C5E9000100210846F3
:103FD000F5E7B3FA83F1002946D1A34202D3904218
:103FE000C0F0F080861A64EB03030120002DE6D0B8
:103FF000C5E90063E3E7002A40F09080A1EB0C04E0
:104000004FEA1C481FFA8CF70121B4FBF8F64FEA7F
:104010001E4308FB164443EA044307FB06F098429C
:1040200008D91CEB030306F1FF3402D2984200F2D8
:10403000CD8026461C1A1FFA8EF3B4FBF8F008FB5D
:10404000104443EA044300FB07F79F4208D91CEBE6
:10405000030300F1FF3402D29F4200F2B0802046F9
:10406000DB1B40EA0640A5E7C1F120068B4022FA9F
:1040700006F71F4320FA06FC04FA01F343EA0C0397
:10408000F44000FA01F8380C4FEA1349B4FBF0FE93
:104090001FFA87FC00FB1E4449EA04440EFB0CF99E
:1040A000A14502FA01F20AD93C190EF1FF3A80F05B
:1040B0008480A14540F28180AEF1020E3C44A4EB25
:1040C00009041FFA83F9B4FBF0F300FB134449EA37
:1040D000044403FB0CFCA44507D93C1903F1FF3051
:1040E00067D2A44565D9023B3C4443EA0E40A0FB9D
:1040F0000293A4EB0C049C42CE469C4651D34ED076
:1041000055B1B8EB0E0364EB0C0404FA06F6CB4091
:104110001E43CC40C5E90064002150E7C2F12003F2
:1041200020FA03F10CFA02FC24FA03F394400C4346
:104130004FEA1C4800FA02FE1FFA8CF7B3FBF8F0B6
:1041400008FB1031230C43EA014300FB07F19942BD
:1041500008D91CEB030300F1FF362CD299422AD96F
:10416000023863445B1AA4B2B3FBF8F108FB1133C5
:1041700044EA034401FB07F3A34208D91CEB0404FF
:1041800001F1FF3613D2A34211D902396444E41A73
:1041900041EA004139E70446F0E6084606E7C8452B
:1041A000AED2B9EB020E63EB070C0138A8E731463B
:1041B000EDE7034699E73046D4E7D6467FE7634408
:1041C00002384DE70646234608460FE7023E6344A1
:1041D00030E700BF002301461A46184600F0D4BD60
:1041E0000A22002100F0FABB024B0A460146186879
:1041F00000F002B80C00002070B5A1FB02543CB9DD
:104200002946FCF723FA064628B90026304670BD39
:104210000C220260F9E72A462146FCF7C5F9F5E7CA
:104220009368013B002B10B4936008DA9469A342B1
:1042300001DB0A2903D15DF8044B00F0D9BB1368F8
:10424000581C1060197008465DF8044B7047F8B5AB
:1042500006460F461446D518AC4201D1002007E0AF
:1042600014F8011B3A463046FFF7DAFF431CF3D13E
:10427000F8BD00002DE9F04F0D469DB0144698465C
:10428000064618B1036A0BB9FCF758F96B6ED907EB
:1042900005D4AB899A0502D4A86DFCF7B2F9AB89B5
:1042A0001B0701D52B699BB92946304600F0DEFB80
:1042B00070B16B6EDC0704D54FF0FF301DB0BDE868
:1042C000F08FAB899805F7D4A86DFCF79BF9F3E75D
:1042D0000023099320238DF82930CDF80C8030235A
:1042E000DFF8AC818DF82A304FF0010923469A4659
:1042F00013F8012B0AB1252AF9D1BAEB040B0BD024
:104300005B46224629463046FFF7A1FF013000F008
:10431000A780099A5A4409929AF80030002B00F0BD
:104320009F8000234FF0FF32CDE905230AF1010AF7
:10433000049307938DF853301A935446052214F8CA
:10434000011B5348FBF7B4FF049AD8B9D10644BF08
:1043500020238DF85330130744BF2B238DF853309F
:104360009AF800302A2B15D0079A544600204FF0B7
:104370000A0C214611F8013B303B092B4BD9B0B157
:10438000079214E0A0EB080309FA03F31343049324
:10439000A246D2E7039B191D1B680391002BBBBFEC
:1043A0005B4242F0020207930793B8BF049223785E
:1043B0002E2B0AD163782A2B32D1039B1A1D1B683E
:1043C000039243EAE37302340593DFF8D4A0217823
:1043D00003225046FBF76CFF38B1049BA0EB0A00A8
:1043E0004022824013430134049314F8011B2948EE
:1043F0008DF828100622FBF75BFF00283FD0264BE4
:104400001BBB039B073323F0070308330393099B6C
:104410003B4409936AE70CFB02320C460120A8E7F3
:1044200000230134059319464FF00A0C204610F87A
:10443000012B303A092A03D9002BC6D00591C4E7D5
:104440000CFB012104460123F0E703AB00932A464D
:10445000124B04A93046AFF300800746781CD6D132
:104460006B6ED90705D4AB899A0502D4A86DFCF709
:10447000C9F8AB895B063FF51FAF09981EE703AB90
:1044800000932A46054B04A9304600F093F8E4E770
:104490001A5D0008245D0008000000004F4200087B
:1044A000205D000813460A46014602480068FFF7EF
:1044B000E1BE00BF0C000020024B01461868FCF76B
:1044C000C5B800BF0C000020024B01461868FCF77D
:1044D0008FBA00BF0C0000202DE9F0471646984621
:1044E0008A680B69DDF820909342B8BF13463360A9
:1044F00091F8432007460C460AB101333360236824
:10450000990642BF336802333360256815F006050B
:1045100006D104F1190AE36832689B1AAB4226DC23
:1045200094F843302268003B18BF012392062BD435
:1045300004F1430241463846C84701301ED0236883
:10454000226903F00603042B02BFE5683368ED1A05
:10455000A3680CBF25EAE57500259342C4BF9B1AEA
:10456000ED1800261A34B5421AD1002008E00123C4
:10457000524641463846C847013003D14FF0FF301C
:10458000BDE8F0870135C6E7E1185A1C302081F8F4
:104590004300224494F8451082F843100233C7E7E1
:1045A0000123224641463846C8470130E6D001364D
:1045B000D9E700002DE9FF470F7E0C9E782F91462A
:1045C00080460C469A4601F1430207D8622F0AD86A
:1045D000002F00F0DD80582F00F0C38004F1420668
:1045E00084F842703AE0A7F16303152BF6D801A1D5
:1045F00051F823F04D46000861460008DD450008EB
:10460000DD450008DD450008DD450008614600087D
:10461000DD450008DD450008DD450008DD450008F2
:1046200077470008EF4600082F470008DD450008DF
:10463000DD45000899470008DD450008EF46000801
:10464000DD450008DD4500083747000833681A1DBE
:104650001B68326004F1420684F842300123A8E06E
:1046600031682368081D30601E0601D50D6803E01F
:104670005D06FBD5B1F900506168002D78DA2D2078
:10468000002984F84300A1602DDA5E486D420A23B8
:104690001646B5FBF3F103FB1157C75D06F8017D24
:1046A0002F46BB420D46F4D9082B0BD12368DF07F8
:1046B00008D5236961689942DEBF302306F8013CC2
:1046C00006F1FF36921B2261CDF800A04B4603AAEB
:1046D00021464046FFF700FF01306FD14FF0FF3019
:1046E00004B0BDE8F08723F004032360CDE7216820
:1046F0003368080653F8045B02D4490648BFADB2DC
:104700006F2F4048336014BF0A230823002184F828
:1047100043106668A660002EBADB216821F0040110
:104720002160002DB4D1002EB2D11646BCE723681B
:1047300043F0200323603448782784F845702368C9
:1047400031681F0651F8045B02D45F0648BFADB262
:104750003160D90744BF43F0200323601DB110230B
:10476000D4E72848E9E7236823F020032360F6E72D
:1047700024480A23CDE7336825686169181D306035
:104780002E061B6801D5196002E06806FBD519806A
:1047900000232361164697E733681A1D32601E68AE
:1047A000626800213046FBF783FD08B1801B606022
:1047B00063682361002384F8433085E72369324628
:1047C00049464046D047013088D023689B0714D41F
:1047D000E068039B9842B8BF184681E70123324640
:1047E00049464046D04701303FF478AF0135E36891
:1047F00003995B1AAB42F1DCEAE7002504F11906E4
:10480000F5E700BF2B5D00083C5D00080CB430B537
:10481000174B0C1E1D689DB008DA8B232B604FF0E0
:10482000FF301DB0BDE8304002B070474FF4027356
:10483000ADF8143014BF04F1FF33234604930793FB
:104840004FF6FF7302900690ADF81630209A21AB18
:1048500002A92846019300F0B3FB431CBCBF8B2385
:104860002B60002CDDD0029B00221A70D9E700BF1C
:104870000C000020024B0A460146186800F002B8FE
:104880000C0000202DE9F041804615460C4621B968
:10489000BDE8F0411146FBF7D9BE2AB9FCF7A8F8EC
:1048A00000242046BDE8F08100F086FC85420646E3
:1048B00002D8B5EB500FF4D829464046FBF7C6FEA8
:1048C00007460028ECD0B5422A46214628BF32468A
:1048D00000F048FA21464046FCF78AF83C46E0E7FB
:1048E000242B2DE9F0478646904601D8012B06D1AE
:1048F00000F032FA162303600020BDE8F087364846
:104900000D462A4615F8014B065D16F00806F8D14B
:104910002D2C24D12C780126951C2BBB302C30D08B
:104920000A2306F1004C0CF1FF3C0022BCFBF3F91A
:10493000104603FB19CAA4F13007092F28D83C46BA
:10494000A34234DD571C07D081452DD301D1A245A8
:104950002ADB00FB0340012215F8014BEBE72B2C6F
:1049600004BF2C78951CD8E7102BDAD1302CD8D185
:104970002A7802F0DF02582AD3D16C78102302354E
:10498000CFE72B7803F0DF03582BF6D00823C8E7D6
:10499000A4F14107192F01D8373CD1E7A4F16107F1
:1049A000192F04D8573CCBE74FF0FF32D4E7531C04
:1049B00008D12223CEF800306046B8F1000F9CD019
:1049C000691E06E006B14042B8F1000F95D0002AFA
:1049D000F6D1C8F8001090E74E5D000813460A466D
:1049E000014602480068FFF77BBF00BF0C000020B3
:1049F000F8B50E461446054618B1036A0BB9FBF725
:104A00009DFDA369A360A3891A0701D5236943B952
:104A10002146284600F02AF818B14FF0FF373846F3
:104A2000F8BD23682269981A6369F6B28342374653
:104A300005DC21462846FBF70DFF0028EDD1A368D1
:104A4000013BA36023685A1C22601E706269431CEC
:104A50009A4204D0A389DB07E1D50A2EDFD1214693
:104A60002846FBF7F7FE0028D9D0D6E738B5294B02
:104A7000054618680C4618B1036A0BB9FBF75EFDD2
:104A8000B4F90C30190722D4DA0607D409222A60B7
:104A900043F04003A3814FF0FF3033E0580712D5B5
:104AA000616B41B104F14403994202D02846FBF7FF
:104AB0009FFF00236363A38923F02403A3810023C2
:104AC000636023692360A38943F00803A3812369FA
:104AD0004BB9A38903F42073B3F5007F03D02146BB
:104AE000284600F03FF8B4F90C3013F001020AD068
:104AF0000022A26062695242A261226942B913F0A7
:104B00008000C5D138BD990758BF6269A260F4E73B
:104B10000020F7E70C00002070B50C46B1F90E102C
:104B2000002996B015461E460DDAA38913F0800FB2
:104B30004FF0000114BF40234FF480630020316028
:104B40002B6016B070BD6A4600F0E4F80028ECDB7C
:104B5000019901F47041A1F50053594259414FF4B4
:104B60008063EBE78B89F7B59D0706460C4607D5B2
:104B700004F14703236023610123636103B0F0BDA7
:104B800001AB6A46FFF7C8FF009F0546394630462D
:104B9000FBF75CFD48B9B4F90C309A05EED423F06C
:104BA000030343F00203A381E2E7A389206043F0FB
:104BB0008003A381019BC4E904075BB1B4F90E1023
:104BC000304600F0B9F828B1A38923F0030343F07D
:104BD0000103A381A3891D43A581CFE70FB407B5C6
:104BE000064904AB086853F8042B81680193FFF76A
:104BF00041FB03B05DF804EB04B070470C000020EB
:104C0000036A70B5846805460E460BB9FBF796FC3F
:104C1000636EDB0705D4A389980502D4A06DFBF76A
:104C2000F0FCA389190702D52369002B35D1214651
:104C30002846FFF71BFF80B34FF0FF35636EDA079E
:104C400005D4A3899B0502D4A06DFBF7DBFC2846A5
:104C500070BD002B15DB23685A1C22601970A368F5
:104C600016F8011F013BA3600029F2D1002B16DAD0
:104C700022460A212846FFF7BBFE0130DCD00A2578
:104C8000DCE7A2699A4201DC0A29E4D122462846DF
:104C9000FFF7AEFE0130E2D1CEE7013EDFE7236849
:104CA0005A1C22600A221A70E9E70000024B0146F2
:104CB0001868FFF7A5BF00BF0C00002010B56AB14F
:104CC0000139841810F8012B11F8013F9A4203D1E1
:104CD000A04201D0002AF5D1D01A10BD1046FCE741
:104CE000884210B501EB020402D98442234607D85A
:104CF000431EA14208D011F8012B03F8012FF8E759
:104D0000024401468A4200D110BD13F8014D02F859
:104D1000014DF7E738B5074D002304460846114614
:104D20002B6000F0F7FA431C02D12B6803B123601B
:104D300038BD00BFF401002038B5064D00230446FD
:104D400008462B6000F0EEFA431C02D12B6803B139
:104D5000236038BDF4010020014B1868704700BF84
:104D60000C0000200A44914200F1FF3300D170474B
:104D700010B511F8014B03F8014F9142F9D110BD64
:104D80000A22002100F0B4BA2DE9F843274D074666
:104D9000286891460E469846FBF733FC244A14686F
:104DA0003CB9244B1360244A12B11268C3F888201E
:104DB000204C63681F2B06DD2868FBF723FC4FF0AF
:104DC000FF30BDE8F8832FB3D4F8880068B91B4BD7
:104DD000002BF1D04FF48470FFF76EFB0028EBD06E
:104DE0000023C0E94033C4F88800636840F823908A
:104DF00001229A4000EB8301D0F800311343C0F840
:104E00000031022FC1F8808002BFD0F80431134373
:104E1000C0F80431636828685A1C0233626044F8A1
:104E20002360FBF7EFFB0020CBE700BF88000020EA
:104E3000A80300201C03002000000000B944000863
:104E40002DE9F74FDFF8B8800190D8F80000DFF8BF
:104E5000B4900F46FBF7D5FBD9F8006036B9D8F807
:104E6000000003B0BDE8F04FFBF7CCBB7568D6F887
:104E700088B06C1E013506EB85050BF1800A002C0D
:104E8000EDDB7FB1BBF1000F02D1013C043DF6E741
:104E90005AF82420BA4205D0013C631CA5F1040550
:104EA000F0D1DCE771682A680139A14216BF002100
:104EB00074602960002AE8D073680093BBF1000F8A
:104EC00007D0DBF80011012303FA04FC1CEA010FF0
:104ED00009D190477168009BD9F800209942BBD155
:104EE0009642D2D0B8E7DBF804015BF824101CEA44
:104EF000000F02D101989047ECE708469047E9E798
:104F000088000020A80300202DE9F0478E681F4686
:104F1000BE420B6882460C4690462DD8B1F90C2053
:104F200012F4906F26D06569096905EB4505A3EB7E
:104F3000010905EBD5757B1C4B446D109D4238BFB4
:104F40001D46530527D52946FBF780FB064660B36F
:104F500021694A46FFF706FFA38923F4906343F0D3
:104F60008003A381266165614E44A5EB0905266097
:104F7000A5603E46BE4200D93E46206832464146C4
:104F8000FFF7AEFEA3689B1BA36023683344236036
:104F90000020BDE8F0872A46FFF774FC064600288B
:104FA000E0D121695046FBF723FD0C23CAF80030FD
:104FB000A38943F04003A3814FF0FF30E9E70000ED
:104FC0002DE9F04F98468B891B069DB007460D468C
:104FD000144610D50B6973B94021FBF737FB2860E5
:104FE000286130B90C233B604FF0FF301DB0BDE8A5
:104FF000F08F40236B610023099320238DF8293023
:10500000CDF80C803023DFF89C818DF82A304FF0EA
:10501000010923469A4613F8012B0AB1252AF9D132
:10502000BAEB040B0BD05B46224629463846FFF705
:105030006BFF013000F0A780099A5A4409929AF850
:105040000030002B00F09F8000234FF0FF32CDE9AD
:1050500005230AF1010A049307938DF853301A933C
:105060005446052214F8011B4E48FBF721F9049A17
:10507000D8B9D00644BF20238DF85330110744BF60
:105080002B238DF853309AF800302A2B15D0079A2D
:10509000544600204FF00A0C214611F8013B303BEA
:1050A000092B4BD9B0B1079214E0A0EB080309FA21
:1050B00003F313430493A246D2E7039B191D1B6815
:1050C0000391002BBBBF5B4242F0020207930793A0
:1050D000B8BF049223782E2B0AD163782A2B32D1C1
:1050E000039B1A1D1B68039243EAE3730234059382
:1050F000DFF8C0A0217803225046FBF7D9F838B179
:10510000049BA0EB0A004022824013430134049325
:1051100014F8011B24488DF828100622FBF7C8F864
:10512000002836D0214B1BBB039B073323F007031A
:1051300008330393099B334409936AE70CFB02325B
:105140000C460120A8E700230134059319464FF0CF
:105150000A0C204610F8012B303A092A03D9002BFB
:10516000C6D00591C4E70CFB012104460123F0E7FA
:1051700003AB00932A460E4B04A93846AFF30080D8
:10518000421C0646D6D1AB895B063FF52DAF099888
:105190002CE703AB00932A46054B04A93846FFF7DA
:1051A00009FAEDE71A5D0008245D00080000000020
:1051B000094F0008205D000851F8043C181F002B1F
:1051C000BCBF0B58C01870472DE9F04F85B0904612
:1051D000464A029089461E460D462B4615F8014B5D
:1051E000175D17F00807F8D12D2C41D12C78012735
:1051F0009D1C002E41D1302C4CD00A2607F1004ACC
:1052000007F1FF3B0AF1FF3AF31732465846514681
:105210000393FBF72DF8019200228E468446114637
:105220001046A4F13003092B05D9A4F14103192B31
:1052300037D8A4F137039E423DDD541C15D0844578
:105240007EEB010234D38E4508BF844502D1019A1A
:105250009A422DDB039A714300FB0211A6FB000268
:105260000A44181842EBE371012215F8014BD8E704
:105270002B2C04BF2C789D1CBBE7102EBED1302CEC
:10528000BCD12B7803F0DF03582BB7D16C781026F4
:105290000235B3E72B7803F0DF03582BF6D008264E
:1052A000ACE7A4F16103192B05D8A4F15703C2E7B9
:1052B0004FF0FF32D9E7531C0AD1029A2223136020
:1052C00058465146B8F1000F0AD105B0BDE8F08F3D
:1052D00017B1404261EB4101B8F1000FF5D00AB1BE
:1052E00005F1FF39C8F80090EFE700BF4E5D0008F8
:1052F00013460A46014602480068FFF765BF00BF33
:105300000C000020024B58221A604FF0FF3070470B
:10531000F4010020024B58221A604FF0FF30704712
:10532000F4010020024B58221A600020704700BF91
:10533000F4010020024B58221A604FF0FF307047F2
:10534000F4010020024B58221A604FF0FF307047E2
:10535000F4010020044A05491368002B08BF0B46DE
:105360001844106018467047AC030020B0030020BA
:10537000FEE700BFF8B500BFF8BC08BC9E4670470A
:0C538000F8B500BFF8BC08BC9E467047A2
:10539000FFFFFFFFFFFFFF7FFFFFFFFF0000000099
:1053A000FFFFFFFFFFFFFF7FFFFFFFFF0000000089
:1053B0002D2D2D2D2D2D2D2D2D2053544D333220BF
:1053C00053544152542D2D2D2D2D2D2D2D2D2D2D60
:1053D0002D200D0000000000010203040000000069
:1053E00000000000010203040607080968656C6CF0
:1053F0006F20776F726C640D000000003F000000AA
:105400004661696C656420746F2072656164207404
:10541000686520706879736963616C20636C6F6381
:105420006B2E0000300000002D000000256C6C6425
:10543000000000002C2530336C6C64004F75742024
:105440006F66206D656D6F72792100006C665F7309
:1054500063686564756C6528292063616C6C65649C
:105460002061667465722073746F70207461672E9A
:10547000000000007363686564756C652063616C8F
:105480006C656420776974682061206E656761745B
:105490006976652065787472615F64656C617920F6
:1054A000256C6C642E205265706C6163696E672098
:1054B00077697468207A65726F2E00005F6C665F92
:1054C000616476616E63655F6C6F676963616C5F71
:1054D00074696D6528293A20417474656D7074652E
:1054E0006420746F206D6F7665207461672062613F
:1054F000636B20696E2074696D652E000A436F6DC1
:105500006D616E642D6C696E6520617267756D6585
:105510006E74733A200A000020202D662C202D2D59
:1055200066617374205B74727565207C2066616CA3
:1055300073655D002020205768657468657220746B
:105540006F207761697420666F7220706879736963
:1055500063616C2074696D6520746F206D61746384
:1055600068206C6F676963616C2074696D652E0AD1
:105570000000000020202D6F2C202D2D74696D65FA
:105580006F7574203C6475726174696F6E3E203C67
:10559000756E6974733E000020202053746F702074
:1055A00061667465722074686520737065636966EE
:1055B00069656420616D6F756E74206F66206C6F15
:1055C000676963616C2074696D652C20776865720A
:1055D0006520756E69747320617265206F6E652039
:1055E0006F6600002020206E7365632C2075736544
:1055F000632C206D7365632C207365632C206D69AB
:105600006E7574652C20686F75722C206461792C1E
:10561000207765656B2C206F722074686520706C34
:105620007572616C73206F662074686F73652E0AE3
:105630000000000020202D6B2C202D2D6B65657047
:10564000616C6976650000002020205768657468E9
:10565000657220636F6E74696E7565206578656329
:105660007574696F6E206576656E207768656E204B
:10567000746865726520617265206E6F206576655D
:105680006E747320746F2070726F636573732E0A6B
:105690000000000020202D772C202D2D776F726BBD
:1056A000657273203C6E3E0020202045786563754E
:1056B00074656420696E203C6E3E2074687265617A
:1056C000647320696620706F737369626C6520284B
:1056D0006F7074696F6E616C206665617475726558
:1056E000292E0A0020202D692C202D2D6964203CB4
:1056F0006E3E0000202020546865204944206F66DB
:10570000207468652066656465726174696F6E20D7
:105710007468617420746869732072656163746F62
:10572000722077696C6C206A6F696E2E0A00000027
:10573000436F6D6D616E6420676976656E3A000037
:10574000257320002D6600002D2D66617374000006
:105750002D2D66617374206E65656473206120620F
:105760006F6F6C65616E2E007472756500000000CD
:1057700066616C7365000000496E76616C69642037
:1057800076616C756520666F72202D2D666173746D
:105790003A202573000000002D6F00002D2D746944
:1057A0006D656F75740000002D74696D656F75749B
:1057B000000000002D2D74696D656F7574206E6595
:1057C0006564732074696D6520616E6420756E690F
:1057D00074732E00496E76616C69642074696D651E
:1057E0002076616C75653A2025730000736563004F
:1057F0006D73656300000000757365630000000051
:105800006E736563000000006D696E00686F7572ED
:1058100000000000646179007765656B000000009E
:10582000496E76616C69642074696D6520756E6976
:1058300074733A20257300002D6B00002D2D6B65CD
:105840006570616C697665002D2D6B656570616CA6
:10585000697665206E65656473206120626F6F6C88
:1058600065616E2E00000000496E76616C696420EF
:1058700076616C756520666F72202D2D6B65657085
:10588000616C6976653A2025730000002D77000071
:105890002D2D776F726B6572730000002D2D776F61
:1058A000726B657273206E6565647320616E20692A
:1058B0006E746567657220617267756D656E742EB2
:1058C00073000000496E76616C69642076616C75C6
:1058D0006520666F72202D2D776F726B6572733A3B
:1058E0002025732E205573696E6720312E0000002D
:1058F0002D2D726F732D617267730000556E726586
:10590000636F676E697A656420636F6D6D616E6445
:105910002D6C696E6520617267756D656E743A20D5
:10592000257300002D2D2D2D205465726D696E613B
:1059300074696E6720656E7669726F6E6D656E74E0
:10594000202575002D2D2D2D20456E7669726F6EE8
:105950006D656E7420257520776173206E657665A0
:105960007220696E697469616C697A65640000000F
:105970002D2D2D2D205468657265206172652025BE
:105980007A7520756E70726F6365737365642066D7
:105990007574757265206576656E7473206F6E2000
:1059A000746865206576656E742071756575652E01
:1059B000000000002D2D2D2D205468652066697291
:1059C000737420667574757265206576656E7420D3
:1059D0006861732074696D657374616D7020256CE6
:1059E0006C642061667465722073746172742074D3
:1059F000696D652E000000002D2D2D2D20456C6158
:105A000070736564206C6F676963616C2074696D85
:105A1000652028696E206E736563293A2025730A14
:105A2000000000002D2D2D2D20456C6170736564E4
:105A300020706879736963616C2074696D652028D2
:105A4000696E206E736563293A2025730A00000091
:105A50004D656D6F727920616C6C6F636174656404
:105A600020666F72206D657373616765732068616E
:105A700073206E6F74206265656E20667265656462
:105A80002E0000004E756D626572206F6620756E87
:105A90006672656564206D657373616765733A202E
:105AA00025642E004D656D6F727920616C6C6F639B
:105AB0006174656420666F7220746F6B656E73200D
:105AC000686173206E6F74206265656E2066726512
:105AD000656421004E756D626572206F6620756E7B
